:1000000079C1000092C1000090C100008EC10000C3
:100010008CC100008AC1000088C1000086C10000B8
:1000200084C1000082C1000017C300004FC300005C
:100030007CC100007AC1000078C1000076C10000D8
:1000400074C1000072C1000070C100006EC10000E8
:100050006CC100006AC1000068C1000066C10000F8
:1000600064C1000062C1000060C100005EC1000008
:100070005CC100005AC1000058C1000056C1000018
:1000800054C1000052C1000050C100004EC1000028
:100090004CC100004AC1000048C1000046C1000038
:1000A00044C1000042C1000040C10000222C206D6C
:1000B000757374206265203F206F72203D0D0A0029
:1000C000556E6B6E6F776E20636F6D6D616E642021
:1000D0002200222C206D7573742062652030206F01
:1000E0007220310D0A00556E6B6E6F776E2076614F
:1000F0006C75652022000D0A00222C206D7573742A
:10010000206265203020746F20370D0A00556E6B19
:100110006E6F776E2070696E202200222C206D7524
:1001200073742062652041202D20460D0A00556E13
:100130006B6E6F776E20706F7274202200756E7216
:1001400065636F676E697A656420666F726D61744E
:100150002C2033206368617273206D696E20726594
:100160007127640D0A000D0A003E20000D0A546537
:10017000656E7379205553422053657269616C2016
:100180004578616D706C652C2053696D706C6520CD
:1001900050696E20436F6E74726F6C205368656C8B
:1001A0006C0D0A0D0A4578616D706C6520436F6DAA
:1001B0006D616E64730D0A202042303F2020205272
:1001C00065616420506F727420422C2070696E202B
:1001D000300D0A202043323D30202057726974656B
:1001E00020506F727420432C2070696E2031204C97
:1001F0004F570D0A202044363D3120205772697434
:100200006520506F727420442C2070696E20362057
:10021000484947482020284436206973204C4544EB
:100220002070696E290D0A0D0A0000010000D70236
:100230001200020000940243000300009002040137
:100240000309047A02140203090462021603030973
:100250000454020C0C03310032003300340035002A
:1002600000001603550053004200200053006500B3
:100270007200690061006C000000140359006F00F7
:100280007500720020004E0061006D0065000000E6
:100290000403090409024300020100C032090400FA
:1002A00000010202010005240010010524010101E2
:1002B00004240206052406000107058203100040FD
:1002C00009040100020A00000007050302400000C3
:1002D000070584024000001201000202000010C065
:1002E000167A040001010203010001C112018036E7
:1002F0000181360011241FBECFEFDAE0DEBFCDBF93
:1003000011E0A0E0B1E0EEE5F9E002C005900D9249
:10031000A830B107D9F721E0A8E0B1E001C01D92F3
:10032000AC30B207E1F7C8D018C36ACECF93DF93E1
:10033000FC018491EF012196882319F04BD1FE0135
:10034000F8CFDF91CF910895EF92FF920F931F9313
:10035000CF93DF938C01D62FC0E0CD1720F504D1C9
:100360008F3F2FEF9207B1F08D309105E1F08A3089
:100370009105C9F09C01205231092F35310568F7EC
:100380007801EFEFEE1AFE0AF801808323D1CF5FE8
:100390008701E3CFE6D0811102C08FEF05C059D1AC
:1003A00080FDDBCFFACF8C2FDF91CF911F910F9182
:1003B000FF90EF900895CF93DF93633018F48DE3AF
:1003C00091E077C0EC018881EFEBE80FE63060F058
:1003D000EFE9E80FE63040F08EE291E0A7DF888198
:1003E000F9D08BE191E065C029812053283020F4B9
:1003F0008A818F3311F508C08DE091E097DF888105
:10040000E9D089EF90E055C083E0E89FF001112426
:1004100081E090E001C0880F2A95EAF7982F909527
:1004200021A1922391A390A1892311F480E301C01B
:1004300081E3D0D086EF90E03CC0633099F18D33FA
:1004400089F58B81803389F483E0E89FF0011124E2
:1004500081E090E001C0880F2A95EAF791A1982BDE
:1004600091A3809592A1892311C0813399F483E0EF
:10047000E89FF001112481E090E001C0880F2A95E7
:10048000EAF791A1982B91A392A1892B82A3DF91E6
:10049000CF91089586EE90E049DF8B819BD082ED6D
:1004A00090E007C080EC90E041DF888193D08CEA37
:1004B00090E0DF91CF913ACFCF93DF93CDB7DEB706
:1004C000A0970FB6F894DEBF0FBECDBF80E8809333
:1004D000610010926100569A5E9A2AD042D0882319
:1004E000E9F32FEF83ED90E3215080409040E1F756
:1004F00000C00000AED080FFFDCF59D08CE691E067
:1005000015DF89E691E012DF60E2CE0101961CDF83
:10051000182F8F3F79F386E691E008DF612FCE0137
:10052000019649DFEECF8091E80080FFFCCF08956F
:1005300081E08093D70080EA8093D80082E189BD72
:1005400009B400FEFDCF80E98093D8001092E0004E
:1005500010920B01109208018CE08093E2007894D5
:10056000089580910B0108959FB7F89480910B0135
:10057000882369F083E08093E9002BE68091E8000E
:1005800085FD09C082FF03C02093E800F7CF9FBF1D
:100590008FEF9FEF08958091F1002091E80025FDF5
:1005A00003C02BE62093E8009FBF90E00895809160
:1005B0000B01882371F08FB7F89493E09093E900D2
:1005C0002BE69091E80095FF03C02093E800F9CF57
:1005D0008FBF089590910B01992371F09FB7F89404
:1005E00024E02093E90020910901222349F0209181
:1005F000E80025FD03C09FBF8FEF08951092090109
:100600002091E400275E34E04091E80045FD12C0EF
:100610009FBF9091E400291304C081E080930901F9
:10062000EBCF90910B01992339F39FB7F894309356
:10063000E900EACF8093F1008091E80085FD03C0D6
:100640008AE38093E80085E080930A019FBF80E001
:1006500008958091080108951F920F920FB60F928E
:1006600011248F939F938091E1001092E10083FF0A
:1006700011C01092E90091E09093EB001092EC0011
:1006800092E19093ED0098E09093F00010920B01AE
:100690001092080182FF13C080910B01882379F02A
:1006A00080910A01882359F0815080930A018111B9
:1006B00006C084E08093E9008AE38093E8009F917C
:1006C0008F910F900FBE0F901F9018951F920F9251
:1006D0000FB60F921124FF920F931F932F933F9306
:1006E0004F935F936F937F938F939F93AF93BF933A
:1006F000CF93DF93EF93FF931092E9008091E8008E
:1007000083FF12C1F090F1008091F1000091F1009F
:100710009091F10010E0192BC091F1009091F1003F
:10072000D0E0D92B2091F1006091F10092EF9093ED
:10073000E800863009F049C08AE292E044E552E0E0
:10074000FC01A591B4910A171B07D9F4FC0132965C
:10075000A591B491CA17DB07A1F4FC013496459129
:100760005491FC013696849130E0362B2F3F3105B1
:1007700019F010F02FEF30E0281708F4822F3EEF29
:100780000CC0079648175907D9F6CEC0490F511D1E
:10079000891B3093E8008823A9F09091E800292F65
:1007A0002570D9F392FDC3C0982F813108F090E1F4
:1007B000FA01292F222351F364916093F100215013
:1007C0003196F8CF903149F3B2C0853041F48EEFC5
:1007D0008093E800A8DE00680093E300A8C0893099
:1007E00059F5F110A1C000930B011092080110926D
:1007F0000A018EEF8093E80041E089EE92E0409399
:10080000E9009C012F5F3F4FFC0154915093EB0096
:10081000552359F0F90124912093EC009C012D5FA0
:100820003F4F3196E491E093ED004F5F453011F07A
:10083000C901E5CF8EE173C0883049F4F0E8FF12BA
:1008400073C071DE80910B018093F10046C081324C
:1008500079F481EAF81268C066DEE0E0F1E087E052
:1008600091E021912093F1008E179F07D1F735C0B9
:100870008032A9F491E2F91257C08091E80082FF1A
:10088000FCCFE0E0F1E087E091E02091F1002193DE
:100890008E179F07D1F78BEF8093E8001EC082323E
:1008A00039F4E1E2FE1240C0009308013CDE15C0BD
:1008B000811117C038DEF2E8FF120AC0C093E900C8
:1008C0008091EB0085FB882780F91092E90001C038
:1008D00080E08093F1001092F1008EEF8093E800A9
:1008E00026C0982F9D7F9130F9F492E0F9121CC038
:1008F000012BD1F4CF779FEF9C0F9430A8F49EEF9B
:100900009093E800C093E900833071F089E180930F
:10091000EB0081E090E001C0880FCA95EAF7809370
:10092000EA001092EA0003C081E28093EB00FF919D
:10093000EF91DF91CF91BF91AF919F918F917F9177
:100940006F915F914F913F912F911F910F91FF9068
:0E0950000F900FBE0F901F901895F894FFCFD8
:08095E0000E1000000000800A8
:00000001FF
