:100000000C9493020C94B0020C94B0020C94B002C5
:100010000C94B0020C94B0020C94B0020C94B00298
:100020000C94B0020C94B0020C94BD220C94F722F4
:100030000C94B0020C94B0020C94B0020C94B00278
:100040000C94B0020C94B0020C94B0020C94B00268
:100050000C94F1090C94B0020C94B0020C94ED02D3
:100060000C94B0020C94B0020C94B0020C94B00248
:100070000C94B0020C94B0020C94B0020C94B00238
:100080000C94B0020C94B0020C94B0020C94700367
:100090000C94B0020C94B0020C94B0020C94B00218
:1000A0000C94B0020C94B0020C94B002084AD73BF6
:1000B0003BCE016E84BCBFFDC12F3D6C74319ABD37
:1000C00056833DDA3D00C77F11BED9E4BB4C3E915B
:1000D0006BAAAABE000000803F05A84CCDB2D44E4A
:1000E000B93836A9020C50B9918688083CA6AAAA4C
:1000F0002ABE000000803F005E225A225622522271
:100100004E224A22462242223E223A2236223222DF
:100110002E222A22262222221E221A2216221222CF
:100120000E220A2206220222FE21FA21F621F221C3
:10013000EE21EA21E621E221DE21DA21D621D221B7
:10014000CE21CA21C621C221BE21BA21B621B221A7
:10015000AE21AA21A621A2219E219A219621922197
:100160008E218A21862182217E217A217621722187
:100170006E216A21662162215E216E616E00696EC8
:10018000660000407A10F35A00A0724E1809001061
:10019000A5D4E80000E87648170000E40B540200FC
:1001A00000CA9A3B000000E1F50500008096980027
:1001B000000040420F000000A08601000000102750
:1001C00000000000E80300000000640000000000E0
:1001D0000A00000000000100000000002C76D88812
:1001E000DC674F0823DFC1DFAE59E1B1B796E5E325
:1001F000E453C63AE651997696E8E6C28426EB893E
:100200008C9B62ED407C6FFCEFBC9C9F40F2BAA5DA
:100210006FA5F490055A2AF75C936B6CF9676DC172
:100220001BFCE0E40D47FEF520E6B500D0ED902E76
:100230000300943577050080841E080000204E0AD4
:10024000000000C80C333333330F986E1283114112
:10025000EF8D2114893BE65516CFFEE6DB18D184DD
:100260004B381BF77C1D901DA4BBE4242032847204
:100270005E228100C9F124ECA1E53D2700000000C9
:100280000000005F00000007000700147F147F14C7
:10029000242A7F2A1223130864623649552250000B
:1002A00005030000001C2241000041221C0014082C
:1002B0003E081408083E08080050300000080808EE
:1002C0000808006060000020100804023E51494503
:1002D0003E00427F400042615149462141454B3139
:1002E0001814127F1027454545393C4A49493001C9
:1002F000710905033649494936064949291E003620
:100300003600000056360000081422410014141470
:10031000141400412214080201510906324979419E
:100320003E7E1111117E7F494949363E41414122AD
:100330007F4141221C7F494949417F090909013E0A
:100340004149497A7F0808087F00417F41002040E9
:10035000413F017F081422417F404040407F020C12
:10036000027F7F0408107F3E4141413E7F09090919
:10037000063E4151215E7F091929464649494931C6
:1003800001017F01013F4040403F1F2040201F3FAF
:100390004038403F63140814630708700807615130
:1003A000494543007F4141000204081020004141BB
:1003B0007F0004020102044040404040000102046A
:1003C0000020545454787F484444383844444420EE
:1003D000384444487F3854545418087E0901020CAC
:1003E0005252523E7F0804047800447D4000204071
:1003F000443D007F1028440000417F40007C0418E9
:1004000004787C0804047838444444387C14141478
:1004100008081414187C7C08040408485454542018
:10042000043F4440203C4040207C1C2040201C3C99
:100430004030403C44281028440C5050503C446408
:10044000544C44000836410000007F000000413653
:10045000080010080810087846414678000100009E
:1004600009051200020000C6044300030000C20494
:100470000401030904AC04140203090494041603E0
:1004800003090486040C0C033100320033003400ED
:1004900035000000160355005300420020005300B1
:1004A00065007200690061006C00000014035900CF
:1004B0006F007500720020004E0061006D00650045
:1004C00000000403090409024300020100C03209CC
:1004D00004000001020201000524001001052401AE
:1004E0000101042402060524060001070582031009
:1004F000004009040100020A000000070503024051
:100500000000070584024000001201000202000002
:1005100010C0167A040001010203010001C112019A
:1005200080360181360011241FBECFEFDAE0DEBF36
:10053000CDBF12E0A0E0B1E0E6EDFDE402C0059021
:100540000D92A830B107D9F725E0A8E0B2E001C0CC
:100550001D92A33AB207E1F70E9448160C94E926CF
:100560000C940000CF93DF93FC018491EF0121965E
:10057000882321F00E94AC20FE01F7CFDF91CF91BC
:100580000895CF93CFB121E04DE951E060E070E0F4
:1005900085E090E00E94691821E04CEA51E06AE0B1
:1005A00070E085E090E00E94691821E046EB51E0A0
:1005B0006EE170E08AE090E00E94691821E044EC6E
:1005C00051E068E270E085E090E00E9469180E94C6
:1005D0004D16C5FFD7CFCF9108951F920F920FB63A
:1005E0000F9211240F931F932F933F934F935F9379
:1005F0006F937F938F939F93AF93BF93EF93FF93EB
:10060000CF93DF93CDB7DEB72E97DEBFCDBF8FB1CF
:1006100088878FB1898783B18A8783B18B8789B1B6
:100620008C8789B18D8783B18E8787E0EAE8F1E016
:10063000DE01119601900D928A95E1F7BE01685F87
:100640007F4F8E010F5F1F4F20E030E051E0F90136
:10065000E65CFC4F8081880F808380818F7180836E
:100660004081DB019D91BD01892F90E0D8010D9063
:1006700002C0959587950A94E2F78D018170842BCD
:10068000808380818F3129F4F901E553FD4F508338
:1006900007C08081811104C0F901E553FD4F10822C
:1006A0002F5F3F4F2730310591F62E960FB6F89405
:1006B000DEBF0FBECDBFDF91CF91FF91EF91BF9114
:1006C000AF919F918F917F916F915F914F913F91EA
:1006D0002F911F910F910F900FBE0F901F901895A3
:1006E0001F920F920FB60F9211248F939F93AF9387
:1006F000BF938091080290910902A0910A02B091E3
:100700000B020196A11DB11D80930802909309026E
:10071000A0930A02B0930B02BF91AF919F918F916A
:100720000F900FBE0F901F901895CF92DF92EF920F
:10073000FF92CF93DF93609108027091090280913C
:100740000A0290910B02C0919400D09195000E94F2
:10075000C01D20E030E040E857E40E943D1F6B01DF
:100760007C01BE0180E090E00E94C01D9B01AC01B5
:10077000C701B6010E94731C2DEB37E346E054E33A
:100780000E943D1FDF91CF91FF90EF90DF90CF90BF
:1007900008950F931F93809100019091010101979B
:1007A00009F028C1109254031092530385E090E0A1
:1007B000909352038093510310925F031092600351
:1007C000109261031092620380E090E0A0E1B1E436
:1007D0008093630390936403A0936503B0936603CF
:1007E000109256031092550380E090E0AEE9B2E417
:1007F0008093FE029093FF02A0930003B093010345
:1008000080E090E0ACE1B2E48093020390930303B4
:10081000A0930403B09305030E94CC24BC01990F5C
:10082000880B990B0E94C21D20E03EEF4FEF56E46B
:100830000E94181D2DEC3CEC4CE45EE30E943D1F31
:100840002DEC3CEC4CE45EE30E94731C60930603C9
:100850007093070380930803909309030E94CC24AC
:10086000BC01990F880B990B0E94C21D20E03EEF3E
:100870004FEF56E40E94181D2BED3FE049E450E491
:100880000E943D1F9B01AC010E94731C60930A03F0
:1008900070930B0380930C0390930D0380E090E022
:1008A000A0E9B1E48093260390932703A093280343
:1008B000B093290380E090E0A0E7B1E480932A039D
:1008C00090932B03A0932C03B0932D0380E090E032
:1008D000A0E5B1E480932E0390932F03A0933003FF
:1008E000B093310380E090E0A8ECB1E48093320350
:1008F00090933303A0933403B093350380936F0335
:1009000090937003A0937103B093720340E050E0A2
:100910006CE072E440937303509374036093750327
:10092000709376038093770390937803A093790371
:10093000B0937A0340E050E064E372E440937B03B9
:1009400050937C0360937D0370937E0340930E036A
:1009500050930F03609310037093110340E050E035
:1009600060E271E440931203509313036093140305
:100970007093150300E010E020E732E400931603C3
:1009800010931703209318033093190340931A030D
:1009900050931B0360931C0370931D0340E050E0D1
:1009A00068E672E440937F03509380036093810371
:1009B000709382038093830390938403A0938503B1
:1009C000B093860380E090E0A0E9B2E480938703CF
:1009D00090938803A0938903B0938A0380E090E00A
:1009E000A0EFB1E480938B0390938C03A0938D03CD
:1009F000B0938E0380915F0390916003A091610397
:100A0000B09162038093570390935803A0935903C6
:100A1000B0935A038091630390916403A09165039E
:100A2000B091660380935B0390935C03A0935D0396
:100A3000B0935E038091FE029091FF02A0910003AB
:100A4000B09101038093F6029093F702A093F8020D
:100A5000B093F9028091020390910303A0910403E3
:100A6000B09105038093FA029093FB02A093FC02DD
:100A7000B093FD0280E090E0FC01E65CFC4F108248
:100A8000FC01E553FD4F1082019687309105A1F7D7
:100A9000E7E9F3E0A6EDB2E086EF9FEF26EF3FEF48
:100AA000918380839383828311969C938E93139674
:100AB0009C938E9312973496149643E0EB3AF40786
:100AC00069F73093ED022093EC023093EF0220930C
:100AD000EE021092D2021092D3021092D40210921F
:100AE000D5020E9495030E948A1D70939003609323
:100AF0008F0310929603109295030E9495030E9413
:100B00008A1D7093EB026093EA0210922503109203
:100B100024031092920310929103EBE1F2E02BEB8D
:100B200032E080E090E0A0E8BFEB80839183A28375
:100B3000B38384839583A683B78338962E173F07A4
:100B4000A1F71F910F9108950F931F93CF93DF93F8
:100B500001E010E00E9460167D9B13C010920D0210
:100B6000109208021092090210920A0210920B02CF
:100B700010930101009300010E94C903C1E0D0E07D
:100B800002C0C0E0D0E021E044ED51E060E170E05F
:100B90008EE090E00E94691821E040EE51E06AE1A9
:100BA00070E089E090E00E9469180E944D16CD2BFC
:100BB00089F2DF91CF911F910F910895CF9380E833
:100BC00080936100C1E0C09361008FE30E94AC1884
:100BD0000E94DC185298229884B184B951982198C7
:100BE0008598869881988298229A239A14BC84E0EA
:100BF00085BDC0936E001092800080938100C093E9
:100C00006F0078940E9440200E9459208823E1F3CD
:100C10000E94C9030E94C1021092900081E080935B
:100C2000910080937100CF9108958F929F92AF921F
:100C3000BF92CF92DF92EF92FF920F931F93CF93C9
:100C4000DF93CDB7DEB764970FB6F894DEBF0FBE63
:100C5000CDBF809101018F93809100018F938FEE22
:100C600091E09F938F938E010F5F1F4F1F930F9300
:100C70000E94062621E0A80160E070E080E090E09C
:100C80000E94691881E5E82E83E0F82EF701818142
:100C90008F9380818F9384EF91E09F938F931F9325
:100CA0000F930E94062621E0A80160E070E082E137
:100CB00090E00E946918F70183818F9382818F935E
:100CC00089EF91E09F938F931F930F930E940626C5
:100CD00021E0A80160E070E084E290E00E946918E1
:100CE00020E030E040E752E4609117027091180272
:100CF0008091190290911A020E94181D4B015C010B
:100D00000E94FD1D6B017C019B01AC01C501B4017A
:100D10000E94721C20E030E040E752E40E943D1F38
:100D20000E948A1D7F936F93C701B6010E948A1D9E
:100D30007F936F938EEF91E09F938F931F930F9309
:100D40000E94062621E0A80160E070E087E390E0C1
:100D50000E94691801E028E030E044E550E068E0D6
:100D600070E080E090E00E94A1160FB6F894DEBF1C
:100D70000FBECDBF64960FB6F894DEBF0FBECDBFD9
:100D8000DF91CF911F910F91FF90EF90DF90CF9067
:100D9000BF90AF909F908F9008954F925F926F9207
:100DA0007F928F929F92AF92BF92EF92FF920F939A
:100DB0001F93CF93DF93C0E0D0E0CE018A599E4FBE
:100DC0007C0100E010E04E010D2E000CAA08BB08CB
:100DD000F7018081813059F5B801012E000C880B94
:100DE000990B0E94C21D20916303309164034091CE
:100DF0006503509166030E94731C0E948A1D2B019B
:100E00003C01C501B4010E94C21D20915F033091D5
:100E1000600340916103509162030E94731C0E9421
:100E20008A1DDC01CB0141E0B2010E9468160F5F10
:100E30001F4FF5E0EF0EF11C0530110549F6219624
:100E4000C530D10509F0B9CFDF91CF911F910F9136
:100E5000FF90EF90BF90AF909F908F907F906F909A
:100E60005F904F9008954F925F926F927F928F9212
:100E70009F92AF92BF92EF92FF920F931F93CF93E7
:100E8000DF93C0E0D0E0CE01835B9E4F7C0100E0A9
:100E900010E04E010D2E000CAA08BB08F70180815E
:100EA000813059F5B801012E000C880B990B0E9476
:100EB000C21D20910203309103034091040350911D
:100EC00005030E94731C0E948A1D2B013C01C50171
:100ED000B4010E94C21D2091FE023091FF02409198
:100EE0000003509101030E94731C0E948A1DDC01C3
:100EF000CB0141E0B2010E9468160F5F1F4FF5E081
:100F0000EF0EF11C0530110549F62196C530D105CB
:100F100009F0B9CFDF91CF911F910F91FF90EF9022
:100F2000BF90AF909F908F907F906F905F904F9009
:100F300008954F925F926F927F928F929F92AF929D
:100F4000BF92CF92DF92EF92FF920F93CF93DF93F6
:100F5000CDB7DEB7C456D1090FB6F894DEBF0FBEC9
:100F6000CDBF80E1E6E2F3E0DE01119601900D9243
:100F70008A95E1F780E1EFE6F3E0DE01519601901A
:100F80000D928A95E1F780E1EEE0F3E0DE019196C3
:100F900001900D928A95E1F780E1EFE7F3E0DE0141
:100FA000D19601900D928A95E1F780E1E1E4F3E0BA
:100FB000DE01AF5BBF4F01900D928A95E1F780E1B2
:100FC000EBEBF2E0DE01AF5ABF4F01900D928A9534
:100FD000E1F7CE0101967C016E0191E6C90ED11CAC
:100FE000F70164857585868597850E948A1D2B018A
:100FF0003C01F70160857185828593850E948A1D79
:10100000A5966CAF7DAF8EAF9FAFA597F7016481BA
:101010007581868197810E948A1D4B015C01F701D1
:1010200060817181828193810E948A1DDC01CB01E4
:1010300001E09201A3964EAD5FADA397B4010E946B
:10104000A116F0E1EF0EF11CEC14FD0449F6CC59A9
:10105000DF4F0FB6F894DEBF0FBECDBFDF91CF914B
:101060000F91FF90EF90DF90CF90BF90AF909F9047
:101070008F907F906F905F904F9008954F925F9206
:101080006F927F928F929F92AF92BF92CF92DF9298
:10109000EF92FF920F931F93CF93DF9336EDE32EE2
:1010A00032E0F32E47E9C42E43E0D42E00E010E0F6
:1010B00082E0A82E81E0B82E9BE1892E91E0992E46
:1010C00024E3622E21E0722EC0E0D0E0412C512CAE
:1010D000F60180819181863FFFEF9F0781F0F30148
:1010E000E40DF51D2081213051F4F60162817381F8
:1010F0006C0F7D1F41E0840D951D0E946816F7015D
:1011000080819181863FFFEF9F0781F0F401E40D1C
:10111000F51D2081213051F4F701628173816C0F3C
:101120007D1F41E0840D951D0E9468160115110573
:10113000C9F48091EC029091ED02863FFFEF9F078A
:1011400089F0F501E40DF51D2081222359F060910D
:10115000EE027091EF026C0F7D1F41E0840D951D32
:101160000E9468162FEF421A520A85E04816510471
:1011700009F0AECF2196E5E0AE0EB11CF5E08F0E82
:10118000911C25E0620E711CC530D10509F09ECF7F
:101190000F5F1F4F84E0E80EF11CE4E0CE0ED11C7F
:1011A0000530110509F084CFDF91CF911F910F9188
:1011B000FF90EF90DF90CF90BF90AF909F908F9077
:1011C0007F906F905F904F9008958F929F92AF9213
:1011D000BF92CF92DF92EF92FF92CF93DF93CBE15A
:1011E000D2E0C880D980EA80FB8020E030E040E88F
:1011F0005FEBC701B6010E940E1D882391F06C8140
:101200007D818E819F810E948A1D4B015C01C701F7
:10121000B6010E948A1DDC01CB0141E0B4010E94AD
:101220006816289682E0CB3BD807D9F6DF91CF919C
:10123000FF90EF90DF90CF90BF90AF909F908F90F6
:1012400008950E9415060E94CD060C9433079B0159
:1012500043E0359527954A95E1F744E5249F800DB5
:10126000911D1124FC01E555FC4F808190E06770D1
:1012700002C0959587956A95E2F7817008952F923F
:101280003F924F925F926F927F928F929F92AF9216
:10129000BF92CF92DF92EF92FF920F931F93CF9363
:1012A000DF9300D000D0CDB7DEB7CFA8D8AC29AC43
:1012B0003AAC8FA098A4A9A4BAA44BA45CA46DA432
:1012C0007EA4C114D104D1F1E12CF12CC6010D2C66
:1012D000000CAA0BBB0B89839A83AB83BC83D7FE1C
:1012E00009C069817A818B819C810E94C21DA50100
:1012F000940106C020E030E040EA50E4C501B401AA
:101300000E94731C0E948A1D8B01B7010F2C000CD8
:10131000880B990B0E94C21DA30192010E94731CAD
:101320000E948A1DC8010E942709811143C09FEFB6
:10133000E91AF90AA5E0EA16F10489F62114310444
:10134000C1F100E010E06101032C000CEE08FF0881
:10135000B801012E000C880B990B0E94C21DA5013B
:1013600094010E94731C0E948A1D69837A838B8377
:101370009C83121413043CF420E030E040EA50E473
:10138000C301B20106C0C701B6010E94C21DA3017C
:1013900092010E94731C0E948A1D89819A810E9479
:1013A0002709811107C00F5F1F4F0530110581F616
:1013B00001C080E00F900F900F900F90DF91CF91C0
:1013C0001F910F91FF90EF90DF90CF90BF90AF9063
:1013D0009F908F907F906F905F904F903F902F9055
:1013E00008951F920F920FB60F921124CF92DF92A1
:1013F000EF92FF922F933F934F935F936F937F935F
:101400008F939F93AF93BF93EF93FF93CF93DF930C
:10141000CDB7DEB7C857D109DEBFCDBF0E945C2073
:101420008337910509F05BC0C0906303D0906403DB
:10143000E0906503F090660320E030E040EA50E47D
:10144000C701B6010E94731C20E030E040E85FE372
:101450000E94731C20E030E040E452E40E940E1D24
:1014600087FF17C18EE1E1E5F3E0DE01A55ABF4F2A
:1014700001900D928A95E1F71F9281E08F931F9260
:101480001F922DB73EB72E5131090FB6F8943EBFCB
:101490000FBE2DBFADB7BEB711968EE1FE01E55A66
:1014A000FF4F01900D928A95E1F70E943F090FB618
:1014B000F894DEBF0FBECDBF8111EBC020E030E05D
:1014C00040E85FE3C701B6010E94731C60936303A9
:1014D000709364038093650390936603DAC081364A
:1014E0009105A9F520E030E040E85FE360915F03FB
:1014F0007091600380916103909162030E94721C5D
:101500006B017C0120E030E0A9010E94301F181619
:101510000CF0BFC08EE1E1E5F3E0DE01DD96019065
:101520000D928A95E1F71F921F928FEF8F938F9301
:101530008DB79EB74E970FB6F8949EBF0FBE8DBF66
:10154000ADB7BEB711968EE1FE01FD968DC087370F
:10155000910509F04BC020E030E040E85FE3609186
:1015600063037091640380916503909166030E9408
:10157000721C6B017C0120E030E040E051E40E94ED
:10158000301F18160CF085C08EE1E1E5F3E0DE01B6
:101590005F9601900D928A95E1F78FEF8F938F936D
:1015A0001F921F928DB79EB74E970FB6F8949EBFAD
:1015B0000FBE8DBFADB7BEB711968EE1FE017F960F
:1015C00001900D928A95E1F70E943F090FB6F894B9
:1015D000DEBF0FBECDBF81115CC0C0926303D0924D
:1015E0006403E0926503F092660353C0843691056C
:1015F00009F04FC020E030E040E85FE360915F0316
:101600007091600380916103909162030E94731C4A
:101610006B017C0120E030E040EA50E40E94731C42
:1016200020E030E048EA52E40E940E1D87FF31C0FE
:101630008EE1E1E5F3E0DE01119601900D928A95CD
:10164000E1F71F921F921F9281E08F938DB79EB793
:101650004E970FB6F8949EBF0FBE8DBFADB7BEB705
:1016600011968EE1FE01319601900D928A95E1F777
:101670000E943F090FB6F894DEBF0FBECDBF8111A7
:1016800008C0C0925F03D0926003E0926103F092C1
:101690006203C858DF4F0FB6F894DEBF0FBECDBF50
:1016A000DF91CF91FF91EF91BF91AF919F918F917A
:1016B0007F916F915F914F913F912F91FF90EF90AC
:1016C000DF90CF900F900FBE0F901F901895CF9284
:1016D000DF92EF92FF920F931F93840F951FA80143
:1016E0004B5F5F4F4C195D0948175907BCF00596D1
:1016F0008C199D09801791078CF0260F371FC701A1
:1017000005968C199D098217930744F02B5F3F4F74
:101710002C193D0981E02E153F050CF480E01F9146
:101720000F91FF90EF90DF90CF9008958F929F924E
:10173000AF92BF92CF92DF92EF92FF92CF93DF935F
:10174000CDB7DEB7CBA4DCA4EDA4FEA48FA498A8EB
:10175000A9A8BAA820E030E0A901C701B6010E94FB
:10176000301F181684F020E030E0A901C701B6014F
:101770000E940E1D87FF0DC0C12CD12C30E8E32E36
:101780003FEBF32E06C0C12CD12C20E8E22E2FE334
:10179000F22E20E030E0A901C501B4010E94301F03
:1017A000181684F020E030E0A901C501B4010E94C0
:1017B0000E1D87FF0DC0812C912C90E8A92E9FEB68
:1017C000B92E06C0812C912C80E8A82E8FE3B82E6C
:1017D000C501B4010E948A1D7EA76DA7C701B6018D
:1017E0000E948A1D7CA76BA78EE1FE013D96DF015A
:1017F00001900D928A95E1F7DF91CF91FF90EF90E4
:10180000DF90CF90BF90AF909F908F900C943F0946
:10181000CF93DF930E94CC24C0EFD2E0BC01990F9C
:10182000880B990B0E94C21D20E03EEF4FEF56E45B
:101830000E94181D2DEC3CEC4CE45EE30E943D1F21
:101840002DEC3CEC4CE45EE30E94731C6E8B7F8BB2
:10185000888F998F0E94CC24BC01990F880B990B1B
:101860000E94C21D20E03EEF4FEF56E40E94181D7B
:101870002BED3FE049E450E40E943D1F9B01AC0189
:101880000E94731C6A8F7B8F8C8F9D8FDF91CF910D
:1018900008952F923F924F925F926F927F928F9214
:1018A0009F92AF92BF92CF92DF92EF92FF920F93EF
:1018B0001F93CF93DF93CDB7DEB72E970FB6F89473
:1018C000DEBF0FBECDBF9E878D871B018090630357
:1018D00090906403A0906503B090660340905F030E
:1018E0005090600360906103709062036091020306
:1018F0007091030380910403909105030E948A1D57
:1019000069837A838B839C836091FE027091FF02CE
:1019100080910003909101030E948A1D6D837E8354
:101920008F839887C501B4010E948A1D69877A87D1
:101930008B879C87C301B2010E948A1DCC24C3946B
:10194000D12CE980FA800D811E8129853A85AB0171
:10195000B1018D859E850E94670B811197C02D85F1
:101960003E85B901330F880B990B0E94C21DE62EEC
:1019700079838D83192F762F6981982F272F362F02
:10198000492F512FC301B2010E94731C2B013C014E
:1019900020E030E040EA50E40E94731C20E030E098
:1019A00048EA52E40E940E1D87FFD3C020E030E0D9
:1019B00040E85FEBC301B2010E94301F18160CF023
:1019C000C8C0B101330C880B990B0E94C21D362E82
:1019D000272E082FF92EB101272F362F402F5F2DEC
:1019E000C501B4010E94731C4B015C0120E030E092
:1019F00040EA50E40E94731C20E030E044E452E4EA
:101A00000E940E1D87FFA5C020E030E040E051E4B9
:101A1000C501B4010E94301F18160CF09AC0FF9245
:101A20000F932F923F921F933D813F9389818F9314
:101A3000EF922DB73EB72E5131090FB6F8943EBF45
:101A40000FBE2DBFADB7BEB711968EE1E1E5F3E055
:101A500001900D928A95E1F70E94960B0FB6F894CB
:101A6000DEBF0FBECDBF811174C040925F035092A4
:101A700060036092610370926203809263039092AC
:101A80006403A0926503B092660363C0809157031C
:101A900090915803A0915903B0915A0380935F032A
:101AA00090936003A0936103B093620380915B0302
:101AB00090915C03A0915D03B0915E0380936303FA
:101AC00090936403A0936503B093660380915103E0
:101AD0009091520301979093520380935103809108
:101AE000F6029091F702A091F802B091F90280936A
:101AF000FE029093FF02A0930003B0930103809134
:101B0000FA029091FB02A091FC02B091FD02809339
:101B1000020390930303A0930403B09305032E964E
:101B20000FB6F894DEBF0FBECDBFDF91CF911F91EE
:101B30000F91FF90EF90DF90CF90BF90AF909F906C
:101B40008F907F906F905F904F903F902F900C946C
:101B5000080C2E960FB6F894DEBF0FBECDBFDF91F6
:101B6000CF911F910F91FF90EF90DF90CF90BF909A
:101B7000AF909F908F907F906F905F904F903F902D
:101B80002F9008952F923F924F925F926F927F9283
:101B90008F929F92AF92BF92CF92DF92EF92FF927D
:101BA0000F931F93CF93DF93CDB7DEB728970FB670
:101BB000F894DEBF0FBECDBF6091630370916403E4
:101BC00080916503909166030E948A1D7C836B83DC
:101BD00060915F0370916003809161039091620353
:101BE0000E948A1D7E836D8360905303709054031E
:101BF00040909503509096032090510330905203EB
:101C000080912403909125039A838983E7E9F3E087
:101C1000F887EF8326EDA22E22E0B22E36EF832E38
:101C200099249A94EF81F885E280F38000811181F4
:101C3000CC24C394D12C2B813C814D815E8160E00A
:101C400070E080E090E00E94670B882361F0FFEF76
:101C50006F1A7F0A21E0421A5108EF81F8859182BC
:101C6000808293828282F501E280F380008111817B
:101C7000CC24C394D12C2B813C814D815E8160E0CA
:101C800070E080E090E00E94670B882369F0F1E04B
:101C90002F1A310889819A8101979A838983F501E6
:101CA00091828082938282828F8198850496988720
:101CB0008F8394E0A90EB11CEF81F885EB5AF340B5
:101CC00009F0B0CF70925403609253035092960380
:101CD00040929503309252032092510389819A8158
:101CE000909325038093240328960FB6F894DEBFC3
:101CF0000FBECDBFDF91CF911F910F91FF90EF905D
:101D0000DF90CF90BF90AF909F908F907F906F901B
:101D10005F904F903F902F9008954F925F926F92F7
:101D20007F928F929F92AF92BF92CF92DF92EF926B
:101D3000FF92CF93DF93CDB7DEB72E970FB6F8940F
:101D4000DEBF0FBECDBF9E878D87DC018D919D913B
:101D50000D90BC91A02D89839A83AB83BC839C0199
:101D6000AD016091FE027091FF028091000390919D
:101D700001030E94721C4B015C01AD85BE85149667
:101D80008D919D910D90BC91A02D8D839E83AF83ED
:101D9000B8879C01AD0160910203709103038091AB
:101DA0000403909105030E94721C6B017C01A50144
:101DB0009401C501B4010E943D1F2B013C01A70104
:101DC0009601C701B6010E943D1F9B01AC01C301F2
:101DD000B2010E94731C0E94DC1F9B01AC0160E0F9
:101DE00070E080E89FE30E94181D2B013C019B01DD
:101DF000AC01C501B4010E943D1F29813A814B818C
:101E00005C810E94731C4B015C0120E030E048EAD9
:101E100052E40E940E1D87FF64C020E030E040E8DD
:101E20005FE3C501B4010E94301F18160CF059C0C1
:101E3000A3019201C701B6010E943D1F2D813E8181
:101E40004F8158850E94731C6B017C0120E030E0BB
:101E500040E452E40E940E1D87FF43C020E030E0C2
:101E600040EA50E4C701B6010E94301F1816CCF5B5
:101E7000C701B6010E948A1D2B013C01C501B401B6
:101E80000E948A1D69877A878B879C87B201898522
:101E90009A850E942709811124C06D817E818F81DE
:101EA00098850E948A1D89859A850E94270981113B
:101EB00018C069817A818B819C810E948A1DDC0116
:101EC000CB01B2010E94270981110BC0ED85FE856F
:101ED00080829182A282B382C482D582E682F78216
:101EE00017C080E090E0A0E8BFEBED85FE85808321
:101EF0009183A283B38384839583A683B7838091E0
:101F00005503909156030196909356038093550381
:101F10002E960FB6F894DEBF0FBECDBFDF91CF91E6
:101F2000FF90EF90DF90CF90BF90AF909F908F90F9
:101F30007F906F905F904F9008958F929F92AF9295
:101F4000BF92CF92DF92EF92FF92CF93DF93CBE1DC
:101F5000D2E0C880D980EA80FB8020E030E040E811
:101F60005FEBC701B6010E940E1D882309F497C0DC
:101F7000C701B6010E94AA1F6B017C018090FE027E
:101F80009090FF02A0900003B0900103C501B4013E
:101F90000E94AA1F9B01AC01C701B6010E94301F1D
:101FA00087FD76C020E030E040EA50E4C501B4018E
:101FB0000E94731C0E94AA1F9B01AC01C701B601BD
:101FC0000E940E1D87FF64C06C817D818E819F8180
:101FD0000E94AA1F6B017C01809002039090030372
:101FE000A0900403B0900503C501B4010E94AA1F8C
:101FF0009B01AC01C701B6010E94301F87FD48C09C
:1020000020E030E040EA50E4C501B4010E94731CB6
:102010000E94AA1F9B01AC01C701B6010E940E1DC0
:1020200087FF36C08091F6029091F702A091F802E6
:10203000B091F9028093FE029093FF02A0930003F7
:10204000B09301038091FA029091FB02A091FC02EF
:10205000B091FD028093020390930303A0930403C5
:10206000B093050380E090E0A0E8BFEB88839983FC
:10207000AA83BB838C839D83AE83BF8380915503EA
:10208000909156030196909356038093550307C091
:1020900080910E02811103C0CE010E948D0E289600
:1020A00082E0CB3BD80709F054CFDF91CF91FF906E
:1020B000EF90DF90CF90BF90AF909F908F9008955A
:1020C0002F923F924F925F926F927F928F929F9248
:1020D000AF92BF92CF92DF92EF92FF920F931F9336
:1020E000CF93DF93C0900A03D0900B03E0900C03D2
:1020F000F0900D03C701B6010E94131D80900603E6
:1021000090900703A0900803B0900903A5019401E3
:102110000E943D1FEB01182F092FC701B6010E9435
:10212000CE1F2B013C012091FE023091FF02409115
:10213000000350910103F8016C2F7D2F8F2F9E2FEC
:102140000E94731C6B017C0120E030E0A901F801C2
:102150006C2F7D2F8F2F9E2F0E940E1D881F88278A
:10216000881F33243394682F632585E0282E269E0C
:10217000B0011124072E000C880B990B0E94C21D80
:10218000A70196010E94731C20E030E048EA52E467
:102190000E94301F18160CF4C6C020E030E0A901E0
:1021A000C701B6010E940E1D87FDBDC0A3019201AB
:1021B000C501B4010E943D1F2B01782E692E20918C
:1021C0000203309103034091040350910503F3018E
:1021D000752D8F2F9E2F0E94731C4B015C0120E0F8
:1021E00030E0A901F301642D752D8F2F9E2F0E94E1
:1021F0000E1D881F8827881F3826239CB0011124B4
:10220000072E000C880B990B0E94C21DA50194019A
:102210000E94731C20E030E040E452E40E94301F32
:1022200018160CF480C020E030E040E151E4C50114
:10223000B4010E940E1D87FD76C06F927F925F925F
:102240004F920F931F93DF93CF932DB73EB72E512D
:1022500031090FB6F8943EBF0FBE2DBFADB7BEB764
:1022600011968EE1E0EFF2E001900D928A95E1F790
:102270000E94960B2DB73EB72A5D3F4F0FB6F894DC
:102280003EBF0FBE2DBF81114EC01F921F921F92E5
:102290001F920F931F93DF93CF938DB79EB74E97E7
:1022A0000FB6F8949EBF0FBE8DBFADB7BEB71196E7
:1022B0008EE1E0EFF2E001900D928A95E1F70E9445
:1022C000960B2DB73EB72A5D3F4F0FB6F8943EBF31
:1022D0000FBE2DBF811127C06F927F925F924F92E8
:1022E0001F921F921F921F928DB79EB74E970FB6E7
:1022F000F8949EBF0FBE8DBFADB7BEB711968EE1ED
:10230000E0EFF2E001900D928A95E1F70E94960BC2
:102310002DB73EB72A5D3F4F0FB6F8943EBF0FBEB4
:102320002DBF8823A1F0DF91CF911F910F91FF90D6
:10233000EF90DF90CF90BF90AF909F908F907F9065
:102340006F905F904F903F902F900C94080C20E07E
:1023500030E046EA52E4C701B6010E940E1D87FF35
:1023600011C020E030E0A901C701B6010E94301F72
:10237000181644F4C092FE02D092FF02E0920003CD
:10238000F092010320E030E04CE352E4C501B401D7
:102390000E940E1D87FF12C020E030E040E051E4B3
:1023A000C501B4010E94301F181644F48092020344
:1023B00090920303A0920403B0920503DF91CF91A2
:1023C0001F910F91FF90EF90DF90CF90BF90AF9053
:1023D0009F908F907F906F905F904F903F902F9045
:1023E00008958F929F92AF92BF92CF92DF92EF9219
:1023F000FF920F931F93CF93DF930E94CC24BC01D5
:10240000990F880B990B0E94C21D20E03EEF4FEF01
:1024100056E40E94181D20E030E04EE952E40E948C
:102420003D1F0E94AA1F0E948A1D8B010E94CC247E
:10243000BC01990F880B990B0E94C21D20E03EEF52
:102440004FEF56E40E94181D20E030E04CE052E4CB
:102450000E943D1F0E94AA1F20E030E040E051E4AE
:102460000E94731C20E030E040EA50E40E94731C9C
:102470000E948A1DEB01E12CF12C812C912CC12CA6
:10248000D12C5801AE0CBF1CBE016C0D7D1DC501C9
:102490000E942709811108C08FEFC81AD80A85E069
:1024A000C816D10489F703C088248394912C8FEF38
:1024B000E81AF80A85E0E816F10409F78A948928F1
:1024C00009F49BCF1093100200930F02D0931202D5
:1024D000C09311028FE092E0DF91CF911F910F9195
:1024E000FF90EF90DF90CF90BF90AF909F908F9034
:1024F0000895CF93C82F0E94F111FC0140815181B2
:1025000022813381C33421F5E7E9F3E080E090E0F4
:1025100060817181663F7F4FA9F4880F991F880FF2
:10252000991FFC01E956FC4F51834083338322837A
:1025300080919503909196030196909396038093D2
:10254000950310C0019634968530910509F70AC0AD
:10255000C43441F45093ED024093EC023093EF0207
:102560002093EE020E9495030E94AA1F0E948A1DDA
:102570007093900360938F03CF9108952F923F92B1
:102580004F925F926F927F928F929F92AF92BF9283
:10259000CF92DF92EF92FF920F931F93CF93DF932F
:1025A000CDB7DEB72A970FB6F894DEBF0FBECDBF0A
:1025B0008090020390900303A0900403B090050361
:1025C000C501B4010E948A1D7C836B834090FE028A
:1025D0005090FF026090000370900103C301B201AC
:1025E0000E948A1D7E836D8357E9252E53E0352E88
:1025F00026ED32E03A8329831A861986F101E280BA
:10260000F38000811181C12CD12C2B813C814D8123
:102610005E8160E070E080E090E00E94670B8111D5
:102620005BC0E981FA810190F081E02DF887EF83AA
:10263000E981FA81E280F3800F8118852B813C814A
:102640004D815E8160E070E080E090E00E94670B69
:10265000811142C0063F1F4F61F5C301B2010E94C4
:10266000AA1F29853A85220F331F220F331F2A52B2
:102670003D4F3A8329830E948A1DE981FA81718343
:102680006083C501B4010E94AA1F0E948A1DE981CE
:10269000FA817383628380912403909125030196CC
:1026A0009093250380932403109292031092910338
:1026B00013C029853A852F5F3F4F3A87298734E039
:1026C000230E311C89819A8104969A838983E98536
:1026D000FA85359709F092CF0E9495030E94AA1FB0
:1026E0000E948A1D7093EB026093EA022A960FB64D
:1026F000F894DEBF0FBECDBFDF91CF911F910F9138
:10270000FF90EF90DF90CF90BF90AF909F908F9011
:102710007F906F905F904F903F902F900895CF9251
:10272000DF92EF92FF920E9495030E94AA1F0E94DF
:102730008A1D6B017C0180919503909196038530F1
:10274000910594F480918F03909190039601281B3A
:10275000390B2230310551F480910E02811106C0EF
:1027600083E40E94791210C0059721F080910E0237
:10277000882351F00E9495030E94AA1F0E948A1D7F
:102780007093900360938F038091910390919203D3
:10279000892BA9F48091240390912503853091051C
:1027A000D4F48091EA029091EB02C81AD90A33E07E
:1027B000C316D10491F480910E0281110EC081E004
:1027C00090E09093920380939103FF90EF90DF90BD
:1027D000CF900C94BE12059721F080910E028823B1
:1027E00051F00E9495030E94AA1F0E948A1D7093B7
:1027F000EB026093EA02FF90EF90DF90CF90089594
:102800002F923F924F925F926F927F928F929F9200
:10281000AF92BF92CF92DF92EF92FF920F931F93EE
:10282000CF93DF93CDB7DEB762970FB6F894DEBFD4
:102830000FBECDBF8CE0E1E9F1E0DE011196019021
:102840000D928A95E1F7CE0101961C01DE011D96DD
:10285000BE87AD87F101019111911F01D8011C962E
:102860008D919D910D90BC91A02D8F87988BA98BF8
:10287000BA8BF8014480558066807780A30192016D
:10288000BC01CD010E94721C6B017C0120E030E094
:10289000A9010E940E1D882309F440C0D8012D9182
:1028A0003D914D915C91139718966D917D918D910D
:1028B0009C911B970E94721C4B015C0120E030E050
:1028C000A9010E940E1D8823A9F1A5019401C70149
:1028D000B6010E94181D0E94DF1C9B01AC016BED2C
:1028E0007FE089E490E40E94721C6B017C010E94ED
:1028F000131D2DEC3CEC4CE45DE30E943D1F4B01AD
:102900005C01C701B6010E94CE1F2DEC3CEC4CE4EB
:102910005DE30E943D1F6B017C0117C09DECC92E39
:102920009CECD92E9CE4E92E9DE3F92E812C912C70
:1029300054010BC0C12CD12C76018DEC882E8CEC6F
:10294000982E8CE4A82E8DE3B82EA5019401F801F1
:1029500060817181828193810E94731CD8016D9383
:102960007D938D939C931397A501940118966D9177
:102970007D918D919C911B970E94731CF80160873B
:10298000718782879387A3019201C701B6010E94D4
:10299000731CD80114966D937D938D939C93179718
:1029A0002F85388949895A89C701B6010E94731C4D
:1029B000F80164877587868797878D859E85281699
:1029C000390609F047CF62960FB6F894DEBF0FBE06
:1029D000CDBFDF91CF911F910F91FF90EF90DF90CE
:1029E000CF90BF90AF909F908F907F906F905F90AF
:1029F0004F903F902F90089590910E0281E089278B
:102A000080930E02882399F00E94950360931E0321
:102A100070931F0380932003909321031092360339
:102A200010923703109238031092390308950E94D0
:102A30009503609336037093370380933803909324
:102A4000390320911E0330911F03409120035091C0
:102A500021030E94721C9B01AC016091D202709113
:102A6000D3028091D4029091D5020E94731C60938E
:102A7000D2027093D3028093D4029093D50208952A
:102A8000EF92FF920F931F93CF93DF9380915103A7
:102A900090915203892B19F481E080930D0280916B
:102AA0005303909154038330910569F48091550349
:102AB00090915603892B91F484E190E09093560312
:102AC000809355030BC0059749F48091EC029091D7
:102AD000ED020A9619F484E40E9479128091CD02E5
:102AE000813009F45DC08091CE02813009F45BC071
:102AF0008091CF02813009F45BC08091D002813097
:102B000009F459C00091550310915603101611068F
:102B10000CF056C08091D102813009F051C09BE188
:102B2000E92E92E0F92EC0E0D0E020E030E040E86D
:102B30005FEBF70160817181828193810E940E1D9C
:102B4000811126C083E0CC0FDD1F8A95E1F7C55EB9
:102B5000DD4F80915F0390916003A0916103B0917C
:102B6000620388839983AA83BB83809163039091D6
:102B70006403A0916503B09166038C839D83AE834B
:102B8000BF8301501109109356030093550318C0D9
:102B90002196F8E0EF0EF11CC431D10531F610C0DA
:102BA00061E070E00FC060E070E08FEF9FEF0CC05D
:102BB0006FEF7FEF07C060E070E081E090E004C05D
:102BC00060E070E080E090E00E94490C0E94C20D3D
:102BD000C091CB02C13099F480910C0281110FC0D9
:102BE0000E94950320E030E040E050E40E94301F56
:102BF00018162CF40E94FC14C0930C0209C080919A
:102C0000CB02811105C080910C02811110920C023F
:102C1000DF91CF911F910F91FF90EF9008950E9447
:102C2000601680910D0281112BC00E9400140E9439
:102C3000990780910E02811118C00E94950320917E
:102C4000D2023091D3024091D4025091D5020E9419
:102C5000721C60931702709318028093190290936C
:102C60001A020E9460100E949D0F0E9421090E947A
:102C700040150E94E5080E943E080E948F1302C082
:102C80000E94A4050E944D1686B590E00C94D124B4
:102C90000E94DE050E940F16FDCFCF93DF9360E008
:102CA00080E00E94E918CBEAD3E0699181E00E94BC
:102CB0008E1885E0C33AD807C1F7DF91CF91089508
:102CC000EBEAF3E0119285E0E33AF807D9F70895CB
:102CD00084359105A8F56033710590F59B0173E08B
:102CE000359527957A95E1F76770452BA1F044E576
:102CF000429FF001439FF00D11248E0F9F1FFC0196
:102D0000E555FC4F81E090E001C0880F6A95EAF735
:102D10009081892B14C044E5429FF001439FF00D40
:102D200011248E0F9F1FFC01E555FC4F81E090E0C0
:102D300001C0880F6A95EAF7809590818923808386
:102D400008952F923F924F925F926F927F928F924F
:102D50009F92AF92BF92CF92DF92EF92FF920F932A
:102D60001F93CF93DF93CDB7DEB72E970FB6F894AE
:102D7000DEBF0FBECDBF1C013B012A013A83298370
:102D80008417950771F57C836B8329813A816216DC
:102D900073069CF48B819C81281739070CF41AC1A7
:102DA000A8016B817C81C1010E9468162B813C8146
:102DB0002F5F3F4F3C832B83E8CFAB81BC812981C0
:102DC0003A81A217B3070CF405C1A8016B817C817D
:102DD000C1010E9468168B819C8101979C838B8323
:102DE000D4CF89819A816817790751F53A8229826F
:102DF000241435049CF4A981BA814A165B060CF4AC
:102E0000E9C0A801B30189819A810E9468162981CD
:102E10003A812F5F3F4F3A832983EACF29813A8154
:102E2000241535050CF4D6C0A801B30189819A8117
:102E30000E946816A981BA811197BA83A983D8CF55
:102E40004215530554F4872D69807A8069838A83FB
:102E5000922D832D1A01492E582EB2016219730941
:102E6000072E000C880B990B0E94C21D6F83788778
:102E700089879A8769817A8166197709072E000CFC
:102E8000880B990B0E94C21D4B015C012F81388574
:102E900049855A850E94181D6B837C838D839E8390
:102EA00020E030E0A9010E94301F87FF09C08B811C
:102EB0009C81AD81BE81B0588B839C83AD83BE83E2
:102EC000C12CD12C760120E030E0A9016F817885FA
:102ED00089859A850E94301F18160CF077C042141D
:102EE00053040CF477C0A801B301C1010E94681615
:102EF0002B813C814D815E81C701B6010E94731C0C
:102F00006B017C0120E030E040E05FE30E94301F75
:102F100087FF10C020E030E0A9016F8178858985A6
:102F20009A850E94301F18160CF04CC09FEF291A8A
:102F3000390AC9CF20E030E0A901C501B4010E94DF
:102F4000301F1816CCF529813A812615370514F360
:102F5000A801B301C1010E946816A1E0B0E0BC87DE
:102F6000AB8720E030E0A901C501B4010E94301F09
:102F7000181614F01C861B8621E030E03E872D8752
:102F800020E030E0A901C501B4010E940E1D87FDBB
:102F900002C01E861D868B859C85AD85BE858A1BDD
:102FA0009B0B680E791E20E030E040E85FE3C7012C
:102FB000B6010E94721CA4CF89819A816816790695
:102FC0003CF6A8CFA1E02A1A31087DCF241435049D
:102FD0000CF089CF2E960FB6F894DEBF0FBECDBF92
:102FE000DF91CF911F910F91FF90EF90DF90CF90E5
:102FF000BF90AF909F908F907F906F905F904F9019
:103000003F902F9008952F923F924F925F926F9230
:103010007F928F929F92AF92BF92CF92DF92EF9268
:10302000FF920F931F93CF93DF936C014B01190114
:1030300085E0489F20011124E12CF12C80EA481AF8
:10304000510866246394712CF201EE0DFF1DE458C3
:10305000FD4FE4912114310409F4E09500E010E003
:10306000CE2FD0E05601AE0CBF1CA301002E02C033
:10307000440F551F0A94E2F74C235D23002E02C033
:10308000559547950A94E2F7B401600F711FC50189
:103090000E9468160F5F1F4F0830110531F78FEF40
:1030A000E81AF80A85E0E816F10471F6DF91CF918D
:1030B0001F910F91FF90EF90DF90CF90BF90AF9056
:1030C0009F908F907F906F905F904F903F902F9048
:1030D0000895CF92DF92EF92FF920F931F93CF93B9
:1030E000DF937B018A016901D82FC0E0F801EC0F62
:1030F000F11D4081442349F09601B7018D2F90E0E6
:103100000E940318DB5FCF5FF1CFDF91CF911F915A
:103110000F91FF90EF90DF90CF90089525B12F7D14
:1031200030E2839FC0011124822B85B95F9887E02C
:1031300090E070E08F989B01082E02C0359527958E
:103140000A94E2F720FF02C02E9A01C02E988F9AAF
:10315000019780F75F9A0895CF93C82F579A249AC2
:10316000259A269A879A2C985F9A2C9A61E280E099
:103170000E948E186C2F606880E00E948E1864E0B8
:1031800080E00E948E1863E180E00E948E186CE05F
:1031900080E00E948E1860E280E00E948E186CE051
:1031A00080E00E948E1860E480E00E948E1860E843
:1031B00080E0CF910C948E18CF93DF93C8EFD1E0CD
:1031C00060E081E00E948E182197D1F7DF91CF91C6
:1031D0000895CF93C82F606480E00E948E186C2FF2
:1031E000606880E0CF910C948E18A0E1B0E0EBEF26
:1031F000F8E10C9449247C011B016A01FC0117824F
:103200001682838181FF44C39E012F5F3F4F3901A6
:10321000F7019381F10193FD859193FF81911F0146
:10322000882309F431C3853239F493FD859193FFE6
:1032300081911F01853239F4B70190E00E94CA25BF
:1032400056016501E5CF10E0512C912CFFE1F915F5
:10325000D8F08B3279F038F4803279F08332A1F4EF
:10326000F92DF0612EC08D3261F0803369F4292D83
:1032700021602DC0392D3260932E892D8460982EC7
:103280002AC0E92DE86015C097FC2DC020ED280F5D
:103290002A3088F496FE06C03AE0139F200D1124D0
:1032A000122F19C08AE0589E200D1124522EE92DAC
:1032B000E0629E2E10C08E3231F496FCE5C2F92DEC
:1032C000F0649F2E08C08C3621F4292D2068922EA0
:1032D00002C0883641F4F10193FD859193FF8191FD
:1032E0001F018111B3CF9BEB980F933020F4992DE0
:1032F0009061805E07C09BE9980F933008F066C12B
:10330000992D9F7E96FF16E09F73992E853619F4AE
:103310009064992E08C0863621F4392F3068932E98
:1033200002C01111115097FE07C01C3350F4442401
:103330004394410E27E00BC0183038F027E017E027
:1033400005C027E09CE3492E02C0212F412C5601E5
:1033500084E0A80EB11CF6016081718182819381A5
:10336000042DA3010E94DC246C01F981FC87F0FF8D
:1033700002C0F3FF06C091FC06C092FE06C000E248
:1033800005C00DE203C00BE201C000E08C858C702B
:1033900019F001115AC29BC297FE10C04C0CFC855B
:1033A000F4FF04C08A81813309F44A94141474F53B
:1033B00028E0241578F588E0482E2CC096FC2AC019
:1033C000812F90E08C159D059CF03CEFC3163FEFDC
:1033D000D30674F0892D8068982E0AC0E2E0F0E0F0
:1033E000EC0FFD1FE10FF11D8081803319F41150A6
:1033F0001111F4CF97FE0EC044244394410E812F47
:1034000090E0C816D9062CF41C1904C04424439437
:1034100001C010E097FE06C01C141D0434F4C60160
:10342000019605C085E090E002C081E090E00111C6
:103430000196112331F0212F30E02F5F3F4F820F93
:10344000931F252D30E08217930714F4581A01C0FA
:10345000512C892D897049F4552039F0B70180E24B
:1034600090E00E94CA255A94F7CF002329F0B701B3
:10347000802F90E00E94CA2593FC09C0552039F0A6
:10348000B70180E390E00E94CA255A94F7CF97FED7
:103490004CC04601D7FE02C0812C912CC601881970
:1034A0009909F301E80FF91FFE87ED8796012419AA
:1034B0003109388B2F87012F10E0119501951109E3
:1034C0003FEF8316930629F4B7018EE290E00E9445
:1034D000CA25C814D9044CF08F8598898815990598
:1034E00024F4ED85FE85818101C080E3F1E08F1A2F
:1034F00091082D853E852F5F3F4F3E872D87801693
:1035000091062CF0B70190E00E94CA25D9CFC814CB
:10351000D90441F49A81963320F4953319F43C850B
:1035200034FF81E3B70190E04EC08A81813319F006
:103530009C859F7E9C87B70190E00E94CA2511114F
:1035400005C094FC18C085E690E017C0B7018EE274
:1035500090E00E94CA251E5F82E001E0080FF3019F
:10356000E80FF11D8081B70190E00E94CA25802FED
:103570000113F3CFE6CF85E490E0B7010E94CA259E
:10358000D7FC06C0C114D10441F4EC85E4FF05C0AA
:10359000D194C194D1088DE201C08BE2B70190E0D3
:1035A0000E94CA2580E32AE0C216D1042CF08F5F66
:1035B000FAE0CF1AD108F7CFB70190E00E94CA25F0
:1035C000B701C601C0960E94CA2554C1833631F0A6
:1035D000833779F0833509F056C020C0560132E0B8
:1035E000A30EB11CF6018081898301E010E0630124
:1035F00012C05601F2E0AF0EB11CF601C080D180BE
:1036000096FE03C0612F70E002C06FEF7FEFC6012E
:103610000E94BF258C01F92DFF7714C0560122E0CE
:10362000A20EB11CF601C080D18096FE03C0612FAE
:1036300070E002C06FEF7FEFC6010E94B4258C01DD
:10364000F92DF0689F2EF3FD1AC0852D90E0081724
:103650001907A8F4B70180E290E00E94CA255A94A5
:10366000F4CFF60197FC859197FE81916F01B70128
:1036700090E00E94CA2551105A9401501109011579
:10368000110579F7F7C0843611F0893661F55601D6
:1036900097FE09C024E0A20EB11CF6016081718181
:1036A000828193810AC0F2E0AF0EB11CF601608105
:1036B0007181072E000C880B990BF92DFF769F2E38
:1036C00097FF09C090958095709561957F4F8F4FBA
:1036D0009F4FF0689F2E2AE030E0A3010E94282629
:1036E000C82EC6183FC0092D853721F40F7E2AE069
:1036F00030E01DC0097F8F3691F018F4883559F0FD
:10370000C3C0803719F0883711F0BEC0006104FFD4
:1037100009C0046007C094FE08C0066006C028E027
:1037200030E005C020E130E002C020E132E0560187
:1037300007FF09C084E0A80EB11CF6016081718109
:103740008281938108C0F2E0AF0EB11CF601608166
:10375000718180E090E0A3010E942826C82EC6183F
:103760000F77902E96FE0BC0092D0E7FC11650F4D8
:1037700094FE0AC092FC08C0092D0E7E05C0DC2C08
:10378000092D03C0DC2C01C0D12E04FF0DC0FE01A9
:10379000EC0DF11D8081803311F4097E09C002FF18
:1037A00006C0D394D39404C0802F867809F0D394B4
:1037B00003FD11C000FF06C01C2DD51480F4150DAB
:1037C0001D190DC0D51458F4B70180E290E00E9495
:1037D000CA25D394F7CFD51410F45D1801C0512C2D
:1037E00004FF10C0B70180E390E00E94CA2502FFE9
:1037F00017C001FD03C088E790E002C088E590E0B3
:10380000B7010CC0802F867859F001FF02C08BE20F
:1038100001C080E207FD8DE2B70190E00E94CA2559
:10382000C11638F4B70180E390E00E94CA25115018
:10383000F7CFCA94F301EC0DF11D8081B70190E040
:103840000E94CA25C110F5CF15C0F4E0F51560F54A
:1038500084E0581A93FE1FC0011127C02C8523FF56
:103860002AC00AE711E0392D3071932EF8018491B6
:10387000811124C0552009F4E4CCB70180E290E026
:103880000E94CA255A94F6CFF7018681978126C0F7
:103890008FEF9FEF23C0B70180E290E00E94CA251E
:1038A0005A945110F8CFD8CF512CB701802F90E007
:1038B0000E94CA25D3CF0EE711E0D5CF91108052D8
:1038C000B70190E00E94CA250F5F1F4FCFCF23E0C2
:1038D000251510F483E0BDCF512CC0CF6096E2E1F6
:1038E0000C9465245058BB27AA270E948A1C0C946C
:1038F000CA1E0E94911E38F00E94981E20F039F4D2
:103900009F3F19F426F40C94671E0EF4E095E7FB34
:103910000C94381EE92F0E94EF1E58F3BA17620765
:1039200073078407950720F079F4A6F50C94291FF6
:103930000EF4E0950B2EBA2FA02D0B01B9019001CA
:103940000C01CA01A0011124FF27591B99F0593F0E
:1039500050F4503E68F11A16F040A22F232F342F56
:103960004427585FF3CF469537952795A795F040A4
:103970005395C9F77EF41F16BA0B620B730B840BB9
:10398000BAF09150A1F0FF0FBB1F661F771F881F71
:10399000C2F70EC0BA0F621F731F841F48F48795C9
:1039A00077956795B795F7959E3F08F0B0CF9395BB
:1039B000880F08F09927EE0F979587950895DF9364
:1039C000DD27B92FBF7740E85FE3161617064807D3
:1039D0005B0718F4D92F0E94351F9F938F937F9315
:1039E0006F930E941C20ECEAF0E00E946A1E0E9485
:1039F000CA1E2F913F914F915F910E94501FDD236E
:103A000051F09058A2EA2AED3FE049EC5FE3D0780C
:103A10005D270E948A1CDF910C94CA1E0E94141E0E
:103A200008F481E008950E94A11EE3950C94DB1E2A
:103A30000E942C1D0C94CA1E0E94981E58F00E94D1
:103A4000911E40F029F45F3F29F00C94381E51116B
:103A50000C942A1F0C94671E0E94EF1E68F3992392
:103A6000B1F3552391F3951B550BBB27AA2762177A
:103A70007307840738F09F5F5F4F220F331F441F87
:103A8000AA1FA9F335D00E2E3AF0E0E832D09150BB
:103A90005040E695001CCAF72BD0FE2F29D0660FA8
:103AA000771F881FBB1F261737074807AB07B0E8EB
:103AB00009F0BB0B802DBF01FF2793585F4F3AF0F1
:103AC0009E3F510578F00C94381E0C942A1F5F3FDE
:103AD000E4F3983ED4F3869577956795B795F79577
:103AE0009F5FC9F7880F911D9695879597F908955F
:103AF000E1E0660F771F881FBB1F621773078407FB
:103B0000BA0720F0621B730B840BBA0BEE1F88F709
:103B1000E09508950E94911D6894B1110C942A1F9C
:103B200008950E94F71E88F09F5798F0B92F9927A3
:103B3000B751B0F0E1F0660F771F881F991F1AF098
:103B4000BA95C9F714C0B13091F00E94291FB1E0B5
:103B500008950C94291F672F782F8827B85F39F0B4
:103B6000B93FCCF3869577956795B395D9F73EF431
:103B700090958095709561957F4F8F4F9F4F0895D9
:103B8000E89409C097FB3EF49095809570956195F7
:103B90007F4F8F4F9F4F9923A9F0F92F96E9BB27AD
:103BA0009395F695879577956795B795F111F8CF29
:103BB000FAF4BB0F11F460FF1BC06F5F7F4F8F4F94
:103BC0009F4F16C0882311F096E911C0772321F08A
:103BD0009EE8872F762F05C0662371F096E8862F22
:103BE00070E060E02AF09A95660F771F881FDAF779
:103BF000880F9695879597F908950E94111F90F068
:103C00009F3748F4911116F00C942A1F60E070E081
:103C100080E89FEB089526F41B16611D711D811D20
:103C20000C943E1E0C94591E990F0008550FAA0BB8
:103C3000E0E8FEEF16161706E807F907C0F01216BF
:103C40001306E407F50798F0621B730B840B950BC2
:103C500039F40A2661F0232B242B252B21F4089517
:103C60000A2609F4A140A6958FEF811D811D0895B4
:103C700097F99F6780E870E060E00895882371F409
:103C8000772321F09850872B762F07C0662311F4F5
:103C900099270DC09051862B70E060E02AF09A952C
:103CA000660F771F881FDAF7880F9695879597F923
:103CB00008959F3F31F0915020F48795779567954F
:103CC000B795880F911D9695879597F908959FEF61
:103CD00080EC0895DF93CF931F930F93FF92EF92A1
:103CE000DF927B018C01689406C0DA2EEF010E94FE
:103CF000501FFE01E894A59125913591459155916C
:103D0000A6F3EF010E948A1CFE019701A801DA9434
:103D100069F7DF90EF90FF900F911F91CF91DF91A6
:103D2000089500240A941616170618060906089521
:103D300000240A94121613061406050608950C941E
:103D4000671E0E94F71ED8F3E894E0E0BB279F5758
:103D5000F0F02AED3FE049EC06C0EE0FBB0F661F06
:103D6000771F881F28F0B23A62077307840728F08C
:103D7000B25A620B730B840BE3959A9572F78038F5
:103D800030F49A95BB0F661F771F881FD2F79048B3
:103D90000C945B1E092E0394000C11F4882352F03E
:103DA000BB0F40F4BF2B11F460FF04C06F5F7F4F67
:103DB0008F4F9F4F0895EF93E0FF07C0A2EA2AEDCF
:103DC0003FE049EC5FEB0E948A1C0E94CA1E0F90E4
:103DD000039401FC9058E9EDF0E00C94272057FD86
:103DE0009058440F551F59F05F3F71F04795880F69
:103DF00097FB991F61F09F3F79F087950895121600
:103E000013061406551FF2CF4695F1DF08C01616AB
:103E100017061806991FF1CF86957105610508945C
:103E200008950E94F71EA0F0BEE7B91788F4BB27DB
:103E30009F3860F41616B11D672F782F8827985F7A
:103E4000F7CF869577956795B11D93959639C8F309
:103E50000895E894BB2766277727CB0197F9089543
:103E60000E94141E08F48FEF08959B01AC0160E0DE
:103E700070E080E89FE30C94181D0E94501F0C9482
:103E8000CA1E0E94911E38F00E94981E20F09523B1
:103E900011F00C94381E0C94671E11240C942A1FE8
:103EA0000E94EF1E70F3959FC1F3950F50E0551FD0
:103EB000629FF001729FBB27F00DB11D639FAA277F
:103EC000F00DB11DAA1F649F6627B00DA11D661FCE
:103ED000829F2227B00DA11D621F739FB00DA11DEF
:103EE000621F839FA00D611D221F749F3327A00DA9
:103EF000611D231F849F600D211D822F762F6A2F45
:103F000011249F5750409AF0F1F088234AF0EE0FA9
:103F1000FF1FBB1F661F771F881F91505040A9F7D6
:103F20009E3F510580F00C94381E0C942A1F5F3F71
:103F3000E4F3983ED4F3869577956795B795F79512
:103F4000E7959F5FC1F7FE2B880F911D969587958A
:103F500097F908950E94F71EE8F09E37E8F0963929
:103F6000B8F49E3848F4672F782F8827985FF9CFE8
:103F700086957795679593959539D0F3B62FB1705F
:103F80006B0F711D811D20F487957795679593952B
:103F90000C943E1E0C94591E0C942A1F9F930E9451
:103FA000A11E0F9007FCEE5F0C94DB1E19F416F4B3
:103FB0000C94671E0C94591E0E94F71EB8F39923A7
:103FC000C9F3B6F39F57550B87FF0E9420200024AA
:103FD000A0E640EA900180585695979528F4805CB9
:103FE000660F771F881F20F026173707480730F421
:103FF000621B730B840B202931294A2BA695179439
:104000000794202531254A2758F7660F771F881F08
:1040100020F026173707480730F4620B730B840B28
:10402000200D311D411DA09581F7B901842F9158B4
:10403000880F9695879508959B01AC010C943D1FC0
:1040400091505040660F771F881FD2F708959F93B5
:104050008F937F936F93FF93EF939B01AC010E942B
:104060003D1FEF91FF910E946A1E2F913F914F914A
:104070005F910C943D1F8091E80080FFFCCF089574
:1040800081E08093D70080EA8093D80082E189BDE7
:1040900009B400FEFDCF80E98093D8001092E000C3
:1040A00010921602109213028CE08093E200789432
:1040B00008958091160208959FB7F8948091160292
:1040C000882369F083E08093E9002BE68091E80083
:1040D00085FD09C082FF03C02093E800F7CF9FBF92
:1040E0008FEF9FEF08958091F1002091E80025FD6A
:1040F00003C02BE62093E8009FBF90E008952FB700
:10410000F89480911602811102C080E010C083E013
:104110008093E9008091F200811109C09091E8003C
:1041200092FFF3CF95FDF1CF9BE69093E8002FBF70
:10413000089580911602882371F08FB7F89493E068
:104140009093E9002BE69091E80095FF03C020933F
:10415000E800F9CF8FBF089590911602992371F06E
:104160009FB7F89424E02093E900209114022223C1
:1041700049F02091E80025FD03C09FBF8FEF08950F
:10418000109214022091E400275E34E04091E80090
:1041900045FD12C09FBF9091E400291304C081E047
:1041A00080931402EBCF90911602992339F39FB7B5
:1041B000F8943093E900EACF8093F1008091E80011
:1041C00085FD03C08AE38093E80085E080931502B3
:1041D0009FBF80E00895909116029923D1F09FB778
:1041E000F89424E02093E9002091E80025FD02C026
:1041F0009FBF0FC08093F1008091E80085FD03C050
:104200008AE38093E80085E0809315029FBF80E0F9
:1042100008958FEF08950F931F93CF93DF93DC01E1
:10422000CB0120911602222371F02FB7F89434E0CD
:104230003093E90030911402332349F03091E800C3
:1042400035FD03C02FBF8FEF43C110921402C4E0AD
:10425000D0E41AE305E0009709F439C13091E40095
:10426000375E4091E80045FD12C02FBF2091E40069
:10427000321304C081E080931402E5CF209116022E
:10428000222309F32FB7F894C093E900EACF3091C5
:10429000F200ED2FE31B4E2F50E08417950708F432
:1042A000E82F8E1B91094E2F50E04134510508F044
:1042B00001C1FA01E458FF4F0C9443243C91309320
:1042C000F10011963C913093F10011963C9130939E
:1042D000F10011963C913093F10011963C9130938E
:1042E000F10011963C913093F10011963C9130937E
:1042F000F10011963C913093F10011963C9130936E
:10430000F10011963C913093F10011963C9130935D
:10431000F10011963C913093F10011963C9130934D
:10432000F10011963C913093F10011963C9130933D
:10433000F10011963C913093F10011963C9130932D
:10434000F10011963C913093F10011963C9130931D
:10435000F10011963C913093F10011963C9130930D
:10436000F10011963C913093F10011963C913093FD
:10437000F10011963C913093F10011963C913093ED
:10438000F10011963C913093F10011963C913093DD
:10439000F10011963C913093F10011963C913093CD
:1043A000F10011963C913093F10011963C913093BD
:1043B000F10011963C913093F10011963C913093AD
:1043C000F10011963C913093F10011963C9130939D
:1043D000F10011963C913093F10011963C9130938D
:1043E000F10011963C913093F10011963C9130937D
:1043F000F10011963C913093F10011963C9130936D
:10440000F10011963C913093F10011963C9130935C
:10441000F10011963C913093F10011963C9130934C
:10442000F10011963C913093F10011963C9130933C
:10443000F10011963C913093F10011963C9130932C
:10444000F10011963C913093F10011963C9130931C
:10445000F10011963C913093F10011963C9130930C
:10446000F10011963C913093F10011963C913093FC
:10447000F10011963C913093F10011963C913093EC
:10448000F10011963C913093F10011963C913093DC
:10449000F10011963C913093F10011963C913093CC
:1044A000F10011963C913093F10011963C913093BC
:1044B000F10011963C913093F10011963091E80093
:1044C00035FF1093E800009315022FBFC4CE80E0A3
:1044D000DF91CF911F910F9108958FB7F89490912C
:1044E0001502992341F094E09093E9009AE39093A8
:1044F000E800109215028FBF089560917F017091BE
:1045000080018091810190918201089580918301C1
:104510000895809184010895809185010895809186
:10452000130208959FB7F89420911602222339F0C0
:1045300022E02093E9002091E80025FD03C09FBF01
:104540008FEF089521EA2093F10020E22093F100FB
:104550001092F1001092F1001092F1001092F1000F
:1045600021E02093F1001092F1008093F1008AE3A2
:104570008093E8009FBF80E008951F920F920FB6CE
:104580000F9211248F939F938091E1001092E1008C
:1045900083FF11C01092E90091E09093EB0010921C
:1045A000EC0092E19093ED0098E09093F00010926F
:1045B00016021092130282FF13C080911602882304
:1045C00079F080911502882359F08150809315026B
:1045D000811106C084E08093E9008AE38093E800BB
:1045E0009F918F910F900FBE0F901F9018951F9263
:1045F0000F920FB60F921124FF920F931F932F93D8
:104600003F934F935F936F937F938F939F93AF935A
:10461000BF93CF93DF93EF93FF931092E9008091C4
:10462000E80083FF17C1F090F1008091F100009144
:10463000F1009091F10010E0192BC091F1009091E0
:10464000F100D0E0D92B2091F1006091F10092EFC0
:104650009093E800863009F049C08CE594E046E884
:1046600054E0FC01A591B4910A171B07D9F4FC0191
:104670003296A591B491CA17DB07A1F4FC013496D8
:1046800045915491FC013696849130E0362B2F3FB2
:10469000310519F010F02FEF30E0281708F4822FC1
:1046A0003EEF0CC0079648175907D9F6D3C0490FFB
:1046B000511D891B3093E8008823A9F09091E800F0
:1046C000292F2570D9F392FDC8C0982F813108F0A9
:1046D00090E1FA01292F222351F364916093F100B4
:1046E00021503196F8CF903149F3B7C0853049F465
:1046F0008EEF8093E8000E943B2000680093E30067
:10470000ACC0893059F5F110A5C000931602109283
:104710001302109215028EEF8093E80041E08BE1C6
:1047200095E04093E9009C012F5F3F4FFC015491BD
:104730005093EB00552359F0F90124912093EC009C
:104740009C012D5F3F4F3196E491E093ED004F5F68
:10475000453011F0C901E5CF8EE177C0883051F4C2
:10476000F0E8FF1277C00E943B20809116028093F0
:10477000F10049C0813281F481EAF8126BC00E94D5
:104780003B20EFE7F1E086E891E021912093F100F2
:104790008E179F07D1F737C08032A9F491E2F91242
:1047A00059C08091E80082FFFCCFEFE7F1E086E896
:1047B00091E02091F10021938E179F07D1F78BEFA5
:1047C0008093E80020C0823241F4E1E2FE1242C050
:1047D000009313020E943B2016C0811118C00E9452
:1047E0003B20F2E8FF120AC0C093E9008091EB0081
:1047F00085FB882780F91092E90001C080E0809352
:10480000F1001092F1008EEF8093E80026C0982FFF
:104810009D7F9130F9F492E0F9121CC0012BD1F484
:10482000CF779FEF9C0F9430A8F49EEF9093E80011
:10483000C093E900833071F089E18093EB0081E05F
:1048400090E001C0880FCA95EAF78093EA001092C1
:10485000EA0003C081E28093EB00FF91EF91DF91CA
:10486000CF91BF91AF919F918F917F916F915F9108
:104870004F913F912F911F910F91FF900F900FBE7D
:104880000F901F901895EE0FFF1F0590F491E02DEB
:1048900009942F923F924F925F926F927F928F92E4
:1048A0009F92AF92BF92CF92DF92EF92FF920F93BF
:1048B0001F93CF93DF93CDB7DEB7CA1BDB0B0FB6C9
:1048C000F894DEBF0FBECDBF09942A883988488886
:1048D0005F846E847D848C849B84AA84B984C8841C
:1048E000DF80EE80FD800C811B81AA81B981CE0F13
:1048F000D11D0FB6F894DEBF0FBECDBFED010895F8
:104900008F929F92AF92BF92CF92DF92EF92FF92DF
:10491000CF93DF93EC01688179818A819B81611556
:1049200071058105910521F464E279ED8BE597E04D
:104930002DE133EF41E050E00E94862649015A0103
:104940009B01AC01A7EAB1E40E94A5266B017C01A2
:10495000ACEEB4EFA50194010E94B326DC01CB01BB
:104960008C0D9D1DAE1DBF1DB7FF03C00197A10992
:10497000B04888839983AA83BB839F77DF91CF91C7
:10498000FF90EF90DF90CF90BF90AF909F908F906F
:1049900008950E948024089586E891E00E94802472
:1049A0000895A0E0B0E08093860190938701A093E2
:1049B0008801B09389010895283008F027E0332753
:1049C000DA01990F311D87FD91600096610571052F
:1049D00039F432602E5F3D9330E32A95E1F7089574
:1049E0009F3F30F080387105610509F03C5F3C5F06
:1049F0003D93913008F08068911DDF93CF931F9312
:104A00000F93FF92EF92192F987F9695E92F969525
:104A10009695E90FFF27E452FE4F99273327EE249E
:104A2000FF24A701E70105900894079428F4360FA6
:104A3000E71EF81E491F511D660F771F881F991F1B
:104A40000694A1F70590079428F4E70EF81E491F75
:104A5000561FC11D770F881F991F661F0694A1F767
:104A60000590079428F4F80E491F561FC71FD11D43
:104A7000880F991F661F771F0694A1F7059007946A
:104A800020F4490F561FC71FD81F990F661F771FA5
:104A9000881F0694A9F784911095177041F0D69558
:104AA000C79557954795F794E7941A95C1F7E2E8AB
:104AB000F1E0689415901591359165919591059067
:104AC0007FE27395E118F10A430B560BC90BD0092D
:104AD000C0F7E10CF11E431F561FC91FD01D7EF405
:104AE000703311F48A95E6CFE894015030F0080F46
:104AF0000AF40027021708F4202F2395022F7A3397
:104B000028F079E37D932A95E9F710C07D932A95E3
:104B100089F6069497956795379517951794E11838
:104B2000F10A430B560BC90BD00998F023957E91DF
:104B300073957A3308F070E37C932013B8F77E9175
:104B400070617D9330F0839571E37D9370E32A95D6
:104B5000E1F71124EF90FF900F911F91CF91DF911A
:104B6000992787FD90950895FC010590615070404C
:104B70000110D8F7809590958E0F9F1F0895FC0126
:104B80006150704001900110D8F7809590958E0F7C
:104B90009F1F08950F931F93CF93DF93FB012381F2
:104BA00021FD03C08FEF9FEF2CC022FF16C046816E
:104BB0005781248135814217530744F4A081B18184
:104BC0009D012F5F3F4F318320838C932681378156
:104BD0002F5F3F4F3783268314C08B01EC01FB010D
:104BE0000084F185E02D0995892BE1F6D801169610
:104BF0008D919C911797019617969C938E9316977B
:104C0000CE01DF91CF911F910F910895AEE0B0E0FA
:104C1000ECE0F6E20C9457240D891E8986E08C8323
:104C20001A8309838FEF9FE79E838D83AE01475ED2
:104C30005F4F6F89788DCE0101960E94F518EF8144
:104C4000F885E00FF11F10822E96E4E00C94732497
:104C5000FA01AA27283051F1203181F1E8946F93AD
:104C60006E7F6E5F7F4F8F4F9F4FAF4FB1E03ED053
:104C7000B4E03CD0670F781F891F9A1FA11D680FF1
:104C8000791F8A1F911DA11D6A0F711D811D911D24
:104C9000A11D20D009F468943F912AE0269F112499
:104CA0003019305D3193DEF6CF010895462F4770FD
:104CB000405D4193B3E00FD0C9F7F6CF462F4F7058
:104CC000405D4A3318F0495D31FD4052419302D0B6
:104CD000A9F7EACFB4E0A69597958795779567955C
:104CE000BA95C9F700976105710508959B01AC015C
:104CF0000A2E06945795479537952795BA95C9F783
:104D0000620F731F841F951FA01D0895052E97FB2A
:104D10001EF400940E949D2657FD07D00E94B826DD
:104D200007FC03D04EF40C949D2650954095309589
:104D300021953F4F4F4F5F4F089590958095709507
:104D400061957F4F8F4F9F4F08950E94DA26A59F50
:104D5000900DB49F900DA49F800D911D1124089576
:104D6000B7FF0C94A5260E94A526821B930B0895DD
:104D7000A1E21A2EAA1BBB1BFD010DC0AA1FBB1F5F
:104D8000EE1FFF1FA217B307E407F50720F0A21BD1
:104D9000B30BE40BF50B661F771F881F991F1A943E
:104DA00069F760957095809590959B01AC01BD0168
:104DB000CF010895A29FB001B39FC001A39F700DC2
:104DC000811D1124911DB29F700D811D1124911D13
:064DD0000895F894FFCFE6
:104DD60001000101010101010000000101000100C3
:104DE60001010000000101010101010101010101B0
:104DF60001000100010100010001010001000101A3
:104E06000101010101010101010100000001010090
:104E1600010101010000000101010101010101017F
:104E26000101010000000101010001010101000171
:104E3600010101010101010101010101000000015F
:104E46000101000101010000010101010101010050
:104E5600E10000000008010000000506070101004E
:104E66000026036F030E037F034103BB025A6163EF
:104E760068617279204E69636F6C6C006E313032F6
:104E8600313434353300546F6D20416E64204A65E9
:104E9600727279002D4F6E20746865205465656EB8
:104EA60073792D002D47414D45204F5645522D0013
:104EB60053573320746F2052657374617274004CBB
:104EC6003A256400483A256400533A2564002530A3
:084ED60032643A253032640019
:00000001FF
