:100000000C947C020C9499020C9499020C94990221
:100010000C9499020C9499020C9499020C949902F4
:100020000C9499020C9499020C944D1D0C94871D0C
:100030000C9499020C9499020C9499020C949902D4
:100040000C9499020C9499020C9499020C949902C4
:100050000C9476080C9499020C9499020C94D60294
:100060000C9499020C9499020C9499020C949902A4
:100070000C9499020C9499020C9499020C94990294
:100080000C9499020C9499020C9499020C945903C3
:100090000C9499020C9499020C9499020C94990274
:1000A0000C9499020C9499020C94990205A84CCDD9
:1000B000B2D44EB93836A9020C50B9918688083CA2
:1000C000A6AAAA2ABE000000803FEE1CEA1CE61C7D
:1000D000E21CDE1CDA1CD61CD21CCE1CCA1CC61CA0
:1000E000C21CBE1CBA1CB61CB21CAE1CAA1CA61C90
:1000F000A21C9E1C9A1C961C921C8E1C8A1C861C80
:10010000821C7E1C7A1C761C721C6E1C6A1C661C6F
:10011000621C5E1C5A1C561C521C4E1C4A1C461C5F
:10012000421C3E1C3A1C361C321C2E1C2A1C261C4F
:10013000221C1E1C1A1C161C121C0E1C0A1C061C3F
:10014000021CFE1BFA1BF61BF21BEE1B6E616E00FF
:10015000696E660000407A10F35A00A0724E1809CA
:100160000010A5D4E80000E87648170000E40B541E
:10017000020000CA9A3B000000E1F50500008096ED
:100180009800000040420F000000A086010000001F
:10019000102700000000E8030000000064000000D9
:1001A00000000A00000000000100000000002C76A2
:1001B000D888DC674F0823DFC1DFAE59E1B1B796BD
:1001C000E5E3E453C63AE651997696E8E6C284261A
:1001D000EB898C9B62ED407C6FFCEFBC9C9F40F2F6
:1001E000BAA56FA5F490055A2AF75C936B6CF96772
:1001F0006DC11BFCE0E40D47FEF520E6B500D0ED37
:10020000902E0300943577050080841E080000209E
:100210004E0A000000C80C333333330F986E12833C
:100220001141EF8D2114893BE65516CFFEE6DB1810
:10023000D1844B381BF77C1D901DA4BBE4242032D5
:1002400084725E228100C9F124ECA1E53D27000003
:1002500000000000005F00000007000700147F148A
:100260007F14242A7F2A12231308646236495522F8
:10027000500005030000001C2241000041221C0028
:1002800014083E081408083E080800503000000812
:1002900008080808006060000020100804023E51B1
:1002A00049453E00427F4000426151494621414557
:1002B0004B311814127F1027454545393C4A4949AE
:1002C0003001710905033649494936064949291E55
:1002D0000036360000005636000008142241001493
:1002E0001414141400412214080201510906324961
:1002F00079413E7E1111117E7F494949363E414187
:1003000041227F4141221C7F494949417F09090916
:10031000013E4149497A7F0808087F00417F41003A
:100320002040413F017F081422417F404040407FF0
:10033000020C027F7F0408107F3E4141413E7F094D
:100340000909063E4151215E7F091929464649495E
:10035000493101017F01013F4040403F1F204020C3
:100360001F3F4038403F63140814630708700807B4
:100370006151494543007F414100020408102000BB
:1003800041417F000402010204404040404000011E
:1003900002040020545454787F484444383844447C
:1003A0004420384444487F3854545418087E090186
:1003B000020C5252523E7F0804047800447D4000F3
:1003C0002040443D007F1028440000417F40007CD5
:1003D000041804787C0804047838444444387C14B5
:1003E000141408081414187C7C0804040848545495
:1003F0005420043F4440203C4040207C1C204020AE
:100400001C3C4030403C44281028440C5050503C88
:100410004464544C44000836410000007F00000052
:100420004136080010080810087846414678000157
:100430000000DB04120002000098044300030000E7
:10044000940404010309047E0414020309046604ED
:10045000160303090458040C0C0331003200330066
:100460003400350000001603550053004200200000
:10047000530065007200690061006C000000140305
:1004800059006F007500720020004E0061006D0081
:10049000650000000403090409024300020100C0D2
:1004A00032090400000102020100052400100105C8
:1004B0002401010104240206052406000107058227
:1004C0000310004009040100020A000000070503B0
:1004D00002400000070584024000001201000202F1
:1004E000000010C0167A040001010203010001C1DE
:1004F000120180360181360011241FBECFEFDAE0F1
:10050000DEBFCDBF11E0A0E0B1E0E6EFF2E402C053
:1005100005900D92A23EB107D9F724E0A2EEB1E01A
:1005200001C01D92A93AB207E1F70E9460110C9434
:1005300079210C940000CF93DF93FC018491EF01AB
:100540002196882321F00E943C1BFE01F7CFDF910A
:10055000CF910895CF93CFB121E041E951E060E020
:1005600070E085E090E00E94811321E040EA51E0D4
:100570006AE070E085E090E00E94811321E04AEAA1
:1005800051E06EE170E08AE090E00E94811321E08A
:1005900048EB51E068E270E085E090E00E94811352
:1005A0000E946511C5FFD7CFCF9108951F920F927A
:1005B0000FB60F9211240F931F932F933F934F93D6
:1005C0005F936F937F938F939F93AF93BF93EF93BB
:1005D000FF93CF93DF93CDB7DEB72E97DEBFCDBFAE
:1005E0008FB188878FB1898783B18A8783B18B87E1
:1005F00089B18C8789B18D8783B18E8787E0EAE8DE
:10060000F1E0DE01119601900D928A95E1F7BE01AD
:10061000685F7F4F8E010F5F1F4F20E030E051E099
:10062000F901E85AFD4F8081880F808380818F71A6
:1006300080834081DB019D91BD01892F90E0D8012D
:100640000D9002C0959587950A94E2F78D0181700F
:10065000842B808380818F3129F4F901E750FE4F8C
:10066000508307C08081811104C0F901E750FE4F1B
:1006700010822F5F3F4F2730310591F62E960FB62F
:10068000F894DEBF0FBECDBFDF91CF91FF91EF9108
:10069000BF91AF919F918F917F916F915F914F919A
:1006A0003F912F911F910F910F900FBE0F901F90B0
:1006B00018951F920F920FB60F9211248F939F934C
:1006C000AF93BF938091E2019091E301A091E40187
:1006D000B091E5010196A11DB11D8093E2019093B7
:1006E000E301A093E401B093E501BF91AF919F9125
:1006F0008F910F900FBE0F901F901895CF92DF92A1
:10070000EF92FF92CF93DF936091E2017091E3014A
:100710008091E4019091E501C0919400D091950001
:100720000E94A91820E030E040E857E40E94F71941
:100730006B017C01BE0180E090E00E94A9189B0142
:10074000AC01C701B6010E948B172DEB37E346E0E1
:1007500054E30E94F719DF91CF91FF90EF90DF9063
:10076000CF9008958091000190910101019709F0C7
:10077000CEC010926A021092690285E090E09093D8
:1007800068028093670210927502109276021092AE
:1007900077021092780280E090E0A0E1B1E48093CB
:1007A000790290937A02A0937B02B0937C0280E05E
:1007B00090E0AEE9B2E480932C0290932D02A093D6
:1007C0002E02B0932F0280E090E0ACE1B2E480937F
:1007D000300290933102A0933202B09333020E9410
:1007E0005C1FBC01990F880B990B0E94AB1820E08D
:1007F0003EEF4FEF56E40E9401182DEC3CEC4CE428
:100800005EE30E94F7192DEC3CEC4CE45EE30E94A1
:100810008B17609334027093350280933602909365
:1008200037020E945C1FBC01990F880B990B0E9434
:10083000AB1820E03EEF4FEF56E40E9401182BED7D
:100840003FE049E450E40E94F7199B01AC010E948B
:100850008B17609338027093390280933A02909319
:100860003B0282E190E090934D0280934C028FE036
:1008700090E090934F0280934E028DE090E0909331
:1008800051028093500289E190E09093530280934B
:100890005202909386028093850223E230E03093E7
:1008A00088022093870290938A02809389022DE226
:1008B00030E030938C0220938B0230933D022093E2
:1008C0003C022AE030E030933F0220933E024CE3AA
:1008D00050E05093410240934002309343022093F2
:1008E00042022AE330E030938E0220938D029093EF
:1008F000900280938F0288E490E09093920280931C
:1009000091028EE190E09093940280939302809103
:10091000750290917602A0917702B091780280934F
:100920006D0290936E02A0936F02B093700280915B
:10093000790290917A02A0917B02B0917C0280931F
:10094000710290937202A0937302B093740280912B
:100950002C0290912D02A0912E02B0912F02809333
:10096000240290932502A0932602B093270280913F
:10097000300290913102A0913202B0913302809303
:10098000280290932902A0932A02B0932B0280E0C0
:1009900090E0FC01E85AFD4F1082FC01E750FE4F49
:1009A0001082019687309105A1F7EDE9F2E0A4E00D
:1009B000B2E086EF9FEF91838083938382831196C9
:1009C0009C938E9313969C938E93129734961496C1
:1009D00022E0E13BF20779F7109200021092010247
:1009E00010920202109203020E947E030E9473186A
:1009F00070939602609395020E947E030E94731882
:100A00007093190260931802109298021092970244
:100A10000895CF9380E880936100C1E0C0936100A6
:100A20008FE30E94C4130E94F4135298229884B159
:100A300084B9519821988598869881988298229AAD
:100A4000239A14BC84E085BDC0936E001092800090
:100A500080938100C0936F0078940E94D01A0E9406
:100A6000E91A8823E1F30E94B2030E94AA021092BD
:100A7000900081E08093910080937100CF91089560
:100A80008F929F92AF92BF92CF92DF92EF92FF929E
:100A90000F931F93CF93DF93CDB7DEB764970FB655
:100AA000F894DEBF0FBECDBF809101018F9380917E
:100AB00000018F9388EC91E09F938F938E010F5FDD
:100AC0001F4F1F930F930E94962021E0A80160E022
:100AD00070E080E090E00E94811387E6E82E82E0DB
:100AE000F82EF70181818F9380818F938DEC91E0B7
:100AF0009F938F931F930F930E94962021E0A8014C
:100B000060E070E082E190E00E948113F701838150
:100B10008F9382818F9382ED91E09F938F931F93A8
:100B20000F930E94962021E0A80160E070E084E22B
:100B300090E00E94811320E030E040E752E46091B1
:100B4000ED017091EE018091EF019091F0010E9412
:100B500001184B015C010E94E6186B017C019B01AE
:100B6000AC01C501B4010E948A1720E030E040E7E3
:100B700052E40E94F7190E9473187F936F93C70184
:100B8000B6010E9473187F936F9387ED91E09F9356
:100B90008F931F930F930E94962021E0A80160E09D
:100BA00070E087E390E00E94811301E028E030E0EC
:100BB00044E550E068E070E080E090E00E94B91108
:100BC0000FB6F894DEBF0FBECDBF64960FB6F89493
:100BD000DEBF0FBECDBFDF91CF911F910F91FF9070
:100BE000EF90DF90CF90BF90AF909F908F9008953F
:100BF0004F925F926F927F928F929F92AF92BF922D
:100C0000EF92FF920F931F93CF93DF93C0E0D0E05A
:100C1000CE018A599E4F7C0100E010E04E010D2E5E
:100C2000000CAA08BB08F7018081813059F5B80192
:100C3000012E000C880B990B0E94AB1820917902B1
:100C400030917A0240917B0250917C020E948B1776
:100C50000E9473182B013C01C501B4010E94AB181E
:100C6000209175023091760240917702509178027E
:100C70000E948B170E947318DC01CB0141E0B20186
:100C80000E9480110F5F1F4FF5E0EF0EF11C053041
:100C9000110549F62196C530D10509F0B9CFDF918C
:100CA000CF911F910F91FF90EF90BF90AF909F90C9
:100CB0008F907F906F905F904F9008954F925F92CA
:100CC0006F927F928F929F92AF92BF92EF92FF921C
:100CD0000F931F93CF93DF93C0E0D0E0CE01835BEF
:100CE0009E4F7C0100E010E04E010D2E000CAA0882
:100CF000BB08F7018081813059F5B801012E000C45
:100D0000880B990B0E94AB18209130023091310270
:100D100040913202509133020E948B170E94731847
:100D20002B013C01C501B4010E94AB1820912C029B
:100D300030912D0240912E0250912F020E948B176C
:100D40000E947318DC01CB0141E0B2010E948011C6
:100D50000F5F1F4FF5E0EF0EF11C0530110549F64E
:100D60002196C530D10509F0B9CFDF91CF911F9100
:100D70000F91FF90EF90BF90AF909F908F907F90DA
:100D80006F905F904F900895CF92DF92EF92FF9215
:100D90000F93CF93DF93CDB7DEB7E0970FB6F894FC
:100DA000DEBF0FBECDBF88E0ECE4F2E0DE011196BD
:100DB00001900D928A95E1F788E0E5E8F2E0DE0126
:100DC000199601900D928A95E1F788E0ECE3F2E044
:100DD000DE01519601900D928A95E1F788E0EDE8E9
:100DE000F2E0DE01599601900D928A95E1F788E0D4
:100DF000EFE5F2E0DE01919601900D928A95E1F720
:100E000088E0E1EFF1E0DE01999601900D928A957C
:100E1000E1F7CE0101967C016E0191E3C90ED11C70
:100E2000F70126813781448155816281738101E018
:100E3000808191810E94B911F8E0EF0EF11CEC1451
:100E4000FD0471F7E0960FB6F894DEBF0FBECDBF7C
:100E5000DF91CF910F91FF90EF90DF90CF900895A9
:100E60008F929F92AF92BF92CF92DF92EF92FF92BA
:100E70000F931F93CF93DF9324E0822E22E0922ED4
:100E80003DE9E32E32E0F32E8BE1A82E81E0B82E6F
:100E900094E3C92E91E0D92E00E010E0C0E0D0E04C
:100EA000F70180819181863FFFEF9F0781F0F60176
:100EB000EC0FFD1F2081213051F4F7016281738115
:100EC000600F711F41E08C0F9D1F0E948011F40183
:100ED00080819181863FFFEF9F0781F0F501EC0F44
:100EE000FD1F2081213051F4F40162817381600F74
:100EF000711F41E08C0F9D1F0E9480112196C5300B
:100F0000D10571F60F5F1F4FF5E0AF0EB11C25E064
:100F1000C20ED11C0530110509F684E0880E911C23
:100F2000E4E0EE0EF11CF8E18F16F2E09F0609F006
:100F3000ABCFDF91CF911F910F91FF90EF90DF909A
:100F4000CF90BF90AF909F908F9008950E944005E2
:100F50000E94F8050C945E069B0143E035952795A9
:100F60004A95E1F744E5249F800D911D1124FC0171
:100F7000EF54FD4F808190E0677002C09595879592
:100F80006A95E2F7817008952F923F924F925F9297
:100F90006F927F928F929F92AF92BF92CF92DF9289
:100FA000EF92FF920F931F93CF93DF9300D000D067
:100FB000CDB7DEB7CFA8D8AC29AC3AAC8FA098A4F7
:100FC000A9A4BAA44BA45CA46DA47EA4C114D104AA
:100FD000D1F1E12CF12CC6010D2C000CAA0BBB0B9E
:100FE00089839A83AB83BC83D7FE09C069817A81E8
:100FF0008B819C810E94AB18A501940106C020E062
:1010000030E040EA50E4C501B4010E948B170E9411
:1010100073188B01B7010F2C000C880B990B0E94E1
:10102000AB18A30192010E948B170E947318C8018C
:101030000E94AC07811143C09FEFE91AF90AA5E0AD
:10104000EA16F10489F621143104C1F100E010E040
:101050006101032C000CEE08FF08B801012E000C02
:10106000880B990B0E94AB18A50194010E948B1765
:101070000E94731869837A838B839C8312141304F0
:101080003CF420E030E040EA50E4C301B20106C085
:10109000C701B6010E94AB18A30192010E948B17F1
:1010A0000E94731889819A810E94AC07811107C040
:1010B0000F5F1F4F0530110581F601C080E00F90D2
:1010C0000F900F900F90DF91CF911F910F91FF9094
:1010D000EF90DF90CF90BF90AF909F908F907F90D8
:1010E0006F905F904F903F902F9008951F920F92B6
:1010F0000FB60F921124CF92DF92EF92FF922F93AF
:101100003F934F935F936F937F938F939F93AF938F
:10111000BF93EF93FF93CF93DF93CDB7DEB7C8575D
:10112000D109DEBFCDBF0E94EC1A8337910509F0CB
:101130005BC0C0907902D0907A02E0907B02F09080
:101140007C0220E030E040EA50E4C701B6010E9492
:101150008B1720E030E040E85FE30E948B1720E02F
:1011600030E040E452E40E94F71787FF17C18EE198
:10117000E7E6F2E0DE01A55ABF4F01900D928A9595
:10118000E1F71F9281E08F931F921F922DB73EB718
:101190002E5131090FB6F8943EBF0FBE2DBFADB72B
:1011A000BEB711968EE1FE01E55AFF4F01900D92F8
:1011B0008A95E1F70E94C4070FB6F894DEBF0FBE10
:1011C000CDBF8111EBC020E030E040E85FE3C70114
:1011D000B6010E948B176093790270937A02809314
:1011E0007B0290937C02DAC081369105A9F520E05C
:1011F00030E040E85FE36091750270917602809183
:101200007702909178020E948A176B017C0120E09E
:1012100030E0A9010E94F21918160CF0BFC08EE14F
:10122000E7E6F2E0DE01DD9601900D928A95E1F7A6
:101230001F921F928FEF8F938F938DB79EB74E970C
:101240000FB6F8949EBF0FBE8DBFADB7BEB7119657
:101250008EE1FE01FD968DC08737910509F04BC0E8
:1012600020E030E040E85FE36091790270917A021B
:1012700080917B0290917C020E948A176B017C0115
:1012800020E030E040E051E40E94F21918160CF022
:1012900085C08EE1E7E6F2E0DE015F9601900D92F7
:1012A0008A95E1F78FEF8F938F931F921F928DB7DF
:1012B0009EB74E970FB6F8949EBF0FBE8DBFADB7C9
:1012C000BEB711968EE1FE017F9601900D928A9530
:1012D000E1F70E94C4070FB6F894DEBF0FBECDBF82
:1012E00081115CC0C0927902D0927A02E0927B02B6
:1012F000F0927C0253C08436910509F04FC020E083
:1013000030E040E85FE36091750270917602809171
:101310007702909178020E948B176B017C0120E08C
:1013200030E040EA50E40E948B1720E030E048EAC9
:1013300052E40E94F71787FF31C08EE1E7E6F2E042
:10134000DE01119601900D928A95E1F71F921F928E
:101350001F9281E08F938DB79EB74E970FB6F8948A
:101360009EBF0FBE8DBFADB7BEB711968EE1FE0119
:10137000319601900D928A95E1F70E94C4070FB64D
:10138000F894DEBF0FBECDBF811108C0C0927502B8
:10139000D0927602E0927702F0927802C858DF4F3E
:1013A0000FB6F894DEBF0FBECDBFDF91CF91FF9196
:1013B000EF91BF91AF919F918F917F916F915F91CD
:1013C0004F913F912F91FF90EF90DF90CF900F9032
:1013D0000FBE0F901F901895CF92DF92EF92FF9261
:1013E0000F931F93840F951FA8014B5F5F4F4C19FC
:1013F0005D0948175907BCF005968C199D0980179F
:1014000091078CF0260F371FC70105968C199D098F
:101410008217930744F02B5F3F4F2C193D0981E061
:101420002E153F050CF480E01F910F91FF90EF9077
:10143000DF90CF9008958F929F92AF92BF92CF92FC
:10144000DF92EF92FF921F93CF93DF93CDB7DEB77A
:10145000CCA4DDA4EEA4FFA488A899A8AAA8BBA840
:101460001CA920E030E0A901C701B6010E94F219D1
:10147000181684F020E030E0A901C701B6010E94EF
:10148000F71787FF0DC0C12CD12C30E8E32E3FEBBE
:10149000F32E06C0C12CD12C20E8E22E2FE3F22E31
:1014A00020E030E0A901C501B4010E94F21918162C
:1014B00084F020E030E0A901C501B4010E94F717D3
:1014C00087FF0DC0812C912C90E8A92E9FEBB92E9F
:1014D00006C0812C912C80E8A82E8FE3B82E1735FA
:1014E00009F5C501B4010E9473187FA76EA7C70153
:1014F000B6010E9473187DA76CA78EE1FE013E968F
:10150000DF0101900D928A95E1F7DF91CF911F9154
:10151000FF90EF90DF90CF90BF90AF909F908F9013
:101520000C94C40780E0DF91CF911F91FF90EF9062
:10153000DF90CF90BF90AF909F908F900895CF9302
:10154000DF930E945C1FCEE1D2E0BC01990F880BB3
:10155000990B0E94AB1820E03EEF4FEF56E40E943B
:1015600001182DEC3CEC4CE45EE30E94F7192DECE5
:101570003CEC4CE45EE30E948B176E8B7F8B888F74
:10158000998F0E945C1FBC01990F880B990B0E94D8
:10159000AB1820E03EEF4FEF56E40E9401182BED10
:1015A0003FE049E450E40E94F7199B01AC010E941E
:1015B0008B176A8F7B8F8C8F9D8FDF91CF910895D2
:1015C0002F923F924F925F926F927F928F929F9253
:1015D000AF92BF92CF92DF92EF92FF920F931F9341
:1015E000CF93DF93CDB7DEB72E970FB6F894DEBF5B
:1015F0000FBECDBF9E878D871B0180907902909092
:101600007A02A0907B02B0907C02409075025090CC
:10161000760260907702709078026091300270914B
:10162000310280913202909133020E9473186983D3
:101630007A838B839C8360912C0270912D02809120
:101640002E0290912F020E9473186D837E838F83E8
:101650009887C501B4010E94731869877A878B87C0
:101660009C87C301B2010E947318CC24C394D12C6F
:10167000E980FA800D811E8129853A85AB01B1018F
:101680008D859E850E94EC09811198C02D853E852F
:10169000B901330F880B990B0E94AB18E62E7983A2
:1016A0008D83192F762F6981982F272F362F492F59
:1016B000512FC301B2010E948B172B013C0120E086
:1016C00030E040EA50E40E948B1720E030E048EA26
:1016D00052E40E94F71787FFD4C020E030E0A90150
:1016E000C301B2010E94F21918160CF0CAC0B10170
:1016F000330C880B990B0E94AB18362E272E082F1F
:10170000F92EB101272F362F402F5F2DC501B401CF
:101710000E948B174B015C0120E030E040EA50E46E
:101720000E948B1720E030E040E452E40E94F7175B
:1017300087FFA7C020E030E040E051E4C501B401DC
:101740000E94F21918160CF09CC087E58F93FF9247
:101750000F932F923F921F933D813F9389818F93E7
:10176000EF922DB73EB72E5131090FB6F8943EBF18
:101770000FBE2DBFADB7BEB711968EE1E7E6F2E022
:1017800001900D928A95E1F70E941B0A0FB6F8941A
:10179000DEBF0FBECDBF811174C040927502509262
:1017A000760260927702709278028092790290922B
:1017B0007A02A0927B02B0927C0263C080916D029B
:1017C00090916E02A0916F02B091700280937502A9
:1017D00090937602A0937702B09378028091710281
:1017E00090917202A0917302B09174028093790279
:1017F00090937A02A0937B02B0937C02809167025F
:10180000909168020197909368028093670280919B
:10181000240290912502A0912602B0912702809384
:101820002C0290932D02A0932E02B0932F02809150
:10183000280290912902A0912A02B0912B02809354
:10184000300290933102A0933202B09333022E966D
:101850000FB6F894DEBF0FBECDBFDF91CF911F91C1
:101860000F91FF90EF90DF90CF90BF90AF909F903F
:101870008F907F906F905F904F903F902F900C943F
:101880009F0A2E960FB6F894DEBF0FBECDBFDF9134
:10189000CF911F910F91FF90EF90DF90CF90BF906D
:1018A000AF909F908F907F906F905F904F903F9000
:1018B0002F9008952F923F924F925F926F927F9256
:1018C0008F929F92AF92BF92CF92DF92EF92FF9250
:1018D0000F931F93CF93DF93CDB7DEB728970FB643
:1018E000F894DEBF0FBECDBF6091790270917A028D
:1018F00080917B0290917C020E9473187C836B83A1
:1019000060917502709176028091770290917802D1
:101910000E9473187E836D836090690270906A02E2
:1019200040909B0250909C02209067023090680289
:1019300080914A0290914B029A838983EDE9F2E00B
:10194000F887EF8324E0A22E22E0B22E36EF832E1A
:1019500099249A94EF81F885E280F38000811181C7
:10196000CC24C394D12C2B813C814D815E8160E0DD
:1019700070E080E090E00E94EC09882361F0FFEFC6
:101980006F1A7F0A21E0421A5108EF81F88591828F
:10199000808293828282F501E280F380008111814E
:1019A000CC24C394D12C2B813C814D815E8160E09D
:1019B00070E080E090E00E94EC09882369F0F1E09B
:1019C0002F1A310889819A8101979A838983F501B9
:1019D00091828082938282828F81988504969887F3
:1019E0008F8394E0A90EB11CEF81F885E15BF24092
:1019F00009F0B0CF70926A026092690250929C0224
:101A000040929B02309268022092670289819A81FB
:101A100090934B0280934A0228960FB6F894DEBF4B
:101A20000FBECDBFDF91CF911F910F91FF90EF902F
:101A3000DF90CF90BF90AF909F908F907F906F90EE
:101A40005F904F903F902F9008952F923F924F922A
:101A50005F926F927F928F929F92AF92BF92CF923E
:101A6000DF92EF92FF920F931F93CF93DF93C0907B
:101A70003802D0903902E0903A02F0903B02C70160
:101A8000B6010E94FC178090340290903502A0901D
:101A90003602B0903702A50194010E94F719EB01BC
:101AA000182F092FC701B6010E94881A2B013C018B
:101AB00020912C0230912D0240912E0250912F0244
:101AC000F8016C2F7D2F8F2F9E2F0E948B176B019B
:101AD0007C0120E030E0A901F8016C2F7D2F8F2FD1
:101AE0009E2F0E94F717881F8827881F332433945E
:101AF000682F632595E0292E269EB0011124072E1C
:101B0000000C880B990B0E94AB18A70196010E944C
:101B10008B1720E030E048EA52E40E94F2191816D0
:101B20000CF4CBC020E030E0A901C701B6010E944F
:101B3000F71787FDC2C0A3019201C501B4010E943D
:101B4000F7192B01782E692E209130023091310245
:101B50004091320250913302F301752D8F2F9E2F49
:101B60000E948B174B015C0120E030E0A901F301DA
:101B7000642D752D8F2F9E2F0E94F717881F8827A1
:101B8000881F3826239CB0011124072E000C880BD7
:101B9000990B0E94AB18A50194010E948B1720E0BD
:101BA00030E040E452E40E94F21918160CF485C0AB
:101BB00020E030E040E151E4C501B4010E94F71794
:101BC00087FD7BC087E5382E3F926F927F925F92B0
:101BD0004F920F931F93DF93CF932DB73EB72E51A4
:101BE00031090FB6F8943EBF0FBE2DBFADB7BEB7DB
:101BF00011968EE1EEE1F2E001900D928A95E1F707
:101C00000E941B0A2DB73EB7295D3F4F0FB6F894CF
:101C10003EBF0FBE2DBF811150C03F921F921F9239
:101C20001F921F920F931F93DF93CF938DB79EB791
:101C30004E970FB6F8949EBF0FBE8DBFADB7BEB71F
:101C400011968EE1EEE1F2E001900D928A95E1F7B6
:101C50000E941B0A2DB73EB7295D3F4F0FB6F8947F
:101C60003EBF0FBE2DBF811128C03F926F927F9261
:101C70005F924F921F921F921F921F928DB79EB735
:101C80004E970FB6F8949EBF0FBE8DBFADB7BEB7CF
:101C900011968EE1EEE1F2E001900D928A95E1F766
:101CA0000E941B0A2DB73EB7295D3F4F0FB6F8942F
:101CB0003EBF0FBE2DBF8823A1F0DF91CF911F91B2
:101CC0000F91FF90EF90DF90CF90BF90AF909F90DB
:101CD0008F907F906F905F904F903F902F900C94DB
:101CE0009F0A20E030E046EA52E4C701B6010E94B4
:101CF000F71787FF11C020E030E0A901C701B60146
:101D00000E94F219181644F4C0922C02D0922D02AF
:101D1000E0922E02F0922F0220E030E04CE352E4F9
:101D2000C501B4010E94F71787FF12C020E030E020
:101D300040E051E4C501B4010E94F219181644F4C0
:101D40008092300290923102A0923202B09233021D
:101D5000DF91CF911F910F91FF90EF90DF90CF9087
:101D6000BF90AF909F908F907F906F905F904F90BB
:101D70003F902F9008958F929F92AF92BF92CF92F3
:101D8000DF92EF92FF920F931F93CF93DF930E9406
:101D90005C1FBC01990F880B990B0E94AB1820E0C7
:101DA0003EEF4FEF56E40E94011820E030E04EE98C
:101DB00052E40E94F7190E94641A0E947318EB0102
:101DC0000E945C1FBC01990F880B990B0E94AB18F5
:101DD00020E03EEF4FEF56E40E94011820E030E093
:101DE0004CE052E40E94F7190E94641A20E030E0AF
:101DF00040E051E40E948B1720E030E040EA50E4DC
:101E00000E948B170E9473188B01E12CF12C812CFE
:101E1000912CC12CD12C5E01AE0CBF1CB8016C0DF5
:101E20007D1DC5010E94AC07811108C04FEFC41A87
:101E3000D40A85E0C816D10489F703C088248394A6
:101E4000912C4FEFE41AF40A85E0E816F10409F743
:101E50008A94892809F49BCFEDE9F2E080E090E0D4
:101E600020813181263F3F4FA9F4880F991F880FA9
:101E7000991FFC01E356FD4FD183C0831383028376
:101E800080919B0290919C02019690939C0280937A
:101E90009B0205C0019634968530910509F70E9492
:101EA0007E030E94641A0E947318709396026093D6
:101EB0009502DF91CF911F910F91FF90EF90DF90EE
:101EC000CF90BF90AF909F908F9008952F923F92A8
:101ED0004F925F926F927F928F929F92AF92BF923A
:101EE000CF92DF92EF92FF920F931F93CF93DF93E6
:101EF000CDB7DEB72A970FB6F894DEBF0FBECDBFC1
:101F00008090300290903102A0903202B090330263
:101F1000C501B4010E9473187C836B8340902C022E
:101F200050902D0260902E0270902F02C301B201DA
:101F30000E9473187E836D835DE9252E52E0352E55
:101F400024E032E03A8329831A861986F101E2807F
:101F5000F38000811181C12CD12C2B813C814D81DA
:101F60005E8160E070E080E090E00E94EC09811109
:101F70005BC0E981FA810190F081E02DF887EF8361
:101F8000E981FA81E280F3800F8118852B813C8101
:101F90004D815E8160E070E080E090E00E94EC099D
:101FA000811142C0063F1F4F61F5C301B2010E947B
:101FB000641A29853A85220F331F220F331F2C5FA5
:101FC0003D4F3A8329830E947318E981FA81718316
:101FD0006083C501B4010E94641A0E947318E981EC
:101FE000FA817383628380914A0290914B02019639
:101FF00090934B0280934A0210929802109297029B
:1020000013C029853A852F5F3F4F3A87298734E0EF
:10201000230E311C89819A8104969A838983E985EC
:10202000FA85359709F092CF0E947E030E94641AC8
:102030000E94731870931902609318022A960FB6C3
:10204000F894DEBF0FBECDBFDF91CF911F910F91EE
:10205000FF90EF90DF90CF90BF90AF909F908F90C8
:102060007F906F905F904F903F902F900895CF9208
:10207000DF92EF92FF920E947E030E94641A0E94F8
:1020800073186B017C0180919B0290919C028530BA
:1020900091058CF480919502909196029601281BEF
:1020A000390B2230310549F48091E801811105C0D6
:1020B0000E94BB0E10C0059721F08091E801882393
:1020C00051F00E947E030E94641A0E94731870935C
:1020D0009602609395028091970290919802892BC5
:1020E000A9F480914A0290914B0285309105D4F475
:1020F0008091180290911902C81AD90A33E0C316C8
:10210000D10491F48091E80181110EC081E090E04A
:102110009093980280939702FF90EF90DF90CF907A
:102120000C94660F059721F08091E801882351F007
:102130000E947E030E94641A0E9473187093190211
:1021400060931802FF90EF90DF90CF9008959091E8
:10215000E80181E089278093E801882399F00E94B3
:102160007E036093440270934502809346029093ED
:102170004702109254021092550210925602109289
:10218000570208950E947E03609354027093550293
:102190008093560290935702209144023091450259
:1021A00040914602509147020E948A179B01AC0160
:1021B00060910002709101028091020290910302ED
:1021C0000E948B17609300027093010280930202B9
:1021D000909303020895CF938091FB01813091F099
:1021E0008091FC01813089F08091FD01813091F076
:1021F0002091FE0181E090E0213009F080E060E074
:1022000070E00CC061E070E007C060E070E08FEF4C
:102210009FEF04C06FEF7FEF80E090E00E94E00A44
:102220000E945A0CC091F901C13099F48091E601E5
:1022300081110FC00E947E0320E030E040E050E4B6
:102240000E94F21918162CF40E94A710C093E60100
:1022500009C08091F901811105C08091E6018111C9
:102260001092E601CF9108950E9478110E94C40651
:102270008091E801811116C00E947E032091000226
:102280003091010240910202509103020E948A178C
:102290006093ED017093EE018093EF019093F00154
:1022A0000E94250D0E94A6070E94EB100E94300795
:1022B0000E9437100E94651186B590E00C94611F52
:1022C0000E9409050E943411FDCFCF93DF9360E097
:1022D00080E00E940114C1EBD2E0699181E00E948C
:1022E000A61384E0C93AD807C1F7DF91CF910895CA
:1022F000E1EBF2E0119284E0E93AF807D9F70895AA
:1023000084359105A8F56033710590F59B0173E064
:10231000359527957A95E1F76770452BA1F044E54F
:10232000429FF001439FF00D11248E0F9F1FFC016F
:10233000EF54FD4F81E090E001C0880F6A95EAF705
:102340009081892B14C044E5429FF001439FF00D1A
:1023500011248E0F9F1FFC01EF54FD4F81E090E090
:1023600001C0880F6A95EAF7809590818923808360
:1023700008952F923F924F925F926F927F928F9229
:102380009F92AF92BF92CF92DF92EF92FF920F9304
:102390001F93CF93DF93CDB7DEB72E970FB6F89488
:1023A000DEBF0FBECDBF1C013B012A013A8329834A
:1023B0008417950771F57C836B8329813A816216B6
:1023C00073069CF48B819C81281739070CF41AC181
:1023D000A8016B817C81C1010E9480112B813C810D
:1023E0002F5F3F4F3C832B83E8CFAB81BC8129819A
:1023F0003A81A217B3070CF405C1A8016B817C8157
:10240000C1010E9480118B819C8101979C838B83E9
:10241000D4CF89819A816817790751F53A82298248
:10242000241435049CF4A981BA814A165B060CF485
:10243000E9C0A801B30189819A810E948011298194
:102440003A812F5F3F4F3A832983EACF29813A812E
:10245000241535050CF4D6C0A801B30189819A81F1
:102460000E948011A981BA811197BA83A983D8CF1C
:102470004215530554F4872D69807A8069838A83D5
:10248000922D832D1A01492E582EB201621973091B
:10249000072E000C880B990B0E94AB186F8378876E
:1024A00089879A8769817A8166197709072E000CD6
:1024B000880B990B0E94AB184B015C012F8138856A
:1024C00049855A850E9401186B837C838D839E8386
:1024D00020E030E0A9010E94F21987FF09C08B813A
:1024E0009C81AD81BE81B0588B839C83AD83BE83BC
:1024F000C12CD12C760120E030E0A9016F817885D4
:1025000089859A850E94F21918160CF077C042143A
:1025100053040CF477C0A801B301C1010E948011DB
:102520002B813C814D815E81C701B6010E948B17D2
:102530006B017C0120E030E040E05FE30E94F21993
:1025400087FF10C020E030E0A9016F817885898580
:102550009A850E94F21918160CF04CC09FEF291AA8
:10256000390AC9CF20E030E0A901C501B4010E94B9
:10257000F2191816CCF529813A812615370514F37E
:10258000A801B301C1010E948011A1E0B0E0BC87A5
:10259000AB8720E030E0A901C501B4010E94F21927
:1025A000181614F01C861B8621E030E03E872D872C
:1025B00020E030E0A901C501B4010E94F71787FDB2
:1025C00002C01E861D868B859C85AD85BE858A1BB7
:1025D0009B0B680E791E20E030E040E85FE3C70106
:1025E000B6010E948A17A4CF89819A81681679065C
:1025F0003CF6A8CFA1E02A1A31087DCF2414350477
:102600000CF089CF2E960FB6F894DEBF0FBECDBF6B
:10261000DF91CF911F910F91FF90EF90DF90CF90BE
:10262000BF90AF909F908F907F906F905F904F90F2
:102630003F902F9008952F923F924F925F926F920A
:102640007F928F929F92AF92BF92CF92DF92EF9242
:10265000FF920F931F93CF93DF936C014B011901EE
:1026600085E0489F20011124E12CF12C80EA481AD2
:10267000510866246394712CF201EE0DFF1DE25B9C
:10268000FD4FE4912114310409F4E09500E010E0DD
:10269000CE2FD0E05601AE0CBF1CA301002E02C00D
:1026A000440F551F0A94E2F74C235D23002E02C00D
:1026B000559547950A94E2F7B401600F711FC50163
:1026C0000E9480110F5F1F4F0830110531F78FEF07
:1026D000E81AF80A85E0E816F10471F6DF91CF9167
:1026E0001F910F91FF90EF90DF90CF90BF90AF9030
:1026F0009F908F907F906F905F904F903F902F9022
:102700000895CF92DF92EF92FF920F931F93CF9392
:10271000DF937B018A016901D82FC0E0F801EC0F3B
:10272000F11D4081442349F09601B7018D2F90E0BF
:102730000E941B13DB5FCF5FF1CFDF91CF911F9121
:102740000F91FF90EF90DF90CF90089525B12F7DEE
:1027500030E2839FC0011124822B85B95F9887E006
:1027600090E070E08F989B01082E02C03595279568
:102770000A94E2F720FF02C02E9A01C02E988F9A89
:10278000019780F75F9A0895CF93C82F579A249A9C
:10279000259A269A879A2C985F9A2C9A61E280E073
:1027A0000E94A6136C2F606880E00E94A61364E06C
:1027B00080E00E94A61363E180E00E94A6136CE013
:1027C00080E00E94A61360E280E00E94A6136CE005
:1027D00080E00E94A61360E480E00E94A61360E8F7
:1027E00080E0CF910C94A613CF93DF93C8EFD1E094
:1027F00060E081E00E94A6132197D1F7DF91CF918D
:102800000895CF93C82F606480E00E94A6136C2FB8
:10281000606880E0CF910C94A613A0E1B0E0E3E102
:10282000F4E10C94D91E7C011B016A01FC011782A2
:102830001682838181FF44C39E012F5F3F4F390180
:10284000F7019381F10193FD859193FF81911F0120
:10285000882309F431C3853239F493FD859193FFC0
:1028600081911F01853239F4B70190E00E945A200E
:1028700056016501E5CF10E0512C912CFFE1F915CF
:10288000D8F08B3279F038F4803279F08332A1F4C9
:10289000F92DF0612EC08D3261F0803369F4292D5D
:1028A00021602DC0392D3260932E892D8460982EA1
:1028B0002AC0E92DE86015C097FC2DC020ED280F37
:1028C0002A3088F496FE06C03AE0139F200D1124AA
:1028D000122F19C08AE0589E200D1124522EE92D86
:1028E000E0629E2E10C08E3231F496FCE5C2F92DC6
:1028F000F0649F2E08C08C3621F4292D2068922E7A
:1029000002C0883641F4F10193FD859193FF8191D6
:102910001F018111B3CF9BEB980F933020F4992DB9
:102920009061805E07C09BE9980F933008F066C104
:10293000992D9F7E96FF16E09F73992E853619F488
:102940009064992E08C0863621F4392F3068932E72
:1029500002C01111115097FE07C01C3350F44424DB
:102960004394410E27E00BC0183038F027E017E001
:1029700005C027E09CE3492E02C0212F412C5601BF
:1029800084E0A80EB11CF60160817181828193817F
:10299000042DA3010E946C1F6C01F981FC87F0FFDC
:1029A00002C0F3FF06C091FC06C092FE06C000E222
:1029B00005C00DE203C00BE201C000E08C858C7005
:1029C00019F001115AC29BC297FE10C04C0CFC8535
:1029D000F4FF04C08A81813309F44A94141474F515
:1029E00028E0241578F588E0482E2CC096FC2AC0F3
:1029F000812F90E08C159D059CF03CEFC3163FEFB6
:102A0000D30674F0892D8068982E0AC0E2E0F0E0C9
:102A1000EC0FFD1FE10FF11D8081803319F411507F
:102A20001111F4CF97FE0EC044244394410E812F20
:102A300090E0C816D9062CF41C1904C04424439411
:102A400001C010E097FE06C01C141D0434F4C6013A
:102A5000019605C085E090E002C081E090E00111A0
:102A60000196112331F0212F30E02F5F3F4F820F6D
:102A7000931F252D30E08217930714F4581A01C0D4
:102A8000512C892D897049F4552039F0B70180E225
:102A900090E00E945A205A94F7CF002329F0B70102
:102AA000802F90E00E945A2093FC09C0552039F0F5
:102AB000B70180E390E00E945A205A94F7CF97FE26
:102AC0004CC04601D7FE02C0812C912CC60188194A
:102AD0009909F301E80FF91FFE87ED879601241984
:102AE0003109388B2F87012F10E0119501951109BD
:102AF0003FEF8316930629F4B7018EE290E00E941F
:102B00005A20C814D9044CF08F85988988159905E6
:102B100024F4ED85FE85818101C080E3F1E08F1A08
:102B200091082D853E852F5F3F4F3E872D8780166C
:102B300091062CF0B70190E00E945A20D9CFC8141A
:102B4000D90441F49A81963320F4953319F43C85E5
:102B500034FF81E3B70190E04EC08A81813319F0E0
:102B60009C859F7E9C87B70190E00E945A2011119E
:102B700005C094FC18C085E690E017C0B7018EE24E
:102B800090E00E945A201E5F82E001E0080FF301EE
:102B9000E80FF11D8081B70190E00E945A20802F3C
:102BA0000113F3CFE6CF85E490E0B7010E945A20ED
:102BB000D7FC06C0C114D10441F4EC85E4FF05C084
:102BC000D194C194D1088DE201C08BE2B70190E0AD
:102BD0000E945A2080E32AE0C216D1042CF08F5FB5
:102BE000FAE0CF1AD108F7CFB70190E00E945A203F
:102BF000B701C601C0960E945A2054C1833631F0F5
:102C0000833779F0833509F056C020C0560132E091
:102C1000A30EB11CF6018081898301E010E06301FD
:102C200012C05601F2E0AF0EB11CF601C080D18097
:102C300096FE03C0612F70E002C06FEF7FEFC60108
:102C40000E944F208C01F92DFF7714C0560122E01D
:102C5000A20EB11CF601C080D18096FE03C0612F88
:102C600070E002C06FEF7FEFC6010E9444208C012C
:102C7000F92DF0689F2EF3FD1AC0852D90E00817FE
:102C80001907A8F4B70180E290E00E945A205A94F4
:102C9000F4CFF60197FC859197FE81916F01B70102
:102CA00090E00E945A2051105A94015011090115C8
:102CB000110579F7F7C0843611F0893661F55601B0
:102CC00097FE09C024E0A20EB11CF601608171815B
:102CD000828193810AC0F2E0AF0EB11CF6016081DF
:102CE0007181072E000C880B990BF92DFF769F2E12
:102CF00097FF09C090958095709561957F4F8F4F94
:102D00009F4FF0689F2E2AE030E0A3010E94B82078
:102D1000C82EC6183FC0092D853721F40F7E2AE042
:102D200030E01DC0097F8F3691F018F4883559F0D6
:102D3000C3C0803719F0883711F0BEC0006104FFAE
:102D400009C0046007C094FE08C0066006C028E001
:102D500030E005C020E130E002C020E132E0560161
:102D600007FF09C084E0A80EB11CF60160817181E3
:102D70008281938108C0F2E0AF0EB11CF601608140
:102D8000718180E090E0A3010E94B820C82EC6188F
:102D90000F77902E96FE0BC0092D0E7FC11650F4B2
:102DA00094FE0AC092FC08C0092D0E7E05C0DC2CE2
:102DB000092D03C0DC2C01C0D12E04FF0DC0FE0183
:102DC000EC0DF11D8081803311F4097E09C002FFF2
:102DD00006C0D394D39404C0802F867809F0D3948E
:102DE00003FD11C000FF06C01C2DD51480F4150D85
:102DF0001D190DC0D51458F4B70180E290E00E946F
:102E00005A20D394F7CFD51410F45D1801C0512C7B
:102E100004FF10C0B70180E390E00E945A2002FF37
:102E200017C001FD03C088E790E002C088E590E08C
:102E3000B7010CC0802F867859F001FF02C08BE2E9
:102E400001C080E207FD8DE2B70190E00E945A20A8
:102E5000C11638F4B70180E390E00E945A20115067
:102E6000F7CFCA94F301EC0DF11D8081B70190E01A
:102E70000E945A20C110F5CF15C0F4E0F51560F599
:102E800084E0581A93FE1FC0011127C02C8523FF30
:102E90002AC00CE411E0392D3071932EF801849191
:102EA000811124C0552009F4E4CCB70180E290E000
:102EB0000E945A205A94F6CFF7018681978126C046
:102EC0008FEF9FEF23C0B70180E290E00E945A206D
:102ED0005A945110F8CFD8CF512CB701802F90E0E1
:102EE0000E945A20D3CF00E511E0D5CF9110805237
:102EF000B70190E00E945A200F5F1F4FCFCF23E011
:102F0000251510F483E0BDCF512CC0CF6096E2E1CF
:102F10000C94F51E5058BB27AA270E94A2170C94A8
:102F20008C190E94531938F00E945A1920F039F474
:102F30009F3F19F426F40C9450190EF4E095E7FB2A
:102F40000C942119E92F0E94B11958F3BA1762079E
:102F500073078407950720F079F4A6F50C94EB1914
:102F60000EF4E0950B2EBA2FA02D0B01B9019001A4
:102F70000C01CA01A0011124FF27591B99F0593FE8
:102F800050F4503E68F11A16F040A22F232F342F30
:102F90004427585FF3CF469537952795A795F0407E
:102FA0005395C9F77EF41F16BA0B620B730B840B93
:102FB000BAF09150A1F0FF0FBB1F661F771F881F4B
:102FC000C2F70EC0BA0F621F731F841F48F48795A3
:102FD00077956795B795F7959E3F08F0B0CF939595
:102FE000880F08F09927EE0F9795879508950E940E
:102FF000FD1808F481E008950E946319E3950C948C
:103000009D190E9415180C948C190E945A1958F099
:103010000E94531940F029F45F3F29F00C942119C4
:1030200051110C94EC190C9450190E94B11968F3C9
:103030009923B1F3552391F3951B550BBB27AA2771
:1030400062177307840738F09F5F5F4F220F331FAB
:10305000441FAA1FA9F335D00E2E3AF0E0E832D073
:1030600091505040E695001CCAF72BD0FE2F29D076
:10307000660F771F881FBB1F261737074807AB0748
:10308000B0E809F0BB0B802DBF01FF2793585F4FBD
:103090003AF09E3F510578F00C9421190C94EC19EC
:1030A0005F3FE4F3983ED4F3869577956795B7959F
:1030B000F7959F5FC9F7880F911D9695879597F9AA
:1030C0000895E1E0660F771F881FBB1F6217730723
:1030D0008407BA0720F0621B730B840BBA0BEE1F38
:1030E00088F7E09508950E947A186894B1110C94BD
:1030F000EC1908950E94B91988F09F5798F0B92FDC
:103100009927B751B0F0E1F0660F771F881F991F1C
:103110001AF0BA95C9F714C0B13091F00E94EB19BA
:10312000B1E008950C94EB19672F782F8827B85FCA
:1031300039F0B93FCCF3869577956795B395D9F774
:103140003EF490958095709561957F4F8F4F9F4F7E
:103150000895E89409C097FB3EF49095809570958A
:1031600061957F4F8F4F9F4F9923A9F0F92F96E9D3
:10317000BB279395F695879577956795B795F11148
:10318000F8CFFAF4BB0F11F460FF1BC06F5F7F4FE5
:103190008F4F9F4F16C0882311F096E911C07723F7
:1031A00021F09EE8872F762F05C0662371F096E800
:1031B000862F70E060E02AF09A95660F771F881FCF
:1031C000DAF7880F9695879597F908950E94D31995
:1031D00090F09F3748F4911116F00C94EC1960E0D0
:1031E00070E080E89FEB089526F41B16611D711DA9
:1031F000811D0C9427190C944219990F0008550F42
:10320000AA0BE0E8FEEF16161706E807F907C0F06C
:1032100012161306E407F50798F0621B730B840B74
:10322000950B39F40A2661F0232B242B252B21F44E
:1032300008950A2609F4A140A6958FEF811D811DEE
:10324000089597F99F6780E870E060E0089588230B
:1032500071F4772321F09850872B762F07C06623CF
:1032600011F499270DC09051862B70E060E02AF090
:103270009A95660F771F881FDAF7880F96958795BE
:1032800097F908959F3F31F0915020F487957795F5
:103290006795B795880F911D9695879597F908952D
:1032A0009FEF80EC089500240A941616170618065E
:1032B0000906089500240A9412161306140605063A
:1032C00008950C9450190E94B919D8F3E894E0E0DD
:1032D000BB279F57F0F02AED3FE049EC06C0EE0F08
:1032E000BB0F661F771F881F28F0B23A620773076B
:1032F000840728F0B25A620B730B840BE3959A95FE
:1033000072F7803830F49A95BB0F661F771F881FBD
:10331000D2F790480C944419092E0394000C11F430
:10332000882352F0BB0F40F4BF2B11F460FF04C0A0
:103330006F5F7F4F8F4F9F4F0895EF93E0FF07C060
:10334000A2EA2AED3FE049EC5FEB0E94A2170E943F
:103350008C190F90039401FC9058ECEAF0E00C9467
:10336000901A57FD9058440F551F59F05F3F71F068
:103370004795880F97FB991F61F09F3F79F08795DC
:103380000895121613061406551FF2CF4695F1DF65
:1033900008C0161617061806991FF1CF86957105F5
:1033A0006105089408950E94B919A0F0BEE7B91705
:1033B00088F4BB279F3860F41616B11D672F782F4D
:1033C0008827985FF7CF869577956795B11D939578
:1033D0009639C8F30895E894BB2766277727CB0171
:1033E00097F908950E94FD1808F48FEF08950E9440
:1033F0000A1A0C948C190E94531938F00E945A1919
:1034000020F0952311F00C9421190C9450191124DB
:103410000C94EC190E94B11970F3959FC1F3950FAC
:1034200050E0551F629FF001729FBB27F00DB11D48
:10343000639FAA27F00DB11DAA1F649F6627B00DD8
:10344000A11D661F829F2227B00DA11D621F739FC1
:10345000B00DA11D621F839FA00D611D221F749FCF
:103460003327A00D611D231F849F600D211D822F16
:10347000762F6A2F11249F5750409AF0F1F088233D
:103480004AF0EE0FFF1FBB1F661F771F881F91506A
:103490005040A9F79E3F510580F00C9421190C94DF
:1034A000EC195F3FE4F3983ED4F3869577956795E2
:1034B000B795F795E7959F5FC1F7FE2B880F911D94
:1034C0009695879597F908950E94B919E8F09E3767
:1034D000E8F09639B8F49E3848F4672F782F88279B
:1034E000985FF9CF86957795679593959539D0F341
:1034F000B62FB1706B0F711D811D20F487957795E4
:10350000679593950C9427190C9442190C94EC1917
:103510009F930E9463190F9007FCEE5F0C949D1916
:103520009F938F937F936F93FF93EF939B01AC01D6
:103530000E94F719EF91FF910E94A41A2F913F91D9
:103540004F915F910C94F719DF93CF931F930F93D3
:10355000FF92EF92DF927B018C01689406C0DA2E15
:10356000EF010E940A1AFE01E894A5912591359178
:1035700045915591A6F3EF010E94A217FE01970114
:10358000A801DA9469F7DF90EF90FF900F911F91F7
:10359000CF91DF9108958091E80080FFFCCF0895DE
:1035A00081E08093D70080EA8093D80082E189BDD2
:1035B00009B400FEFDCF80E98093D8001092E000AE
:1035C0001092EC011092E9018CE08093E200789473
:1035D00008958091EC0108959FB7F8948091EC01D3
:1035E000882369F083E08093E9002BE68091E8006E
:1035F00085FD09C082FF03C02093E800F7CF9FBF7D
:103600008FEF9FEF08958091F1002091E80025FD54
:1036100003C02BE62093E8009FBF90E008952FB7EA
:10362000F8948091EC01811102C080E010C083E029
:103630008093E9008091F200811109C09091E80027
:1036400092FFF3CF95FDF1CF9BE69093E8002FBF5B
:1036500008958091EC01882371F08FB7F89493E07E
:103660009093E9002BE69091E80095FF03C020932A
:10367000E800F9CF8FBF08959091EC01992371F084
:103680009FB7F89424E02093E9002091EA012223D7
:1036900049F02091E80025FD03C09FBF8FEF0895FA
:1036A0001092EA012091E400275E34E04091E800A6
:1036B00045FD12C09FBF9091E400291304C081E032
:1036C0008093EA01EBCF9091EC01992339F39FB7F6
:1036D000F8943093E900EACF8093F1008091E800FC
:1036E00085FD03C08AE38093E80085E08093EB01C9
:1036F0009FBF80E008959091EC019923D1F09FB78E
:10370000F89424E02093E9002091E80025FD02C010
:103710009FBF0FC08093F1008091E80085FD03C03A
:103720008AE38093E80085E08093EB019FBF80E00F
:1037300008958FEF08950F931F93CF93DF93DC01CC
:10374000CB012091EC01222371F02FB7F89434E0E3
:103750003093E9003091EA01332349F03091E800D9
:1037600035FD03C02FBF8FEF43C11092EA01C4E0C3
:10377000D0E41AE305E0009709F439C13091E40080
:10378000375E4091E80045FD12C02FBF2091E40054
:10379000321304C081E08093EA01E5CF2091EC016F
:1037A000222309F32FB7F894C093E900EACF3091B0
:1037B000F200ED2FE31B4E2F50E08417950708F41D
:1037C000E82F8E1B91094E2F50E04134510508F02F
:1037D00001C1FA01EB59FF4F0C94D31E3C91309379
:1037E000F10011963C913093F10011963C91309389
:1037F000F10011963C913093F10011963C91309379
:10380000F10011963C913093F10011963C91309368
:10381000F10011963C913093F10011963C91309358
:10382000F10011963C913093F10011963C91309348
:10383000F10011963C913093F10011963C91309338
:10384000F10011963C913093F10011963C91309328
:10385000F10011963C913093F10011963C91309318
:10386000F10011963C913093F10011963C91309308
:10387000F10011963C913093F10011963C913093F8
:10388000F10011963C913093F10011963C913093E8
:10389000F10011963C913093F10011963C913093D8
:1038A000F10011963C913093F10011963C913093C8
:1038B000F10011963C913093F10011963C913093B8
:1038C000F10011963C913093F10011963C913093A8
:1038D000F10011963C913093F10011963C91309398
:1038E000F10011963C913093F10011963C91309388
:1038F000F10011963C913093F10011963C91309378
:10390000F10011963C913093F10011963C91309367
:10391000F10011963C913093F10011963C91309357
:10392000F10011963C913093F10011963C91309347
:10393000F10011963C913093F10011963C91309337
:10394000F10011963C913093F10011963C91309327
:10395000F10011963C913093F10011963C91309317
:10396000F10011963C913093F10011963C91309307
:10397000F10011963C913093F10011963C913093F7
:10398000F10011963C913093F10011963C913093E7
:10399000F10011963C913093F10011963C913093D7
:1039A000F10011963C913093F10011963C913093C7
:1039B000F10011963C913093F10011963C913093B7
:1039C000F10011963C913093F10011963C913093A7
:1039D000F10011963C913093F10011963091E8007E
:1039E00035FF1093E8000093EB012FBFC4CE80E0B9
:1039F000DF91CF911F910F9108958FB7F894909117
:103A0000EB01992341F094E09093E9009AE39093BD
:103A1000E8001092EB018FBF089560917F017091D3
:103A200080018091810190918201089580918301AC
:103A30000895809184010895809185010895809171
:103A4000E90108959FB7F8942091EC01222339F001
:103A500022E02093E9002091E80025FD03C09FBFEC
:103A60008FEF089521EA2093F10020E22093F100E6
:103A70001092F1001092F1001092F1001092F100FA
:103A800021E02093F1001092F1008093F1008AE38D
:103A90008093E8009FBF80E008951F920F920FB6B9
:103AA0000F9211248F939F938091E1001092E10077
:103AB00083FF11C01092E90091E09093EB00109207
:103AC000EC0092E19093ED0098E09093F00010925A
:103AD000EC011092E90182FF13C08091EC01882370
:103AE00079F08091EB01882359F081508093EB01AC
:103AF000811106C084E08093E9008AE38093E800A6
:103B00009F918F910F900FBE0F901F9018951F924D
:103B10000F920FB60F921124FF920F931F932F93C2
:103B20003F934F935F936F937F938F939F93AF9345
:103B3000BF93CF93DF93EF93FF931092E9008091AF
:103B4000E80083FF17C1F090F1008091F10000912F
:103B5000F1009091F10010E0192BC091F1009091CB
:103B6000F100D0E0D92B2091F1006091F10092EFAB
:103B70009093E800863009F049C08EE294E048E571
:103B800054E0FC01A591B4910A171B07D9F4FC017C
:103B90003296A591B491CA17DB07A1F4FC013496C3
:103BA00045915491FC013696849130E0362B2F3F9D
:103BB000310519F010F02FEF30E0281708F4822FAC
:103BC0003EEF0CC0079648175907D9F6D3C0490FE6
:103BD000511D891B3093E8008823A9F09091E800DB
:103BE000292F2570D9F392FDC8C0982F813108F094
:103BF00090E1FA01292F222351F364916093F1009F
:103C000021503196F8CF903149F3B7C0853049F44F
:103C10008EEF8093E8000E94CB1A00680093E300C7
:103C2000ACC0893059F5F110A5C00093EC01109299
:103C3000E9011092EB018EEF8093E80041E08DEEF8
:103C400094E04093E9009C012F5F3F4FFC015491A9
:103C50005093EB00552359F0F90124912093EC0087
:103C60009C012D5F3F4F3196E491E093ED004F5F53
:103C7000453011F0C901E5CF8EE177C0883051F4AD
:103C8000F0E8FF1277C00E94CB1A8091EC0180937C
:103C9000F10049C0813281F481EAF8126BC00E94C0
:103CA000CB1AEFE7F1E086E891E021912093F10053
:103CB0008E179F07D1F737C08032A9F491E2F9122D
:103CC00059C08091E80082FFFCCFEFE7F1E086E881
:103CD00091E02091F10021938E179F07D1F78BEF90
:103CE0008093E80020C0823241F4E1E2FE1242C03B
:103CF0000093E9010E94CB1A16C0811118C00E94DE
:103D0000CB1AF2E8FF120AC0C093E9008091EB00E1
:103D100085FB882780F91092E90001C080E080933C
:103D2000F1001092F1008EEF8093E80026C0982FEA
:103D30009D7F9130F9F492E0F9121CC0012BD1F46F
:103D4000CF779FEF9C0F9430A8F49EEF9093E800FC
:103D5000C093E900833071F089E18093EB0081E04A
:103D600090E001C0880FCA95EAF78093EA001092AC
:103D7000EA0003C081E28093EB00FF91EF91DF91B5
:103D8000CF91BF91AF919F918F917F916F915F91F3
:103D90004F913F912F911F910F91FF900F900FBE68
:103DA0000F901F901895EE0FFF1F0590F491E02DD6
:103DB00009942F923F924F925F926F927F928F92CF
:103DC0009F92AF92BF92CF92DF92EF92FF920F93AA
:103DD0001F93CF93DF93CDB7DEB7CA1BDB0B0FB6B4
:103DE000F894DEBF0FBECDBF09942A883988488871
:103DF0005F846E847D848C849B84AA84B984C88407
:103E0000DF80EE80FD800C811B81AA81B981CE0FFD
:103E1000D11D0FB6F894DEBF0FBECDBFED010895E2
:103E20008F929F92AF92BF92CF92DF92EF92FF92CA
:103E3000CF93DF93EC01688179818A819B81611541
:103E400071058105910521F464E279ED8BE597E038
:103E50002DE133EF41E050E00E94162149015A0163
:103E60009B01AC01A7EAB1E40E9435216B017C0102
:103E7000ACEEB4EFA50194010E944321DC01CB011B
:103E80008C0D9D1DAE1DBF1DB7FF03C00197A1097D
:103E9000B04888839983AA83BB839F77DF91CF91B2
:103EA000FF90EF90DF90CF90BF90AF909F908F905A
:103EB00008950E94101F089586E891E00E94101F47
:103EC0000895A0E0B0E08093860190938701A093CD
:103ED0008801B09389010895283008F027E033273E
:103EE000DA01990F311D87FD91600096610571051A
:103EF00039F432602E5F3D9330E32A95E1F708955F
:103F00009F3F30F080387105610509F03C5F3C5FF0
:103F10003D93913008F08068911DDF93CF931F93FC
:103F20000F93FF92EF92192F987F9695E92F969510
:103F30009695E90FFF27E255FE4F99273327EE2488
:103F4000FF24A701E70105900894079428F4360F91
:103F5000E71EF81E491F511D660F771F881F991F06
:103F60000694A1F70590079428F4E70EF81E491F60
:103F7000561FC11D770F881F991F661F0694A1F752
:103F80000590079428F4F80E491F561FC71FD11D2E
:103F9000880F991F661F771F0694A1F70590079455
:103FA00020F4490F561FC71FD81F990F661F771F90
:103FB000881F0694A9F784911095177041F0D69543
:103FC000C79557954795F794E7941A95C1F7E4E597
:103FD000F1E0689415901591359165919591059052
:103FE0007FE27395E118F10A430B560BC90BD00918
:103FF000C0F7E10CF11E431F561FC91FD01D7EF4F0
:10400000703311F48A95E6CFE894015030F0080F30
:104010000AF40027021708F4202F2395022F7A3381
:1040200028F079E37D932A95E9F710C07D932A95CE
:1040300089F6069497956795379517951794E11823
:10404000F10A430B560BC90BD00998F023957E91CA
:1040500073957A3308F070E37C932013B8F77E9160
:1040600070617D9330F0839571E37D9370E32A95C1
:10407000E1F71124EF90FF900F911F91CF91DF9105
:10408000992787FD90950895FC0105906150704037
:104090000110D8F7809590958E0F9F1F0895FC0111
:1040A0006150704001900110D8F7809590958E0F67
:1040B0009F1F08950F931F93CF93DF93FB012381DD
:1040C00021FD03C08FEF9FEF2CC022FF16C0468159
:1040D0005781248135814217530744F4A081B1816F
:1040E0009D012F5F3F4F318320838C932681378141
:1040F0002F5F3F4F3783268314C08B01EC01FB01F8
:104100000084F185E02D0995892BE1F6D8011696FA
:104110008D919C911797019617969C938E93169765
:10412000CE01DF91CF911F910F910895AEE0B0E0E5
:10413000ECE9F0E20C94E71E0D891E8986E08C8381
:104140001A8309838FEF9FE79E838D83AE01475EBD
:104150005F4F6F89788DCE0101960E940D14EF811B
:10416000F885E00FF11F10822E96E4E00C94031FF7
:10417000FA01AA27283051F1203181F1E8946F9398
:104180006E7F6E5F7F4F8F4F9F4FAF4FB1E03ED03E
:10419000B4E03CD0670F781F891F9A1FA11D680FDC
:1041A000791F8A1F911DA11D6A0F711D811D911D0F
:1041B000A11D20D009F468943F912AE0269F112484
:1041C0003019305D3193DEF6CF010895462F4770E8
:1041D000405D4193B3E00FD0C9F7F6CF462F4F7043
:1041E000405D4A3318F0495D31FD4052419302D0A1
:1041F000A9F7EACFB4E0A695979587957795679547
:10420000BA95C9F700976105710508959B01AC0146
:104210000A2E06945795479537952795BA95C9F76D
:10422000620F731F841F951FA01D0895052E97FB15
:104230001EF400940E942D2157FD07D00E944821B2
:1042400007FC03D04EF40C942D21509540953095E9
:1042500021953F4F4F4F5F4F0895909580957095F2
:1042600061957F4F8F4F9F4F08950E946A21A59FB0
:10427000900DB49F900DA49F800D911D1124089561
:10428000B7FF0C9435210E943521821B930B0895B2
:10429000A1E21A2EAA1BBB1BFD010DC0AA1FBB1F4A
:1042A000EE1FFF1FA217B307E407F50720F0A21BBC
:1042B000B30BE40BF50B661F771F881F991F1A9429
:1042C00069F760957095809590959B01AC01BD0153
:1042D000CF010895A29FB001B39FC001A39F700DAD
:1042E000811D1124911DB29F700D811D1124911DFE
:0642F0000895F894FFCFD1
:1042F60001000101010101010000000101000100AE
:10430600010100000001010101010101010101019A
:10431600010001000101000100010100010001018D
:10432600010101010101010101010000000101007B
:10433600010101010000000101010101010101016A
:10434600010101000000010101000101010100015C
:10435600010101010101010101010101000000014A
:10436600010100010101000001010101010101003B
:10437600E100000000080100000005060701010039
:10438600005A616368617279204E69636F6C6C00D4
:104396006E313032313434353300546F6D20416E16
:1043A60064204A65727279002D4F6E20746865200C
:1043B6005465656E73792D004C3A256400483A259C
:1043C6006400533A256400253032643A253032645D
:0243D6000000E5
:00000001FF
