:100000000C947C020C9499020C9499020C94990221
:100010000C9499020C9499020C9499020C949902F4
:100020000C9499020C9499020C94D5200C940F21F5
:100030000C9499020C9499020C9499020C949902D4
:100040000C9499020C9499020C9499020C949902C4
:100050000C9447090C9499020C9499020C94D602C2
:100060000C9499020C9499020C9499020C949902A4
:100070000C9499020C9499020C9499020C94990294
:100080000C9499020C9499020C9499020C945903C3
:100090000C9499020C9499020C9499020C94990274
:1000A0000C9499020C9499020C94990205A84CCDD9
:1000B000B2D44EB93836A9020C50B9918688083CA2
:1000C000A6AAAA2ABE000000803F762072206E20D9
:1000D0006A20662062205E205A20562052204E2040
:1000E0004A20462042203E203A20362032202E2030
:1000F0002A20262022201E201A20162012200E2020
:100100000A2006200220FE1FFA1FF61FF21FEE1F14
:10011000EA1FE61FE21FDE1FDA1FD61FD21FCE1F07
:10012000CA1FC61FC21FBE1FBA1FB61FB21FAE1FF7
:10013000AA1FA61FA21F9E1F9A1F961F921F8E1FE7
:100140008A1F861F821F7E1F7A1F761F6E616E00B8
:10015000696E660000407A10F35A00A0724E1809CA
:100160000010A5D4E80000E87648170000E40B541E
:10017000020000CA9A3B000000E1F50500008096ED
:100180009800000040420F000000A086010000001F
:10019000102700000000E8030000000064000000D9
:1001A00000000A00000000000100000000002C76A2
:1001B000D888DC674F0823DFC1DFAE59E1B1B796BD
:1001C000E5E3E453C63AE651997696E8E6C284261A
:1001D000EB898C9B62ED407C6FFCEFBC9C9F40F2F6
:1001E000BAA56FA5F490055A2AF75C936B6CF96772
:1001F0006DC11BFCE0E40D47FEF520E6B500D0ED37
:10020000902E0300943577050080841E080000209E
:100210004E0A000000C80C333333330F986E12833C
:100220001141EF8D2114893BE65516CFFEE6DB1810
:10023000D1844B381BF77C1D901DA4BBE4242032D5
:1002400084725E228100C9F124ECA1E53D27000003
:1002500000000000005F00000007000700147F148A
:100260007F14242A7F2A12231308646236495522F8
:10027000500005030000001C2241000041221C0028
:1002800014083E081408083E080800503000000812
:1002900008080808006060000020100804023E51B1
:1002A00049453E00427F4000426151494621414557
:1002B0004B311814127F1027454545393C4A4949AE
:1002C0003001710905033649494936064949291E55
:1002D0000036360000005636000008142241001493
:1002E0001414141400412214080201510906324961
:1002F00079413E7E1111117E7F494949363E414187
:1003000041227F4141221C7F494949417F09090916
:10031000013E4149497A7F0808087F00417F41003A
:100320002040413F017F081422417F404040407FF0
:10033000020C027F7F0408107F3E4141413E7F094D
:100340000909063E4151215E7F091929464649495E
:10035000493101017F01013F4040403F1F204020C3
:100360001F3F4038403F63140814630708700807B4
:100370006151494543007F414100020408102000BB
:1003800041417F000402010204404040404000011E
:1003900002040020545454787F484444383844447C
:1003A0004420384444487F3854545418087E090186
:1003B000020C5252523E7F0804047800447D4000F3
:1003C0002040443D007F1028440000417F40007CD5
:1003D000041804787C0804047838444444387C14B5
:1003E000141408081414187C7C0804040848545495
:1003F0005420043F4440203C4040207C1C204020AE
:100400001C3C4030403C44281028440C5050503C88
:100410004464544C44000836410000007F00000052
:100420004136080010080810087846414678000157
:100430000000DB04120002000098044300030000E7
:10044000940404010309047E0414020309046604ED
:10045000160303090458040C0C0331003200330066
:100460003400350000001603550053004200200000
:10047000530065007200690061006C000000140305
:1004800059006F007500720020004E0061006D0081
:10049000650000000403090409024300020100C0D2
:1004A00032090400000102020100052400100105C8
:1004B0002401010104240206052406000107058227
:1004C0000310004009040100020A000000070503B0
:1004D00002400000070584024000001201000202F1
:1004E000000010C0167A040001010203010001C1DE
:1004F000120180360181360011241FBECFEFDAE0F1
:10050000DEBFCDBF11E0A0E0B1E0E6E0FAE402C05A
:1005100005900D92AC3FB107D9F725E0ACEFB1E003
:1005200001C01D92A736B207E1F70E949B140C94FC
:1005300001250C940000CF93DF93FC018491EF011F
:100540002196882321F00E94C41EFE01F7CFDF917F
:10055000CF910895CF93CFB121E041E951E060E020
:1005600070E085E090E00E94BC1621E040EA51E096
:100570006AE070E085E090E00E94BC1621E04AEA63
:1005800051E06EE170E08AE090E00E94BC1621E04C
:1005900048EB51E068E270E085E090E00E94BC1614
:1005A0000E94A014C5FFD7CFCF9108951F920F923C
:1005B0000FB60F9211240F931F932F933F934F93D6
:1005C0005F936F937F938F939F93AF93BF93EF93BB
:1005D000FF93CF93DF93CDB7DEB72E97DEBFCDBFAE
:1005E0008FB188878FB1898783B18A8783B18B87E1
:1005F00089B18C8789B18D8783B18E8787E0EAE8DE
:10060000F1E0DE01119601900D928A95E1F7BE01AD
:10061000685F7F4F8E010F5F1F4F20E030E051E099
:10062000F901EA5EFC4F8081880F808380818F71A1
:1006300080834081DB019D91BD01892F90E0D8012D
:100640000D9002C0959587950A94E2F78D0181700F
:10065000842B808380818F3129F4F901E954FD4F87
:10066000508307C08081811104C0F901E954FD4F16
:1006700010822F5F3F4F2730310591F62E960FB62F
:10068000F894DEBF0FBECDBFDF91CF91FF91EF9108
:10069000BF91AF919F918F917F916F915F914F919A
:1006A0003F912F911F910F910F900FBE0F901F90B0
:1006B00018951F920F920FB60F9211248F939F934C
:1006C000AF93BF938091FC019091FD01A091FE0139
:1006D000B091FF010196A11DB11D8093FC01909383
:1006E000FD01A093FE01B093FF01BF91AF919F91D7
:1006F0008F910F900FBE0F901F901895CF92DF92A1
:10070000EF92FF92CF93DF936091FC017091FD0116
:100710008091FE019091FF01C0919400D0919500CD
:100720000E94E41B20E030E040E857E40E94321DC4
:100730006B017C01BE0180E090E00E94E41B9B0104
:10074000AC01C701B6010E94C61A2DEB37E346E0A3
:1007500054E30E94321DDF91CF91FF90EF90DF9024
:10076000CF9008958091000190910101019709F0C7
:10077000D2C0109228031092270385E090E0909356
:1007800026038093250310923303109234031092B2
:1007900035031092360380E090E0A0E1B1E480934D
:1007A000370390933803A0933903B0933A03109220
:1007B0002A031092290380E090E0AEE9B2E480932E
:1007C000EA029093EB02A093EC02B093ED0280E07A
:1007D00090E0ACE1B2E48093EE029093EF02A0933C
:1007E000F002B093F1020E94E422BC01990F880B41
:1007F000990B0E94E61B20E03EEF4FEF56E40E946B
:100800003C1B2DEC3CEC4CE45EE30E94321D2DECD5
:100810003CEC4CE45EE30E94C61A6093F2027093D3
:10082000F3028093F4029093F5020E94E422BC014B
:10083000990F880B990B0E94E61B20E03EEF4FEFCB
:1008400056E40E943C1B2BED3FE049E450E40E943B
:10085000321D9B01AC010E94C61A6093F602709390
:10086000F7028093F8029093F90282E190E090936E
:100870000B0380930A038FE090E090930D03809325
:100880000C038DE090E090930F0380930E0389E1B9
:1008900090E090931103809310039093440380930E
:1008A000430323E230E030934603209345039093C3
:1008B0004803809347032DE230E030934A032093AE
:1008C00049033093FB022093FA022AE030E0309390
:1008D000FD022093FC024CE350E05093FF02409352
:1008E000FE0230930103209300032AE330E03093AB
:1008F0004C0320934B0390934E0380934D0388E465
:1009000090E09093500380934F038EE190E090939A
:100910005203809351038091330390913403A0914B
:100920003503B091360380932B0390932C03A0934F
:100930002D03B0932E038091370390913803A0913B
:100940003903B0913A0380932F0390933003A0931F
:100950003103B09332038091EA029091EB02A091AF
:10096000EC02B091ED028093E2029093E302A09337
:10097000E402B093E5028091EE029091EF02A09123
:10098000F002B091F1028093E6029093E702A09307
:10099000E802B093E90280E090E0FC01EA5EFC4FDF
:1009A0001082FC01E954FD4F1082019687309105B9
:1009B000A1F7EBE5F3E0A2ECB2E086EF9FEF26EFC4
:1009C0003FEF918380839383828311969C938E93D0
:1009D00013969C938E9312973496149643E0EF36B9
:1009E000F40769F73093D9022093D8023093DB02E1
:1009F0002093DA021092BE021092BF021092C0023F
:100A00001092C1020E947E030E94AE1B7093540399
:100A10006093530310925A03109259030E947E036D
:100A20000E94AE1B7093D7026093D6021092090306
:100A3000109208031092560310925503EFE0F2E073
:100A40002FEA32E080E090E0A0E8BFEB8083918362
:100A5000A283B38384839583A683B78338962E17A6
:100A60003F07A1F708950F931F93CF93DF9301E002
:100A700010E00E94B3147D9B13C0109201021092EB
:100A8000FC011092FD011092FE011092FF011093E3
:100A90000101009300010E94B203C1E0D0E002C056
:100AA000C0E0D0E021E048EC51E060E170E08EE091
:100AB00090E00E94BC1621E044ED51E06AE170E054
:100AC00089E090E00E94BC160E94A014CD2B89F210
:100AD000DF91CF911F910F910895CF9380E880937C
:100AE0006100C1E0C09361008FE30E94FF160E9485
:100AF0002F175298229884B184B9519821988598DB
:100B0000869881988298229A239A14BC84E085BDA5
:100B1000C0936E001092800080938100C0936F009C
:100B200078940E94581E0E94711E8823E1F30E944F
:100B3000B2030E94AA021092900081E0809391007B
:100B400080937100CF9108958F929F92AF92BF9240
:100B5000CF92DF92EF92FF920F931F93CF93DF9389
:100B6000CDB7DEB764970FB6F894DEBF0FBECDBF2A
:100B7000809101018F93809100018F9383EE91E02A
:100B80009F938F938E010F5F1F4F1F930F930E94B0
:100B90001E2421E0A80160E070E080E090E00E9467
:100BA000BC1685E2E82E83E0F82EF70181818F9351
:100BB00080818F9388EE91E09F938F931F930F9383
:100BC0000E941E2421E0A80160E070E082E190E034
:100BD0000E94BC16F70183818F9382818F938DEEE3
:100BE00091E09F938F931F930F930E941E2421E007
:100BF000A80160E070E084E290E00E94BC1620E072
:100C000030E040E752E460910B0270910C02809159
:100C10000D0290910E020E943C1B4B015C010E9450
:100C2000211C6B017C019B01AC01C501B4010E9438
:100C3000C51A20E030E040E752E40E94321D0E94D5
:100C4000AE1B7F936F93C701B6010E94AE1B7F93CB
:100C50006F9382EF91E09F938F931F930F930E9466
:100C60001E2421E0A80160E070E087E390E00E948C
:100C7000BC1601E028E030E044E550E068E070E0B8
:100C800080E090E00E94F4140FB6F894DEBF0FBE2F
:100C9000CDBF64960FB6F894DEBF0FBECDBFDF9117
:100CA000CF911F910F91FF90EF90DF90CF90BF9069
:100CB000AF909F908F9008954F925F926F927F9226
:100CC0008F929F92AF92BF92EF92FF920F931F93DA
:100CD000CF93DF93C0E0D0E0CE018A599E4F7C01D4
:100CE00000E010E04E010D2E000CAA08BB08F70131
:100CF0008081813059F5B801012E000C880B990BC9
:100D00000E94E61B2091370330913803409139034C
:100D100050913A030E94C61A0E94AE1B2B013C015F
:100D2000C501B4010E94E61B2091330330913403C6
:100D300040913503509136030E94C61A0E94AE1BA3
:100D4000DC01CB0141E0B2010E94BB140F5F1F4FD9
:100D5000F5E0EF0EF11C0530110549F62196C5307E
:100D6000D10509F0B9CFDF91CF911F910F91FF907D
:100D7000EF90BF90AF909F908F907F906F905F901B
:100D80004F9008954F925F926F927F928F929F92B1
:100D9000AF92BF92EF92FF920F931F93CF93DF9387
:100DA000C0E0D0E0CE01835B9E4F7C0100E010E00C
:100DB0004E010D2E000CAA08BB08F701808181307E
:100DC00059F5B801012E000C880B990B0E94E61B07
:100DD0002091EE023091EF024091F0025091F10229
:100DE0000E94C61A0E94AE1B2B013C01C501B40132
:100DF0000E94E61B2091EA023091EB024091EC0246
:100E00005091ED020E94C61A0E94AE1BDC01CB017C
:100E100041E0B2010E94BB140F5F1F4FF5E0EF0EDF
:100E2000F11C0530110549F62196C530D10509F0B0
:100E3000B9CFDF91CF911F910F91FF90EF90BF90AD
:100E4000AF909F908F907F906F905F904F9008959C
:100E5000CF92DF92EF92FF920F93CF93DF93CDB7B4
:100E6000DEB7E0970FB6F894DEBF0FBECDBF88E0C7
:100E7000EAE0F3E0DE01119601900D928A95E1F728
:100E800088E0E3E4F3E0DE01199601900D928A9583
:100E9000E1F788E0EAEFF2E0DE01519601900D9271
:100EA0008A95E1F788E0EBE4F3E0DE0159960190E2
:100EB0000D928A95E1F788E0EDE1F3E0DE0191968D
:100EC00001900D928A95E1F788E0EFEAF2E0DE0109
:100ED000999601900D928A95E1F7CE0101967C01D9
:100EE0006E0191E3C90ED11CF7012681378144813F
:100EF00055816281738101E0808191810E94F414A7
:100F0000F8E0EF0EF11CEC14FD0471F7E0960FB65B
:100F1000F894DEBF0FBECDBFDF91CF910F91FF9050
:100F2000EF90DF90CF9008954F925F926F927F92F3
:100F30008F929F92AF92BF92CF92DF92EF92FF92E9
:100F40000F931F93CF93DF9332ECE32E32E0F32E17
:100F50004BE5C42E43E0D42E00E010E082E0A82E42
:100F600081E0B82E9BE1892E91E0992E24E3622E38
:100F700021E0722EC0E0D0E0412C512CF60180819E
:100F80009181863FFFEF9F0781F0F301E40DF51D8E
:100F90002081213051F4F601628173816C0F7D1F35
:100FA00041E0840D951D0E94BB14F7018081918161
:100FB000863FFFEF9F0781F0F401E40DF51D2081CE
:100FC000213051F4F701628173816C0F7D1F41E084
:100FD000840D951D0E94BB1401151105C9F4809163
:100FE000D8029091D902863FFFEF9F0789F0F50163
:100FF000E40DF51D2081222359F06091DA027091F1
:10100000DB026C0F7D1F41E0840D951D0E94BB1417
:101010002FEF421A520A85E04816510409F0AECF6C
:101020002196E5E0AE0EB11CF5E08F0E911C25E097
:10103000620E711CC530D10509F09ECF0F5F1F4FA6
:1010400084E0E80EF11CE4E0CE0ED11C0530110561
:1010500009F084CFDF91CF911F910F91FF90EF9016
:10106000DF90CF90BF90AF909F908F907F906F90C8
:101070005F904F9008958F929F92AF92BF92CF92C0
:10108000DF92EF92FF92CF93DF93CFE0D2E0C88060
:10109000D980EA80FB8020E030E040E85FEBC701C8
:1010A000B6010E94321B882391F06C817D818E8174
:1010B0009F810E94AE1B4B015C01C701B6010E94DB
:1010C000AE1BDC01CB0141E0B4010E94BB142896A9
:1010D00082E0CF3AD807D9F6DF91CF91FF90EF9019
:1010E000DF90CF90BF90AF909F908F9008950E9417
:1010F000A4050E945C060C94C2069B0143E0359552
:1011000027954A95E1F744E5249F800D911D112410
:10111000FC01E159FC4F808190E0677002C0959519
:1011200087956A95E2F7817008952F923F924F92CA
:101130005F926F927F928F929F92AF92BF92CF9267
:10114000DF92EF92FF920F931F93CF93DF9300D024
:1011500000D0CDB7DEB7CFA8D8AC29AC3AAC8FA0C1
:1011600098A4A9A4BAA44BA45CA46DA47EA4C114A1
:10117000D104D1F1E12CF12CC6010D2C000CAA0BED
:10118000BB0B89839A83AB83BC83D7FE09C069817B
:101190007A818B819C810E94E61BA501940106C087
:1011A00020E030E040EA50E4C501B4010E94C61AD4
:1011B0000E94AE1B8B01B7010F2C000C880B990B02
:1011C0000E94E61BA30192010E94C61A0E94AE1B58
:1011D000C8010E947D08811143C09FEFE91AF90AF6
:1011E000A5E0EA16F10489F621143104C1F100E00A
:1011F00010E06101032C000CEE08FF08B801012E7D
:10120000000C880B990B0E94E61BA50194010E941B
:10121000C61A0E94AE1B69837A838B839C83121447
:1012200013043CF420E030E040EA50E4C301B20192
:1012300006C0C701B6010E94E61BA30192010E94ED
:10124000C61A0E94AE1B89819A810E947D08811175
:1012500007C00F5F1F4F0530110581F601C080E008
:101260000F900F900F900F90DF91CF911F910F91E2
:10127000FF90EF90DF90CF90BF90AF909F908F90B6
:101280007F906F905F904F903F902F9008951F92A6
:101290000F920FB60F921124CF92DF92EF92FF922E
:1012A0002F933F934F935F936F937F938F939F936E
:1012B000AF93BF93EF93FF93CF93DF93CDB7DEB799
:1012C000C857D109DEBFCDBF0E94741E8337910578
:1012D00009F05BC0C0903703D0903803E090390329
:1012E000F0903A0320E030E040EA50E4C701B60154
:1012F0000E94C61A20E030E040E85FE30E94C61A70
:1013000020E030E040E452E40E94321B87FF17C126
:101310008EE1E5E2F3E0DE01A55ABF4F01900D92A8
:101320008A95E1F71F9281E08F931F921F922DB74C
:101330003EB72E5131090FB6F8943EBF0FBE2DBFF8
:10134000ADB7BEB711968EE1FE01E55AFF4F019091
:101350000D928A95E1F70E9495080FB6F894DEBFCA
:101360000FBECDBF8111EBC020E030E040E85FE36D
:10137000C701B6010E94C61A609337037093380301
:101380008093390390933A03DAC081369105A9F529
:1013900020E030E040E85FE3609133037091340374
:1013A00080913503909136030E94C51A6B017C0130
:1013B00020E030E0A9010E942D1D18160CF0BFC0DE
:1013C0008EE1E5E2F3E0DE01DD9601900D928A9573
:1013D000E1F71F921F928FEF8F938F938DB79EB778
:1013E0004E970FB6F8949EBF0FBE8DBFADB7BEB778
:1013F00011968EE1FE01FD968DC08737910509F0AB
:101400004BC020E030E040E85FE36091370370912B
:1014100038038091390390913A030E94C51A6B01F9
:101420007C0120E030E040E051E40E942D1D1816C0
:101430000CF085C08EE1E5E2F3E0DE015F960190FD
:101440000D928A95E1F78FEF8F938F931F921F92E2
:101450008DB79EB74E970FB6F8949EBF0FBE8DBF47
:10146000ADB7BEB711968EE1FE017F9601900D9249
:101470008A95E1F70E9495080FB6F894DEBF0FBE7B
:10148000CDBF81115CC0C0923703D0923803E09287
:101490003903F0923A0353C08436910509F04FC0E6
:1014A00020E030E040E85FE3609133037091340363
:1014B00080913503909136030E94C61A6B017C011E
:1014C00020E030E040EA50E40E94C61A20E030E01C
:1014D00048EA52E40E94321B87FF31C08EE1E5E208
:1014E000F3E0DE01119601900D928A95E1F71F92CB
:1014F0001F921F9281E08F938DB79EB74E970FB6C4
:10150000F8949EBF0FBE8DBFADB7BEB711968EE1EA
:10151000FE01319601900D928A95E1F70E9495089F
:101520000FB6F894DEBF0FBECDBF811108C0C092C8
:101530003303D0923403E0923503F0923603C85857
:10154000DF4F0FB6F894DEBF0FBECDBFDF91CF9156
:10155000FF91EF91BF91AF919F918F917F916F918B
:101560005F914F913F912F91FF90EF90DF90CF903F
:101570000F900FBE0F901F901895CF92DF92EF92B1
:10158000FF920F931F93840F951FA8014B5F5F4F2E
:101590004C195D0948175907BCF005968C199D092F
:1015A000801791078CF0260F371FC70105968C19FD
:1015B0009D098217930744F02B5F3F4F2C193D097B
:1015C00081E02E153F050CF480E01F910F91FF90F4
:1015D000EF90DF90CF9008958F929F92AF92BF923D
:1015E000CF92DF92EF92FF921F93CF93DF93CDB70D
:1015F000DEB7CCA4DDA4EEA4FFA488A899A8AAA86D
:10160000BBA81CA920E030E0A901C701B6010E94D7
:101610002D1D181684F020E030E0A901C701B601A5
:101620000E94321B87FF0DC0C12CD12C30E8E32E65
:101630003FEBF32E06C0C12CD12C20E8E22E2FE385
:10164000F22E20E030E0A901C501B4010E942D1D59
:10165000181684F020E030E0A901C501B4010E9411
:10166000321B87FF0DC0812C912C90E8A92E9FEB97
:10167000B92E06C0812C912C80E8A82E8FE3B82EBD
:10168000173509F5C501B4010E94AE1B7FA76EA7EF
:10169000C701B6010E94AE1B7DA76CA78EE1FE01BB
:1016A0003E96DF0101900D928A95E1F7DF91CF918F
:1016B0001F91FF90EF90DF90CF90BF90AF909F90E1
:1016C0008F900C94950880E0DF91CF911F91FF904F
:1016D000EF90DF90CF90BF90AF909F908F90089544
:1016E000CF93DF930E94E422CCEDD2E0BC01990FAE
:1016F000880B990B0E94E61B20E03EEF4FEF56E46B
:101700000E943C1B2DEC3CEC4CE45EE30E94321D3D
:101710002DEC3CEC4CE45EE30E94C61A6E8B7F8B92
:10172000888F998F0E94E422BC01990F880B990B36
:101730000E94E61B20E03EEF4FEF56E40E943C1B68
:101740002BED3FE049E450E40E94321D9B01AC01C7
:101750000E94C61A6A8F7B8F8C8F9D8FDF91CF91ED
:1017600008952F923F924F925F926F927F928F9245
:101770009F92AF92BF92CF92DF92EF92FF920F9320
:101780001F93CF93DF93CDB7DEB72E970FB6F894A4
:10179000DEBF0FBECDBF9E878D871B0180903703B4
:1017A00090903803A0903903B0903A0340903303EF
:1017B0005090340360903503709036036091EE02D0
:1017C0007091EF028091F0029091F1020E94AE1BA5
:1017D00069837A838B839C836091EA027091EB0228
:1017E0008091EC029091ED020E94AE1B6D837E838E
:1017F0008F839887C501B4010E94AE1B69877A87E1
:101800008B879C87C301B2010E94AE1BCC24C3947A
:10181000D12CE980FA800D811E8129853A85AB01A2
:10182000B1018D859E850E94BD0A811199C02D85CB
:101830003E85B901330F880B990B0E94E61BE62EFB
:1018400079838D83192F762F6981982F272F362F33
:10185000492F512FC301B2010E94C61A2B013C012E
:1018600020E030E040EA50E40E94C61A20E030E078
:1018700048EA52E40E94321B87FFD5C020E030E0E6
:1018800040E85FEBC301B2010E942D1D18160CF059
:10189000CAC0B101330C880B990B0E94E61B362E8F
:1018A000272E082FF92EB101272F362F402F5F2D1D
:1018B000C501B4010E94C61A4B015C0120E030E072
:1018C00040EA50E40E94C61A20E030E044E452E4CA
:1018D0000E94321B87FFA7C020E030E040E051E4C7
:1018E000C501B4010E942D1D18160CF09CC087E59F
:1018F0008F93FF920F932F923F921F933D813F93BF
:1019000089818F93EF922DB73EB72E5131090FB6D3
:10191000F8943EBF0FBE2DBFADB7BEB711968EE196
:10192000E5E2F3E001900D928A95E1F70E94EC0A5E
:101930000FB6F894DEBF0FBECDBF811174C04092C8
:1019400033035092340360923503709236038092D1
:10195000370390923803A0923903B0923A0363C0E0
:1019600080912B0390912C03A0912D03B0912E0315
:101970008093330390933403A0933503B0933603DD
:1019800080912F0390913003A0913103B0913203E5
:101990008093370390933803A0933903B0933A03AD
:1019A00080912503909126030197909326038093BD
:1019B00025038091E2029091E302A091E402B091AC
:1019C000E5028093EA029093EB02A093EC02B093BD
:1019D000ED028091E6029091E702A091E802B091B9
:1019E000E9028093EE029093EF02A093F002B0938D
:1019F000F1022E960FB6F894DEBF0FBECDBFDF9179
:101A0000CF911F910F91FF90EF90DF90CF90BF90FB
:101A1000AF909F908F907F906F905F904F903F908E
:101A20002F900C94700B2E960FB6F894DEBF0FBE5D
:101A3000CDBFDF91CF911F910F91FF90EF90DF907D
:101A4000CF90BF90AF909F908F907F906F905F905E
:101A50004F903F902F9008952F923F924F925F9218
:101A60006F927F928F929F92AF92BF92CF92DF92AE
:101A7000EF92FF920F931F93CF93DF93CDB7DEB713
:101A800028970FB6F894DEBF0FBECDBF6091370325
:101A9000709138038091390390913A030E94AE1BF4
:101AA0007C836B83609133037091340380913503A1
:101AB000909136030E94AE1B7E836D836090270356
:101AC000709028034090590350905A0320902503AA
:101AD0003090260380910803909109039A838983AB
:101AE000EBE5F3E0F887EF8322ECA22E22E0B22EA2
:101AF00036EF832E99249A94EF81F885E280F38063
:101B000000811181CC24C394D12C2B813C814D8147
:101B10005E8160E070E080E090E00E94BD0A882372
:101B200061F0FFEF6F1A7F0A21E0421A5108EF813E
:101B3000F8859182808293828282F501E280F3802F
:101B400000811181CC24C394D12C2B813C814D8107
:101B50005E8160E070E080E090E00E94BD0A882332
:101B600069F0F1E02F1A310889819A8101979A83EF
:101B70008983F50191828082938282828F81988508
:101B8000049698878F8394E0A90EB11CEF81F885A5
:101B9000EF56F34009F0B0CF70922803609227030C
:101BA00050925A0340925903309226032092250303
:101BB00089819A81909309038093080328960FB630
:101BC000F894DEBF0FBECDBFDF91CF911F910F9173
:101BD000FF90EF90DF90CF90BF90AF909F908F904D
:101BE0007F906F905F904F903F902F9008954F920D
:101BF0005F926F927F928F929F92AF92BF92CF929D
:101C0000DF92EF92FF92CF93DF93CDB7DEB72A97A3
:101C10000FB6F894DEBF0FBECDBF9A878987DC016F
:101C20008D919D910D90BC91A02D89839A83AB835A
:101C3000BC839C01AD016091EA027091EB0280913E
:101C4000EC029091ED020E94C51A4B015C01A9853E
:101C5000BA8514968D919D910D90BC91A02D8D8388
:101C60009E83AF83B8879C01AD016091EE027091B5
:101C7000EF028091F0029091F1020E94C51A6B016F
:101C80007C01A5019401C501B4010E94321D2B0104
:101C90003C01A7019601C701B6010E94321D9B01BC
:101CA000AC01C301B2010E94C61A0E94D11D9B0162
:101CB000AC0160E070E080E89FE30E943C1B2B01D8
:101CC0003C019B01AC01C501B4010E94321D298178
:101CD0003A814B815C810E94C61A4B015C0120E075
:101CE00030E048EA52E40E94321B87FF46C020E001
:101CF00030E040E85FE3C501B4010E942D1D1816D5
:101D0000E4F5A3019201C701B6010E94321D2D81A5
:101D10003E814F8158850E94C61A2B013C0120E06C
:101D200030E040E452E40E94321B87FF26C020E0EE
:101D300030E040EA50E4C301B2010E942D1D1816A4
:101D4000E4F4C301B2010E94AE1B6B017C01C5012A
:101D5000B4010E94AE1BDC01CB01B6010E947D08DC
:101D600081110BC0E985FA8580829182A282B382BB
:101D7000448255826682778217C080E090E0A0E8B6
:101D8000BFEBE985FA8580839183A283B383848343
:101D90009583A683B7838091290390912A030196A6
:101DA00090932A03809329032A960FB6F894DEBFF6
:101DB0000FBECDBFDF91CF91FF90EF90DF90CF901E
:101DC000BF90AF909F908F907F906F905F904F905B
:101DD00008958F929F92AF92BF92CF92DF92EF922F
:101DE000FF92CF93DF93CFE0D2E0C880D980EA8022
:101DF000FB8020E030E040E85FEBC701B6010E94C5
:101E0000321B882309F497C0C701B6010E949F1DA9
:101E10006B017C018090EA029090EB02A090EC02B2
:101E2000B090ED02C501B4010E949F1D9B01AC0161
:101E3000C701B6010E942D1D87FD76C020E030E06D
:101E400040EA50E4C501B4010E94C61A0E949F1DD9
:101E50009B01AC01C701B6010E94321B87FF64C021
:101E60006C817D818E819F810E949F1D6B017C0111
:101E70008090EE029090EF02A090F002B090F102FC
:101E8000C501B4010E949F1D9B01AC01C701B601B1
:101E90000E942D1D87FD48C020E030E040EA50E45C
:101EA000C501B4010E94C61A0E949F1D9B01AC018E
:101EB000C701B6010E94321B87FF36C08091E20243
:101EC0009091E302A091E402B091E5028093EA02CE
:101ED0009093EB02A093EC02B093ED028091E602A6
:101EE0009091E702A091E802B091E9028093EE029E
:101EF0009093EF02A093F002B093F10280E090E0A3
:101F0000A0E8BFEB88839983AA83BB838C839D83DE
:101F1000AE83BF838091290390912A030196909309
:101F20002A038093290307C080910202811103C014
:101F3000CE010E94F70D289682E0CF3AD80709F02B
:101F400054CFDF91CF91FF90EF90DF90CF90BF9073
:101F5000AF909F908F9008952F923F924F925F92F3
:101F60006F927F928F929F92AF92BF92CF92DF92A9
:101F7000EF92FF920F931F93CF93DF93C090F602DF
:101F8000D090F702E090F802F090F902C701B60194
:101F90000E94371B8090F2029090F302A090F4020E
:101FA000B090F502A50194010E94321DEB01182F9B
:101FB000092FC701B6010E94C31D2B013C012091CE
:101FC000EA023091EB024091EC025091ED02F801EF
:101FD0006C2F7D2F8F2F9E2F0E94C61A6B017C01C4
:101FE00020E030E0A901F8016C2F7D2F8F2F9E2F6C
:101FF0000E94321B881F8827881F33243394682F40
:10200000632595E0292E269EB0011124072E000C91
:10201000880B990B0E94E61BA70196010E94C61A25
:1020200020E030E048EA52E40E942D1D18160CF41E
:10203000CBC020E030E0A901C701B6010E94321BED
:1020400087FDC2C0A3019201C501B4010E94321DE7
:102050002B01782E692E2091EE023091EF024091F3
:10206000F0025091F102F301752D8F2F9E2F0E94E7
:10207000C61A4B015C0120E030E0A901F301642D98
:10208000752D8F2F9E2F0E94321B881F8827881F37
:102090003826239CB0011124072E000C880B990BC5
:1020A0000E94E61BA50194010E94C61A20E030E0C0
:1020B00040E452E40E942D1D18160CF485C020E067
:1020C00030E040E151E4C501B4010E94321B87FDBC
:1020D0007BC087E5382E3F926F927F925F924F923E
:1020E0000F931F93DF93CF932DB73EB72E51310936
:1020F0000FB6F8943EBF0FBE2DBFADB7BEB7119659
:102100008EE1ECEDF2E001900D928A95E1F70E94EC
:10211000EC0A2DB73EB7295D3F4F0FB6F8943EBF8E
:102120000FBE2DBF811150C03F921F921F921F9270
:102130001F920F931F93DF93CF938DB79EB74E9748
:102140000FB6F8949EBF0FBE8DBFADB7BEB7119648
:102150008EE1ECEDF2E001900D928A95E1F70E949C
:10216000EC0A2DB73EB7295D3F4F0FB6F8943EBF3E
:102170000FBE2DBF811128C03F926F927F925F9258
:102180004F921F921F921F921F928DB79EB74E972C
:102190000FB6F8949EBF0FBE8DBFADB7BEB71196F8
:1021A0008EE1ECEDF2E001900D928A95E1F70E944C
:1021B000EC0A2DB73EB7295D3F4F0FB6F8943EBFEE
:1021C0000FBE2DBF8823A1F0DF91CF911F910F91FA
:1021D000FF90EF90DF90CF90BF90AF909F908F9047
:1021E0007F906F905F904F903F902F900C94700B6A
:1021F00020E030E046EA52E4C701B6010E94321BFB
:1022000087FF11C020E030E0A901C701B6010E949C
:102210002D1D181644F4C092EA02D092EB02E0920F
:10222000EC02F092ED0220E030E04CE352E4C50114
:10223000B4010E94321B87FF12C020E030E040E072
:1022400051E4C501B4010E942D1D181644F480927A
:10225000EE029092EF02A092F002B092F102DF91B2
:10226000CF911F910F91FF90EF90DF90CF90BF9093
:10227000AF909F908F907F906F905F904F903F9026
:102280002F9008958F929F92AF92BF92CF92DF923C
:10229000EF92FF920F931F93CF93DF930E94E4225C
:1022A000BC01990F880B990B0E94E61B20E03EEFC2
:1022B0004FEF56E40E943C1B20E030E04EE952E430
:1022C0000E94321D0E949F1D0E94AE1B8B010E9426
:1022D000E422BC01990F880B990B0E94E61B20E0B9
:1022E0003EEF4FEF56E40E943C1B20E030E04CE014
:1022F00052E40E94321D0E949F1D20E030E040E029
:1023000051E40E94C61A20E030E040EA50E40E9406
:10231000C61A0E94AE1BEB01E12CF12C812C912CF2
:10232000C12CD12C5801AE0CBF1CBE016C0D7D1D03
:10233000C5010E947D08811108C08FEFC81AD80A14
:1023400085E0C816D10489F703C088248394912CB2
:102350008FEFE81AF80A85E0E816F10409F78A9485
:10236000892809F49BCF1093040200930302D093B1
:102370000602C093050283E092E0DF91CF911F91A6
:102380000F91FF90EF90DF90CF90BF90AF909F9014
:102390008F900895CF93C82F0E944211FC01408175
:1023A000518122813381C33421F5EBE5F3E080E0F4
:1023B00090E060817181663F7F4FA9F4880F991F7B
:1023C000880F991FFC01E55AFC4F518340833383EA
:1023D00022838091590390915A03019690935A0356
:1023E0008093590310C0019634968530910509F702
:1023F0000AC0C43441F45093D9024093D8023093B8
:10240000DB022093DA020E947E030E949F1D0E943D
:10241000AE1B7093540360935303CF9108952F9292
:102420003F924F925F926F927F928F929F92AF9264
:10243000BF92CF92DF92EF92FF920F931F93CF93B1
:10244000DF93CDB7DEB72A970FB6F894DEBF0FBE85
:10245000CDBF8090EE029090EF02A090F002B0907D
:10246000F102C501B4010E94AE1B7C836B834090D6
:10247000EA025090EB026090EC027090ED02C30112
:10248000B2010E94AE1B7E836D835BE5252E53E077
:10249000352E22EC32E03A8329831A861986F1011F
:1024A000E280F38000811181C12CD12C2B813C81F1
:1024B0004D815E8160E070E080E090E00E94BD0AA6
:1024C00081115BC0E981FA810190F081E02DF887EC
:1024D000EF83E981FA81E280F3800F8118852B81F7
:1024E0003C814D815E8160E070E080E090E00E9480
:1024F000BD0A811142C0063F1F4F61F5C301B20101
:102500000E949F1D29853A85220F331F220F331FFA
:102510002E533D4F3A8329830E94AE1BE981FA81F5
:1025200071836083C501B4010E949F1D0E94AE1B90
:10253000E981FA8173836283809108039091090392
:10254000019690930903809308031092560310920A
:10255000550313C029853A852F5F3F4F3A87298756
:1025600034E0230E311C89819A8104969A838983F1
:10257000E985FA85359709F092CF0E947E030E9483
:102580009F1D0E94AE1B7093D7026093D6022A96BD
:102590000FB6F894DEBF0FBECDBFDF91CF911F9174
:1025A0000F91FF90EF90DF90CF90BF90AF909F90F2
:1025B0008F907F906F905F904F903F902F900895F5
:1025C000CF92DF92EF92FF920E947E030E949F1DA6
:1025D0000E94AE1B6B017C018091590390915A03BC
:1025E0008530910594F480915303909154039601A2
:1025F000281B390B2230310551F4809102028111E0
:1026000006C083E40E94CA1110C0059721F0809192
:102610000202882351F00E947E030E949F1D0E94A7
:10262000AE1B7093540360935303809155039091B4
:102630005603892BA9F480910803909109038530F2
:102640009105D4F48091D6029091D702C81AD90A84
:1026500033E0C316D10491F48091020281110EC0BF
:1026600081E090E09093560380935503FF90EF90A4
:10267000DF90CF900C940F12059721F08091020209
:10268000882351F00E947E030E949F1D0E94AE1B72
:102690007093D7026093D602FF90EF90DF90CF90B7
:1026A00008959091020281E0892780930202882395
:1026B00099F00E947E03609302037093030380935A
:1026C00004039093050310921203109213031092C7
:1026D00014031092150308950E947E036093120361
:1026E00070931303809314039093150320910203B6
:1026F0003091030340910403509105030E94C51AD1
:102700009B01AC016091BE027091BF028091C0023A
:102710009091C1020E94C61A6093BE027093BF02DC
:102720008093C0029093C1020895EF92FF920F939D
:102730001F93CF93DF938091250390912603892BDC
:1027400019F481E08093010280912703909128037E
:102750008330910569F48091290390912A03892B94
:1027600091F484E190E090932A03809329030BC0B5
:10277000059749F48091D8029091D9020A9619F4EC
:1027800084E40E94CA118091B902813009F45DC0CD
:102790008091BA02813009F45BC08091BB02813024
:1027A00009F45BC08091BC02813009F459C00091EA
:1027B000290310912A03101611060CF056C08091BF
:1027C000BD02813009F051C09FE0E92E92E0F92E60
:1027D000C0E0D0E020E030E040E85FEBF70160814E
:1027E0007181828193810E94321B811126C083E016
:1027F000CC0FDD1F8A95E1F7C15FDD4F8091330378
:1028000090913403A0913503B09136038883998366
:10281000AA83BB838091370390913803A091390339
:10282000B0913A038C839D83AE83BF83015011091D
:1028300010932A030093290318C02196F8E0EF0EA5
:10284000F11CC431D10531F610C061E070E00FC059
:1028500060E070E08FEF9FEF0CC06FEF7FEF07C07D
:1028600060E070E081E090E004C060E070E080E053
:1028700090E00E94B10B0E942C0DC091B702C130B4
:1028800099F48091000281110FC00E947E0320E024
:1028900030E040E050E40E942D1D18162CF40E94F8
:1028A0005113C093000209C08091B702811105C085
:1028B00080910002811110920002DF91CF911F914F
:1028C0000F91FF90EF9008950E94B3148091010240
:1028D000811129C00E94280780910202811118C02D
:1028E0000E947E032091BE023091BF024091C0023F
:1028F0005091C1020E94C51A60930B0270930C02A2
:1029000080930D0290930E020E94AC0F0E94E90E7C
:102910000E943B080E9477080E9495130E9494072A
:102920000E94E01202C00E9433050E94A01486B5E6
:1029300090E00C94E9220E946D050E946414FDCF82
:10294000CF93DF9360E080E00E943C17CFE6D3E0B6
:10295000699181E00E94E11685E0C736D807C1F78A
:10296000DF91CF910895EFE6F3E0119285E0E7362D
:10297000F807D9F7089584359105A8F560337105F6
:1029800090F59B0173E0359527957A95E1F767708F
:10299000452BA1F044E5429FF001439FF00D112427
:1029A0008E0F9F1FFC01E159FC4F81E090E001C0B8
:1029B000880F6A95EAF79081892B14C044E5429FFD
:1029C000F001439FF00D11248E0F9F1FFC01E15970
:1029D000FC4F81E090E001C0880F6A95EAF780958E
:1029E00090818923808308952F923F924F925F9226
:1029F0006F927F928F929F92AF92BF92CF92DF920F
:102A0000EF92FF920F931F93CF93DF93CDB7DEB773
:102A10002E970FB6F894DEBF0FBECDBF1C013B0151
:102A20002A013A8329838417950771F57C836B8388
:102A300029813A81621673069CF48B819C81281748
:102A400039070CF41AC1A8016B817C81C1010E9475
:102A5000BB142B813C812F5F3F4F3C832B83E8CFFE
:102A6000AB81BC8129813A81A217B3070CF405C15F
:102A7000A8016B817C81C1010E94BB148B819C8168
:102A800001979C838B83D4CF89819A8168177907BA
:102A900051F53A822982241435049CF4A981BA8123
:102AA0004A165B060CF4E9C0A801B30189819A813A
:102AB0000E94BB1429813A812F5F3F4F3A832983BB
:102AC000EACF29813A81241535050CF4D6C0A80136
:102AD000B30189819A810E94BB14A981BA8111979F
:102AE000BA83A983D8CF4215530554F4872D698042
:102AF0007A8069838A83922D832D1A01492E582E5C
:102B0000B20162197309072E000C880B990B0E9401
:102B1000E61B6F83788789879A8769817A8166192E
:102B20007709072E000C880B990B0E94E61B4B01BE
:102B30005C012F81388549855A850E943C1B6B8337
:102B40007C838D839E8320E030E0A9010E942D1DAF
:102B500087FF09C08B819C81AD81BE81B0588B837A
:102B60009C83AD83BE83C12CD12C760120E030E064
:102B7000A9016F81788589859A850E942D1D181677
:102B80000CF077C0421453040CF477C0A801B301D1
:102B9000C1010E94BB142B813C814D815E81C70124
:102BA000B6010E94C61A6B017C0120E030E040E0D3
:102BB0005FE30E942D1D87FF10C020E030E0A901D7
:102BC0006F81788589859A850E942D1D18160CF0D5
:102BD0004CC09FEF291A390AC9CF20E030E0A90183
:102BE000C501B4010E942D1D1816CCF529813A812A
:102BF0002615370514F3A801B301C1010E94BB14C7
:102C0000A1E0B0E0BC87AB8720E030E0A901C501BE
:102C1000B4010E942D1D181614F01C861B8621E09D
:102C200030E03E872D8720E030E0A901C501B401E6
:102C30000E94321B87FD02C01E861D868B859C85E7
:102C4000AD85BE858A1B9B0B680E791E20E030E0A7
:102C500040E85FE3C701B6010E94C51AA4CF89818D
:102C60009A81681679063CF6A8CFA1E02A1A3108A5
:102C70007DCF241435040CF089CF2E960FB6F8942E
:102C8000DEBF0FBECDBFDF91CF911F910F91FF909F
:102C9000EF90DF90CF90BF90AF909F908F907F90FC
:102CA0006F905F904F903F902F9008952F923F929A
:102CB0004F925F926F927F928F929F92AF92BF924C
:102CC000CF92DF92EF92FF920F931F93CF93DF93F8
:102CD0006C014B01190185E0489F20011124E12C72
:102CE000F12C80EA481A510866246394712CF20191
:102CF000EE0DFF1DE25BFD4FE4912114310409F458
:102D0000E09500E010E0CE2FD0E05601AE0CBF1CE5
:102D1000A301002E02C0440F551F0A94E2F74C2372
:102D20005D23002E02C0559547950A94E2F7B40141
:102D3000600F711FC5010E94BB140F5F1F4F083049
:102D4000110531F78FEFE81AF80A85E0E816F1046B
:102D500071F6DF91CF911F910F91FF90EF90DF906F
:102D6000CF90BF90AF909F908F907F906F905F902B
:102D70004F903F902F900895CF92DF92EF92FF9265
:102D80000F931F93CF93DF937B018A016901D82FA3
:102D9000C0E0F801EC0FF11D4081442349F0960199
:102DA000B7018D2F90E00E945616DB5FCF5FF1CF09
:102DB000DF91CF911F910F91FF90EF90DF90CF9017
:102DC000089525B12F7D30E2839FC0011124822B0D
:102DD00085B95F9887E090E070E08F989B01082E9E
:102DE00002C0359527950A94E2F720FF02C02E9A7B
:102DF00001C02E988F9A019780F75F9A0895CF931C
:102E0000C82F579A249A259A269A879A2C985F9ABF
:102E10002C9A61E280E00E94E1166C2F606880E0ED
:102E20000E94E11664E080E00E94E11663E180E028
:102E30000E94E1166CE080E00E94E11660E280E012
:102E40000E94E1166CE080E00E94E11660E480E000
:102E50000E94E11660E880E0CF910C94E116CF93D8
:102E6000DF93C8EFD1E060E081E00E94E116219796
:102E7000D1F7DF91CF910895CF93C82F606480E0A0
:102E80000E94E1166C2F606880E0CF910C94E116EF
:102E9000A0E1B0E0EEE4F7E10C9461227C011B01BB
:102EA0006A01FC0117821682838181FF44C39E015F
:102EB0002F5F3F4F3901F7019381F10193FD859118
:102EC00093FF81911F01882309F431C3853239F4BE
:102ED00093FD859193FF81911F01853239F4B701EC
:102EE00090E00E94E22356016501E5CF10E0512CED
:102EF000912CFFE1F915D8F08B3279F038F480325B
:102F000079F08332A1F4F92DF0612EC08D3261F099
:102F1000803369F4292D21602DC0392D3260932E24
:102F2000892D8460982E2AC0E92DE86015C097FC91
:102F30002DC020ED280F2A3088F496FE06C03AE016
:102F4000139F200D1124122F19C08AE0589E200DC6
:102F50001124522EE92DE0629E2E10C08E3231F4E3
:102F600096FCE5C2F92DF0649F2E08C08C3621F442
:102F7000292D2068922E02C0883641F4F10193FD7C
:102F8000859193FF81911F018111B3CF9BEB980F26
:102F9000933020F4992D9061805E07C09BE9980FD3
:102FA000933008F066C1992D9F7E96FF16E09F73BF
:102FB000992E853619F49064992E08C0863621F42E
:102FC000392F3068932E02C01111115097FE07C09F
:102FD0001C3350F444244394410E27E00BC01830B6
:102FE00038F027E017E005C027E09CE3492E02C037
:102FF000212F412C560184E0A80EB11CF6016081FE
:10300000718182819381042DA3010E94F4226C01BD
:10301000F981FC87F0FF02C0F3FF06C091FC06C0F7
:1030200092FE06C000E205C00DE203C00BE201C043
:1030300000E08C858C7019F001115AC29BC297FE7A
:1030400010C04C0CFC85F4FF04C08A81813309F464
:103050004A94141474F528E0241578F588E0482E75
:103060002CC096FC2AC0812F90E08C159D059CF009
:103070003CEFC3163FEFD30674F0892D8068982E7D
:103080000AC0E2E0F0E0EC0FFD1FE10FF11D8081CE
:10309000803319F411501111F4CF97FE0EC044245F
:1030A0004394410E812F90E0C816D9062CF41C19C8
:1030B00004C04424439401C010E097FE06C01C14D1
:1030C0001D0434F4C601019605C085E090E002C0FD
:1030D00081E090E001110196112331F0212F30E0C1
:1030E0002F5F3F4F820F931F252D30E082179307EC
:1030F00014F4581A01C0512C892D897049F45520B7
:1031000039F0B70180E290E00E94E2235A94F7CFB1
:10311000002329F0B701802F90E00E94E22393FC66
:1031200009C0552039F0B70180E390E00E94E22306
:103130005A94F7CF97FE4CC04601D7FE02C0812CAF
:10314000912CC60188199909F301E80FF91FFE8730
:10315000ED87960124193109388B2F87012F10E054
:103160001195019511093FEF8316930629F4B701D4
:103170008EE290E00E94E223C814D9044CF08F85BF
:1031800098898815990524F4ED85FE85818101C013
:1031900080E3F1E08F1A91082D853E852F5F3F4F28
:1031A0003E872D87801691062CF0B70190E00E9493
:1031B000E223D9CFC814D90441F49A81963320F47C
:1031C000953319F43C8534FF81E3B70190E04EC09C
:1031D0008A81813319F09C859F7E9C87B70190E09E
:1031E0000E94E223111105C094FC18C085E690E00E
:1031F00017C0B7018EE290E00E94E2231E5F82E0DA
:1032000001E0080FF301E80FF11D8081B70190E0A4
:103210000E94E223802F0113F3CFE6CF85E490E0F4
:10322000B7010E94E223D7FC06C0C114D10441F4C7
:10323000EC85E4FF05C0D194C194D1088DE201C0B2
:103240008BE2B70190E00E94E22380E32AE0C216FD
:10325000D1042CF08F5FFAE0CF1AD108F7CFB70175
:1032600090E00E94E223B701C601C0960E94E223CB
:1032700054C1833631F0833779F0833509F056C075
:1032800020C0560132E0A30EB11CF6018081898373
:1032900001E010E0630112C05601F2E0AF0EB11C74
:1032A000F601C080D18096FE03C0612F70E002C09D
:1032B0006FEF7FEFC6010E94D7238C01F92DFF77B6
:1032C00014C0560122E0A20EB11CF601C080D180CC
:1032D00096FE03C0612F70E002C06FEF7FEFC60162
:1032E0000E94CC238C01F92DF0689F2EF3FD1AC0AB
:1032F000852D90E008171907A8F4B70180E290E047
:103300000E94E2235A94F4CFF60197FC859197FE30
:1033100081916F01B70190E00E94E22351105A940D
:10332000015011090115110579F7F7C0843611F024
:10333000893661F5560197FE09C024E0A20EB11C42
:10334000F60160817181828193810AC0F2E0AF0E43
:10335000B11CF60160817181072E000C880B990B5E
:10336000F92DFF769F2E97FF09C090958095709557
:1033700061957F4F8F4F9F4FF0689F2E2AE030E07E
:10338000A3010E944024C82EC6183FC0092D8537CE
:1033900021F40F7E2AE030E01DC0097F8F3691F0C6
:1033A00018F4883559F0C3C0803719F0883711F008
:1033B000BEC0006104FF09C0046007C094FE08C0DD
:1033C000066006C028E030E005C020E130E002C021
:1033D00020E132E0560107FF09C084E0A80EB11CCD
:1033E000F601608171818281938108C0F2E0AF0EA5
:1033F000B11CF6016081718180E090E0A3010E9420
:103400004024C82EC6180F77902E96FE0BC0092DAB
:103410000E7FC11650F494FE0AC092FC08C0092D1C
:103420000E7E05C0DC2C092D03C0DC2C01C0D12E82
:1034300004FF0DC0FE01EC0DF11D8081803311F4FD
:10344000097E09C002FF06C0D394D39404C0802F24
:10345000867809F0D39403FD11C000FF06C01C2D2F
:10346000D51480F4150D1D190DC0D51458F4B701ED
:1034700080E290E00E94E223D394F7CFD51410F4B9
:103480005D1801C0512C04FF10C0B70180E390E02B
:103490000E94E22302FF17C001FD03C088E790E00D
:1034A00002C088E590E0B7010CC0802F867859F003
:1034B00001FF02C08BE201C080E207FD8DE2B7018F
:1034C00090E00E94E223C11638F4B70180E390E057
:1034D0000E94E2231150F7CFCA94F301EC0DF11DC5
:1034E0008081B70190E00E94E223C110F5CF15C0A2
:1034F000F4E0F51560F584E0581A93FE1FC0011141
:1035000027C02C8523FF2AC00CE411E0392D30712F
:10351000932EF8018491811124C0552009F4E4CC44
:10352000B70180E290E00E94E2235A94F6CFF701BF
:103530008681978126C08FEF9FEF23C0B70180E27D
:1035400090E00E94E2235A945110F8CFD8CF512C2A
:10355000B701802F90E00E94E223D3CF00E511E075
:10356000D5CF91108052B70190E00E94E2230F5F07
:103570001F4FCFCF23E0251510F483E0BDCF512C92
:10358000C0CF6096E2E10C947D225058BB27AA2759
:103590000E94DD1A0C94C71C0E948E1C38F00E94F9
:1035A000951C20F039F49F3F19F426F40C948B1CE1
:1035B0000EF4E095E7FB0C945C1CE92F0E94EC1CD8
:1035C00058F3BA17620773078407950720F079F458
:1035D000A6F50C94261D0EF4E0950B2EBA2FA02D07
:1035E0000B01B90190010C01CA01A0011124FF27B0
:1035F000591B99F0593F50F4503E68F11A16F040AB
:10360000A22F232F342F4427585FF3CF46953795A9
:103610002795A795F0405395C9F77EF41F16BA0B6E
:10362000620B730B840BBAF09150A1F0FF0FBB1F1C
:10363000661F771F881FC2F70EC0BA0F621F731F65
:10364000841F48F4879577956795B795F7959E3FC2
:1036500008F0B0CF9395880F08F09927EE0F979553
:10366000879508950E94381C08F481E008950E940F
:103670009E1CE3950C94D81C0E94501B0C94C71CF4
:103680000E94951C58F00E948E1C40F029F45F3F68
:1036900029F00C945C1C51110C94271D0C948B1C6C
:1036A0000E94EC1C68F39923B1F3552391F3951B09
:1036B000550BBB27AA2762177307840738F09F5F53
:1036C0005F4F220F331F441FAA1FA9F335D00E2EC0
:1036D0003AF0E0E832D091505040E695001CCAF72D
:1036E0002BD0FE2F29D0660F771F881FBB1F2617F0
:1036F00037074807AB07B0E809F0BB0B802DBF01C7
:10370000FF2793585F4F3AF09E3F510578F00C9495
:103710005C1C0C94271D5F3FE4F3983ED4F3869520
:1037200077956795B795F7959F5FC9F7880F911DB6
:103730009695879597F90895E1E0660F771F881FA2
:10374000BB1F621773078407BA0720F0621B730B55
:10375000840BBA0BEE1F88F7E09508950E94B51B05
:103760006894B1110C94271D08950E94F41C88F0F0
:103770009F5798F0B92F9927B751B0F0E1F0660F35
:10378000771F881F991F1AF0BA95C9F714C0B13076
:1037900091F00E94261DB1E008950C94261D672F1C
:1037A000782F8827B85F39F0B93FCCF386957795A5
:1037B0006795B395D9F73EF490958095709561958E
:1037C0007F4F8F4F9F4F0895E89409C097FB3EF4B9
:1037D00090958095709561957F4F8F4F9F4F99235E
:1037E000A9F0F92F96E9BB279395F69587957795DC
:1037F0006795B795F111F8CFFAF4BB0F11F460FF9C
:103800001BC06F5F7F4F8F4F9F4F16C0882311F0F3
:1038100096E911C0772321F09EE8872F762F05C007
:10382000662371F096E8862F70E060E02AF09A95A2
:10383000660F771F881FDAF7880F9695879597F997
:1038400008950E940E1D90F09F3748F4911116F0D4
:103850000C94271D60E070E080E89FEB089526F44B
:103860001B16611D711D811D0C94621C0C947D1C26
:10387000990F0008550FAA0BE0E8FEEF1616170681
:10388000E807F907C0F012161306E407F50798F0E9
:10389000621B730B840B950B39F40A2661F0232B02
:1038A000242B252B21F408950A2609F4A140A6957E
:1038B0008FEF811D811D089597F99F6780E870E063
:1038C00060E00895882371F4772321F09850872BC6
:1038D000762F07C0662311F499270DC09051862BCF
:1038E00070E060E02AF09A95660F771F881FDAF77C
:1038F000880F9695879597F908959F3F31F09150DD
:1039000020F4879577956795B795880F911D9695C3
:10391000879597F908959FEF80EC089500240A9405
:103920001616170618060906089500240A9412169A
:1039300013061406050608950C948B1C0E94F41CB3
:10394000D8F3E894E0E0BB279F57F0F02AED3FE082
:1039500049EC06C0EE0FBB0F661F771F881F28F0CB
:10396000B23A62077307840728F0B25A620B730BEE
:10397000840BE3959A9572F7803830F49A95BB0FD3
:10398000661F771F881FD2F790480C947F1C092E62
:103990000394000C11F4882352F0BB0F40F4BF2BAA
:1039A00011F460FF04C06F5F7F4F8F4F9F4F0895EA
:1039B000EF93E0FF07C0A2EA2AED3FE049EC5FEB9E
:1039C0000E94DD1A0E94C71C0F90039401FC9058BE
:1039D000ECEAF0E00C94181E57FD9058440F551F68
:1039E00059F05F3F71F04795880F97FB991F61F081
:1039F0009F3F79F087950895121613061406551FF8
:103A0000F2CF4695F1DF08C0161617061806991F63
:103A1000F1CF869571056105089408950E94F41C04
:103A2000A0F0BEE7B91788F4BB279F3860F41616DC
:103A3000B11D672F782F8827985FF7CF86957795E8
:103A40006795B11D93959639C8F30895E894BB27FF
:103A500066277727CB0197F908950E94381C08F450
:103A60008FEF08950E94451D0C94C71C0E948E1C68
:103A700038F00E94951C20F0952311F00C945C1CEA
:103A80000C948B1C11240C94271D0E94EC1C70F3C9
:103A9000959FC1F3950F50E0551F629FF001729FF3
:103AA000BB27F00DB11D639FAA27F00DB11DAA1F02
:103AB000649F6627B00DA11D661F829F2227B00D4F
:103AC000A11D621F739FB00DA11D621F839FA00DDA
:103AD000611D221F749F3327A00D611D231F849F2A
:103AE000600D211D822F762F6A2F11249F57504081
:103AF0009AF0F1F088234AF0EE0FFF1FBB1F661FFC
:103B0000771F881F91505040A9F79E3F510580F0C4
:103B10000C945C1C0C94271D5F3FE4F3983ED4F397
:103B2000869577956795B795F795E7959F5FC1F768
:103B3000FE2B880F911D9695879597F908950E9401
:103B4000F41CE8F09E37E8F09639B8F49E3848F453
:103B5000672F782F8827985FF9CF86957795679597
:103B600093959539D0F3B62FB1706B0F711D811DF0
:103B700020F487957795679593950C94621C0C9427
:103B80007D1C0C94271D9F930E949E1C0F9007FC88
:103B9000EE5F0C94D81C19F416F40C948B1C0C9446
:103BA0007D1C0E94F41CB8F39923C9F3B6F39F5708
:103BB000550B87FF0E94111E0024A0E640EA9001E9
:103BC00080585695979528F4805C660F771F881F5C
:103BD00020F026173707480730F4621B730B840B5D
:103BE000202931294A2BA6951794079420253125A1
:103BF0004A2758F7660F771F881F20F026173707C8
:103C0000480730F4620B730B840B200D311D411DEE
:103C1000A09581F7B901842F9158880F96958795C3
:103C2000089591505040660F771F881FD2F708956E
:103C30009F938F937F936F93FF93EF939B01AC01BF
:103C40000E94321DEF91FF910E942C1E2F913F91F7
:103C50004F915F910C94321DDF93CF931F930F937D
:103C6000FF92EF92DF927B018C01689406C0DA2EFE
:103C7000EF010E94451DFE01E894A5912591359123
:103C800045915591A6F3EF010E94DD1AFE019701BF
:103C9000A801DA9469F7DF90EF90FF900F911F91E0
:103CA000CF91DF9108958091E80080FFFCCF0895C7
:103CB00081E08093D70080EA8093D80082E189BDBB
:103CC00009B400FEFDCF80E98093D8001092E00097
:103CD00010920A02109207028CE08093E20078941E
:103CE000089580910A0208959FB7F89480910A027E
:103CF000882369F083E08093E9002BE68091E80057
:103D000085FD09C082FF03C02093E800F7CF9FBF65
:103D10008FEF9FEF08958091F1002091E80025FD3D
:103D200003C02BE62093E8009FBF90E008952FB7D3
:103D3000F89480910A02811102C080E010C083E0F3
:103D40008093E9008091F200811109C09091E80010
:103D500092FFF3CF95FDF1CF9BE69093E8002FBF44
:103D6000089580910A02882371F08FB7F89493E048
:103D70009093E9002BE69091E80095FF03C0209313
:103D8000E800F9CF8FBF089590910A02992371F04E
:103D90009FB7F89424E02093E900209108022223A1
:103DA00049F02091E80025FD03C09FBF8FEF0895E3
:103DB000109208022091E400275E34E04091E80070
:103DC00045FD12C09FBF9091E400291304C081E01B
:103DD00080930802EBCF90910A02992339F39FB7A1
:103DE000F8943093E900EACF8093F1008091E800E5
:103DF00085FD03C08AE38093E80085E08093090293
:103E00009FBF80E0089590910A029923D1F09FB757
:103E1000F89424E02093E9002091E80025FD02C0F9
:103E20009FBF0FC08093F1008091E80085FD03C023
:103E30008AE38093E80085E0809309029FBF80E0D9
:103E400008958FEF08950F931F93CF93DF93DC01B5
:103E5000CB0120910A02222371F02FB7F89434E0AD
:103E60003093E90030910802332349F03091E800A3
:103E700035FD03C02FBF8FEF43C110920802C4E08D
:103E8000D0E41AE305E0009709F439C13091E40069
:103E9000375E4091E80045FD12C02FBF2091E4003D
:103EA000321304C081E080930802E5CF20910A021A
:103EB000222309F32FB7F894C093E900EACF309199
:103EC000F200ED2FE31B4E2F50E08417950708F406
:103ED000E82F8E1B91094E2F50E04134510508F018
:103EE00001C1FA01EB59FF4F0C945B223C913093D6
:103EF000F10011963C913093F10011963C91309372
:103F0000F10011963C913093F10011963C91309361
:103F1000F10011963C913093F10011963C91309351
:103F2000F10011963C913093F10011963C91309341
:103F3000F10011963C913093F10011963C91309331
:103F4000F10011963C913093F10011963C91309321
:103F5000F10011963C913093F10011963C91309311
:103F6000F10011963C913093F10011963C91309301
:103F7000F10011963C913093F10011963C913093F1
:103F8000F10011963C913093F10011963C913093E1
:103F9000F10011963C913093F10011963C913093D1
:103FA000F10011963C913093F10011963C913093C1
:103FB000F10011963C913093F10011963C913093B1
:103FC000F10011963C913093F10011963C913093A1
:103FD000F10011963C913093F10011963C91309391
:103FE000F10011963C913093F10011963C91309381
:103FF000F10011963C913093F10011963C91309371
:10400000F10011963C913093F10011963C91309360
:10401000F10011963C913093F10011963C91309350
:10402000F10011963C913093F10011963C91309340
:10403000F10011963C913093F10011963C91309330
:10404000F10011963C913093F10011963C91309320
:10405000F10011963C913093F10011963C91309310
:10406000F10011963C913093F10011963C91309300
:10407000F10011963C913093F10011963C913093F0
:10408000F10011963C913093F10011963C913093E0
:10409000F10011963C913093F10011963C913093D0
:1040A000F10011963C913093F10011963C913093C0
:1040B000F10011963C913093F10011963C913093B0
:1040C000F10011963C913093F10011963C913093A0
:1040D000F10011963C913093F10011963C91309390
:1040E000F10011963C913093F10011963091E80067
:1040F00035FF1093E800009309022FBFC4CE80E083
:10410000DF91CF911F910F9108958FB7F8949091FF
:104110000902992341F094E09093E9009AE3909387
:10412000E800109209028FBF089560917F0170919D
:104130008001809181019091820108958091830195
:10414000089580918401089580918501089580915A
:10415000070208959FB7F89420910A02222339F0AC
:1041600022E02093E9002091E80025FD03C09FBFD5
:104170008FEF089521EA2093F10020E22093F100CF
:104180001092F1001092F1001092F1001092F100E3
:1041900021E02093F1001092F1008093F1008AE376
:1041A0008093E8009FBF80E008951F920F920FB6A2
:1041B0000F9211248F939F938091E1001092E10060
:1041C00083FF11C01092E90091E09093EB001092F0
:1041D000EC0092E19093ED0098E09093F000109243
:1041E0000A021092070282FF13C080910A028823FC
:1041F00079F080910902882359F081508093090257
:10420000811106C084E08093E9008AE38093E8008E
:104210009F918F910F900FBE0F901F9018951F9236
:104220000F920FB60F921124FF920F931F932F93AB
:104230003F934F935F936F937F938F939F93AF932E
:10424000BF93CF93DF93EF93FF931092E900809198
:10425000E80083FF17C1F090F1008091F100009118
:10426000F1009091F10010E0192BC091F1009091B4
:10427000F100D0E0D92B2091F1006091F10092EF94
:104280009093E800863009F049C08EE294E048E55A
:1042900054E0FC01A591B4910A171B07D9F4FC0165
:1042A0003296A591B491CA17DB07A1F4FC013496AC
:1042B00045915491FC013696849130E0362B2F3F86
:1042C000310519F010F02FEF30E0281708F4822F95
:1042D0003EEF0CC0079648175907D9F6D3C0490FCF
:1042E000511D891B3093E8008823A9F09091E800C4
:1042F000292F2570D9F392FDC8C0982F813108F07D
:1043000090E1FA01292F222351F364916093F10087
:1043100021503196F8CF903149F3B7C0853049F438
:104320008EEF8093E8000E94531E00680093E30024
:10433000ACC0893059F5F110A5C000930A02109263
:104340000702109209028EEF8093E80041E08DEEA3
:1043500094E04093E9009C012F5F3F4FFC01549192
:104360005093EB00552359F0F90124912093EC0070
:104370009C012D5F3F4F3196E491E093ED004F5F3C
:10438000453011F0C901E5CF8EE177C0883051F496
:10439000F0E8FF1277C00E94531E80910A028093BA
:1043A000F10049C0813281F481EAF8126BC00E94A9
:1043B000531EEFE7F1E086E891E021912093F100B0
:1043C0008E179F07D1F737C08032A9F491E2F91216
:1043D00059C08091E80082FFFCCFEFE7F1E086E86A
:1043E00091E02091F10021938E179F07D1F78BEF79
:1043F0008093E80020C0823241F4E1E2FE1242C024
:10440000009307020E94531E16C0811118C00E941B
:10441000531EF2E8FF120AC0C093E9008091EB003E
:1044200085FB882780F91092E90001C080E0809325
:10443000F1001092F1008EEF8093E80026C0982FD3
:104440009D7F9130F9F492E0F9121CC0012BD1F458
:10445000CF779FEF9C0F9430A8F49EEF9093E800E5
:10446000C093E900833071F089E18093EB0081E033
:1044700090E001C0880FCA95EAF78093EA00109295
:10448000EA0003C081E28093EB00FF91EF91DF919E
:10449000CF91BF91AF919F918F917F916F915F91DC
:1044A0004F913F912F911F910F91FF900F900FBE51
:1044B0000F901F901895EE0FFF1F0590F491E02DBF
:1044C00009942F923F924F925F926F927F928F92B8
:1044D0009F92AF92BF92CF92DF92EF92FF920F9393
:1044E0001F93CF93DF93CDB7DEB7CA1BDB0B0FB69D
:1044F000F894DEBF0FBECDBF09942A88398848885A
:104500005F846E847D848C849B84AA84B984C884EF
:10451000DF80EE80FD800C811B81AA81B981CE0FE6
:10452000D11D0FB6F894DEBF0FBECDBFED010895CB
:104530008F929F92AF92BF92CF92DF92EF92FF92B3
:10454000CF93DF93EC01688179818A819B8161152A
:1045500071058105910521F464E279ED8BE597E021
:104560002DE133EF41E050E00E949E2449015A01C1
:104570009B01AC01A7EAB1E40E94BD246B017C0160
:10458000ACEEB4EFA50194010E94CB24DC01CB0179
:104590008C0D9D1DAE1DBF1DB7FF03C00197A10966
:1045A000B04888839983AA83BB839F77DF91CF919B
:1045B000FF90EF90DF90CF90BF90AF909F908F9043
:1045C00008950E949822089586E891E00E9498221A
:1045D0000895A0E0B0E08093860190938701A093B6
:1045E0008801B09389010895283008F027E0332727
:1045F000DA01990F311D87FD916000966105710503
:1046000039F432602E5F3D9330E32A95E1F7089547
:104610009F3F30F080387105610509F03C5F3C5FD9
:104620003D93913008F08068911DDF93CF931F93E5
:104630000F93FF92EF92192F987F9695E92F9695F9
:104640009695E90FFF27E255FE4F99273327EE2471
:10465000FF24A701E70105900894079428F4360F7A
:10466000E71EF81E491F511D660F771F881F991FEF
:104670000694A1F70590079428F4E70EF81E491F49
:10468000561FC11D770F881F991F661F0694A1F73B
:104690000590079428F4F80E491F561FC71FD11D17
:1046A000880F991F661F771F0694A1F7059007943E
:1046B00020F4490F561FC71FD81F990F661F771F79
:1046C000881F0694A9F784911095177041F0D6952C
:1046D000C79557954795F794E7941A95C1F7E4E580
:1046E000F1E068941590159135916591959105903B
:1046F0007FE27395E118F10A430B560BC90BD00901
:10470000C0F7E10CF11E431F561FC91FD01D7EF4D8
:10471000703311F48A95E6CFE894015030F0080F19
:104720000AF40027021708F4202F2395022F7A336A
:1047300028F079E37D932A95E9F710C07D932A95B7
:1047400089F6069497956795379517951794E1180C
:10475000F10A430B560BC90BD00998F023957E91B3
:1047600073957A3308F070E37C932013B8F77E9149
:1047700070617D9330F0839571E37D9370E32A95AA
:10478000E1F71124EF90FF900F911F91CF91DF91EE
:10479000992787FD90950895FC0105906150704020
:1047A0000110D8F7809590958E0F9F1F0895FC01FA
:1047B0006150704001900110D8F7809590958E0F50
:1047C0009F1F08950F931F93CF93DF93FB012381C6
:1047D00021FD03C08FEF9FEF2CC022FF16C0468142
:1047E0005781248135814217530744F4A081B18158
:1047F0009D012F5F3F4F318320838C93268137812A
:104800002F5F3F4F3783268314C08B01EC01FB01E0
:104810000084F185E02D0995892BE1F6D8011696E3
:104820008D919C911797019617969C938E9316974E
:10483000CE01DF91CF911F910F910895AEE0B0E0CE
:10484000E4E2F4E20C946F220D891E8986E08C83E9
:104850001A8309838FEF9FE79E838D83AE01475EA6
:104860005F4F6F89788DCE0101960E944817EF81C6
:10487000F885E00FF11F10822E96E4E00C948B2255
:10488000FA01AA27283051F1203181F1E8946F9381
:104890006E7F6E5F7F4F8F4F9F4FAF4FB1E03ED027
:1048A000B4E03CD0670F781F891F9A1FA11D680FC5
:1048B000791F8A1F911DA11D6A0F711D811D911DF8
:1048C000A11D20D009F468943F912AE0269F11246D
:1048D0003019305D3193DEF6CF010895462F4770D1
:1048E000405D4193B3E00FD0C9F7F6CF462F4F702C
:1048F000405D4A3318F0495D31FD4052419302D08A
:10490000A9F7EACFB4E0A69597958795779567952F
:10491000BA95C9F700976105710508959B01AC012F
:104920000A2E06945795479537952795BA95C9F756
:10493000620F731F841F951FA01D0895052E97FBFE
:104940001EF400940E94B52457FD07D00E94D02485
:1049500007FC03D04EF40C94B52450954095309547
:1049600021953F4F4F4F5F4F0895909580957095DB
:1049700061957F4F8F4F9F4F08950E94F224A59F0E
:10498000900DB49F900DA49F800D911D112408954A
:10499000B7FF0C94BD240E94BD24821B930B089585
:1049A000A1E21A2EAA1BBB1BFD010DC0AA1FBB1F33
:1049B000EE1FFF1FA217B307E407F50720F0A21BA5
:1049C000B30BE40BF50B661F771F881F991F1A9412
:1049D00069F760957095809590959B01AC01BD013C
:1049E000CF010895A29FB001B39FC001A39F700D96
:1049F000811D1124911DB29F700D811D1124911DE7
:064A00000895F894FFCFB9
:104A06000100010101010101000000010100010096
:104A16000101000000010101010101010101010183
:104A26000100010001010001000101000100010176
:104A36000101010101010101010100000001010064
:104A46000101010100000001010101010101010153
:104A56000101010000000101010001010101000145
:104A66000101010101010101010101010000000133
:104A76000101000101010000010101010101010024
:104A8600E100000000080100000005060701010022
:104A9600005A616368617279204E69636F6C6C00BD
:104AA6006E313032313434353300546F6D20416EFF
:104AB60064204A65727279002D4F6E2074686520F5
:104AC6005465656E73792D002D47414D45204F562F
:104AD60045522D0053573320746F2052657374610D
:104AE6007274004C3A256400483A256400533A250E
:0C4AF6006400253032643A253032640040
:00000001FF
