:100000000C9493020C94B0020C94B0020C94B002C5
:100010000C94B0020C94B0020C94B0020C94B00298
:100020000C94B0020C94B0020C94E52B0C941F2C91
:100030000C94B0020C94B0020C94B0020C94B00278
:100040000C94B0020C94B0020C94B0020C94B00268
:100050000C94351C0C94B0020C94B0020C94530513
:100060000C94B0020C94B0020C94B0020C94B00248
:100070000C94B0020C94B0020C94B0020C94B00238
:100080000C94B0020C94B0020C94B0020C94800555
:100090000C94B0020C94B0020C94B0020C94B00218
:1000A0000C94B0020C94B0020C94B002084AD73BF6
:1000B0003BCE016E84BCBFFDC12F3D6C74319ABD37
:1000C00056833DDA3D00C77F11BED9E4BB4C3E915B
:1000D0006BAAAABE000000803F05A84CCDB2D44E4A
:1000E000B93836A9020C50B9918688083CA6AAAA4C
:1000F0002ABE000000803F00862B822B7E2B7A2BAD
:10010000762B722B6E2B6A2B662B622B5E2B5A2B57
:10011000562B522B4E2B4A2B462B422B3E2B3A2B47
:10012000362B322B2E2B2A2B262B222B1E2B1A2B37
:10013000162B122B0E2B0A2B062B022BFE2AFA2A29
:10014000F62AF22AEE2AEA2AE62AE22ADE2ADA2A1F
:10015000D62AD22ACE2ACA2AC62AC22ABE2ABA2A0F
:10016000B62AB22AAE2AAA2AA62AA22A9E2A9A2AFF
:10017000962A922A8E2A8A2A862A6E616E00696ED3
:10018000660000407A10F35A00A0724E1809001061
:10019000A5D4E80000E87648170000E40B540200FC
:1001A00000CA9A3B000000E1F50500008096980027
:1001B000000040420F000000A08601000000102750
:1001C00000000000E80300000000640000000000E0
:1001D0000A00000000000100000000002C76D88812
:1001E000DC674F0823DFC1DFAE59E1B1B796E5E325
:1001F000E453C63AE651997696E8E6C28426EB893E
:100200008C9B62ED407C6FFCEFBC9C9F40F2BAA5DA
:100210006FA5F490055A2AF75C936B6CF9676DC172
:100220001BFCE0E40D47FEF520E6B500D0ED902E76
:100230000300943577050080841E080000204E0AD4
:10024000000000C80C333333330F986E1283114112
:10025000EF8D2114893BE65516CFFEE6DB18D184DD
:100260004B381BF77C1D901DA4BBE4242032847204
:100270005E228100C9F124ECA1E53D2700000000C9
:100280000000005F00000007000700147F147F14C7
:10029000242A7F2A1223130864623649552250000B
:1002A00005030000001C2241000041221C0014082C
:1002B0003E081408083E08080050300000080808EE
:1002C0000808006060000020100804023E51494503
:1002D0003E00427F400042615149462141454B3139
:1002E0001814127F1027454545393C4A49493001C9
:1002F000710905033649494936064949291E003620
:100300003600000056360000081422410014141470
:10031000141400412214080201510906324979419E
:100320003E7E1111117E7F494949363E41414122AD
:100330007F4141221C7F494949417F090909013E0A
:100340004149497A7F0808087F00417F41002040E9
:10035000413F017F081422417F404040407F020C12
:10036000027F7F0408107F3E4141413E7F09090919
:10037000063E4151215E7F091929464649494931C6
:1003800001017F01013F4040403F1F2040201F3FAF
:100390004038403F63140814630708700807615130
:1003A000494543007F4141000204081020004141BB
:1003B0007F0004020102044040404040000102046A
:1003C0000020545454787F484444383844444420EE
:1003D000384444487F3854545418087E0901020CAC
:1003E0005252523E7F0804047800447D4000204071
:1003F000443D007F1028440000417F40007C0418E9
:1004000004787C0804047838444444387C14141478
:1004100008081414187C7C08040408485454542018
:10042000043F4440203C4040207C1C2040201C3C99
:100430004030403C44281028440C5050503C446408
:10044000544C44000836410000007F000000413653
:10045000080010080810087846414678000100009E
:1004600009051200020000C6044300030000C20494
:100470000401030904AC04140203090494041603E0
:1004800003090486040C0C033100320033003400ED
:1004900035000000160355005300420020005300B1
:1004A00065007200690061006C00000014035900CF
:1004B0006F007500720020004E0061006D00650045
:1004C00000000403090409024300020100C03209CC
:1004D00004000001020201000524001001052401AE
:1004E0000101042402060524060001070582031009
:1004F000004009040100020A000000070503024051
:100500000000070584024000001201000202000002
:1005100010C0167A040001010203010001C112019A
:1005200080360181360011241FBECFEFDAE0DEBF36
:10053000CDBF13E0A0E0B1E0EAECF0E602C0059028
:100540000D92A432B107D9F726E0A4E2B3E001C0CE
:100550001D92AC3CB207E1F70E94701F0C9463300F
:100560000C940000CF93DF93FC018491EF0121965E
:10057000882321F00E94D429FE01F7CFDF91CF918B
:100580000895CF93CFB121E044EE51E060E070E0F8
:1005900085E090E00E94912121E043EF51E06AE084
:1005A00070E085E090E00E94912121E04DEF51E064
:1005B0006EE170E08AE090E00E94912121E04BE042
:1005C00052E068E270E085E090E00E9491210E9494
:1005D000751FC5FFD7CFCF9108950F931F93EBE4FD
:1005E000F4E080E090E0A0E9B1E480839183A2830D
:1005F000B38380E090E0A0E7B1E484839583A68391
:10060000B78380E090E0A0E5B1E480879187A2877E
:10061000B38780E090E0A8ECB1E484879587A68753
:10062000B787EAE9F4E080839183A283B38340E053
:1006300050E06CE072E4448355836683778380875F
:100640009187A287B38740E050E064E372E4448777
:10065000558766877787E3E3F4E0408351836283BD
:10066000738340E050E060E271E444835583668325
:10067000778300E010E020E732E4008711872287CB
:1006800033874487558766877787EAEAF4E040E056
:1006900050E068E672E4408351836283738384830D
:1006A0009583A683B78380E090E0A0E9B2E48087D9
:1006B0009187A287B38780E090E0A0EFB1E48487C0
:1006C0009587A687B7871F910F9108950F931F9362
:1006D000EBE4F4E080E090E0A0ECB1E4808391836F
:1006E000A283B38380E090E0A0E7B1E484839583A4
:1006F000A683B78380E090E0A0E5B1E4808791878E
:10070000A287B38784879587A687B787EAE9F4E04D
:1007100040E050E068EC71E440835183628373836E
:1007200080E090E0A0E2B2E484839583A683B7835F
:1007300080E090E0A4E1B2E480879187A287B3874C
:1007400080E090E0A4E3B2E484879587A687B7872A
:10075000E3E3F4E080E090E0A4E0B2E480839183FE
:10076000A283B38380E090E0A0E2B1E48483958328
:10077000A683B78300E010E020E432E4008711870D
:100780002287338784879587A687B787EAEAF4E0CC
:1007900080E090E0A8E6B2E480839183A283B383F3
:1007A000448355836683778380879187A287B38745
:1007B00080E090E0A0EFB1E484879587A687B787B3
:1007C0001F910F910895CF93DF93CDB7DEB72C978C
:1007D0000FB6F894DEBF0FBECDBF8CE0E1EDF1E0C7
:1007E000DE01119601900D928A95E1F7FE01319696
:1007F000CE010D9640E050E060E87FEBA191B19111
:100800004D935D936D937C93139714964D935D93E5
:100810006D937C93179718964D935D936D937C938E
:100820001B971C964D935D936D937C931F97E817D0
:10083000F90721F72C960FB6F894DEBF0FBECDBF97
:10084000DF91CF9108950F931F93CF93DF93CDB78F
:10085000DEB70F8118859E01235F3F4F4B855C8576
:1008600069857A85C8010E94762FF80101900020E1
:10087000E9F73197BF01601B710BC8010E94332A51
:10088000DF91CF911F910F9108958F929F92AF9218
:10089000BF92CF92DF92EF92FF920F931F93CF936D
:1008A000DF93CDB7DEB7C055D1090FB6F894DEBFE0
:1008B0000FBECDBF20E030E040E752E4609134034A
:1008C0007091350380913603909137030E94402642
:1008D0004B015C010E9425276B017C019B01AC014F
:1008E000C501B4010E949A2520E030E040E752E4BF
:1008F0000E9465280E94B2267F936F93C701B601BC
:100900000E94B2267F936F938BE192E09F938F9327
:100910001F9290E5F92EFF928E010F5F1F4F1F93DC
:100920000F930E94230480910B018F9380910A0101
:100930008F9384E392E09F938F931F92FF921F9374
:100940000F930E94230480917D048F9380917C04F7
:100950008F9388E492E09F938F931F92FF921F934F
:100960000F930E94230480917F048F9380917E04D3
:100970008F9384E592E09F938F931F92FF921F9332
:100980000F930E9423040FB6F894DEBF0FBECDBFB5
:1009900080917E0490917F0403974CF02091800415
:1009A0003091810484E190E0821B930B02C080E0CF
:1009B00090E09F938F9380E692E09F938F931F9296
:1009C00080E5F82EFF921F930F930E9423048091DD
:1009D0004A048F93809149048F938AE792E09F9312
:1009E0008F931F92FF921F930F930E942304809175
:1009F000BF048F938091BE048F9384E992E09F930C
:100A00008F931F92FF921F930F930E942304809154
:100A100048048F93809147048F938BEA92E09F93D1
:100A20008F931F92FF921F930F930E9423040FB680
:100A3000F894DEBF0FBECDBF809167048F93809185
:100A400066048F938AEC92E09F938F931F92FF929C
:100A50001F930F930E94230480912B031F928F9367
:100A600082EE92E09F938F931F92FF921F930F93BA
:100A70000E9423040FB6F894DEBF0FBECDBFC05B4B
:100A8000DF4F0FB6F894DEBF0FBECDBFDF91CF9121
:100A90001F910F91FF90EF90DF90CF90BF90AF909C
:100AA0009F908F9008951F920F920FB60F9211246E
:100AB0006F937F938F939F938091660490916704C7
:100AC000892B99F080912403609101010E94852D6A
:100AD000911103C02A9A2B9A02C02A982B988091D0
:100AE00024038F5F8093240302C02A982B989F9140
:100AF0008F917F916F910F900FBE0F901F9018955F
:100B00001F920F920FB60F9211248F939F93AF9362
:100B1000BF938091250390912603A0912703B09164
:100B200028030196A11DB11D8093250390932603F0
:100B3000A0932703B0932803BF91AF919F918F910A
:100B40000F900FBE0F901F901895CF92DF92EF92EB
:100B5000FF92CF93DF9360912503709126038091DC
:100B6000270390912803C0919400D09195000E9492
:100B7000E82620E030E040E857E40E9465286B0159
:100B80007C01BE0180E090E00E94E8269B01AC0160
:100B9000C701B6010E949B252DEB37E346E054E3E5
:100BA0000E946528DF91CF91FF90EF90DF90CF906A
:100BB000089580910A0190910B01019709F089C075
:100BC00010927F0410927E0485E090E090937D0463
:100BD00080937C0410928A0410928B0410928C04EF
:100BE00010928D0480E090E0A0E1B1E480938E0447
:100BF00090938F04A0939004B09391041092810479
:100C00001092800480E090E0AEE9B2E48093230487
:100C100090932404A0932504B093260480E090E0F0
:100C2000ACE1B2E48093270490932804A0932904B4
:100C3000B0932A040E941A2EBC01990F880B990BBD
:100C40000E94EA2620E03EEF4FEF56E40E94402645
:100C50002DEC3CEC4CE45EE30E9465282DEC3CEC72
:100C60004CE45EE30E949B25209106013091070130
:100C700040910801509109010E94652860932B045E
:100C800070932C0480932D0490932E040E941A2EAE
:100C9000BC01990F880B990B0E94EA2620E03EEFD9
:100CA0004FEF56E40E9440262BED3FE049E450E42C
:100CB0000E9465289B01AC010E949B2560932F0434
:100CC0007093300480933104909332040E94ED02BB
:100CD00036C00E94E30310928A0410928B04109293
:100CE0008C0410928D0480E090E0A0E1B1E4809348
:100CF0008E0490938F04A0939004B093910484E1A8
:100D000090E0909381048093800480E090E0AEE9CD
:100D1000B2E48093230490932404A0932504B09319
:100D2000260480E090E0ACE1B2E480932704909345
:100D30002804A0932904B0932A040E94660380919A
:100D40008A0490918B04A0918C04B0918D048093BF
:100D5000820490938304A0938404B09385048091CB
:100D60008E0490918F04A0919004B091910480938F
:100D7000860490938704A0938804B093890410920A
:100D80006704109266041092480410924704809100
:100D9000230490912404A0912504B091260480930B
:100DA0001B0490931C04A0931D04B0931E04809117
:100DB000270490912804A0912904B0912A048093DB
:100DC0001F0490932004A0932104B093220480E098
:100DD00090E0FC01E15AFB4F1082FC01E651FC4F10
:100DE0001082019687309105A1F7E0ECF4E0A5EFC1
:100DF000B3E026EF3FEF86EF9FEF3183208333830D
:100E0000228311963C932E9313963C932E93129724
:100E10003496149644E0E43DF40769F79093120485
:100E200080931104909314048093130490930E0400
:100E300080930D049093100480930F041092F1039B
:100E40001092F2031092F3031092F4030E94A5058E
:100E50000E94B2267093BB046093BA041092BF0440
:100E60001092BE040E94A5050E94B22670930C0445
:100E700060930B0410924A04109249041092BD042E
:100E80001092BC040E94A5050E94B22670933903FB
:100E90006093380310920A041092090410927B04A4
:100EA00010927A04EAE3F3E02AED33E080E090E088
:100EB000A0E8BFEB80839183A283B383848395836F
:100EC000A683B78338962E173F07A1F708950F938F
:100ED0001F93CF93DF9301E010E00E94881F7D9B5A
:100EE00013C010922A031092250310922603109229
:100EF00027031092280310930B0100930A010E940C
:100F0000D905C1E0D0E002C0C0E0D0E021E040EF70
:100F100052E060E170E08EE090E00E94912121E0DB
:100F20004CEF52E06AE170E089E090E00E9491218C
:100F30000E94751FCD2B89F2DF91CF911F910F91E8
:100F40000895CF9380E880936100C1E0C093610071
:100F50008FE30E94D4210E9404225298229884B1E7
:100F600084B951982198859886980E946B2D229A71
:100F7000239A14BCC5BDC0936E00809180008E7F03
:100F800080938000809180008D7F8093800080918D
:100F90008100877F80938100809181008F7E809384
:100FA000810080918100816080938100C0936F00F7
:100FB00078940E9468290E9481298823E1F30E9485
:100FC000D9050E94C1021092900081E080939100A7
:100FD00080937100CF9108958F929F92AF92BF92AC
:100FE000CF92DF92EF92FF920F931F93CF93DF93F5
:100FF000CDB7DEB764970FB6F894DEBF0FBECDBF96
:1010000080910B018F9380910A018F938BE093E085
:101010009F938F938E010F5F1F4F1F930F930E941B
:10102000542F21E0A80160E070E080E090E00E9491
:1010300091218CE7E82E84E0F82EF70181818F93CF
:1010400080818F9380E193E09F938F931F930F9301
:101050000E94542F21E0A80160E070E082E190E05E
:101060000E949121F70183818F9382818F9385E183
:1010700093E09F938F931F930F930E94542F21E02F
:10108000A80160E070E084E290E00E94912120E0FD
:1010900030E040E752E46091340370913503809171
:1010A0003603909137030E9440264B015C010E9459
:1010B00025276B017C019B01AC01C501B4010E9495
:1010C0009A2520E030E040E752E40E9465280E9423
:1010D000B2267F936F93C701B6010E94B2267F9319
:1010E0006F938AE193E09F938F931F930F930E94D6
:1010F000542F21E0A80160E070E087E390E00E94B7
:10110000912101E028E030E044E550E068E070E043
:1011100080E090E00E94C91F0FB6F894DEBF0FBEBA
:10112000CDBF64960FB6F894DEBF0FBECDBFDF9182
:10113000CF911F910F91FF90EF90DF90CF90BF90D4
:10114000AF909F908F9008954F925F926F927F9291
:101150008F929F92AF92BF92EF92FF920F931F9345
:10116000CF93DF93C0E0D0E0CE0183559E4F7C014A
:1011700000E010E04E010D2E000CAA08BB08F7019C
:101180008081813059F5B801012E000C880B990B34
:101190000E94EA2620918E0430918F0440919004A1
:1011A000509191040E949B250E94B2262B013C0184
:1011B000C501B4010E94EA2620918A0430918B0473
:1011C00040918C0450918D040E949B250E94B22670
:1011D000DC01CB0141E0B2010E94901F0F5F1F4F65
:1011E000F5E0EF0EF11C0530110549F62196C530EA
:1011F000D10509F0B9CFDF91CF911F910F91FF90E9
:10120000EF90BF90AF909F908F907F906F905F9086
:101210004F9008954F925F926F927F928F929F921C
:10122000AF92BF92EF92FF920F931F93CF93DF93F2
:10123000C0E0D0E0CE0180599E4F7C0100E010E07C
:101240004E010D2E000CAA08BB08F70180818130E9
:1012500059F5B801012E000C880B990B0E94EA2663
:1012600020912704309128044091290450912A04A8
:101270000E949B250E94B2262B013C01C501B401AE
:101280000E94EA26209123043091240440912504F1
:10129000509126040E949B250E94B226DC01CB01BE
:1012A00041E0B2010E94901F0F5F1F4FF5E0EF0E6B
:1012B000F11C0530110549F62196C530D10509F01C
:1012C000B9CFDF91CF911F910F91FF90EF90BF9019
:1012D000AF909F908F907F906F905F904F90089508
:1012E0004F925F926F927F928F929F92AF92BF9236
:1012F000CF92DF92EF92FF920F93CF93DF93CDB710
:10130000DEB7C456D1090FB6F894DEBF0FBECDBF0D
:1013100080E1EBE4F4E0DE01119601900D928A95F4
:10132000E1F780E1EAE9F4E0DE01519601900D92E7
:101330008A95E1F780E1E3E3F4E0DE019196019024
:101340000D928A95E1F780E1EAEAF4E0DE01D196B8
:1013500001900D928A95E1F780E1EAE6F4E0DE0182
:10136000AF5BBF4F01900D928A95E1F780E1EAED06
:10137000F3E0DE01AF5ABF4F01900D928A95E1F77D
:10138000CE0101967C016E0191E6C90ED11CF701D8
:1013900064857585868597850E94B2262B013C0160
:1013A000F70160857185828593850E94B226A59696
:1013B0006CAF7DAF8EAF9FAFA597F701648175814C
:1013C000868197810E94B2264B015C01F701608102
:1013D0007181828193810E94B226DC01CB0101E000
:1013E0009201A3964EAD5FADA397B4010E94C91FB1
:1013F000F0E1EF0EF11CEC14FD0449F6CC59DF4F7F
:101400000FB6F894DEBF0FBECDBFDF91CF910F9125
:10141000FF90EF90DF90CF90BF90AF909F908F9014
:101420007F906F905F904F9008952F923F924F92D0
:101430005F926F927F928F929F92AF92BF92CF9264
:10144000DF92EF92FF920F931F93CF93DF9345EFBD
:10145000C42E43E0D42E00EC14E0E12CF12C8CE0FF
:10146000482E81E0582E95E2692E91E0792E2EE3E8
:10147000822E21E0922E37E5A32E31E0B32EC0E07C
:10148000D0E0212C312CF80180819181863FFFEF43
:101490009F0781F0F501E20DF31D2081213051F409
:1014A000F801628173816C0F7D1F41E0820D931DF5
:1014B0000E94901FF60180819181863FFFEF9F0778
:1014C00081F0F401E20DF31D2081213051F4F60189
:1014D000628173816C0F7D1F41E0820D931D0E941C
:1014E000901FE114F10491F5809111049091120480
:1014F000863FFFEF9F0789F0F301E20DF31D208186
:10150000213059F460911304709114046C0F7D1F05
:1015100041E0820D931D0E94901F80910D049091D7
:101520000E04863FEFEF9E0789F0F201E20DF31DF6
:101530002081213059F460910F04709110046C0FD8
:101540007D1F41E0820D931D0E94901F2FEF221AF4
:10155000320A85E02816310409F095CF2196E5E09E
:101560004E0E511CF5E06F0E711C25E0820E911C91
:1015700085E0A80EB11CC530D10509F082CFEFEF90
:10158000EE1AFE0AF4E0CF0ED11C0C5F1F4F25E0CF
:10159000E216F10409F063CFDF91CF911F910F9113
:1015A000FF90EF90DF90CF90BF90AF909F908F9083
:1015B0007F906F905F904F903F902F9008958F9203
:1015C0009F92AF92BF92CF92DF92EF92FF92CF9312
:1015D000DF93CAE3D3E0C880D980EA80FB8020E0B3
:1015E00030E040E85FEBC701B6010E943626882351
:1015F00091F06C817D818E819F810E94B2264B018A
:101600005C01C701B6010E94B226DC01CB0141E0BA
:10161000B4010E94901F289683E0CA3DD807D9F6EE
:10162000DF91CF91FF90EF90DF90CF90BF90AF9080
:101630009F908F9008954F925F926F927F928F92BA
:101640009F92AF92BF92EF92FF920F931F93CF930F
:10165000DF93C0E0D0E0CE0187579E4F7C0100E0D1
:1016600010E04E010D2E000CAA08BB08F701808186
:10167000813059F5B801012E000C880B990B0E949E
:10168000EA2620918E0430918F044091900450916D
:1016900091040E949B250E94B2262B013C01C501AA
:1016A000B4010E94EA2620918A0430918B04409173
:1016B0008C0450918D040E949B250E94B226DC016F
:1016C000CB0141E0B2010E94901F0F5F1F4FF6E077
:1016D000EF0EF11C0630110549F62196C630D105F2
:1016E00009F0B9CFDF91CF911F910F91FF90EF904B
:1016F000BF90AF909F908F907F906F905F904F9032
:1017000008950E94EC078091660490916704892BEC
:1017100011F40E94A4080C940A099B0143E035953A
:1017200027954A95E1F744E5249F800D911D1124EA
:10173000FC01EC52FB4F808190E0677002C09595F0
:1017400087956A95E2F7817008952F923F924F92A4
:101750005F926F927F928F929F92AF92BF92CF9241
:10176000DF92EF92FF920F931F93CF93DF9300D0FE
:1017700000D0CDB7DEB7CFA8D8AC29AC3AAC8FA09B
:1017800098A4A9A4BAA44BA45CA46DA47EA4C1147B
:10179000D104D1F1E12CF12CC6010D2C000CAA0BC7
:1017A000BB0B89839A83AB83BC83D7FE09C0698155
:1017B0007A818B819C810E94EA26A501940106C052
:1017C00020E030E040EA50E4C501B4010E949B25CE
:1017D0000E94B2268B01B7010F2C000C880B990BCD
:1017E0000E94EA26A30192010E949B250E94B22634
:1017F000C8010E948D0B811143C09FEFE91AF90ABD
:10180000A5E0EA16F10489F621143104C1F100E0E3
:1018100010E06101032C000CEE08FF08B801012E56
:10182000000C880B990B0E94EA26A50194010E94E6
:101830009B250E94B22669837A838B839C83121432
:1018400013043CF420E030E040EA50E4C301B2016C
:1018500006C0C701B6010E94EA26A30192010E94B8
:101860009B250E94B22689819A810E948D0B81114D
:1018700007C00F5F1F4F0530110581F601C080E0E2
:101880000F900F900F900F90DF91CF911F910F91BC
:10189000FF90EF90DF90CF90BF90AF909F908F9090
:1018A0007F906F905F904F903F902F9008952F9270
:1018B0003F924F925F926F927F928F929F92AF92E0
:1018C000BF92CF92DF92EF92FF920F931F93CF932D
:1018D000DF9300D000D000D0CDB7DEB72B013C01A4
:1018E00029833A834B835C83B801FE82ED828501B4
:1018F0001401072E000C880B990B0E94EA26A30105
:1019000092010E949B254B015C01B6016B5F7F4FEA
:1019100062197309072E000C880B990B0E94EA26A6
:101920009B01AC01C501B4010E94582818160CF4A3
:101930006AC0B101032C000C880B990B0E94EA26A7
:101940002B013C01B601DD0C880B990B0E94EA26A5
:101950006B017C0120E030E040EA50E4C501B401B5
:101960000E949B25A30192010E949A259B01AC0134
:10197000C701B6010E94582818160CF444C02D81E6
:101980003E81B901330F880B990B0E94EA26298109
:101990003A814B815C810E949B256B017C01B801DF
:1019A0006B5F7F4F62197309072E000C880B990B30
:1019B0000E94EA269B01AC01C701B6010E9458288B
:1019C00018160CF1B801110F880B990B0E94EA262A
:1019D0004B015C0120E030E040EA50E4C701B60171
:1019E0000E949B25A30192010E949A259B01AC01B4
:1019F00011E0C501B4010E94582818160CF010E03F
:101A000081E0812701C080E026960FB6F894DEBF02
:101A10000FBECDBFDF91CF911F910F91FF90EF903F
:101A2000DF90CF90BF90AF909F908F907F906F90FE
:101A30005F904F903F902F9008958F929F92AF921A
:101A4000BF92CF92DF92EF92FF92CF93DF93CDB709
:101A5000DEB7CBA4DCA4EDA4FEA48FA498A8A9A80B
:101A6000BAA88091660490916704892B09F05EC042
:101A700020E030E0A901C701B6010E9458281816DD
:101A800084F020E030E0A901C701B6010E943626AB
:101A900087FF0DC0C12CD12C30E8E32E3FEBF32E95
:101AA00006C0C12CD12C20E8E22E2FE3F22E20E03C
:101AB00030E0A901C501B4010E945828181684F02D
:101AC00020E030E0A901C501B4010E94362687FF5D
:101AD0000DC0812C912C90E8A92E9FEBB92E06C049
:101AE000812C912C80E8A82E8FE3B82EC501B4017B
:101AF0000E94B2267EA76DA7C701B6010E94B2263A
:101B00007CA76BA78EE1FE013D96DF0101900D924F
:101B10008A95E1F7DF91CF91FF90EF90DF90CF9022
:101B2000BF90AF909F908F900C94A50B80E0DF91B9
:101B3000CF91FF90EF90DF90CF90BF90AF909F90AC
:101B40008F900895CF93DF930E941A2EC5E1D4E0C1
:101B5000BC01990F880B990B0E94EA2620E03EEF0A
:101B60004FEF56E40E9440262DEC3CEC4CE45EE343
:101B70000E9465282DEC3CEC4CE45EE30E949B2522
:101B8000209106013091070140910801509109010F
:101B90000E9465286E8B7F8B888F998F0E941A2EEA
:101BA000BC01990F880B990B0E94EA2620E03EEFBA
:101BB0004FEF56E40E9440262BED3FE049E450E40D
:101BC0000E9465289B01AC010E949B256A8F7B8F38
:101BD0008C8F9D8FDF91CF910895ECE7F4E08681A3
:101BE0009781A085B18586879787A08BB18B8285E9
:101BF0009385A485B585828B938BA48BB58B089533
:101C0000E5E1F4E086819781A085B1858687978795
:101C1000A08BB18B82859385A485B585828B938BB0
:101C2000A48BB58B08952F923F924F925F926F9243
:101C30007F928F929F92AF92BF92CF92DF92EF925C
:101C4000FF920F931F93CF93DF93CDB7DEB76297C9
:101C50000FB6F894DEBF0FBECDBF6A8B798B382EDE
:101C6000292E29833A834B835C8340908A045090C9
:101C70008B0460908C0470908D04C301B2010E94AB
:101C8000D2280E94B22669877A878B879C878091A9
:101C90008E0490918F04A0919004B09191048D8353
:101CA0009E83AF83B887BC01CD010E94D2280E94D9
:101CB000B2266D877E878F87988B609127047091FD
:101CC00028048091290490912A040E94B2265B0185
:101CD0006C016091230470912404809125049091FB
:101CE00026040E94B22688248394912C6B01ED84F3
:101CF000FE8409851A8579816A819B818C81272FD1
:101D0000362F492F582FBA89A989F1016B2F7A2FC5
:101D10008F2F9E2F0E94570C8111BEC0B801110F4A
:101D2000880B990B0E94EA26BA89A989F1012B2F09
:101D30003A2F4F2F5E2F0E949B256B017C016091F3
:101D4000660470916704072E000C880B990B0E94A3
:101D5000EA264B015C0120E030E040EA50E4C70194
:101D6000B6010E949B25A50194010E949B2520E0BD
:101D700030E048EA52E40E94362687FFC4C020E0E3
:101D800030E0A901C701B6010E94582887FDBBC0F9
:101D90002D853E85B901330F880B990B0E94EA26E9
:101DA000B981AA81FB81EC812B2F3A2F4F2F5E2F17
:101DB0000E949B256B017C0120E030E040EA50E46A
:101DC0000E949B25A50194010E949B2520E030E004
:101DD00044E452E40E94362687FF95C020E030E0BC
:101DE00040E051E4C701B6010E94582818160CF0D3
:101DF0008AC03C813F938B818F939A819F93A98165
:101E0000AF932F923F92B989BF932A892F938DB7B1
:101E10009EB74E970FB6F8949EBF0FBE8DBFADB75D
:101E2000BEB711968EE1ECE7F4E001900D928A9531
:101E3000E1F70E941D0D0FB6F894DEBF0FBECDBFB7
:101E4000811161C07A896989C101272F362F492FF5
:101E5000582FC301B2010E949B2560938A0470939E
:101E60008B0480938C0490938D0479816A819B818B
:101E70008C81272F362F492F582F6D817E818F819E
:101E800098850E949B2560938E0470938F048093A5
:101E900090049093910437C08091660490916704F8
:101EA000892B61F40E94ED0D80917C0490917D045A
:101EB000019790937D0480937C0409C080917E04F7
:101EC00090917F04019690937F0480937E040E94FA
:101ED000000E62960FB6F894DEBF0FBECDBFDF9145
:101EE000CF911F910F91FF90EF90DF90CF90BF9017
:101EF000AF909F908F907F906F905F904F903F90AA
:101F00002F900C94A20D62960FB6F894DEBF0FBE10
:101F1000CDBFDF91CF911F910F91FF90EF90DF9098
:101F2000CF90BF90AF909F908F907F906F905F9079
:101F30004F903F902F9008952F923F926F927F92F3
:101F40008F929F92AF92BF92CF92DF92EF92FF92C9
:101F50000F931F93CF93DF93CDB7DEB76A970FB67A
:101F6000F894DEBF0FBECDBF60918E0470918F04D8
:101F700080919004909191040E94B2266F87788B93
:101F8000898B9A8B2F8538893C872B8760918A04AF
:101F900070918B0480918C0490918D040E94B226E4
:101FA0006B8B7C8B8D8B9E8B8B899C899E878D8781
:101FB000E0917E04F0917F04F887EF83209147043D
:101FC000309148043E832D838091BE049091BF04DC
:101FD0009C838B83E0916604F0916704F88FEF8B0C
:101FE00020917C0430917D043A83298380914904B7
:101FF00090914A049A878987E0ECF4E0FA8FE98FA0
:1020000035EF232E33E0332E46EF642E77247A9477
:10201000E98DFA8DA280B380C080D180882483941A
:10202000912CEB84FC840D851E8520E030E0A90115
:10203000CA01B9010E94570C8823B1F02F8138855D
:102040002F5F3F4F38872F838D819E8101969E831E
:102050008D83EB81FC813197FC83EB83E98DFA8DD5
:1020600071826082738262822F89388D232B29F5D9
:10207000F101A280B380C080D18088248394912C08
:10208000EB84FC840D851E8520E030E0A901CA01A7
:10209000B9010E94570C882381F029813A8121508F
:1020A00031093A83298389859A8501979A87898797
:1020B000F1017182608273826282298D3A8D2C5F78
:1020C0003F4F3A8F298F34E0230E311C84ED94E08A
:1020D000E98DFA8D8E179F0709F09ACF2F813885E9
:1020E00030937F0420937E048D819E8190934804D9
:1020F00080934704EB81FC81F093BF04E093BE041E
:1021000029813A8130937D0420937C0489859A85C6
:1021100090934A0480934904E0910904F0910A04E1
:10212000FA83E9833197B1F5A0900F04B0901004C1
:10213000C0900D04D0900E0488248394912CEF84D9
:10214000F8880B891C8920E030E0A901CA01B90197
:102150000E94570C8823F1F029813A81309367045B
:10216000209366040E94A5050E94D2280E94B226F0
:10217000709369046093680486EF9FEF90930E0458
:1021800080930D049093100480930F0410920A041E
:10219000109209046A960FB6F894DEBF0FBECDBF49
:1021A000DF91CF911F910F91FF90EF90DF90CF9033
:1021B000BF90AF909F908F907F906F903F902F90A7
:1021C00008954F925F926F927F928F929F92AF92FB
:1021D000BF92CF92DF92EF92FF92CF93DF93CDB772
:1021E000DEB72E970FB6F894DEBF0FBECDBF9E8729
:1021F0008D87DC018D919D910D90BC91A02D8983DF
:102200009A83AB83BC839C01AD01609123047091E0
:10221000240480912504909126040E949A254B0164
:102220005C01AD85BE8514968D919D910D90BC91FC
:10223000A02D8D839E83AF83B8879C01AD016091F3
:102240002704709128048091290490912A040E9407
:102250009A256B017C01A5019401C501B4010E947E
:1022600065282B013C01A7019601C701B6010E9418
:1022700065289B01AC01C301B2010E949B250E940D
:1022800004299B01AC0160E070E080E89FE30E94BC
:1022900040262B013C019B01AC01C501B4010E9409
:1022A000652829813A814B815C810E949B254B01E5
:1022B0005C0120E030E048EA52E40E94362687FFC5
:1022C00064C020E030E040E85FE3C501B4010E9453
:1022D000582818160CF059C0A3019201C701B60185
:1022E0000E9465282D813E814F8158850E949B2543
:1022F0006B017C0120E030E040E452E40E9436268D
:1023000087FF43C020E030E040EA50E4C701B60157
:102310000E9458281816CCF5C701B6010E94B226B3
:102320002B013C01C501B4010E94B22669877A875E
:102330008B879C87B20189859A850E948D0B8111BC
:1023400024C06D817E818F8198850E94B226898507
:102350009A850E948D0B811118C069817A818B81C9
:102360009C810E94B226DC01CB01B2010E948D0B40
:1023700081110BC0ED85FE8580829182A282B3829D
:10238000C482D582E682F78217C080E090E0A0E8A0
:10239000BFEBED85FE8580839183A283B383848325
:1023A0009583A683B78380918004909181040196E0
:1023B00090938104809380042E960FB6F894DEBF2C
:1023C0000FBECDBFDF91CF91FF90EF90DF90CF9008
:1023D000BF90AF909F908F907F906F905F904F9045
:1023E00008958F929F92AF92BF92CF92DF92EF9219
:1023F000FF92CF93DF93CAE3D3E0C880D980EA800D
:10240000FB8020E030E040E85FEBC701B6010E94AE
:102410003626882309F479C0C701B6010E94D22864
:102420006B017C018090230490902404A0902504EB
:10243000B0902604C501B4010E94D2289B01AC01D2
:10244000C701B6010E94582887FD58C020E030E03F
:1024500040EA50E4C501B4010E949B250E94D228A5
:102460009B01AC01C701B6010E94362687FF46C01A
:102470006C817D818E819F810E94D2286B017C01BD
:102480008090270490902804A0902904B0902A04FA
:10249000C501B4010E94D2289B01AC01C701B6015D
:1024A0000E94582887FD2AC020E030E040EA50E42E
:1024B000C501B4010E949B250E94D2289B01AC015A
:1024C000C701B6010E94362687FF18C00E94000E81
:1024D00080E090E0A0E8BFEB88839983AA83BB8368
:1024E0008C839D83AE83BF8380918004909181040F
:1024F0000196909381048093800407C080912B0300
:10250000811103C0CE010E94E110289683E0CA3DEC
:10251000D80709F072CFDF91CF91FF90EF90DF9055
:10252000CF90BF90AF909F908F9008950F931F937F
:10253000CF93DF930AE313E0C0E0D0E020E030E087
:1025400040E85FEBF80160817181828193810E9494
:102550003626811129C083E0CC0FDD1F8A95E1F773
:10256000C65CDC4F80918A0490918B04A0918C040E
:10257000B0918D0488839983AA83BB8380918E0454
:1025800090918F04A0919004B09191048C839D83CD
:10259000AE83BF83809180049091810401979093D2
:1025A00081048093800406C02196085F1F4FC431C8
:1025B000D10521F6DF91CF911F910F9108952F92B0
:1025C0003F924F925F926F927F928F929F92AF92C3
:1025D000BF92CF92DF92EF92FF920F931F93CF9310
:1025E000DF93C0902F04D0903004E0903104F0903D
:1025F0003204C701B6010E943B262B013C01209109
:102600000601309107014091080150910901609144
:102610002B0470912C0480912D0490912E040E9423
:1026200065284B015C019B01AC01C301B2010E9412
:102630006528EB01182F092FC701B6010E94F62863
:102640002B013C0120912304309124044091250466
:1026500050912604F8016C2F7D2F8F2F9E2F0E9402
:102660009B256B017C0120E030E0A901F8016C2F73
:102670007D2F8F2F9E2F0E943626881F8827881F28
:1026800033243394682F632585E0282E269EB001DD
:102690001124072E000C880B990B0E94EA26A70133
:1026A00096010E949B2520E030E048EA52E40E9417
:1026B000582818160CF4C6C020E030E0A901C70164
:1026C000B6010E94362687FDBDC0A3019201C50157
:1026D000B4010E9465282B01782E692E20912704D1
:1026E000309128044091290450912A04F301752D5A
:1026F0008F2F9E2F0E949B254B015C0120E030E034
:10270000A901F301642D752D8F2F9E2F0E9436266F
:10271000881F8827881F3826239CB0011124072E84
:10272000000C880B990B0E94EA26A50194010E94D7
:102730009B2520E030E040E452E40E94582818161F
:102740000CF480C020E030E040E151E4C501B40168
:102750000E94362687FD76C06F927F925F924F92DD
:102760000F931F93DF93CF932DB73EB72E513109AF
:102770000FB6F8943EBF0FBE2DBFADB7BEB71196D2
:102780008EE1E5E1F4E001900D928A95E1F70E9477
:102790001D0D2DB73EB72A5D3F4F0FB6F8943EBFD3
:1027A0000FBE2DBF81114EC01F921F921F921F920C
:1027B0000F931F93DF93CF938DB79EB74E970FB6AE
:1027C000F8949EBF0FBE8DBFADB7BEB711968EE118
:1027D000E5E1F4E001900D928A95E1F70E941D0D6C
:1027E0002DB73EB72A5D3F4F0FB6F8943EBF0FBEE0
:1027F0002DBF811127C06F927F925F924F921F92DF
:102800001F921F921F928DB79EB74E970FB6F894E6
:102810009EBF0FBE8DBFADB7BEB711968EE1E5E18D
:10282000F4E001900D928A95E1F70E941D0D2DB7FD
:102830003EB72A5D3F4F0FB6F8943EBF0FBE2DBF87
:102840008823A1F0DF91CF911F910F91FF90EF901E
:10285000DF90CF90BF90AF909F908F907F906F90C0
:102860005F904F903F902F900C94A20D20E030E0AD
:1028700046EA52E4C701B6010E94362687FF11C01E
:1028800020E030E0A901C701B6010E9458281816BF
:1028900044F4C0922304D0922404E0922504F092E0
:1028A000260420E030E04CE352E4C501B4010E946C
:1028B000362687FF12C020E030E040E051E4C50139
:1028C000B4010E945828181644F48092270490926C
:1028D0002804A0922904B0922A04DF91CF911F917D
:1028E0000F91FF90EF90DF90CF90BF90AF909F90AF
:1028F0008F907F906F905F904F903F902F900895B2
:102900004F925F926F927F928F929F92AF92BF92FF
:10291000CF92DF92EF92FF920F931F93CF93DF93AB
:102920000E941A2EBC01990F880B990B0E94EA266F
:1029300020E03EEF4FEF56E40E94402620E030E0DA
:102940004EE952E40E9465280E94D2280E94B226D5
:102950006B017C013B010E941A2EBC01990F880B70
:10296000990B0E94EA2620E03EEF4FEF56E40E94CA
:10297000402620E030E04CE052E40E9465280E94AE
:10298000D228460121E0C21AD1082EE4C216D10491
:1029900038F620E030E040E051E40E949B2520E042
:1029A00030E040EA50E40E949B250E94B2262B01B1
:1029B0005B01695071096232710508F0B1CFC0E066
:1029C000D0E0E12CF12C00E010E06E01C80CD91C25
:1029D000B8016A0D7B1DC6010E948D0B811106C0D6
:1029E0000F5F1F4F0530110599F703C0EE24E394E4
:1029F000F12C2196C530D10531F7EA94EF2809F47E
:102A00008FCF70922D0360922C0350922F0340922F
:102A10002E038CE293E0DF91CF911F910F91FF90F5
:102A2000EF90DF90CF90BF90AF909F908F907F906E
:102A30006F905F904F900895CF93C82F0E9480149D
:102A4000FC014081518122813381C33421F5E0ECC6
:102A5000F4E080E090E060817181663F7F4FA9F4EF
:102A6000880F991F880F991FFC01E054FB4F518379
:102A70004083338322838091BE049091BF040196EA
:102A80009093BF048093BE0410C0019634968530A5
:102A9000910509F70AC0C43441F4509312044093DD
:102AA000110430931404209313040E94A5050E947E
:102AB000D2280E94B2267093BB046093BA04CF91CF
:102AC00008952F923F924F925F926F927F928F92D2
:102AD0009F92AF92BF92CF92DF92EF92FF920F93AD
:102AE0001F93CF93DF93CDB7DEB764970FB6F894FB
:102AF000DEBF0FBECDBF8091270490912804A09126
:102B00002904B0912A048F839887A987BA87BC01CA
:102B1000CD010E94B2267C836B83409023045090A9
:102B200024046090250470902604C301B2010E9421
:102B3000B2261B01A0911304B0911404BC87AB878B
:102B4000E0911104F0911204FE87ED8720910F04AB
:102B500030911004388B2F8780910D0490910E04D2
:102B60009A8B898BA0ECB4E0BC8BAB8BE5EFF3E0E8
:102B7000FE83ED83FA83E983AB89BC891296AD901D
:102B8000BC901397CD90DC90812C912CEB80FC8035
:102B9000810120E030E0A901CA01B9010E94570C6F
:102BA00081117DC0E981FA81A280B380C080D1808B
:102BB00020E030E0A901CA01B9010E94570C81113F
:102BC0006EC0AB84BC84CD84DE8420E030E0A901FB
:102BD000CA01B9010E94570C811161C0AF84B88845
:102BE000C988DA8820E030E0A901CA01B9010E9451
:102BF000570C811154C02B893C892C5F3F4F3C8B73
:102C00002B8B89819A8104969A838983245D344031
:102C100009F0B2CF1A821982AD81BE818D919C914B
:102C20000A9671F5C301B2010E94D228E981FA81A6
:102C3000EE0FFF1FEE0FFF1FEB50FC4FFA83E983EF
:102C40000E94B226A981BA816D937C936F817885A9
:102C500089859A850E94D2280E94B226E981FA814C
:102C6000738362838091490490914A040196909302
:102C70004A04809349041092BD041092BC040FC012
:102C800029813A812F5F3F4F3A8329838D819E812D
:102C900004969E838D832530310509F0BDCF0E94B7
:102CA000A5050E94D2280E94B22670930C0460935E
:102CB0000B0464960FB6F894DEBF0FBECDBFDF9154
:102CC000CF911F910F91FF90EF90DF90CF90BF9029
:102CD000AF909F908F907F906F905F904F903F90BC
:102CE0002F9008952F923F924F925F926F927F9212
:102CF0008F929F92AF92BF92CF92DF92EF92FF920C
:102D00000F931F93CF93DF93CDB7DEB72A970FB6FC
:102D1000F894DEBF0FBECDBF6091270470912804E8
:102D20008091290490912A040E94B2266D837E83AB
:102D30008F8398878D819E819A83898360912304F4
:102D40007091240480912504909126040E94B2265B
:102D50002B013C017C836B83E0ECF4E0FA87E9878C
:102D600085EF282E83E0382EE985FA85A280B3808E
:102D7000C080D180812C912CE980FA800B811C814C
:102D800020E030E0A901CA01B9010E94570C81116D
:102D90002FC0F101A280B380C080D18020E030E05C
:102DA000A901CA01B9010E94570C811121C089856E
:102DB0009A8504969A87898794E0290E311CE985C3
:102DC000FA85E45DF44081F650920E0440920D04C1
:102DD0008D819E819093100480930F0481E090E098
:102DE00090930A048093090410927B0410927A0451
:102DF0000E94A5050E94D2280E94B2267093390332
:102E0000609338032A960FB6F894DEBF0FBECDBF8D
:102E1000DF91CF911F910F91FF90EF90DF90CF90B6
:102E2000BF90AF909F908F907F906F905F904F90EA
:102E30003F902F900895CF92DF92EF92FF920E94E1
:102E4000A5050E94D2280E94B2266B017C018091C8
:102E5000470490914804059749F48091110490919A
:102E600012040A9619F484E40E941C158091BE0491
:102E70009091BF048530910594F48091BA049091AB
:102E8000BB049601281B390B2230310551F4809187
:102E90002B03811106C083E40E941C1510C0059706
:102EA00021F080912B03882351F00E94A5050E94F8
:102EB000D2280E94B2267093BB046093BA0480911A
:102EC000BC049091BD04892BA9F480914904909190
:102ED0004A0485309105BCF480910B0490910C0458
:102EE0009601281B390B2330310579F480912B038F
:102EF00081110BC081E090E09093BD048093BC04ED
:102F00000E94611510C0059721F080912B03882342
:102F100051F00E94A5050E94D2280E94B22670930B
:102F20000C0460930B0480910A0190910B010297AD
:102F3000B1F580917A0490917B04892BA1F4809162
:102F4000090490910A040097D1F48091380390917C
:102F50003903C81AD90A35E0C316D10491F4809117
:102F60002B0381110EC081E090E090937B0480934D
:102F70007A04FF90EF90DF90CF900C947216019737
:102F800021F080912B03882351F00E94A5050E9417
:102F9000D2280E94B2267093390360933803FF90C1
:102FA000EF90DF90CF9008954F925F926F927F9253
:102FB0008F929F92AF92BF92CF92DF92EF92FF9249
:102FC000CF93DF93CDB7DEB72E970FB6F894DEBF61
:102FD0000FBECDBF9E878D87DC0118968D919D9188
:102FE0000D90BC91A02D89839A83AB83BC83AD8562
:102FF000BE858D919D910D90BC91A02D8D839E835A
:10300000AF83B8879C01AD0169817A818B819C81F6
:103010000E949A254B015C01ED85FE854484558410
:103020006684778484819581A681B78189879A8710
:10303000AB87BC879C01AD01C301B2010E949A25F8
:103040006B017C0120E030E040E051E469857A8545
:103050008B859C850E94362687FF5CC020E030E08F
:1030600040E051E4C301B2010E94362687FF52C0FE
:1030700020E030E0A901C701B6010E94362688236E
:10308000D9F120E030E0A901C701B6010E9458281B
:1030900018164CF0A701960160E070E080E492E41D
:1030A0000E949A2504C060E070E080E492E4ED851F
:1030B000FE85648375838683978320E030E0A901D1
:1030C000C701B6010E94582818164CF420E030E0E1
:1030D00040E452E4C701B6010E949B2504C060E0B1
:1030E00070E080E492E4AD85BE851C966D937D937F
:1030F0008D939C931F970EC080E090E0A0E4B2E413
:10310000ED85FE8584839583A683B7838487958721
:10311000A687B78720E030E040E452E4AD85BE8565
:1031200014966D917D918D919C9117970E945828CE
:1031300018160CF061C020E030E040E452E4ED8568
:10314000FE8564857585868597850E9458281816A2
:103150000CF052C020E030E0A901C701B6010E9486
:1031600036268823D9F120E030E0A901C701B60155
:103170000E94582818164CF4A701960160E070E0F0
:1031800080E091E40E949A2504C060E070E080E055
:1031900091E4AD85BE8514966D937D938D939C933C
:1031A000179720E030E0A901C701B6010E94582816
:1031B00018164CF020E030E040E051E4C701B601C1
:1031C0000E949B2504C060E070E080E091E4ED8502
:1031D000FE8564877587868797870EC080E090E0BC
:1031E000A0E0B1E4ED85FE8584839583A683B78353
:1031F00084879587A687B78720E030E048EA52E4C5
:103200006D817E818F8198850E94582818160CF058
:1032100041C020E030E048EA52E469817A818B8144
:103220009C810E9458281816ACF520E030E0A901D6
:10323000C501B4010E945828181644F4A501940150
:1032400060E070E0CB010E949A2503C060E070E06E
:10325000CB01AD85BE856D937D938D939C93139724
:1032600020E030E0A901C501B4010E9458281816D9
:1032700044F020E030E0A901C501B4010E949B2583
:1032800003C060E070E0CB01ED85FE85608771874B
:103290008287938720E030E0A901AD85BE856D91DE
:1032A0007D918D919C910E94362687FF46C020E03B
:1032B00030E0A901ED85FE85608571858285938565
:1032C0000E94362687FF39C020E030E0A901C50101
:1032D000B4010E94582818164CF0A501940160E032
:1032E00070E088EA92E40E949A2504C060E070E0F1
:1032F00088EA92E4AD85BE856D937D938D939C9312
:10330000139720E030E0A901C501B4010E945828BC
:1033100018164CF420E030E048EA52E4C501B4014C
:103320000E949B2504C060E070E088EA92E4ED858D
:10333000FE8560877187828793872E960FB6F894F3
:10334000DEBF0FBECDBFDF91CF91FF90EF90DF903A
:10335000CF90BF90AF909F908F907F906F905F9035
:103360004F9008952F923F924F925F926F927F926B
:103370008F929F92AF92BF92CF92DF92EF92FF9285
:103380000F931F93CF93DF93CDB7DEB766970FB63A
:10339000F894DEBF0FBECDBF2DEC3CEC4CE45DE3FA
:1033A00060910201709103018091040190910501E7
:1033B0000E9465281B018F87988B8CE0E1EDF1E07E
:1033C000DE01119601900D928A95E1F79E012F5F23
:1033D0003F4F3A8B298BCE010D969E878D87A98909
:1033E000BA890D911D91BA8BA98B20E030E0A9011B
:1033F000F80160817181828193810E943626882341
:1034000009F4D7C020E030E0A901D80118966D91E9
:103410007D918D919C911B970E943626882309F4FB
:10342000C8C020E030E0A901F8016481758186817F
:1034300097810E943626882309F4BBC020E030E043
:10344000A901D8011C966D917D918D919C911F973A
:103450000E943626882309F4ACC0C8010E94D41704
:10346000D8011C968D919D910D90BC91A02D8B8BB8
:103470009C8BAD8BBE8BF801C480D580E680F78035
:10348000A7019601BC01CD010E949A254B015C0168
:1034900020E030E0A9010E943626882309F442C0CA
:1034A000D8012D913D914D915C91139718966D9196
:1034B0007D918D919C911B970E949A252B013C0137
:1034C00020E030E0A9010E943626882399F1A3016B
:1034D0009201C501B4010E9440260E9407269B016B
:1034E000AC016BED7FE089E490E40E949A252B010A
:1034F0003C010E943B269B01AC01B1018F8598895C
:103500000E9465284B015C01C301B2010E94F628AC
:103510009B01AC01B1018F8598890E9465282B0120
:103520003C010FC021016F847888812C912CA12C43
:10353000B12C07C04101AF84B888412C512C612CBB
:10354000712C9401A501F8016081718182819381C0
:103550000E949B25D8016D937D938D939C93139727
:103560009401A50118966D917D918D919C911B9769
:103570000E949B25F8016087718782879387A70146
:103580009601B201C3010E949B25D80114966D9348
:103590007D938D939C9317972B893C894D895E89E8
:1035A000B201C3010E949B25F80164877587868755
:1035B000978729893A898D859E852817390709F0CB
:1035C0000ECF66960FB6F894DEBF0FBECDBFDF916B
:1035D000CF911F910F91FF90EF90DF90CF90BF9010
:1035E000AF909F908F907F906F905F904F903F90A3
:1035F0002F9008954F925F926F927F928F929F9239
:10360000AF92BF92CF92DF92EF92FF920F931F93F0
:10361000CF93DF9300E010E0C0E0D0E06801012E1E
:10362000000CEE08FF0880916604909167044E013B
:103630000D2E000CAA08BB08892B51F5C501B40159
:103640000E94EA2620918E0430918F0440919004CC
:10365000509191040E949B250E94B2262B013C01AF
:10366000C701B6010E94EA2620918A0430918B049A
:1036700040918C0450918D040E949B250E94B2269B
:10368000DC01CB01B2010E948D0B81110E94ED0D76
:10369000C501B4010E94EA26209127043091280434
:1036A0004091290450912A040E949B250E94B22631
:1036B0004B015C01C701B6010E94EA262091230458
:1036C0003091240440912504509126040E949B25AA
:1036D0000E94B226DC01CB01B4010E948D0B811146
:1036E0000E94000E2196C530D10509F09CCF0F5FD6
:1036F0001F4F0530110509F08FCFDF91CF911F913A
:103700000F91FF90EF90DF90CF90BF90AF909F9080
:103710008F907F906F905F904F9008950F931F93BD
:10372000CF93DF9380E00E946F2D8C0181E00E9497
:103730006F2DEC01B80180E090E00E94E82620E0C7
:1037400030E040E85AE30E9465289B01AC010E94EA
:103750009B25609306017093070180930801909365
:103760000901BE0180E090E00E94E8269B01AC01C7
:1037700060E070E080E094E40E949A2520E030E070
:1037800040E05BE30E9465289B01AC010E949B2501
:1037900060930201709303018093040190930501EB
:1037A000DF91CF911F910F910895809101018F308A
:1037B00018F01092000107C080910101823018F4C6
:1037C00081E08093000180910001813021F480919B
:1037D00001018F5F03C0809101018150809301013D
:1037E000089590912B0381E0892780932B038823F0
:1037F00099F00E94A505609343047093440480935C
:1038000045049093460410925B0410925C0410925D
:103810005D0410925E0408950E94A50560935B0408
:1038200070935C0480935D0490935E042091430444
:103830003091440440914504509146040E949A25D9
:103840009B01AC016091F1037091F2038091F3034D
:103850009091F4030E949B256093F1037093F2030F
:103860008093F3039093F40308951F920F920FB681
:103870000F921124CF92DF92EF92FF922F933F93FA
:103880004F935F936F937F938F939F93AF93BF9368
:10389000EF93FF93CF93DF93CDB7DEB72E97DEBFC5
:1038A000CDBF8FB188878FB1898783B18A8783B174
:1038B0008B8789B18C8789B18D8783B18E8787E0AB
:1038C000EDEDF1E0DE01119601900D928A95E1F7A0
:1038D000BE01685F7F4F9E012F5F3F4F790120E05F
:1038E00030E051E0F901E15AFB4F8081880F80837D
:1038F00080818F7080834081DB019D91BD01892F84
:1039000090E0D7010D9002C0959587950A94E2F753
:103910007D018170842B808380818F3029F4F901AF
:10392000E651FC4F508307C08081811104C0F9012A
:10393000E651FC4F10822F5F3F4F2730310591F643
:103940000E9484298337910509F055C0C0908E04E8
:10395000D0908F04E0909004F090910420E030E04B
:1039600040EA50E4C701B6010E949B2520E030E008
:1039700040E85FE30E949B2520E030E040E452E411
:103980000E94362687FF1CC18FE38F9380E88F93B8
:103990001F921F921F921F921F921F922DB73EB728
:1039A0002E5131090FB6F8943EBF0FBE2DBFADB7F3
:1039B000BEB711968EE1ECE7F4E001900D928A9586
:1039C000E1F70E941D0D0FB6F894DEBF0FBECDBF0C
:1039D0008111F6C020E030E040E85FE3C701B601A6
:1039E0000E949B2560938E0470938F0480939004B3
:1039F00090939104E5C081369105F1F420E030E028
:103A000040E85FE360918A0470918B0480918C049C
:103A100090918D040E949A256B017C0120E030E09A
:103A2000A9010E94582818160CF0CAC01F921F92B4
:103A30001F921F928FEB73C08737910509F048C022
:103A400020E030E040E85FE360918E0470918F04E5
:103A500080919004909191040E949A256B017C01C1
:103A600020E030E040E051E40E94582818160CF0A5
:103A7000A7C08FEB8F9380E88F931F921F921F92A6
:103A80001F921F921F922DB73EB72E5131090FB6CC
:103A9000F8943EBF0FBE2DBFADB7BEB711968EE1F5
:103AA000ECE7F4E001900D928A95E1F70E941D0D7C
:103AB0000FB6F894DEBF0FBECDBF811181C0C0929A
:103AC0008E04D0928F04E0929004F092910478C01A
:103AD0008436910509F04DC020E030E040E85FE316
:103AE00060918A0470918B0480918C0490918D0474
:103AF0000E949B256B017C0120E030E040EA50E40D
:103B00000E949B2520E030E048EA52E40E943626DD
:103B100087FF56C01F921F921F921F928FE38F93B1
:103B200080E88F931F921F922DB73EB72E51310917
:103B30000FB6F8943EBF0FBE2DBFADB7BEB71196FE
:103B40008EE1ECE7F4E001900D928A95E1F70E9496
:103B50001D0D0FB6F894DEBF0FBECDBF811130C072
:103B6000C0928A04D0928B04E0928C04F0928D046F
:103B700027C08936910519F40E94450421C0803779
:103B8000910519F40E94F11B1BC08C36910599F424
:103B900080910A0190910B01019749F482E090E035
:103BA00090930B0180930A010E94D90509C081E01E
:103BB00080932A0305C08636910511F40E9496125F
:103BC0002E960FB6F894DEBF0FBECDBFDF91CF911A
:103BD000FF91EF91BF91AF919F918F917F916F91E5
:103BE0005F914F913F912F91FF90EF90DF90CF9099
:103BF0000F900FBE0F901F9018954F925F926F928B
:103C00007F928F929F92AF92BF92CF92DF92EF926C
:103C1000FF920F931F93CF9380917C0490917D042A
:103C2000892B19F481E080932A0380917E0490917E
:103C30007F04039791F48091800490918104892BF3
:103C400061F480910A0190910B01019731F484E1B4
:103C500090E09093810480938004C0901104D090F0
:103C6000120486EFC8168FEFD80639F1A09013041E
:103C7000B090140460918E0470918F048091900430
:103C8000909191040E94B2262B013C0160918A041C
:103C900070918B0480918C0490918D040E94B226C7
:103CA000812C912C72018B0120E030E0A901CA0126
:103CB000B9010E94570C81110AC08091EB03813039
:103CC000C1F480910A0190910B01019791F48091C8
:103CD0000A0190910B01019749F482E090E09093E2
:103CE0000B0180930A010E94D90503C081E08093F3
:103CF0002A030E94A5050E94D2286B017C016091D5
:103D0000680470916904072E000C880B990B0E94BF
:103D1000EA269B01AC01C701B6010E949A2520E06A
:103D200030E040E251E40E94582887FD04C0109220
:103D30006704109266048091EC03813049F420916D
:103D400006013091070140910801509109011FC0FF
:103D50008091ED03813061F480910601909107011B
:103D6000A0910801B0910901BC01CD0190581FC07C
:103D70008091EE03813079F48091060190910701E2
:103D8000A0910801B09109019C01AD01505860E07B
:103D900070E0CB0122C08091EF03813061F460912B
:103DA000060170910701809108019091090120E0BE
:103DB00030E0A90112C0809180049091810418160E
:103DC000190634F48091F003813011F40E949612A8
:103DD00020E030E0A901CA01B9010E94130E0E943F
:103DE0009C0FC091EA03C13099F48091290381119D
:103DF0000FC00E94A50520E030E040E050E40E94A2
:103E0000582818162CF40E94F11BC093290309C0EE
:103E10008091EA03811105C08091290381111092DC
:103E20002903CF911F910F91FF90EF90DF90CF90DA
:103E3000BF90AF909F908F907F906F905F904F90CA
:103E400008950E94881F80912A03811141C00E9419
:103E50008E1B8091660490916704892B21F00E944B
:103E60001B0B0E94D51B80912B03811102C00E9465
:103E7000B2190E94700980912B03811102C00E9427
:103E8000FA1A80912B03811118C00E94A505209178
:103E9000F1033091F2034091F3035091F4030E9437
:103EA0009A2560933403709335038093360390937F
:103EB00037030E94DF120E94F1110E94810B0E94C1
:103EC000FD1D0E94DF0A0E94150A0E941B1702C0F6
:103ED0000E9467070E94751F86B590E00C941F2E04
:103EE0000E94A1070E94211FFDCFCF93DF9360E0C6
:103EF00080E00E941122C4EDD4E0699181E00E942B
:103F0000B62186E0CC3CD807C1F7DF91CF91089568
:103F1000E4EDF4E0119286E0EC3CF807D9F708955F
:103F200084359105A8F56033710590F59B0173E028
:103F3000359527957A95E1F76770452BA1F044E513
:103F4000429FF001439FF00D11248E0F9F1FFC0133
:103F5000EC52FB4F81E090E001C0880F6A95EAF7D0
:103F60009081892B14C044E5429FF001439FF00DDE
:103F700011248E0F9F1FFC01EC52FB4F81E090E05B
:103F800001C0880F6A95EAF7809590818923808324
:103F900008952F923F924F925F926F927F928F92ED
:103FA0009F92AF92BF92CF92DF92EF92FF920F93C8
:103FB0001F93CF93DF93CDB7DEB72E970FB6F8944C
:103FC000DEBF0FBECDBF1C013B012A013A8329830E
:103FD0008417950771F57C836B8329813A8162167A
:103FE00073069CF48B819C81281739070CF41AC145
:103FF000A8016B817C81C1010E94901F2B813C81B3
:104000002F5F3F4F3C832B83E8CFAB81BC8129815D
:104010003A81A217B3070CF405C1A8016B817C811A
:10402000C1010E94901F8B819C8101979C838B838F
:10403000D4CF89819A816817790751F53A8229820C
:10404000241435049CF4A981BA814A165B060CF449
:10405000E9C0A801B30189819A810E94901F29813A
:104060003A812F5F3F4F3A832983EACF29813A81F2
:10407000241535050CF4D6C0A801B30189819A81B5
:104080000E94901FA981BA811197BA83A983D8CFC2
:104090004215530554F4872D69807A8069838A8399
:1040A000922D832D1A01492E582EB20162197309DF
:1040B000072E000C880B990B0E94EA266F837887E5
:1040C00089879A8769817A8166197709072E000C9A
:1040D000880B990B0E94EA264B015C012F813885E1
:1040E00049855A850E9440266B837C838D839E83FD
:1040F00020E030E0A9010E94582887FF09C08B8189
:104100009C81AD81BE81B0588B839C83AD83BE837F
:10411000C12CD12C760120E030E0A9016F81788597
:1041200089859A850E94582818160CF077C0421489
:1041300053040CF477C0A801B301C1010E94901F81
:104140002B813C814D815E81C701B6010E949B2578
:104150006B017C0120E030E040E05FE30E945828E2
:1041600087FF10C020E030E0A9016F817885898544
:104170009A850E94582818160CF04CC09FEF291AF7
:10418000390AC9CF20E030E0A901C501B4010E947D
:1041900058281816CCF529813A812615370514F3CD
:1041A000A801B301C1010E94901FA1E0B0E0BC874B
:1041B000AB8720E030E0A901C501B4010E94582876
:1041C000181614F01C861B8621E030E03E872D87F0
:1041D00020E030E0A901C501B4010E94362687FD28
:1041E00002C01E861D868B859C85AD85BE858A1B7B
:1041F0009B0B680E791E20E030E040E85FE3C701CA
:10420000B6010E949A25A4CF89819A816816790601
:104210003CF6A8CFA1E02A1A31087DCF241435043A
:104220000CF089CF2E960FB6F894DEBF0FBECDBF2F
:10423000DF91CF911F910F91FF90EF90DF90CF9082
:10424000BF90AF909F908F907F906F905F904F90B6
:104250003F902F9008952F923F924F925F926F92CE
:104260007F928F929F92AF92BF92CF92DF92EF9206
:10427000FF920F931F93CF93DF936C014B011901B2
:1042800085E0489F20011124E12CF12C80EA481A96
:10429000510866246394712CF201EE0DFF1DE45861
:1042A000FD4FE4912114310409F4E09500E010E0A1
:1042B000CE2FD0E05601AE0CBF1CA301002E02C0D1
:1042C000440F551F0A94E2F74C235D23002E02C0D1
:1042D000559547950A94E2F7B401600F711FC50127
:1042E0000E94901F0F5F1F4F0830110531F78FEFAD
:1042F000E81AF80A85E0E816F10471F6DF91CF912B
:104300001F910F91FF90EF90DF90CF90BF90AF90F3
:104310009F908F907F906F905F904F903F902F90E5
:104320000895CF92DF92EF92FF920F931F93CF9356
:10433000DF937B018A016901D82FC0E0F801EC0FFF
:10434000F11D4081442349F09601B7018D2F90E083
:104350000E942B21DB5FCF5FF1CFDF91CF911F91C7
:104360000F91FF90EF90DF90CF90089525B12F7DB2
:1043700030E2839FC0011124822B85B95F9887E0CA
:1043800090E070E08F989B01082E02C0359527952C
:104390000A94E2F720FF02C02E9A01C02E988F9A4D
:1043A000019780F75F9A0895CF93C82F579A249A60
:1043B000259A269A879A2C985F9A2C9A61E280E037
:1043C0000E94B6216C2F606880E00E94B62164E0F4
:1043D00080E00E94B62163E180E00E94B6216CE09B
:1043E00080E00E94B62160E280E00E94B6216CE08D
:1043F00080E00E94B62160E480E00E94B62160E87F
:1044000080E0CF910C94B621CF93DF93C8EFD1E039
:1044100060E081E00E94B6212197D1F7DF91CF9132
:104420000895CF93C82F606480E00E94B6216C2F5E
:10443000606880E0CF910C94B621A0E1B0E0E3E2A7
:10444000F2E20C94972D7C011B016A01FC0117829A
:104450001682838181FF44C39E012F5F3F4F390144
:10446000F7019381F10193FD859193FF81911F01E4
:10447000882309F431C3853239F493FD859193FF84
:1044800081911F01853239F4B70190E00E94182F05
:1044900056016501E5CF10E0512C912CFFE1F91593
:1044A000D8F08B3279F038F4803279F08332A1F48D
:1044B000F92DF0612EC08D3261F0803369F4292D21
:1044C00021602DC0392D3260932E892D8460982E65
:1044D0002AC0E92DE86015C097FC2DC020ED280FFB
:1044E0002A3088F496FE06C03AE0139F200D11246E
:1044F000122F19C08AE0589E200D1124522EE92D4A
:10450000E0629E2E10C08E3231F496FCE5C2F92D89
:10451000F0649F2E08C08C3621F4292D2068922E3D
:1045200002C0883641F4F10193FD859193FF81919A
:104530001F018111B3CF9BEB980F933020F4992D7D
:104540009061805E07C09BE9980F933008F066C1C8
:10455000992D9F7E96FF16E09F73992E853619F44C
:104560009064992E08C0863621F4392F3068932E36
:1045700002C01111115097FE07C01C3350F444249F
:104580004394410E27E00BC0183038F027E017E0C5
:1045900005C027E09CE3492E02C0212F412C560183
:1045A00084E0A80EB11CF601608171818281938143
:1045B000042DA3010E942A2E6C01F981FC87F0FFD3
:1045C00002C0F3FF06C091FC06C092FE06C000E2E6
:1045D00005C00DE203C00BE201C000E08C858C70C9
:1045E00019F001115AC29BC297FE10C04C0CFC85F9
:1045F000F4FF04C08A81813309F44A94141474F5D9
:1046000028E0241578F588E0482E2CC096FC2AC0B6
:10461000812F90E08C159D059CF03CEFC3163FEF79
:10462000D30674F0892D8068982E0AC0E2E0F0E08D
:10463000EC0FFD1FE10FF11D8081803319F4115043
:104640001111F4CF97FE0EC044244394410E812FE4
:1046500090E0C816D9062CF41C1904C044244394D5
:1046600001C010E097FE06C01C141D0434F4C601FE
:10467000019605C085E090E002C081E090E0011164
:104680000196112331F0212F30E02F5F3F4F820F31
:10469000931F252D30E08217930714F4581A01C098
:1046A000512C892D897049F4552039F0B70180E2E9
:1046B00090E00E94182F5A94F7CF002329F0B701F9
:1046C000802F90E00E94182F93FC09C0552039F0EC
:1046D000B70180E390E00E94182F5A94F7CF97FE1D
:1046E0004CC04601D7FE02C0812C912CC60188190E
:1046F0009909F301E80FF91FFE87ED879601241948
:104700003109388B2F87012F10E011950195110980
:104710003FEF8316930629F4B7018EE290E00E94E2
:10472000182FC814D9044CF08F85988988159905DD
:1047300024F4ED85FE85818101C080E3F1E08F1ACC
:1047400091082D853E852F5F3F4F3E872D87801630
:1047500091062CF0B70190E00E94182FD9CFC81411
:10476000D90441F49A81963320F4953319F43C85A9
:1047700034FF81E3B70190E04EC08A81813319F0A4
:104780009C859F7E9C87B70190E00E94182F111195
:1047900005C094FC18C085E690E017C0B7018EE212
:1047A00090E00E94182F1E5F82E001E0080FF301E5
:1047B000E80FF11D8081B70190E00E94182F802F33
:1047C0000113F3CFE6CF85E490E0B7010E94182FE4
:1047D000D7FC06C0C114D10441F4EC85E4FF05C048
:1047E000D194C194D1088DE201C08BE2B70190E071
:1047F0000E94182F80E32AE0C216D1042CF08F5FAC
:10480000FAE0CF1AD108F7CFB70190E00E94182F35
:10481000B701C601C0960E94182F54C1833631F0EB
:10482000833779F0833509F056C020C0560132E055
:10483000A30EB11CF6018081898301E010E06301C1
:1048400012C05601F2E0AF0EB11CF601C080D1805B
:1048500096FE03C0612F70E002C06FEF7FEFC601CC
:104860000E940D2F8C01F92DFF7714C0560122E014
:10487000A20EB11CF601C080D18096FE03C0612F4C
:1048800070E002C06FEF7FEFC6010E94022F8C0123
:10489000F92DF0689F2EF3FD1AC0852D90E00817C2
:1048A0001907A8F4B70180E290E00E94182F5A94EB
:1048B000F4CFF60197FC859197FE81916F01B701C6
:1048C00090E00E94182F51105A94015011090115BF
:1048D000110579F7F7C0843611F0893661F5560174
:1048E00097FE09C024E0A20EB11CF601608171811F
:1048F000828193810AC0F2E0AF0EB11CF6016081A3
:104900007181072E000C880B990BF92DFF769F2ED5
:1049100097FF09C090958095709561957F4F8F4F57
:104920009F4FF0689F2E2AE030E0A3010E94A22F43
:10493000C82EC6183FC0092D853721F40F7E2AE006
:1049400030E01DC0097F8F3691F018F4883559F09A
:10495000C3C0803719F0883711F0BEC0006104FF72
:1049600009C0046007C094FE08C0066006C028E0C5
:1049700030E005C020E130E002C020E132E0560125
:1049800007FF09C084E0A80EB11CF60160817181A7
:104990008281938108C0F2E0AF0EB11CF601608104
:1049A000718180E090E0A3010E94A22FC82EC6185A
:1049B0000F77902E96FE0BC0092D0E7FC11650F476
:1049C00094FE0AC092FC08C0092D0E7E05C0DC2CA6
:1049D000092D03C0DC2C01C0D12E04FF0DC0FE0147
:1049E000EC0DF11D8081803311F4097E09C002FFB6
:1049F00006C0D394D39404C0802F867809F0D39452
:104A000003FD11C000FF06C01C2DD51480F4150D48
:104A10001D190DC0D51458F4B70180E290E00E9432
:104A2000182FD394F7CFD51410F45D1801C0512C72
:104A300004FF10C0B70180E390E00E94182F02FF2E
:104A400017C001FD03C088E790E002C088E590E050
:104A5000B7010CC0802F867859F001FF02C08BE2AD
:104A600001C080E207FD8DE2B70190E00E94182F9F
:104A7000C11638F4B70180E390E00E94182F11505E
:104A8000F7CFCA94F301EC0DF11D8081B70190E0DE
:104A90000E94182FC110F5CF15C0F4E0F51560F590
:104AA00084E0581A93FE1FC0011127C02C8523FFF4
:104AB0002AC00AE711E0392D3071932EF801849154
:104AC000811124C0552009F4E4CCB70180E290E0C4
:104AD0000E94182F5A94F6CFF7018681978126C03D
:104AE0008FEF9FEF23C0B70180E290E00E94182F64
:104AF0005A945110F8CFD8CF512CB701802F90E0A5
:104B00000E94182FD3CF0EE711E0D5CF911080521D
:104B1000B70190E00E94182F0F5F1F4FCFCF23E007
:104B2000251510F483E0BDCF512CC0CF6096E2E193
:104B30000C94B32D5058BB27AA270E94B2250C9481
:104B4000F2270E94B92738F00E94C02720F039F4DC
:104B50009F3F19F426F40C948F270EF4E095E7FBA1
:104B60000C946027E92F0E94172858F3BA176207A0
:104B700073078407950720F079F4A6F50C94512863
:104B80000EF4E0950B2EBA2FA02D0B01B901900168
:104B90000C01CA01A0011124FF27591B99F0593FAC
:104BA00050F4503E68F11A16F040A22F232F342FF4
:104BB0004427585FF3CF469537952795A795F04042
:104BC0005395C9F77EF41F16BA0B620B730B840B57
:104BD000BAF09150A1F0FF0FBB1F661F771F881F0F
:104BE000C2F70EC0BA0F621F731F841F48F4879567
:104BF00077956795B795F7959E3F08F0B0CF939559
:104C0000880F08F09927EE0F979587950895DF9301
:104C1000DD27B92FBF7740E85FE316161706480770
:104C20005B0718F4D92F0E945D289F938F937F9381
:104C30006F930E944429ECEAF0E00E9492270E94C0
:104C4000F2272F913F914F915F910E947828DD23A9
:104C500051F09058A2EA2AED3FE049EC5FE3D078AA
:104C60005D270E94B225DF910C94F2270E943C2719
:104C700008F481E008950E94C927E3950C94032865
:104C80000E9454260C94F2270E94C02758F00E94DC
:104C9000B92740F029F45F3F29F00C9460275111A7
:104CA0000C9452280C948F270E94172868F399239C
:104CB000B1F3552391F3951B550BBB27AA27621718
:104CC0007307840738F09F5F5F4F220F331F441F25
:104CD000AA1FA9F335D00E2E3AF0E0E832D0915059
:104CE0005040E695001CCAF72BD0FE2F29D0660F46
:104CF000771F881FBB1F261737074807AB07B0E889
:104D000009F0BB0B802DBF01FF2793585F4F3AF08E
:104D10009E3F510578F00C9460270C9452285F3F19
:104D2000E4F3983ED4F3869577956795B795F79514
:104D30009F5FC9F7880F911D9695879597F90895FC
:104D4000E1E0660F771F881FBB1F62177307840798
:104D5000BA0720F0621B730B840BBA0BEE1F88F7A7
:104D6000E09508950E94B9266894B1110C945228D8
:104D700008950E941F2888F09F5798F0B92F99270F
:104D8000B751B0F0E1F0660F771F881F991F1AF036
:104D9000BA95C9F714C0B13091F00E945128B1E022
:104DA00008950C945128672F782F8827B85F39F021
:104DB000B93FCCF3869577956795B395D9F73EF4CF
:104DC00090958095709561957F4F8F4F9F4F089577
:104DD000E89409C097FB3EF4909580957095619595
:104DE0007F4F8F4F9F4F9923A9F0F92F96E9BB274B
:104DF0009395F695879577956795B795F111F8CFC7
:104E0000FAF4BB0F11F460FF1BC06F5F7F4F8F4F31
:104E10009F4F16C0882311F096E911C0772321F027
:104E20009EE8872F762F05C0662371F096E8862FBF
:104E300070E060E02AF09A95660F771F881FDAF716
:104E4000880F9695879597F908950E94392890F0D4
:104E50009F3748F4911116F00C94522860E070E0EE
:104E600080E89FEB089526F41B16611D711D811DBE
:104E70000C9466270C948127990F0008550FAA0BF4
:104E8000E0E8FEEF16161706E807F907C0F012165D
:104E90001306E407F50798F0621B730B840B950B60
:104EA00039F40A2661F0232B242B252B21F40895B5
:104EB0000A2609F4A140A6958FEF811D811D089552
:104EC00097F99F6780E870E060E00895882371F4A7
:104ED000772321F09850872B762F07C0662311F493
:104EE00099270DC09051862B70E060E02AF09A95CA
:104EF000660F771F881FDAF7880F9695879597F9C1
:104F000008959F3F31F0915020F4879577956795EC
:104F1000B795880F911D9695879597F908959FEFFE
:104F200080EC0895DF93CF931F930F93FF92EF923E
:104F3000DF927B018C01689406C0DA2EEF010E949B
:104F40007828FE01E894A5912591359145915591D8
:104F5000A6F3EF010E94B225FE019701A801DA94A1
:104F600069F7DF90EF90FF900F911F91CF91DF9144
:104F7000089500240A9416161706180609060895BF
:104F800000240A94121613061406050608950C94BC
:104F90008F270E941F28D8F3E894E0E0BB279F5793
:104FA000F0F02AED3FE049EC06C0EE0FBB0F661FA4
:104FB000771F881F28F0B23A62077307840728F02A
:104FC000B25A620B730B840BE3959A9572F7803893
:104FD00030F49A95BB0F661F771F881FD2F7904851
:104FE0000C948327092E0394000C11F4882352F0AB
:104FF000BB0F40F4BF2B11F460FF04C06F5F7F4F05
:105000008F4F9F4F0895EF93E0FF07C0A2EA2AED6C
:105010003FE049EC5FEB0E94B2250E94F2270F901F
:10502000039401FC9058E9EDF0E00C944F2957FDF2
:105030009058440F551F59F05F3F71F04795880F06
:1050400097FB991F61F09F3F79F08795089512169D
:1050500013061406551FF2CF4695F1DF08C0161649
:1050600017061806991FF1CF8695710561050894FA
:1050700008950E941F28A0F0BEE7B91788F4BB2747
:105080009F3860F41616B11D672F782F8827985F18
:10509000F7CF869577956795B11D93959639C8F3A7
:1050A0000895E894BB2766277727CB0197F90895E1
:1050B0000E943C2708F48FEF08959B01AC0160E04B
:1050C00070E080E89FE30C9440260E9478280C94BE
:1050D000F2270E94B92738F00E94C02720F09523BC
:1050E00011F00C9460270C948F2711240C945228F3
:1050F0000E94172870F3959FC1F3950F50E0551F3C
:10510000629FF001729FBB27F00DB11D639FAA271C
:10511000F00DB11DAA1F649F6627B00DA11D661F6B
:10512000829F2227B00DA11D621F739FB00DA11D8C
:10513000621F839FA00D611D221F749F3327A00D46
:10514000611D231F849F600D211D822F762F6A2FE2
:1051500011249F5750409AF0F1F088234AF0EE0F47
:10516000FF1FBB1F661F771F881F91505040A9F774
:105170009E3F510580F00C9460270C9452285F3FAD
:10518000E4F3983ED4F3869577956795B795F795B0
:10519000E7959F5FC1F7FE2B880F911D9695879528
:1051A00097F908950E941F28E8F09E37E8F0963995
:1051B000B8F49E3848F4672F782F8827985FF9CF86
:1051C00086957795679593959539D0F3B62FB170FD
:1051D0006B0F711D811D20F48795779567959395C9
:1051E0000C9466270C9481270C9452289F930E945C
:1051F000C9270F9007FCEE5F0C94032819F416F4EE
:105200000C948F270C9481270E941F28B8F39923B0
:10521000C9F3B6F39F57550B87FF0E944829002416
:10522000A0E640EA900180585695979528F4805C56
:10523000660F771F881F20F026173707480730F4BE
:10524000621B730B840B202931294A2BA6951794D6
:105250000794202531254A2758F7660F771F881FA6
:1052600020F026173707480730F4620B730B840BC6
:10527000200D311D411DA09581F7B901842F915852
:10528000880F9695879508959B01AC010C9465282D
:1052900091505040660F771F881FD2F708959F9353
:1052A0008F937F936F93FF93EF939B01AC010E94C9
:1052B0006528EF91FF910E9492272F913F914F9186
:1052C0005F910C9465288091E80080FFFCCF0895E1
:1052D00081E08093D70080EA8093D80082E189BD85
:1052E00009B400FEFDCF80E98093D8001092E00061
:1052F00010923303109230038CE08093E200789494
:1053000008958091330308959FB7F89480913303F3
:10531000882369F083E08093E9002BE68091E80020
:1053200085FD09C082FF03C02093E800F7CF9FBF2F
:105330008FEF9FEF08958091F1002091E80025FD07
:1053400003C02BE62093E8009FBF90E008952FB79D
:10535000F89480913303811102C080E010C083E093
:105360008093E9008091F200811109C09091E800DA
:1053700092FFF3CF95FDF1CF9BE69093E8002FBF0E
:10538000089580913303882371F08FB7F89493E0E8
:105390009093E9002BE69091E80095FF03C02093DD
:1053A000E800F9CF8FBF089590913303992371F0EE
:1053B0009FB7F89424E02093E90020913103222341
:1053C00049F02091E80025FD03C09FBF8FEF0895AD
:1053D000109231032091E400275E34E04091E80010
:1053E00045FD12C09FBF9091E400291304C081E0E5
:1053F00080933103EBCF90913303992339F39FB717
:10540000F8943093E900EACF8093F1008091E800AE
:1054100085FD03C08AE38093E80085E08093320332
:105420009FBF80E00895909133039923D1F09FB7F7
:10543000F89424E02093E9002091E80025FD02C0C3
:105440009FBF0FC08093F1008091E80085FD03C0ED
:105450008AE38093E80085E0809332039FBF80E079
:1054600008958FEF08950F931F93CF93DF93DC017F
:10547000CB0120913303222371F02FB7F89434E04D
:105480003093E90030913103332349F03091E80043
:1054900035FD03C02FBF8FEF43C110923103C4E02D
:1054A000D0E41AE305E0009709F439C13091E40033
:1054B000375E4091E80045FD12C02FBF2091E40007
:1054C000321304C081E080933103E5CF2091330390
:1054D000222309F32FB7F894C093E900EACF309163
:1054E000F200ED2FE31B4E2F50E08417950708F4D0
:1054F000E82F8E1B91094E2F50E04134510508F0E2
:1055000001C1FA01E458FF4F0C94912D3C91309366
:10551000F10011963C913093F10011963C9130933B
:10552000F10011963C913093F10011963C9130932B
:10553000F10011963C913093F10011963C9130931B
:10554000F10011963C913093F10011963C9130930B
:10555000F10011963C913093F10011963C913093FB
:10556000F10011963C913093F10011963C913093EB
:10557000F10011963C913093F10011963C913093DB
:10558000F10011963C913093F10011963C913093CB
:10559000F10011963C913093F10011963C913093BB
:1055A000F10011963C913093F10011963C913093AB
:1055B000F10011963C913093F10011963C9130939B
:1055C000F10011963C913093F10011963C9130938B
:1055D000F10011963C913093F10011963C9130937B
:1055E000F10011963C913093F10011963C9130936B
:1055F000F10011963C913093F10011963C9130935B
:10560000F10011963C913093F10011963C9130934A
:10561000F10011963C913093F10011963C9130933A
:10562000F10011963C913093F10011963C9130932A
:10563000F10011963C913093F10011963C9130931A
:10564000F10011963C913093F10011963C9130930A
:10565000F10011963C913093F10011963C913093FA
:10566000F10011963C913093F10011963C913093EA
:10567000F10011963C913093F10011963C913093DA
:10568000F10011963C913093F10011963C913093CA
:10569000F10011963C913093F10011963C913093BA
:1056A000F10011963C913093F10011963C913093AA
:1056B000F10011963C913093F10011963C9130939A
:1056C000F10011963C913093F10011963C9130938A
:1056D000F10011963C913093F10011963C9130937A
:1056E000F10011963C913093F10011963C9130936A
:1056F000F10011963C913093F10011963C9130935A
:10570000F10011963C913093F10011963091E80030
:1057100035FF1093E800009332032FBFC4CE80E022
:10572000DF91CF911F910F9108958FB7F8949091C9
:105730003203992341F094E09093E9009AE3909327
:10574000E800109232038FBF08956091C6017091F6
:10575000C7018091C8019091C90108958091CA0143
:1057600008958091CB0108958091CC010895809196
:10577000300308959FB7F89420913303222339F022
:1057800022E02093E9002091E80025FD03C09FBF9F
:105790008FEF089521EA2093F10020E22093F10099
:1057A0001092F1001092F1001092F1001092F100AD
:1057B00021E02093F1001092F1008093F1008AE340
:1057C0008093E8009FBF80E008951F920F920FB66C
:1057D0000F9211248F939F938091E1001092E1002A
:1057E00083FF11C01092E90091E09093EB001092BA
:1057F000EC0092E19093ED0098E09093F00010920D
:1058000033031092300382FF13C080913303882347
:1058100079F080913203882359F0815080933203CC
:10582000811106C084E08093E9008AE38093E80058
:105830009F918F910F900FBE0F901F9018951F9200
:105840000F920FB60F921124FF920F931F932F9375
:105850003F934F935F936F937F938F939F93AF93F8
:10586000BF93CF93DF93EF93FF931092E900809162
:10587000E80083FF17C1F090F1008091F1000091E2
:10588000F1009091F10010E0192BC091F10090917E
:10589000F100D0E0D92B2091F1006091F10092EF5E
:1058A0009093E800863009F049C08CE594E046E822
:1058B00054E0FC01A591B4910A171B07D9F4FC012F
:1058C0003296A591B491CA17DB07A1F4FC01349676
:1058D00045915491FC013696849130E0362B2F3F50
:1058E000310519F010F02FEF30E0281708F4822F5F
:1058F0003EEF0CC0079648175907D9F6D3C0490F99
:10590000511D891B3093E8008823A9F09091E8008D
:10591000292F2570D9F392FDC8C0982F813108F046
:1059200090E1FA01292F222351F364916093F10051
:1059300021503196F8CF903149F3B7C0853049F402
:105940008EEF8093E8000E94632900680093E300D3
:10595000ACC0893059F5F110A5C000933303109203
:105960003003109232038EEF8093E80041E08BE128
:1059700095E04093E9009C012F5F3F4FFC0154915B
:105980005093EB00552359F0F90124912093EC003A
:105990009C012D5F3F4F3196E491E093ED004F5F06
:1059A000453011F0C901E5CF8EE177C0883051F460
:1059B000F0E8FF1277C00E9463298091330380933F
:1059C000F10049C0813281F481EAF8126BC00E9473
:1059D0006329E6ECF1E08DEC91E021912093F10058
:1059E0008E179F07D1F737C08032A9F491E2F912E0
:1059F00059C08091E80082FFFCCFE6ECF1E08DEC2D
:105A000091E02091F10021938E179F07D1F78BEF42
:105A10008093E80020C0823241F4E1E2FE1242C0ED
:105A2000009330030E94632916C0811118C00E94A0
:105A30006329F2E8FF120AC0C093E9008091EB00ED
:105A400085FB882780F91092E90001C080E08093EF
:105A5000F1001092F1008EEF8093E80026C0982F9D
:105A60009D7F9130F9F492E0F9121CC0012BD1F422
:105A7000CF779FEF9C0F9430A8F49EEF9093E800AF
:105A8000C093E900833071F089E18093EB0081E0FD
:105A900090E001C0880FCA95EAF78093EA0010925F
:105AA000EA0003C081E28093EB00FF91EF91DF9168
:105AB000CF91BF91AF919F918F917F916F915F91A6
:105AC0004F913F912F911F910F91FF900F900FBE1B
:105AD0000F901F90189587E880937A000895982F6B
