:100000000C94D6010C94F3010C94F3010C94F301BD
:100010000C94F3010C94F3010C94F3010C94F30190
:100020000C94F3010C94F3010C94F3010C94F30180
:100030000C94F3010C94F3010C94F3010C94F30170
:100040000C94F3010C94F3010C94F3010C94F30160
:100050000C94F3010C94F3010C94F3010C94280319
:100060000C94F3010C94F3010C94F3010C94F30140
:100070000C94F3010C94F3010C94F3010C94F30130
:100080000C94F3010C94F3010C94F3010C94F30120
:100090000C94F3010C94F3010C94F3010C94F30110
:1000A0000C94F3010C94F3010C94F30105A84CCDCE
:1000B000B2D44EB93836A9020C50B9918688083CA2
:1000C000A6AAAA2ABE000000803F6E616E00696E7B
:1000D000660000407A10F35A00A0724E1809001012
:1000E000A5D4E80000E87648170000E40B540200AD
:1000F00000CA9A3B000000E1F505000080969800D8
:10010000000040420F000000A08601000000102700
:1001100000000000E8030000000064000000000090
:100120000A00000000000100000000002C76D888C2
:10013000DC674F0823DFC1DFAE59E1B1B796E5E3D5
:10014000E453C63AE651997696E8E6C28426EB89EE
:100150008C9B62ED407C6FFCEFBC9C9F40F2BAA58B
:100160006FA5F490055A2AF75C936B6CF9676DC123
:100170001BFCE0E40D47FEF520E6B500D0ED902E27
:100180000300943577050080841E080000204E0A85
:10019000000000C80C333333330F986E12831141C3
:1001A000EF8D2114893BE65516CFFEE6DB18D1848E
:1001B0004B381BF77C1D901DA4BBE42420328472B5
:1001C0005E228100C9F124ECA1E53D27000000007A
:1001D0000000005F00000007000700147F147F1478
:1001E000242A7F2A122313086462364955225000BC
:1001F00005030000001C2241000041221C001408DD
:100200003E081408083E080800503000000808089E
:100210000808006060000020100804023E514945B3
:100220003E00427F400042615149462141454B31E9
:100230001814127F1027454545393C4A4949300179
:10024000710905033649494936064949291E0036D0
:100250003600000056360000081422410014141421
:10026000141400412214080201510906324979414F
:100270003E7E1111117E7F494949363E414141225E
:100280007F4141221C7F494949417F090909013EBB
:100290004149497A7F0808087F00417F410020409A
:1002A000413F017F081422417F404040407F020CC3
:1002B000027F7F0408107F3E4141413E7F090909CA
:1002C000063E4151215E7F09192946464949493177
:1002D00001017F01013F4040403F1F2040201F3F60
:1002E0004038403F631408146307087008076151E1
:1002F000494543007F41410002040810200041416C
:100300007F0004020102044040404040000102041A
:100310000020545454787F4844443838444444209E
:10032000384444487F3854545418087E0901020C5C
:100330005252523E7F0804047800447D4000204021
:10034000443D007F1028440000417F40007C041899
:1003500004787C0804047838444444387C14141429
:1003600008081414187C7C080404084854545420C9
:10037000043F4440203C4040207C1C2040201C3C4A
:100380004030403C44281028440C5050503C4464B9
:10039000544C44000836410000007F000000413604
:1003A00008001008081008784641467811241FBE3E
:1003B000CFEFDAE0DEBFCDBF11E0A0E0B1E0E4EEC8
:1003C000FAE202C005900D92A238B107D9F723E0F6
:1003D000A2E8B1E001C01D92A43EB207E1F70E947D
:1003E000D3090C9470150C940000CF93CFB121E089
:1003F00045E351E060E070E085E090E00E94F40B9E
:1004000021E044E451E06AE070E085E090E00E9481
:10041000F40B21E04EE451E06EE170E08AE090E000
:100420000E94F40B21E04CE551E068E270E085E0C9
:1004300090E00E94F40B0E94D809C5FFD7CFCF915E
:1004400008958091000190910101019709F0CEC0BB
:100450001092C9011092C80185E090E09093C70105
:100460008093C6011092CC011092CD011092CE0162
:100470001092CF0180E090E0A0E1B1E48093D00140
:100480009093D101A093D201B093D30180E090E08A
:10049000AEE9B2E48093970190939801A0939901FB
:1004A000B0939A0180E090E0ACE1B2E480939B01CC
:1004B00090939C01A0939D01B0939E010E945313C1
:1004C000BC01990F880B990B0E941E1120E03EEF92
:1004D0004FEF56E40E9474102AE939E949E95EE3D6
:1004E0000E9412122AE939E949E95EE30E94FE0FEF
:1004F00060939F017093A0018093A1019093A2014A
:100500000E945313BC01990F880B990B0E941E1176
:1005100020E03EEF4FEF56E40E9474102BED3FE0D9
:1005200049E450E40E9412129B01AC010E94FE0FAC
:100530006093A3017093A4018093A5019093A601F9
:1005400082E190E09093B0018093AF018FE090E062
:100550009093B2018093B1018DE090E09093B4014B
:100560008093B30189E190E09093B6018093B50147
:100570009093DD018093DC0123E230E03093DF01D2
:100580002093DE019093E1018093E0012DE230E0C1
:100590003093E3012093E2013093A8012093A70157
:1005A0002AE030E03093AA012093A9014CE350E007
:1005B0005093AC014093AB013093AE012093AD0159
:1005C0002AE330E03093E5012093E4019093E701C2
:1005D0008093E60188E490E09093E9018093E8013C
:1005E0008EE190E09093EB018093EA0180E090E04F
:1005F000FC01E954FE4F1082FC01E657FE4F1082C9
:10060000019687309105A1F70895CF93E1E6F0E0D8
:1006100080E88083C1E0C0838FE30E94370C0E9492
:10062000670C5298229884B184B951982198859882
:10063000869881988298229A239A14BC84E085BD7A
:10064000C0936E0078940E942102CF910C94F50122
:100650001F920F920FB60F9211240F931F932F9397
:100660003F934F935F936F937F938F939F93AF933A
:10067000BF93EF93FF93CF93DF93CDB7DEB72E9762
:10068000DEBFCDBF8FB188878FB1898783B18A875D
:1006900083B18B8789B18C8789B18D8783B18E8730
:1006A00087E0EEE2F1E0DE01119601900D928A956D
:1006B000E1F7BE01685F7F4F8E010F5F1F4F20E0A3
:1006C00030E051E0F901E954FE4F8081880F8083CA
:1006D00080818F7080834081DB019D91BD01892FD6
:1006E00090E0D8010D9002C0959587950A94E2F7A5
:1006F0008D018170842B808380818F3029F4F901F2
:10070000E657FE4F508307C08081811104C0F90174
:10071000E657FE4F10822F5F3F4F2730310591F68D
:100720002E960FB6F894DEBF0FBECDBFDF91CF91EE
:10073000FF91EF91BF91AF919F918F917F916F91B9
:100740005F914F913F912F911F910F910F900FBE8D
:100750000F901F901895EF92FF920F931F93CF93D6
:10076000DF93CDB7DEB764970FB6F894DEBF0FBE48
:10077000CDBF809101018F93809100018F938CE612
:1007800091E09F938F938E010F5F1F4F1F930F93E5
:100790000E948D1421E0A80160E070E080E090E00C
:1007A0000E94F40B86ECE82E81E0F82EF70181819F
:1007B0008F9380818F9381E791E09F938F931F9315
:1007C0000F930E948D1421E0A80160E070E082E1A7
:1007D00090E00E94F40BF70183818F9382818F93C5
:1007E00086E791E09F938F931F930F930E948D1440
:1007F00021E0A80160E070E084E290E00E94F40B48
:1008000021E04BE751E060E070E087E390E00E9478
:10081000F40B01E028E030E044E550E068E070E0EF
:1008200080E090E00E942C0A0FB6F894DEBF0FBE65
:10083000CDBF64960FB6F894DEBF0FBECDBFDF917B
:10084000CF911F910F91FF90EF9008954F925F927B
:100850006F927F928F929F92AF92BF92CF92DF92D0
:10086000EF92FF920F931F93CF93DF93C0E0D0E0FE
:10087000FE01EA5EFE4F7F01CE018E5F9E4F6C014E
:1008800000E010E04E010D2E000CAA08BB08F70195
:100890008081813059F5B801012E000C880B990B2D
:1008A0000E941E112091D0013091D1014091D201BE
:1008B0005091D3010E94FE0F0E94E6102B013C01D3
:1008C000C501B4010E941E112091CC013091CD01CF
:1008D0004091CE015091CF010E94FE0F0E94E61080
:1008E000DC01CB0141E0B2010E94F309F6018081F5
:1008F000813059F5B801012E000C880B990B0E942C
:100900001E1120919B0130919C0140919D015091BD
:100910009E010E94FE0F0E94E6102B013C01C501C2
:10092000B4010E941E1120919701309198014091CD
:10093000990150919A010E94FE0F0E94E610DC017D
:10094000CB0141E0B2010E94F3090F5F1F4FF5E0B8
:10095000EF0EF11C85E0C80ED11C0430110509F022
:1009600096CF2196C530D10509F082CFDF91CF9186
:100970001F910F91FF90EF90DF90CF90BF90AF90BD
:100980009F908F907F906F905F904F900895CF923F
:10099000DF92EF92FF920F93CF93DF93CDB7DEB745
:1009A000E0970FB6F894DEBF0FBECDBF88E0EFEA48
:1009B000F1E0DE01119601900D928A95E1F788E051
:1009C000ECEDF1E0DE01199601900D928A95E1F7C8
:1009D00088E0E7EAF1E0DE01519601900D928A95F8
:1009E000E1F788E0E4EEF1E0DE01599601900D9226
:1009F0008A95E1F788E0EEEBF1E0DE019196019057
:100A00000D928A95E1F788E0E2E8F1E0DE0199963F
:100A100001900D928A95E1F7CE0101967C016E015D
:100A200091E3C90ED11CF70126813781448155819C
:100A30006281738101E0808191810E942C0AF8E03B
:100A4000EF0EF11CEC14FD0471F7E0960FB6F8946C
:100A5000DEBF0FBECDBFDF91CF910F91FF90EF9022
:100A6000DF90CF90089508950E94AB030E94260462
:100A70000C94C7042F923F924F925F926F927F9295
:100A80008F929F92AF92BF92CF92DF92EF92FF929E
:100A90000F931F93CF93DF9300D000D0CDB7DEB775
:100AA000CF8CD8A0E9A0FAA08BA09CA0ADA0BEA03E
:100AB0008FA598A9009709F449C000E010E02C0127
:100AC000990F66087708AFA5B8A9B7FF07C0C3019B
:100AD000B2010E941E11A701960106C020E030E07D
:100AE00040EA50E4C701B6010E94FE0F0E94E610E2
:100AF0001B01B801012E000C880B990B0E941E11DE
:100B0000A50194010E94FE0F0E94E6109B0143E0A4
:100B1000359527954A95E1F7F101B4E52B9FE00D56
:100B2000F11D1124E451FE4F208130E0462F477023
:100B3000C90102C0959587954A95E2F780FD5EC090
:100B40000F5F1F4F0430110509F0BDCF89A99AA985
:100B5000009709F451C000E010E0092E000CAA0B28
:100B6000BB0B89839A83AB83BC8334E5332EB801F6
:100B7000012E000C880B990B0E941E11A7019601F3
:100B80000E94FE0F0E94E6102B013C01A9A9BAA900
:100B90001A161B063CF420E030E040E850E4C501A2
:100BA000B40108C069817A818B819C810E941E11E9
:100BB000A50194010E94FE0F0E94E610CB0123E0E4
:100BC000959587952A95E1F7839DC001112484515D
:100BD0009E4FFC01E40DF51D808190E0677002C01E
:100BE000959587956A95E2F780FD08C00F5F1F4FC6
:100BF0000530110509F0BBCF80E001C081E00F9006
:100C00000F900F900F90DF91CF911F910F91FF9058
:100C1000EF90DF90CF90BF90AF909F908F907F909C
:100C20006F905F904F903F902F9008958F929F927A
:100C3000AF92BF92CF92DF92EF92FF921F93CF932A
:100C4000DF93CDB7DEB7CCA0DDA0EEA0FFA088A4D7
:100C500099A4AAA4BBA41CA520E030E0A901C70167
:100C6000B6010E940D12181684F020E030E0A901B0
:100C7000C701B6010E946A1087FF0DC0C12CD12C9C
:100C800030E8E32E3FEBF32E06C0C12CD12C20E838
:100C9000E22E2FE3F22E20E030E0A901C501B401DD
:100CA0000E940D12181684F020E030E0A901C50161
:100CB000B4010E946A1087FF0DC0812C912C90E82E
:100CC000A92E9FEBB92E06C0812C912C80E8A82E6E
:100CD0008FE3B82E173509F5C501B4010E94E6105F
:100CE0007FA36EA3C701B6010E94E6107DA36CA38B
:100CF00086E1FE013E96DF0101900D928A95E1F7B3
:100D0000DF91CF911F91FF90EF90DF90CF90BF9038
:100D1000AF909F908F900C943A0580E0DF91CF9137
:100D20001F91FF90EF90DF90CF90BF90AF909F907A
:100D30008F900895CF92DF92EF92FF921F93CF93FF
:100D4000DF93CDB7DEB7C855D1090FB6F894DEBF33
:100D50000FBECDBF10918C01113009F05AC0C09068
:100D6000D001D090D101E090D201F090D30120E0E9
:100D700030E040E850E4C701B6010E94FE0F20E0D9
:100D800030E040E85FE30E94FE0F20E030E040E406
:100D900052E40E946A1087FF3CC086E1E6ECF1E075
:100DA000DE01AD5BBF4F01900D928A95E1F71F9276
:100DB0001F931F921F922DB73EB7265131090FB6D0
:100DC000F8943EBF0FBE2DBFADB7BEB7119686E1FA
:100DD000FE01ED5BFF4F01900D928A95E1F70E94B5
:100DE0003A050FB6F894DEBF0FBECDBF811111C01A
:100DF00020E030E040E85FE3C701B6010E94FE0F4B
:100E00006093D0017093D1018093D2019093D3016C
:100E1000E8C080918D01813009F041C020E030E0D0
:100E200040E85FE36091CC017091CD018091CE01EB
:100E30009091CF010E94FD0F6B017C0120E030E01A
:100E4000A9010E940D12181654F586E1E6ECF1E0B6
:100E5000DE019D9601900D928A95E1F71F921F92F7
:100E60008FEF8F938F938DB79EB746970FB6F894F9
:100E70009EBF0FBE8DBFADB7BEB7119686E1FE0116
:100E8000BD9601900D928A95E1F70E943A050FB642
:100E9000F894DEBF0FBECDBF882309F49AC08091BD
:100EA0008E01813009F04AC020E030E040E85FE385
:100EB0006091D0017091D1018091D2019091D301C4
:100EC0000E94FD0F6B017C0120E030E040E051E426
:100ED0000E940D12181694F586E1E6ECF1E0DE01B1
:100EE000579601900D928A95E1F78FEF8F938F932C
:100EF0001F921F928DB79EB746970FB6F8949EBF6C
:100F00000FBE8DBFADB7BEB7119686E1FE017796D5
:100F100001900D928A95E1F70E943A050FB6F89478
:100F2000DEBF0FBECDBF811109C0C092D001D092EB
:100F3000D101E092D201F092D30153C010918F0100
:100F4000113009F04EC020E030E040E85FE36091EE
:100F5000CC017091CD018091CE019091CF010E9482
:100F6000FE0F6B017C0120E030E040EA50E40E947B
:100F7000FE0F20E030E048EA52E40E946A1087FF4A
:100F800030C086E1E6ECF1E0DE01119601900D92B1
:100F90008A95E1F71F921F921F921F938DB79EB7FC
:100FA00046970FB6F8949EBF0FBE8DBFADB7BEB7C4
:100FB000119686E1FE01319601900D928A95E1F736
:100FC0000E943A050FB6F894DEBF0FBECDBF811167
:100FD00008C0C092CC01D092CD01E092CE01F09237
:100FE000CF01C85ADF4F0FB6F894DEBF0FBECDBF9A
:100FF000DF91CF911F91FF90EF90DF90CF900895F8
:101000003F924F925F926F927F928F929F92AF9298
:10101000BF92CF92DF92EF92FF920F931F93CF93E5
:10102000DF93C090A301D090A401E090A501F090BF
:10103000A601C701B6010E946F1080909F01909099
:10104000A001A090A101B090A201A50194010E946D
:101050001212EB01182F092FC701B6010E947F124F
:101060002B013C0120919701309198014091990109
:1010700050919A01F8016C2F7D2F8F2F9E2F0E9487
:10108000FE0F6B017C0120E030E0A901F8016C2F1C
:101090007D2F8F2F9E2F0E946A10881F8827881F00
:1010A00033243394682F632525E0629FB001112417
:1010B000072E000C880B990B0E941E11A7019601A8
:1010C0000E94FE0F20E030E048EA52E40E940D1238
:1010D00018160CF4CEC020E030E0A901C701B6011B
:1010E0000E946A1087FDC5C0A3019201C501B40129
:1010F0000E9412122B01782E692E20919B013091B3
:101100009C0140919D0150919E01F301752D8F2FFF
:101110009E2F0E94FE0F4B015C0120E030E0A901F0
:10112000F301642D752D8F2F9E2F0E946A10881F4A
:101130008827881F3826632D70E0660F771F660F9B
:10114000771F072E000C880B990B0E941E11A5011A
:1011500094010E94FE0F20E030E040E452E40E943F
:101160000D1218160CF485C020E030E040E151E487
:10117000C501B4010E946A1087FD7BC087E5382E47
:101180003F926F927F925F924F920F931F93DF93E4
:10119000CF938DB79EB746970FB6F8949EBF0FBEFC
:1011A0008DBFADB7BEB7119686E1E1E9F1E00190E0
:1011B0000D928A95E1F70E9416062DB73EB7215E83
:1011C0003F4F0FB6F8943EBF0FBE2DBF811151C0E7
:1011D0003F921F921F921F921F920F931F93DF93B4
:1011E000CF938DB79EB746970FB6F8949EBF0FBEAC
:1011F0008DBFADB7BEB7119686E1E1E9F1E0019090
:101200000D928A95E1F70E9416062DB73EB7215E32
:101210003F4F0FB6F8943EBF0FBE2DBF811129C0BE
:101220003F926F927F925F924F921F921F921F92F6
:101230001F928DB79EB746970FB6F8949EBF0FBE0C
:101240008DBFADB7BEB7119686E1E1E9F1E001903F
:101250000D928A95E1F70E9416062DB73EB7215EE2
:101260003F4F0FB6F8943EBF0FBE2DBF882309F441
:1012700043C00E945313BC01990F880B990B0E9425
:101280001E1120E03EEF4FEF56E40E9474102AE951
:1012900039E949E95EE30E9412122AE939E949E98C
:1012A0005EE30E94FE0F60939F017093A001809304
:1012B000A1019093A2010E945313BC01990F880BC6
:1012C000990B0E941E1120E03EEF4FEF56E40E9462
:1012D00074102BED3FE049E450E40E9412129B0190
:1012E000AC010E94FE0F6093A3017093A401809350
:1012F000A5019093A60137C020E030E046EA52E411
:10130000C701B6010E946A1087FF11C020E030E0DB
:10131000A901C701B6010E940D12181644F4C0922B
:101320009701D0929801E0929901F0929A0120E001
:1013300030E04CE352E4C501B4010E946A1087FF1B
:1013400012C020E030E040E051E4C501B4010E9449
:101350000D12181644F480929B0190929C01A09269
:101360009D01B0929E01DF91CF911F910F91FF904F
:10137000EF90DF90CF90BF90AF909F908F907F9035
:101380006F905F904F903F9008950E94EB090E94EC
:1013900034050E949A060E9400080E94D80986B56A
:1013A00090E00C9458130E9405030E94C509FDCFDC
:1013B000CF93DF9360E080E00E94740CCCEED1E02C
:1013C000699181E00E94190C83E0C43ED807C1F7FF
:1013D000DF91CF910895ECEEF1E0119283E0E43ECD
:1013E000F807D9F7089584359105A8F5603371059C
:1013F00090F59B0173E0359527957A95E1F7677035
:10140000452BA1F044E5429FF001439FF00D1124CC
:101410008E0F9F1FFC01E451FE4F81E090E001C060
:10142000880F6A95EAF79081892B14C044E5429FA2
:10143000F001439FF00D11248E0F9F1FFC01E4511A
:10144000FE4F81E090E001C0880F6A95EAF7809531
:1014500090818923808308952F923F924F925F92CB
:101460006F927F928F929F92AF92BF92CF92DF92B4
:10147000EF92FF920F931F93CF93DF93CDB7DEB719
:101480002E970FB6F894DEBF0FBECDBF1C013B01F7
:101490002A013A8329838417950771F57C836B832E
:1014A00029813A81621673069CF48B819C812817EE
:1014B00039070CF41AC1A8016B817C81C1010E941B
:1014C000F3092B813C812F5F3F4F3C832B83E8CF77
:1014D000AB81BC8129813A81A217B3070CF405C105
:1014E000A8016B817C81C1010E94F3098B819C81E1
:1014F00001979C838B83D4CF89819A816817790760
:1015000051F53A822982241435049CF4A981BA81C8
:101510004A165B060CF4E9C0A801B30189819A81DF
:101520000E94F30929813A812F5F3F4F3A83298333
:10153000EACF29813A81241535050CF4D6C0A801DB
:10154000B30189819A810E94F309A981BA81119717
:10155000BA83A983D8CF4215530554F4872D6980E7
:101560007A8069838A83922D832D1A01492E582E01
:10157000B20162197309072E000C880B990B0E94A7
:101580001E116F83788789879A8769817A816619A6
:101590007709072E000C880B990B0E941E114B0136
:1015A0005C012F81388549855A850E9474106B83B0
:1015B0007C838D839E8320E030E0A9010E940D1280
:1015C00087FF09C08B819C81AD81BE81B0588B8320
:1015D0009C83AD83BE83C12CD12C760120E030E00A
:1015E000A9016F81788589859A850E940D12181648
:1015F0000CF077C0421453040CF477C0A801B30177
:10160000C1010E94F3092B813C814D815E81C7019C
:10161000B6010E94FE0F6B017C0120E030E040E04B
:101620005FE30E940D1287FF10C020E030E0A901A7
:101630006F81788589859A850E940D1218160CF0A5
:101640004CC09FEF291A390AC9CF20E030E0A90128
:10165000C501B4010E940D121816CCF529813A81FA
:101660002615370514F3A801B301C1010E94F3093F
:10167000A1E0B0E0BC87AB8720E030E0A901C50164
:10168000B4010E940D12181614F01C861B8621E06E
:1016900030E03E872D8720E030E0A901C501B4018C
:1016A0000E946A1087FD02C01E861D868B859C8560
:1016B000AD85BE858A1B9B0B680E791E20E030E04D
:1016C00040E85FE3C701B6010E94FD0FA4CF898106
:1016D0009A81681679063CF6A8CFA1E02A1A31084B
:1016E0007DCF241435040CF089CF2E960FB6F894D4
:1016F000DEBF0FBECDBFDF91CF911F910F91FF9045
:10170000EF90DF90CF90BF90AF909F908F907F90A1
:101710006F905F904F903F902F9008952F923F923F
:101720004F925F926F927F928F929F92AF92BF92F1
:10173000CF92DF92EF92FF920F931F93CF93DF939D
:101740006C014B01190185E0489F20011124E12C17
:10175000F12C80EA481A510866246394712CF20136
:10176000EE0DFF1DE453FE4FE4912114310409F402
:10177000E09500E010E0CE2FD0E05601AE0CBF1C8B
:10178000A301002E02C0440F551F0A94E2F74C2318
:101790005D23002E02C0559547950A94E2F7B401E7
:1017A000600F711FC5010E94F3090F5F1F4F0830C2
:1017B000110531F78FEFE81AF80A85E0E816F10411
:1017C00071F6DF91CF911F910F91FF90EF90DF9015
:1017D000CF90BF90AF909F908F907F906F905F90D1
:1017E0004F903F902F900895CF92DF92EF92FF920B
:1017F0000F931F93CF93DF937B018A016901D82F49
:10180000C0E0F801EC0FF11D4081442349F096013E
:10181000B7018D2F90E00E948E0BDB5FCF5FF1CF81
:10182000DF91CF911F910F91FF90EF90DF90CF90BC
:10183000089525B12F7D30E2839FC0011124822BB2
:1018400085B95F9887E090E070E08F989B01082E43
:1018500002C0359527950A94E2F720FF02C02E9A20
:1018600001C02E988F9A019780F75F9A0895CF93C1
:10187000C82F579A249A259A269A879A2C985F9A65
:101880002C9A61E280E00E94190C6C2F606880E065
:101890000E94190C64E080E00E94190C63E180E072
:1018A0000E94190C6CE080E00E94190C60E280E05C
:1018B0000E94190C6CE080E00E94190C60E480E04A
:1018C0000E94190C60E880E0CF910C94190CCF9322
:1018D000DF93C8EFD1E060E081E00E94190C21970E
:1018E000D1F7DF91CF910895CF93C82F606480E046
:1018F0000E94190C6C2F606880E0CF910C94190C39
:10190000A0E1B0E0E6E8FCE00C94D0127C011B0101
:101910006A01FC0117821682838181FF44C39E0104
:101920002F5F3F4F3901F7019381F10193FD8591BD
:1019300093FF81911F01882309F431C3853239F463
:1019400093FD859193FF81911F01853239F4B70191
:1019500090E00E94511456016501E5CF10E0512C32
:10196000912CFFE1F915D8F08B3279F038F4803200
:1019700079F08332A1F4F92DF0612EC08D3261F03F
:10198000803369F4292D21602DC0392D3260932ECA
:10199000892D8460982E2AC0E92DE86015C097FC37
:1019A0002DC020ED280F2A3088F496FE06C03AE0BC
:1019B000139F200D1124122F19C08AE0589E200D6C
:1019C0001124522EE92DE0629E2E10C08E3231F489
:1019D00096FCE5C2F92DF0649F2E08C08C3621F4E8
:1019E000292D2068922E02C0883641F4F10193FD22
:1019F000859193FF81911F018111B3CF9BEB980FCC
:101A0000933020F4992D9061805E07C09BE9980F78
:101A1000933008F066C1992D9F7E96FF16E09F7364
:101A2000992E853619F49064992E08C0863621F4D3
:101A3000392F3068932E02C01111115097FE07C044
:101A40001C3350F444244394410E27E00BC018305B
:101A500038F027E017E005C027E09CE3492E02C0DC
:101A6000212F412C560184E0A80EB11CF6016081A3
:101A7000718182819381042DA3010E9463136C0103
:101A8000F981FC87F0FF02C0F3FF06C091FC06C09D
:101A900092FE06C000E205C00DE203C00BE201C0E9
:101AA00000E08C858C7019F001115AC29BC297FE20
:101AB00010C04C0CFC85F4FF04C08A81813309F40A
:101AC0004A94141474F528E0241578F588E0482E1B
:101AD0002CC096FC2AC0812F90E08C159D059CF0AF
:101AE0003CEFC3163FEFD30674F0892D8068982E23
:101AF0000AC0E2E0F0E0EC0FFD1FE10FF11D808174
:101B0000803319F411501111F4CF97FE0EC0442404
:101B10004394410E812F90E0C816D9062CF41C196D
:101B200004C04424439401C010E097FE06C01C1476
:101B30001D0434F4C601019605C085E090E002C0A2
:101B400081E090E001110196112331F0212F30E066
:101B50002F5F3F4F820F931F252D30E08217930791
:101B600014F4581A01C0512C892D897049F455205C
:101B700039F0B70180E290E00E9451145A94F7CFF7
:101B8000002329F0B701802F90E00E94511493FCAC
:101B900009C0552039F0B70180E390E00E9451144C
:101BA0005A94F7CF97FE4CC04601D7FE02C0812C55
:101BB000912CC60188199909F301E80FF91FFE87D6
:101BC000ED87960124193109388B2F87012F10E0FA
:101BD0001195019511093FEF8316930629F4B7017A
:101BE0008EE290E00E945114C814D9044CF08F8505
:101BF00098898815990524F4ED85FE85818101C0B9
:101C000080E3F1E08F1A91082D853E852F5F3F4FCD
:101C10003E872D87801691062CF0B70190E00E9438
:101C20005114D9CFC814D90441F49A81963320F4C1
:101C3000953319F43C8534FF81E3B70190E04EC041
:101C40008A81813319F09C859F7E9C87B70190E043
:101C50000E945114111105C094FC18C085E690E053
:101C600017C0B7018EE290E00E9451141E5F82E01F
:101C700001E0080FF301E80FF11D8081B70190E04A
:101C80000E945114802F0113F3CFE6CF85E490E03A
:101C9000B7010E945114D7FC06C0C114D10441F40D
:101CA000EC85E4FF05C0D194C194D1088DE201C058
:101CB0008BE2B70190E00E94511480E32AE0C21643
:101CC000D1042CF08F5FFAE0CF1AD108F7CFB7011B
:101CD00090E00E945114B701C601C0960E945114B1
:101CE00054C1833631F0833779F0833509F056C01B
:101CF00020C0560132E0A30EB11CF6018081898319
:101D000001E010E0630112C05601F2E0AF0EB11C19
:101D1000F601C080D18096FE03C0612F70E002C042
:101D20006FEF7FEFC6010E9446148C01F92DFF77FB
:101D300014C0560122E0A20EB11CF601C080D18071
:101D400096FE03C0612F70E002C06FEF7FEFC60107
:101D50000E943B148C01F92DF0689F2EF3FD1AC0F0
:101D6000852D90E008171907A8F4B70180E290E0EC
:101D70000E9451145A94F4CFF60197FC859197FE76
:101D800081916F01B70190E00E94511451105A9453
:101D9000015011090115110579F7F7C0843611F0CA
:101DA000893661F5560197FE09C024E0A20EB11CE8
:101DB000F60160817181828193810AC0F2E0AF0EE9
:101DC000B11CF60160817181072E000C880B990B04
:101DD000F92DFF769F2E97FF09C0909580957095FD
:101DE00061957F4F8F4F9F4FF0689F2E2AE030E024
:101DF000A3010E94AF14C82EC6183FC0092D853715
:101E000021F40F7E2AE030E01DC0097F8F3691F06B
:101E100018F4883559F0C3C0803719F0883711F0AD
:101E2000BEC0006104FF09C0046007C094FE08C082
:101E3000066006C028E030E005C020E130E002C0C6
:101E400020E132E0560107FF09C084E0A80EB11C72
:101E5000F601608171818281938108C0F2E0AF0E4A
:101E6000B11CF6016081718180E090E0A3010E94C5
:101E7000AF14C82EC6180F77902E96FE0BC0092DF2
:101E80000E7FC11650F494FE0AC092FC08C0092DC2
:101E90000E7E05C0DC2C092D03C0DC2C01C0D12E28
:101EA00004FF0DC0FE01EC0DF11D8081803311F4A3
:101EB000097E09C002FF06C0D394D39404C0802FCA
:101EC000867809F0D39403FD11C000FF06C01C2DD5
:101ED000D51480F4150D1D190DC0D51458F4B70193
:101EE00080E290E00E945114D394F7CFD51410F4FF
:101EF0005D1801C0512C04FF10C0B70180E390E0D1
:101F00000E94511402FF17C001FD03C088E790E052
:101F100002C088E590E0B7010CC0802F867859F0A8
:101F200001FF02C08BE201C080E207FD8DE2B70134
:101F300090E00E945114C11638F4B70180E390E09C
:101F40000E9451141150F7CFCA94F301EC0DF11D0A
:101F50008081B70190E00E945114C110F5CF15C0E7
:101F6000F4E0F51560F584E0581A93FE1FC00111E6
:101F700027C02C8523FF2AC00AEC10E0392D3071D0
:101F8000932EF8018491811124C0552009F4E4CCEA
:101F9000B70180E290E00E9451145A94F6CFF70105
:101FA0008681978126C08FEF9FEF23C0B70180E223
:101FB00090E00E9451145A945110F8CFD8CF512C70
:101FC000B701802F90E00E945114D3CF0EEC10E0A7
:101FD000D5CF91108052B70190E00E9451140F5F4D
:101FE0001F4FCFCF23E0251510F483E0BDCF512C38
:101FF000C0CF6096E2E10C94EC125058BB27AA27A0
:102000000E9415100C94BF110E94861138F00E9496
:102010008D1120F039F49F3F19F426F40C948311AC
:102020000EF4E095E7FB0C947D11E92F0E94E4117A
:1020300058F3BA17620773078407950720F079F4FD
:10204000A6F50C9406120EF4E0950B2EBA2FA02DD7
:102050000B01B90190010C01CA01A0011124FF2755
:10206000591B99F0593F50F4503E68F11A16F04050
:10207000A22F232F342F4427585FF3CF469537954F
:102080002795A795F0405395C9F77EF41F16BA0B14
:10209000620B730B840BBAF09150A1F0FF0FBB1FC2
:1020A000661F771F881FC2F70EC0BA0F621F731F0B
:1020B000841F48F4879577956795B795F7959E3F68
:1020C00008F0B0CF9395880F08F09927EE0F9795F9
:1020D000879508950E94591108F481E008950E949F
:1020E0009611E3950C94D0110E9488100C94BF11A6
:1020F0000E948D1158F00E94861140F029F45F3F34
:1021000029F00C947D1151110C9407120C94831139
:102110000E94E41168F39923B1F3552391F3951BC1
:10212000550BBB27AA2762177307840738F09F5FF8
:102130005F4F220F331F441FAA1FA9F335D00E2E65
:102140003AF0E0E832D091505040E695001CCAF7D2
:102150002BD0FE2F29D0660F771F881FBB1F261795
:1021600037074807AB07B0E809F0BB0B802DBF016C
:10217000FF2793585F4F3AF09E3F510578F00C943B
:102180007D110C9407125F3FE4F3983ED4F38695DB
:1021900077956795B795F7959F5FC9F7880F911D5C
:1021A0009695879597F90895E1E0660F771F881F48
:1021B000BB1F621773078407BA0720F0621B730BFB
:1021C000840BBA0BEE1F88F7E09508950E94ED107E
:1021D0006894B1110C94071208950E94EC1188F0D4
:1021E0009F5798F0B92F9927B751B0F0E1F0660FDB
:1021F000771F881F991F1AF0BA95C9F714C0B1301C
:1022000091F00E940612B1E008950C940612672F17
:10221000782F8827B85F39F0B93FCCF3869577954A
:102220006795B395D9F73EF4909580957095619533
:102230007F4F8F4F9F4F0895E89409C097FB3EF45E
:1022400090958095709561957F4F8F4F9F4F992303
:10225000A9F0F92F96E9BB279395F6958795779581
:102260006795B795F111F8CFFAF4BB0F11F460FF41
:102270001BC06F5F7F4F8F4F9F4F16C0882311F099
:1022800096E911C0772321F09EE8872F762F05C0AD
:10229000662371F096E8862F70E060E02AF09A9548
:1022A000660F771F881FDAF7880F9695879597F93D
:1022B0000895990F0008550FAA0BE0E8FEEF1616D7
:1022C0001706E807F907C0F012161306E407F5072A
:1022D00098F0621B730B840B950B39F40A2661F09E
:1022E000232B242B252B21F408950A2609F4A14041
:1022F000A6958FEF811D811D089597F99F6780E84E
:1023000070E060E008959FEF80EC089500240A9447
:102310001616170618060906089500240A941216C0
:1023200013061406050608950C9483110E94EC11FF
:10233000D8F3E894E0E0BB279F57F0F02AED3FE0A8
:1023400049EC06C0EE0FBB0F661F771F881F28F0F1
:10235000B23A62077307840728F0B25A620B730B14
:10236000840BE3959A9572F7803830F49A95BB0FF9
:10237000661F771F881FD2F790480C948912092E88
:102380000394000C11F4882352F0BB0F40F4BF2BD0
:1023900011F460FF04C06F5F7F4F8F4F9F4F089510
:1023A000EF93E0FF07C0A2EA2AED3FE049EC5FEBC4
:1023B0000E9415100E94BF110F90039401FC9058C9
:1023C000ECEAF0E00C94951257FD9058440F551F1D
:1023D00059F05F3F71F04795880F97FB991F61F0A7
:1023E0009F3F79F087950895121613061406551F1E
:1023F000F2CF4695F1DF08C0161617061806991F8A
:10240000F1CF86957105610508940895E894BB277E
:1024100066277727CB0197F908950E94591108F490
:102420008FEF08950E9425120C94BF110E9486110F
:1024300038F00E948D1120F0952311F00C947D113D
:102440000C94831111240C9407120E94E41170F370
:10245000959FC1F3950F50E0551F629FF001729F49
:10246000BB27F00DB11D639FAA27F00DB11DAA1F58
:10247000649F6627B00DA11D661F829F2227B00DA5
:10248000A11D621F739FB00DA11D621F839FA00D30
:10249000611D221F749F3327A00D611D231F849F80
:1024A000600D211D822F762F6A2F11249F575040D7
:1024B0009AF0F1F088234AF0EE0FFF1FBB1F661F52
:1024C000771F881F91505040A9F79E3F510580F01B
:1024D0000C947D110C9407125F3FE4F3983ED4F303
:1024E000869577956795B795F795E7959F5FC1F7BF
:1024F000FE2B880F911D9695879597F908959F93C8
:102500000E9496110F9007FCEE5F0C94D0119F3F34
:1025100031F0915020F4879577956795B795880F9E
:10252000911D9695879597F908959F938F937F9323
:102530006F93FF93EF939B01AC010E941212EF91F6
:10254000FF910E94A9122F913F914F915F910C949E
:102550001212DF93CF931F930F93FF92EF92DF92AC
:102560007B018C01689406C0DA2EEF010E942512CF
:10257000FE01E894A5912591359145915591A6F3D9
:10258000EF010E941510FE019701A801DA9469F786
:10259000DF90EF90FF900F911F91CF91DF91089501
:1025A0002F923F924F925F926F927F928F929F9263
:1025B000AF92BF92CF92DF92EF92FF920F931F9351
:1025C000CF93DF93CDB7DEB7CA1BDB0B0FB6F89402
:1025D000DEBF0FBECDBF09942A88398848885F8442
:1025E0006E847D848C849B84AA84B984C884DF80B3
:1025F000EE80FD800C811B81AA81B981CE0FD11D97
:102600000FB6F894DEBF0FBECDBFED0108958F92D7
:102610009F92AF92BF92CF92DF92EF92FF92CF93B1
:10262000DF93EC01688179818A819B816115710555
:102630008105910521F464E279ED8BE597E02DE1C8
:1026400033EF41E050E00E940D1549015A019B0112
:10265000AC01A7EAB1E40E942C156B017C01ACEE41
:10266000B4EFA50194010E943A15DC01CB018C0D59
:102670009D1DAE1DBF1DB7FF03C00197A109B04846
:1026800088839983AA83BB839F77DF91CF91FF9043
:10269000EF90DF90CF90BF90AF909F908F90089574
:1026A0000E94071308958AE291E00E94071308959B
:1026B000A0E0B0E080932A0190932B01A0932C011D
:1026C000B0932D010895283008F027E03327DA0170
:1026D000990F311D87FD916000966105710539F4F0
:1026E00032602E5F3D9330E32A95E1F708959F3FD6
:1026F00030F080387105610509F03C5F3C5F3D9327
:10270000913008F08068911DDF93CF931F930F9352
:10271000FF92EF92192F987F9695E92F96959695AF
:10272000E90FFF27E45DFE4F99273327EE24FF24AE
:10273000A701E70105900894079428F4360FE71ED7
:10274000F81E491F511D660F771F881F991F069499
:10275000A1F70590079428F4E70EF81E491F561FAD
:10276000C11D770F881F991F661F0694A1F705905A
:10277000079428F4F80E491F561FC71FD11D880F54
:10278000991F661F771F0694A1F70590079420F400
:10279000490F561FC71FD81F990F661F771F881F25
:1027A0000694A9F784911095177041F0D695C795B6
:1027B00057954795F794E7941A95C1F7E2EDF0E045
:1027C00068941590159135916591959105907FE2EA
:1027D0007395E118F10A430B560BC90BD009C0F7EA
:1027E000E10CF11E431F561FC91FD01D7EF470332C
:1027F00011F48A95E6CFE894015030F0080F0AF4FE
:102800000027021708F4202F2395022F7A3328F08F
:1028100079E37D932A95E9F710C07D932A9589F68F
:10282000069497956795379517951794E118F10ACF
:10283000430B560BC90BD00998F023957E917395E5
:102840007A3308F070E37C932013B8F77E917061BF
:102850007D9330F0839571E37D9370E32A95E1F7E2
:102860001124EF90FF900F911F91CF91DF91992745
:1028700087FD90950895FC0105906150704001100E
:10288000D8F7809590958E0F9F1F0895FC01615099
:10289000704001900110D8F7809590958E0F9F1F82
:1028A00008950F931F93CF93DF93FB01238121FDA5
:1028B00003C08FEF9FEF2CC022FF16C046815781C7
:1028C000248135814217530744F4A081B1819D01D1
:1028D0002F5F3F4F318320838C93268137812F5F79
:1028E0003F4F3783268314C08B01EC01FB0100842A
:1028F000F185E02D0995892BE1F6D80116968D9189
:102900009C911797019617969C938E931697CE01DC
:10291000DF91CF911F910F910895AEE0B0E0E3E910
:10292000F4E10C94DE120D891E8986E08C831A83F3
:1029300009838FEF9FE79E838D83AE01475E5F4FD4
:102940006F89788DCE0101960E94800CEF81F88509
:10295000E00FF11F10822E96E4E00C94FA12FA01B7
:10296000AA27283051F1203181F1E8946F936E7FCE
:102970006E5F7F4F8F4F9F4FAF4FB1E03ED0B4E0BF
:102980003CD0670F781F891F9A1FA11D680F791F00
:102990008A1F911DA11D6A0F711D811D911DA11D11
:1029A00020D009F468943F912AE0269F1124301921
:1029B000305D3193DEF6CF010895462F4770405DBC
:1029C0004193B3E00FD0C9F7F6CF462F4F70405D6B
:1029D0004A3318F0495D31FD4052419302D0A9F7C6
:1029E000EACFB4E0A6959795879577956795BA95C0
:1029F000C9F700976105710508959B01AC010A2E86
:102A000006945795479537952795BA95C9F7620F5C
:102A1000731F841F951FA01D0895052E97FB1EF49C
:102A200000940E94241557FD07D00E943F1507FC13
:102A300003D04EF40C942415509540953095219573
:102A40003F4F4F4F5F4F08959095809570956195DA
:102A50007F4F8F4F9F4F08950E946115A59F900D46
:102A6000B49F900DA49F800D911D11240895B7FF70
:102A70000C942C150E942C15821B930B0895A1E237
:102A80001A2EAA1BBB1BFD010DC0AA1FBB1FEE1FE8
:102A9000FF1FA217B307E407F50720F0A21BB30B33
:102AA000E40BF50B661F771F881F991F1A9469F7AF
:102AB00060957095809590959B01AC01BD01CF010B
:102AC0000895A29FB001B39FC001A39F700D811D07
:102AD0001124911DB29F700D811D1124911D089527
:042AE000F894FFCF98
:102AE40001000001000100010101010101000100D8
:102AF40001000101010001010001010101000101C6
:102B040001010101010001010100010000000506AD
:102B140007010100005A616368617279204E69639C
:102B24006F6C6C006E313032313434353300546F95
:102B34006D20416E64204A65727279002D4F6E20BB
:102B4400746865205465656E73792D004C3A25646C
:102B540000483A256400533A25640030303A303056
:022B640000006F
:00000001FF
