:100000000C9493020C94B0020C94B0020C94B002C5
:100010000C94B0020C94B0020C94B0020C94B00298
:100020000C94B0020C94B0020C94632B0C949D2B96
:100030000C94B0020C94B0020C94B0020C94B00278
:100040000C94B0020C94B0020C94B0020C94B00268
:100050000C94C31B0C94B0020C94B0020C94E704F3
:100060000C94B0020C94B0020C94B0020C94B00248
:100070000C94B0020C94B0020C94B0020C94B00238
:100080000C94B0020C94B0020C94B0020C941405C1
:100090000C94B0020C94B0020C94B0020C94B00218
:1000A0000C94B0020C94B0020C94B002084AD73BF6
:1000B0003BCE016E84BCBFFDC12F3D6C74319ABD37
:1000C00056833DDA3D00C77F11BED9E4BB4C3E915B
:1000D0006BAAAABE000000803F05A84CCDB2D44E4A
:1000E000B93836A9020C50B9918688083CA6AAAA4C
:1000F0002ABE000000803F00042B002BFC2AF82AB7
:10010000F42AF02AEC2AE82AE42AE02ADC2AD82A6F
:10011000D42AD02ACC2AC82AC42AC02ABC2AB82A5F
:10012000B42AB02AAC2AA82AA42AA02A9C2A982A4F
:10013000942A902A8C2A882A842A802A7C2A782A3F
:10014000742A702A6C2A682A642A602A5C2A582A2F
:10015000542A502A4C2A482A442A402A3C2A382A1F
:10016000342A302A2C2A282A242A202A1C2A182A0F
:10017000142A102A0C2A082A042A6E616E00696E5D
:10018000660000407A10F35A00A0724E1809001061
:10019000A5D4E80000E87648170000E40B540200FC
:1001A00000CA9A3B000000E1F50500008096980027
:1001B000000040420F000000A08601000000102750
:1001C00000000000E80300000000640000000000E0
:1001D0000A00000000000100000000002C76D88812
:1001E000DC674F0823DFC1DFAE59E1B1B796E5E325
:1001F000E453C63AE651997696E8E6C28426EB893E
:100200008C9B62ED407C6FFCEFBC9C9F40F2BAA5DA
:100210006FA5F490055A2AF75C936B6CF9676DC172
:100220001BFCE0E40D47FEF520E6B500D0ED902E76
:100230000300943577050080841E080000204E0AD4
:10024000000000C80C333333330F986E1283114112
:10025000EF8D2114893BE65516CFFEE6DB18D184DD
:100260004B381BF77C1D901DA4BBE4242032847204
:100270005E228100C9F124ECA1E53D2700000000C9
:100280000000005F00000007000700147F147F14C7
:10029000242A7F2A1223130864623649552250000B
:1002A00005030000001C2241000041221C0014082C
:1002B0003E081408083E08080050300000080808EE
:1002C0000808006060000020100804023E51494503
:1002D0003E00427F400042615149462141454B3139
:1002E0001814127F1027454545393C4A49493001C9
:1002F000710905033649494936064949291E003620
:100300003600000056360000081422410014141470
:10031000141400412214080201510906324979419E
:100320003E7E1111117E7F494949363E41414122AD
:100330007F4141221C7F494949417F090909013E0A
:100340004149497A7F0808087F00417F41002040E9
:10035000413F017F081422417F404040407F020C12
:10036000027F7F0408107F3E4141413E7F09090919
:10037000063E4151215E7F091929464649494931C6
:1003800001017F01013F4040403F1F2040201F3FAF
:100390004038403F63140814630708700807615130
:1003A000494543007F4141000204081020004141BB
:1003B0007F0004020102044040404040000102046A
:1003C0000020545454787F484444383844444420EE
:1003D000384444487F3854545418087E0901020CAC
:1003E0005252523E7F0804047800447D4000204071
:1003F000443D007F1028440000417F40007C0418E9
:1004000004787C0804047838444444387C14141478
:1004100008081414187C7C08040408485454542018
:10042000043F4440203C4040207C1C2040201C3C99
:100430004030403C44281028440C5050503C446408
:10044000544C44000836410000007F000000413653
:10045000080010080810087846414678000100009E
:1004600009051200020000C6044300030000C20494
:100470000401030904AC04140203090494041603E0
:1004800003090486040C0C033100320033003400ED
:1004900035000000160355005300420020005300B1
:1004A00065007200690061006C00000014035900CF
:1004B0006F007500720020004E0061006D00650045
:1004C00000000403090409024300020100C03209CC
:1004D00004000001020201000524001001052401AE
:1004E0000101042402060524060001070582031009
:1004F000004009040100020A000000070503024051
:100500000000070584024000001201000202000002
:1005100010C0167A040001010203010001C112019A
:1005200080360181360011241FBECFEFDAE0DEBF36
:10053000CDBF13E0A0E0B1E0E6ECFFE502C005901E
:100540000D92A232B107D9F726E0A2E2B3E001C0D2
:100550001D92AA3CB207E1F70E94EE1E0C94E12F17
:100560000C940000CF93DF93FC018491EF0121965E
:10057000882321F00E945229FE01F7CFDF91CF910D
:100580000895CF93CFB121E044EE51E060E070E0F8
:1005900085E090E00E940F2121E043EF51E06AE006
:1005A00070E085E090E00E940F2121E04DEF51E0E6
:1005B0006EE170E08AE090E00E940F2121E04BE0C4
:1005C00052E068E270E085E090E00E940F210E9416
:1005D000F31EC5FFD7CFCF9108950F931F93E9E482
:1005E000F4E080E090E0A0E9B1E480839183A2830D
:1005F000B38380E090E0A0E7B1E484839583A68391
:10060000B78380E090E0A0E5B1E480879187A2877E
:10061000B38780E090E0A8ECB1E484879587A68753
:10062000B787E8E9F4E080839183A283B38340E055
:1006300050E06CE072E4448355836683778380875F
:100640009187A287B38740E050E064E372E4448777
:10065000558766877787E1E3F4E0408351836283BF
:10066000738340E050E060E271E444835583668325
:10067000778300E010E020E732E4008711872287CB
:1006800033874487558766877787E8EAF4E040E058
:1006900050E068E672E4408351836283738384830D
:1006A0009583A683B78380E090E0A0E9B2E48087D9
:1006B0009187A287B38780E090E0A0EFB1E48487C0
:1006C0009587A687B7871F910F910895E9E4F4E015
:1006D00080E090E0A0E2B1E480839183A283B383C1
:1006E00080E090E0A8ECB1E484839583A683B7838F
:1006F00040E050E060E272E4408751876287738790
:1007000084879587A687B7870895CF93DF93CDB762
:10071000DEB72C970FB6F894DEBF0FBECDBF8CE0CE
:10072000E1EDF1E0DE01119601900D928A95E1F77D
:10073000FE013196CE010D9640E050E060E87FEB7F
:10074000A191B1914D935D936D937C931397149602
:100750004D935D936D937C93179718964D935D938E
:100760006D937C931B971C964D935D936D937C9337
:100770001F97E817F90721F72C960FB6F894DEBFFC
:100780000FBECDBFDF91CF9108950F931F93CF93ED
:10079000DF93CDB7DEB70F8118859E01235F3F4FF2
:1007A0004B855C8569857A85C8010E94F42EF80125
:1007B00001900020E9F73197BF01601B710BC80160
:1007C0000E94B129DF91CF911F910F9108958F92CF
:1007D0009F92AF92BF92CF92DF92EF92FF920F93D0
:1007E0001F93CF93DF93CDB7DEB7C055D1090FB6B6
:1007F000F894DEBF0FBECDBF20E030E040E752E40A
:1008000060913203709133038091340390913503EA
:100810000E94BE254B015C010E94A3266B017C0156
:100820009B01AC01C501B4010E94182520E030E015
:1008300040E752E40E94E3270E9430267F936F93A3
:10084000C701B6010E9430267F936F938BE192E03F
:100850009F938F931F9280E5F82EFF928E010F5F7A
:100860001F4F1F930F930E94C50380910B018F931D
:1008700080910A018F9382E392E09F938F931F925E
:10088000FF921F930F930E94C5039AE7C92E94E02D
:10089000D92EF60181818F9380818F9386E492E037
:1008A0009F938F931F92FF921F930F930E94C503F4
:1008B000F60183818F9382818F9382E592E09F93EB
:1008C0008F931F92FF921F930F930E94C5030FB641
:1008D000F894DEBF0FBECDBFF60185818F93848172
:1008E0008F938EE592E09F938F931F92FF921F93B9
:1008F0000F930E94C503809148048F938091470411
:100900008F9388E792E09F938F931F92FF921F939C
:100910000F930E94C5038091BD048F938091BC0406
:100920008F9382E992E09F938F931F92FF921F9380
:100930000F930E94C503809146048F9380914504D4
:100940008F9389EA92E09F938F931F92FF921F9358
:100950000F930E94C5030FB6F894DEBF0FBECDBF44
:10096000809165048F93809164048F9388EC92E06A
:100970009F938F931F92FF921F930F930E94C50323
:10098000809129031F928F9380EE92E09F938F9323
:100990001F92FF921F930F930E94C5030FB6F89406
:1009A000DEBF0FBECDBFC05BDF4F0FB6F894DEBF1A
:1009B0000FBECDBFDF91CF911F910F91FF90EF90B0
:1009C000DF90CF90BF90AF909F908F9008951F922F
:1009D0000F920FB60F9211246F937F938F939F9373
:1009E0008091640490916504892B99F08091220391
:1009F000609101010E94032D911103C02A9A2B9A44
:100A000002C02A982B98809122038F5F8093220343
:100A100002C02A982B989F918F917F916F910F9090
:100A20000FBE0F901F9018951F920F920FB60F9246
:100A300011248F939F93AF93BF9380912303909141
:100A40002403A0912503B09126030196A11DB11D99
:100A50008093230390932403A0932503B09326034C
:100A6000BF91AF919F918F910F900FBE0F901F90EC
:100A70001895CF92DF92EF92FF92CF93DF93609120
:100A80002303709124038091250390912603C09144
:100A90009400D09195000E94662620E030E040E866
:100AA00057E40E94E3276B017C01BE0180E090E0E7
:100AB0000E9466269B01AC01C701B6010E94192560
:100AC0002DEB37E346E054E30E94E327DF91CF911B
:100AD000FF90EF90DF90CF90089580910A01909160
:100AE0000B01019709F089C010927D0410927C04DB
:100AF00085E090E090937B0480937A0410928804C0
:100B00001092890410928A0410928B0480E090E085
:100B1000A0E1B1E480938C0490938D04A0938E04A3
:100B2000B0938F0410927F0410927E0480E090E0D6
:100B3000AEE9B2E48093210490932204A0932304AD
:100B4000B093240480E090E0ACE1B2E4809325040B
:100B500090932604A0932704B09328040E94982D14
:100B6000BC01990F880B990B0E94682620E03EEF8C
:100B70004FEF56E40E94BE252DEC3CEC4CE45EE3C6
:100B80000E94E3272DEC3CEC4CE45EE30E94192527
:100B9000209106013091070140910801509109010F
:100BA0000E94E3276093290470932A0480932B0406
:100BB00090932C040E94982DBC01990F880B990BDF
:100BC0000E94682620E03EEF4FEF56E40E94BE25CB
:100BD0002BED3FE049E450E40E94E3279B01AC0188
:100BE0000E94192560932D0470932E0480932F0486
:100BF000909330040E94ED0230C00E948503109251
:100C000088041092890410928A0410928B0480E068
:100C100090E0A0E1B1E480938C0490938D04A093C4
:100C20008E04B0938F0480E090E0AEE9B2E480934C
:100C3000210490932204A0932304B093240480E021
:100C400090E0ACE1B2E48093250490932604A09355
:100C50002704B09328040E94660380918804909131
:100C60008904A0918A04B0918B04809380049093AE
:100C70008104A0938204B093830480918C049091AA
:100C80008D04A0918E04B0918F048093840490937E
:100C90008504A0938604B093870410926504109293
:100CA00064041092460410924504809121049091AE
:100CB0002204A0912304B0912404809319049093FA
:100CC0001A04A0931B04B0931C04809125049091F6
:100CD0002604A0912704B091280480931D049093CA
:100CE0001E04A0931F04B093200480E090E0FC0158
:100CF000E35AFB4F1082FC01E851FC4F1082019631
:100D000087309105A1F7EEEBF4E0A3EFB3E026EF17
:100D10003FEF86EF9FEF3183208333832283119649
:100D20003C932E9313963C932E93129734961496DD
:100D300044E0E23DF40769F79093100480930F04B8
:100D4000909312048093110490930C0480930B04ED
:100D500090930E0480930D041092EF031092F00311
:100D60001092F1031092F2030E9439050E9430267E
:100D70007093B9046093B8041092BD041092BC043F
:100D80000E9439050E94302670930A04609309047A
:100D900010924804109247041092BB041092BA04B7
:100DA0000E9439050E943026709337036093360302
:100DB000109208041092070410927904109278049B
:100DC000E8E3F3E028ED33E080E090E0A0E8BFEB5B
:100DD00080839183A283B38384839583A683B7831F
:100DE00038962E173F07A1F708950F931F93CF93BF
:100DF000DF9301E010E00E94061F7D9B13C010925C
:100E000028031092230310922403109225031092BA
:100E1000260310930B0100930A010E946D05C1E0A7
:100E2000D0E002C0C0E0D0E021E04EEE52E060E150
:100E300070E08EE090E00E940F2121E04AEF52E046
:100E40006AE170E089E090E00E940F210E94F31EA9
:100E5000CD2B89F2DF91CF911F910F910895CF9300
:100E600080E880936100C1E0C09361008FE30E943D
:100E700052210E9482215298229884B184B95198BB
:100E80002198859886980E94E92C229A239A14BC6E
:100E9000C5BDC0936E00809180008E7F80938000DE
:100EA000809180008D7F8093800080918100877F7A
:100EB00080938100809181008F7E8093810080915A
:100EC0008100816080938100C0936F0078940E94BC
:100ED000E6280E94FF288823E1F30E946D050E9406
:100EE000C1021092900081E0809391008093710084
:100EF000CF9108958F929F92AF92BF92CF92DF923F
:100F0000EF92FF920F931F93CF93DF93CDB7DEB78E
:100F100064970FB6F894DEBF0FBECDBF80910B0172
:100F20008F9380910A018F9389E093E09F938F9331
:100F30008E010F5F1F4F1F930F930E94D22E21E04F
:100F4000A80160E070E080E090E00E940F218AE755
:100F5000E82E84E0F82EF70181818F9380818F93B2
:100F60008EE093E09F938F931F930F930E94D22E56
:100F700021E0A80160E070E082E190E00E940F2192
:100F8000F70183818F9382818F9383E193E09F9315
:100F90008F931F930F930E94D22E21E0A80160E04F
:100FA00070E084E290E00E940F2120E030E040E712
:100FB00052E4609132037091330380913403909135
:100FC00035030E94BE254B015C010E94A3266B01E4
:100FD0007C019B01AC01C501B4010E94182520E0F1
:100FE00030E040E752E40E94E3270E9430267F93DE
:100FF0006F93C701B6010E9430267F936F9388E1FB
:1010000093E09F938F931F930F930E94D22E21E022
:10101000A80160E070E087E390E00E940F2101E00A
:1010200028E030E044E550E068E070E080E090E0E7
:101030000E94471F0FB6F894DEBF0FBECDBF649667
:101040000FB6F894DEBF0FBECDBFDF91CF911F91D9
:101050000F91FF90EF90DF90CF90BF90AF909F9057
:101060008F9008954F925F926F927F928F929F928E
:10107000AF92BF92EF92FF920F931F93CF93DF93A4
:10108000C0E0D0E0CE0183559E4F7C0100E010E02F
:101090004E010D2E000CAA08BB08F701808181309B
:1010A00059F5B801012E000C880B990B0E94682697
:1010B00020918C0430918D0440918E0450918F04C6
:1010C0000E9419250E9430262B013C01C501B40164
:1010D0000E946826209188043091890440918A04F6
:1010E00050918B040E9419250E943026DC01CB010F
:1010F00041E0B2010E940E1F0F5F1F4FF5E0EF0E9F
:10110000F11C0530110549F62196C530D10509F0CD
:10111000B9CFDF91CF911F910F91FF90EF90BF90CA
:10112000AF909F908F907F906F905F904F900895B9
:101130004F925F926F927F928F929F92AF92BF92E7
:10114000EF92FF920F931F93CF93DF93C0E0D0E015
:10115000CE0180599E4F7C0100E010E04E010D2E23
:10116000000CAA08BB08F7018081813059F5B8014D
:10117000012E000C880B990B0E94682620912504F3
:101180003091260440912704509128040E9419258B
:101190000E9430262B013C01C501B4010E94682643
:1011A0002091210430912204409123045091240481
:1011B0000E9419250E943026DC01CB0141E0B201DA
:1011C0000E940E1F0F5F1F4FF5E0EF0EF11C053060
:1011D000110549F62196C530D10509F0B9CFDF9147
:1011E000CF911F910F91FF90EF90BF90AF909F9084
:1011F0008F907F906F905F904F9008954F925F9285
:101200006F927F928F929F92AF92BF92CF92DF9216
:10121000EF92FF920F93CF93DF93CDB7DEB7C45613
:10122000D1090FB6F894DEBF0FBECDBF80E1E9E46F
:10123000F4E0DE01119601900D928A95E1F780E1CC
:10124000E8E9F4E0DE01519601900D928A95E1F70C
:1012500080E1E1E3F4E0DE01919601900D928A9540
:10126000E1F780E1E8EAF4E0DE01D19601900D9229
:101270008A95E1F780E1E8E6F4E0DE01AF5BBF4F7D
:1012800001900D928A95E1F780E1E8EDF3E0DE014F
:10129000AF5ABF4F01900D928A95E1F7CE010196AA
:1012A0007C016E0191E6C90ED11CF701648575853C
:1012B000868597850E9430262B013C01F7016085C9
:1012C0007185828593850E943026A5966CAF7DAF8F
:1012D0008EAF9FAFA597F701648175818681978155
:1012E0000E9430264B015C01F7016081718182818F
:1012F00093810E943026DC01CB0101E09201A3968C
:101300004EAD5FADA397B4010E94471FF0E1EF0E11
:10131000F11CEC14FD0449F6CC59DF4F0FB6F894DC
:10132000DEBF0FBECDBFDF91CF910F91FF90EF9049
:10133000DF90CF90BF90AF909F908F907F906F90F5
:101340005F904F9008952F923F924F925F926F92CD
:101350007F928F929F92AF92BF92CF92DF92EF9245
:10136000FF920F931F93CF93DF9343EFC42E43E07D
:10137000D42E0EEB14E0E12CF12C8CE0482E81E011
:10138000582E95E2692E91E0792E2EE3822E21E0EF
:10139000922E37E5A32E31E0B32EC0E0D0E0212C11
:1013A000312CF80180819181863FFFEF9F0781F00A
:1013B000F501E20DF31D2081213051F4F801628125
:1013C00073816C0F7D1F41E0820D931D0E940E1FE3
:1013D000F60180819181863FFFEF9F0781F0F40144
:1013E000E20DF31D2081213051F4F60162817381F9
:1013F0006C0F7D1F41E0820D931D0E940E1FE114B2
:10140000F10491F580910F0490911004863FFFEF55
:101410009F0789F0F301E20DF31D2081213059F47B
:1014200060911104709112046C0F7D1F41E0820DD8
:10143000931D0E940E1F80910B0490910C04863F17
:10144000EFEF9E0789F0F201E20DF31D20812130BC
:1014500059F460910D0470910E046C0F7D1F41E0F2
:10146000820D931D0E940E1F2FEF221A320A85E073
:101470002816310409F095CF2196E5E04E0E511C57
:10148000F5E06F0E711C25E0820E911C85E0A80E20
:10149000B11CC530D10509F082CFEFEFEE1AFE0A7C
:1014A000F4E0CF0ED11C0C5F1F4F25E0E216F104D3
:1014B00009F063CFDF91CF911F910F91FF90EF90D3
:1014C000DF90CF90BF90AF909F908F907F906F9064
:1014D0005F904F903F902F9008958F929F92AF9280
:1014E000BF92CF92DF92EF92FF92CF93DF93C8E348
:1014F000D3E0C880D980EA80FB8020E030E040E87B
:101500005FEBC701B6010E94B425882391F06C817E
:101510007D818E819F810E9430264B015C01C70135
:10152000B6010E943026DC01CB0141E0B4010E94EB
:101530000E1F289683E0C83DD807D9F6DF91CF91DA
:10154000FF90EF90DF90CF90BF90AF909F908F90E3
:1015500008954F925F926F927F928F929F92AF9277
:10156000BF92EF92FF920F931F93CF93DF93C0E050
:10157000D0E0CE0187579E4F7C0100E010E04E0185
:101580000D2E000CAA08BB08F7018081813059F5A7
:10159000B801012E000C880B990B0E94682620913F
:1015A0008C0430918D0440918E0450918F040E94E0
:1015B00019250E9430262B013C01C501B4010E946F
:1015C0006826209188043091890440918A045091C2
:1015D0008B040E9419250E943026DC01CB0141E0DA
:1015E000B2010E940E1F0F5F1F4FF6E0EF0EF11CBD
:1015F0000630110549F62196C630D10509F0B9CF5C
:10160000DF91CF911F910F91FF90EF90BF90AF901E
:101610009F908F907F906F905F904F9008950E9461
:101620007A078091640490916504892B11F40E94DB
:1016300032080C9498089B0143E0359527954A950C
:10164000E1F744E5249F800D911D1124FC01EE5229
:10165000FB4F808190E0677002C0959587956A95F1
:10166000E2F7817008952F923F924F925F926F92AE
:101670007F928F929F92AF92BF92CF92DF92EF9222
:10168000FF920F931F93CF93DF9300D000D0CDB77D
:10169000DEB7CFA8D8AC29AC3AAC8FA098A4A9A447
:1016A000BAA44BA45CA46DA47EA4C114D104D1F14E
:1016B000E12CF12CC6010D2C000CAA0BBB0B89836D
:1016C0009A83AB83BC83D7FE09C069817A818B8101
:1016D0009C810E946826A501940106C020E030E0AC
:1016E00040EA50E4C501B4010E9419250E94302649
:1016F0008B01B7010F2C000C880B990B0E946826F8
:10170000A30192010E9419250E943026C8010E945F
:101710001B0B811143C09FEFE91AF90AA5E0EA16F5
:10172000F10489F621143104C1F100E010E06101F7
:10173000032C000CEE08FF08B801012E000C880BEA
:10174000990B0E946826A50194010E9419250E9408
:10175000302669837A838B839C83121413043CF4B0
:1017600020E030E040EA50E4C301B20106C0C70106
:10177000B6010E946826A30192010E9419250E94C9
:10178000302689819A810E941B0B811107C00F5F4F
:101790001F4F0530110581F601C080E00F900F90BA
:1017A0000F900F90DF91CF911F910F91FF90EF90CD
:1017B000DF90CF90BF90AF909F908F907F906F9071
:1017C0005F904F903F902F9008952F923F924F92AD
:1017D0005F926F927F928F929F92AF92BF92CF92C1
:1017E000DF92EF92FF920F931F93CF93DF9300D07E
:1017F00000D000D0CDB7DEB72B013C0129833A835E
:101800004B835C83B801FE82ED8285011401072EB3
:10181000000C880B990B0E946826A30192010E947C
:1018200019254B015C01B6016B5F7F4F621973098B
:10183000072E000C880B990B0E9468269B01AC01B7
:10184000C501B4010E94D62718160CF46AC0B10174
:10185000032C000C880B990B0E9468262B013C017D
:10186000B601DD0C880B990B0E9468266B017C0188
:1018700020E030E040EA50E4C501B4010E9419259F
:10188000A30192010E9418259B01AC01C701B6017A
:101890000E94D62718160CF444C02D813E81B90150
:1018A000330F880B990B0E94682629813A814B815E
:1018B0005C810E9419256B017C01B8016B5F7F4F31
:1018C00062197309072E000C880B990B0E94682679
:1018D0009B01AC01C701B6010E94D62718160CF176
:1018E000B801110F880B990B0E9468264B015C010F
:1018F00020E030E040EA50E4C701B6010E9419251B
:10190000A30192010E9418259B01AC0111E0C501C1
:10191000B4010E94D62718160CF010E081E0812750
:1019200001C080E026960FB6F894DEBF0FBECDBF93
:10193000DF91CF911F910F91FF90EF90DF90CF90AB
:10194000BF90AF909F908F907F906F905F904F90DF
:101950003F902F9008958F929F92AF92BF92CF9217
:10196000DF92EF92FF92CF93DF93CDB7DEB7CBA498
:10197000DCA4EDA4FEA48FA498A8A9A8BAA880917D
:10198000640490916504892B09F05EC020E030E08A
:10199000A901C701B6010E94D627181684F020E0DD
:1019A00030E0A901C701B6010E94B42587FF0DC030
:1019B000C12CD12C30E8E32E3FEBF32E06C0C12C16
:1019C000D12C20E8E22E2FE3F22E20E030E0A90116
:1019D000C501B4010E94D627181684F020E030E03B
:1019E000A901C501B4010E94B42587FF0DC0812C57
:1019F000912C90E8A92E9FEBB92E06C0812C912C3A
:101A000080E8A82E8FE3B82EC501B4010E943026CD
:101A10007EA76DA7C701B6010E9430267CA76BA7E1
:101A20008EE1FE013D96DF0101900D928A95E1F76E
:101A3000DF91CF91FF90EF90DF90CF90BF90AF906C
:101A40009F908F900C94330B80E0DF91CF91FF90AB
:101A5000EF90DF90CF90BF90AF909F908F900895C0
:101A6000CF93DF930E94982DC3E1D4E0BC01990F7E
:101A7000880B990B0E94682620E03EEF4FEF56E45A
:101A80000E94BE252DEC3CEC4CE45EE30E94E32773
:101A90002DEC3CEC4CE45EE30E94192520910601FC
:101AA0003091070140910801509109010E94E327FC
:101AB0006E8B7F8B888F998F0E94982DBC01990F18
:101AC000880B990B0E94682620E03EEF4FEF56E40A
:101AD0000E94BE252BED3FE049E450E40E94E3273D
:101AE0009B01AC010E9419256A8F7B8F8C8F9D8F83
:101AF000DF91CF910895EAE7F4E086819781A08590
:101B0000B18586879787A08BB18B82859385A485C5
:101B1000B585828B938BA48BB58B0895E3E1F4E0BC
:101B200086819781A085B18586879787A08BB18BA9
:101B300082859385A485B585828B938BA48BB58B89
:101B400008952F923F924F925F926F927F928F9261
:101B50009F92AF92BF92CF92DF92EF92FF920F933C
:101B60001F93CF93DF93CDB7DEB762970FB6F8948C
:101B7000DEBF0FBECDBF6A8B798B382E292E29830D
:101B80003A834B835C834090880450908904609032
:101B90008A0470908B04C301B2010E9450280E94F5
:101BA000302669877A878B879C8780918C049091F7
:101BB0008D04A0918E04B0918F048D839E83AF839A
:101BC000B887BC01CD010E9450280E9430266D8745
:101BD0007E878F87988B6091250470912604809171
:101BE0002704909128040E9430265B016C016091CB
:101BF00021047091220480912304909124040E9476
:101C0000302688248394912C6B01ED84FE84098511
:101C10001A8579816A819B818C81272F362F492FE4
:101C2000582FBA89A989F1016B2F7A2F8F2F9E2FF8
:101C30000E94E50B8111BEC0B801110F880B990BF2
:101C40000E946826BA89A989F1012B2F3A2F4F2FBC
:101C50005E2F0E9419256B017C01609164047091D4
:101C60006504072E000C880B990B0E9468264B0117
:101C70005C0120E030E040EA50E4C701B6010E9478
:101C80001925A50194010E94192520E030E048EAB9
:101C900052E40E94B42587FFC4C020E030E0A901CF
:101CA000C701B6010E94D62787FDBBC02D853E85A2
:101CB000B901330F880B990B0E946826B981AA815C
:101CC000FB81EC812B2F3A2F4F2F5E2F0E9419257D
:101CD0006B017C0120E030E040EA50E40E941925CD
:101CE000A50194010E94192520E030E044E452E46B
:101CF0000E94B42587FF95C020E030E040E051E429
:101D0000C701B6010E94D62718160CF08AC03C8184
:101D10003F938B818F939A819F93A981AF932F9249
:101D20003F92B989BF932A892F938DB79EB74E975B
:101D30000FB6F8949EBF0FBE8DBFADB7BEB711965C
:101D40008EE1EAE7F4E001900D928A95E1F70E94B6
:101D5000AB0C0FB6F894DEBF0FBECDBF811161C0D2
:101D60007A896989C101272F362F492F582FC3013E
:101D7000B2010E94192560938804709389048093AE
:101D80008A0490938B0479816A819B818C81272FAF
:101D9000362F492F582F6D817E818F8198850E9423
:101DA000192560938C0470938D0480938E04909316
:101DB0008F0437C08091640490916504892B61F48D
:101DC0000E947B0D80917A0490917B0401979093FF
:101DD0007B0480937A0409C080917C0490917D04F7
:101DE000019690937D0480937C040E948E0D6296F0
:101DF0000FB6F894DEBF0FBECDBFDF91CF911F911C
:101E00000F91FF90EF90DF90CF90BF90AF909F9099
:101E10008F907F906F905F904F903F902F900C9499
:101E2000300D62960FB6F894DEBF0FBECDBFDF91C6
:101E3000CF911F910F91FF90EF90DF90CF90BF90C7
:101E4000AF909F908F907F906F905F904F903F905A
:101E50002F9008952F923F926F927F928F929F9230
:101E6000AF92BF92CF92DF92EF92FF920F931F93A8
:101E7000CF93DF93CDB7DEB76A970FB6F894DEBF86
:101E80000FBECDBF60918C0470918D0480918E0443
:101E900090918F040E9430266F87788B898B9A8B64
:101EA0002F8538893C872B8760918804709189043D
:101EB00080918A0490918B040E9430266B8B7C8BDE
:101EC0008D8B9E8B8B899C899E878D87E0917C046E
:101ED000F0917D04F887EF8320914504309146040A
:101EE0003E832D838091BC049091BD049C838B83A1
:101EF000E0916404F0916504F88FEF8B20917A04EF
:101F000030917B043A83298380914704909148045F
:101F10009A878987EEEBF4E0FA8FE98F33EF232E6F
:101F200033E0332E46EF642E77247A94E98DFA8DD0
:101F3000A280B380C080D18088248394912CEB84CC
:101F4000FC840D851E8520E030E0A901CA01B9019D
:101F50000E94E50B8823B1F02F8138852F5F3F4F1A
:101F600038872F838D819E8101969E838D83EB819F
:101F7000FC813197FC83EB83E98DFA8D718260825D
:101F8000738262822F89388D232B29F5F101A2807B
:101F9000B380C080D18088248394912CEB84FC840E
:101FA0000D851E8520E030E0A901CA01B9010E941B
:101FB000E50B882381F029813A81215031093A8348
:101FC000298389859A8501979A878987F10171828A
:101FD000608273826282298D3A8D2C5F3F4F3A8FE7
:101FE000298F34E0230E311C82ED94E0E98DFA8DC7
:101FF0008E179F0709F09ACF2F81388530937D0483
:1020000020937C048D819E819093460480934504A7
:10201000EB81FC81F093BD04E093BC0429813A81FB
:1020200030937B0420937A0489859A8590934804A1
:1020300080934704E0910704F0910804FA83E98350
:102040003197B1F5A0900D04B0900E04C0900B0430
:10205000D0900C0488248394912CEF84F8880B8909
:102060001C8920E030E0A901CA01B9010E94E50BFA
:102070008823F1F029813A81309365042093640428
:102080000E9439050E9450280E94302670936704F0
:102090006093660486EF9FEF90930C0480930B048B
:1020A00090930E0480930D0410920804109207047C
:1020B0006A960FB6F894DEBF0FBECDBFDF91CF9109
:1020C0001F910F91FF90EF90DF90CF90BF90AF9056
:1020D0009F908F907F906F903F902F9008954F9298
:1020E0005F926F927F928F929F92AF92BF92CF92A8
:1020F000DF92EF92FF92CF93DF93CDB7DEB72E97AB
:102100000FB6F894DEBF0FBECDBF9E878D87DC0172
:102110008D919D910D90BC91A02D89839A83AB8365
:10212000BC839C01AD0160912104709122048091D7
:102130002304909124040E9418254B015C01AD8575
:10214000BE8514968D919D910D90BC91A02D8D838F
:102150009E83AF83B8879C01AD0160912504709187
:10216000260480912704909128040E9418256B0171
:102170007C01A5019401C501B4010E94E3272B0154
:102180003C01A7019601C701B6010E94E3279B010C
:10219000AC01C301B2010E9419250E9482289B0153
:1021A000AC0160E070E080E89FE30E94BE252B0157
:1021B0003C019B01AC01C501B4010E94E3272981C8
:1021C0003A814B815C810E9419254B015C0120E022
:1021D00030E048EA52E40E94B42587FF64C020E062
:1021E00030E040E85FE3C501B4010E94D62718162D
:1021F0000CF059C0A3019201C701B6010E94E32768
:102200002D813E814F8158850E9419256B017C01EB
:1022100020E030E040E452E40E94B42587FF43C050
:1022200020E030E040EA50E4C701B6010E94D62722
:102230001816CCF5C701B6010E9430262B013C01CF
:10224000C501B4010E94302669877A878B879C87F5
:10225000B20189859A850E941B0B811124C06D8172
:102260007E818F8198850E94302689859A850E947B
:102270001B0B811118C069817A818B819C810E941E
:102280003026DC01CB01B2010E941B0B81110BC077
:10229000ED85FE8580829182A282B382C482D5823E
:1022A000E682F78217C080E090E0A0E8BFEBED8502
:1022B000FE8580839183A283B38384839583A683E1
:1022C000B78380917E0490917F04019690937F0460
:1022D00080937E042E960FB6F894DEBF0FBECDBF5E
:1022E000DF91CF91FF90EF90DF90CF90BF90AF90B4
:1022F0009F908F907F906F905F904F9008958F92F6
:102300009F92AF92BF92CF92DF92EF92FF92CF93C4
:10231000DF93C8E3D3E0C880D980EA80FB8020E067
:1023200030E040E85FEBC701B6010E94B425882386
:1023300009F479C0C701B6010E9450286B017C01E5
:102340008090210490902204A0902304B090240453
:10235000C501B4010E9450289B01AC01C701B60120
:102360000E94D62787FD58C020E030E040EA50E4C4
:10237000C501B4010E9419250E9450289B01AC019F
:10238000C701B6010E94B42587FF46C06C817D81DC
:102390008E819F810E9450286B017C0180902504D2
:1023A00090902604A0902704B0902804C501B401A1
:1023B0000E9450289B01AC01C701B6010E94D6279C
:1023C00087FD2AC020E030E040EA50E4C501B401B6
:1023D0000E9419250E9450289B01AC01C701B6013B
:1023E0000E94B42587FF18C00E948E0D80E090E007
:1023F000A0E8BFEB88839983AA83BB838C839D83EA
:10240000AE83BF8380917E0490917F040196909368
:102410007F0480937E0407C080912903811103C04B
:10242000CE010E946F10289683E0C83DD80709F0BE
:1024300072CFDF91CF91FF90EF90DF90CF90BF9060
:10244000AF909F908F9008950F931F93CF93DF933A
:1024500008E313E0C0E0D0E020E030E040E85FEBCC
:10246000F80160817181828193810E94B42581117C
:1024700029C083E0CC0FDD1F8A95E1F7C85CDC4FF3
:102480008091880490918904A0918A04B0918B0472
:1024900088839983AA83BB8380918C0490918D0457
:1024A000A0918E04B0918F048C839D83AE83BF83F3
:1024B00080917E0490917F04019790937F04809394
:1024C0007E0406C02196085F1F4FC431D10521F656
:1024D000DF91CF911F910F9108952F923F924F92CC
:1024E0005F926F927F928F929F92AF92BF92CF92A4
:1024F000DF92EF92FF920F931F93CF93DF93C090E1
:102500002D04D0902E04E0902F04F0903004C701E9
:10251000B6010E94B9252B013C01209106013091A2
:1025200007014091080150910901609129047091BF
:102530002A0480912B0490912C040E94E3274B01E4
:102540005C019B01AC01C301B2010E94E327EB01D6
:10255000182F092FC701B6010E9474282B013C01D6
:1025600020912104309122044091230450912404AD
:10257000F8016C2F7D2F8F2F9E2F0E9419256B0144
:102580007C0120E030E0A901F8016C2F7D2F8F2F16
:102590009E2F0E94B425881F8827881F33243394D8
:1025A000682F632585E0282E269EB0011124072E72
:1025B000000C880B990B0E946826A70196010E94C7
:1025C000192520E030E048EA52E40E94D627181688
:1025D0000CF4C6C020E030E0A901C701B6010E949A
:1025E000B42587FDBDC0A3019201C501B4010E94BD
:1025F000E3272B01782E692E2091250430912604A3
:102600004091270450912804F301752D8F2F9E2FA0
:102610000E9419254B015C0120E030E0A901F30183
:10262000642D752D8F2F9E2F0E94B425881F88271B
:10263000881F3826239CB0011124072E000C880B1C
:10264000990B0E946826A50194010E94192520E09B
:1026500030E040E452E40E94D62718160CF480C003
:1026600020E030E040E151E4C501B4010E94B4250E
:1026700087FD76C06F927F925F924F920F931F9368
:10268000DF93CF932DB73EB72E5131090FB6F89493
:102690003EBF0FBE2DBFADB7BEB711968EE1E3E1D1
:1026A000F4E001900D928A95E1F70E94AB0C2DB7F2
:1026B0003EB72A5D3F4F0FB6F8943EBF0FBE2DBF09
:1026C00081114EC01F921F921F921F920F931F9352
:1026D000DF93CF938DB79EB74E970FB6F8949EBFFA
:1026E0000FBE8DBFADB7BEB711968EE1E3E1F4E04A
:1026F00001900D928A95E1F70E94AB0C2DB73EB781
:102700002A5D3F4F0FB6F8943EBF0FBE2DBF81111B
:1027100027C06F927F925F924F921F921F921F92DB
:102720001F928DB79EB74E970FB6F8949EBF0FBEFF
:102730008DBFADB7BEB711968EE1E3E1F4E0019035
:102740000D928A95E1F70E94AB0C2DB73EB72A5D3A
:102750003F4F0FB6F8943EBF0FBE2DBF8823A1F0A8
:10276000DF91CF911F910F91FF90EF90DF90CF906D
:10277000BF90AF909F908F907F906F905F904F90A1
:102780003F902F900C94300D20E030E046EA52E468
:10279000C701B6010E94B42587FF11C020E030E0D8
:1027A000A901C701B6010E94D627181644F4C092A9
:1027B0002104D0922204E0922304F092240420E029
:1027C00030E04CE352E4C501B4010E94B42587FF18
:1027D00012C020E030E040E051E4C501B4010E94A5
:1027E000D627181644F48092250490922604A092CD
:1027F0002704B0922804DF91CF911F910F91FF9091
:10280000EF90DF90CF90BF90AF909F908F907F9090
:102810006F905F904F903F902F9008954F925F92EE
:102820006F927F928F929F92AF92BF92CF92DF92E0
:10283000EF92FF920F931F93CF93DF930E94982DF7
:10284000BC01990F880B990B0E94682620E03EEF8F
:102850004FEF56E40E94BE2520E030E04EE952E4FE
:102860000E94E3270E9450280E9430266B017C01C1
:102870003B010E94982DBC01990F880B990B0E9477
:10288000682620E03EEF4FEF56E40E94BE2520E090
:1028900030E04CE052E40E94E3270E9450284601B9
:1028A00021E0C21AD1082EE4C216D10438F620E085
:1028B00030E040E051E40E94192520E030E040EA99
:1028C00050E40E9419250E9430262B015B016950BB
:1028D00071096232710508F0B1CFC0E0D0E0E12C9F
:1028E000F12C00E010E06E01C80CD91CB8016A0D93
:1028F0007B1DC6010E941B0B811106C00F5F1F4F7D
:102900000530110599F703C0EE24E394F12C2196CC
:10291000C530D10531F7EA94EF2809F48FCF7092D2
:102920002B0360922A0350922D0340922C038AE2DB
:1029300093E0DF91CF911F910F91FF90EF90DF9087
:10294000CF90BF90AF909F908F907F906F905F904F
:102950004F900895CF93C82F0E940E14FC01408120
:10296000518122813381C33421F5EEEBF4E080E024
:1029700090E060817181663F7F4FA9F4880F991FB5
:10298000880F991FFC01E254FB4F5183408333832E
:1029900022838091BC049091BD0401969093BD0464
:1029A0008093BC0410C0019634968530910509F7D8
:1029B0000AC0C43441F45093100440930F04309380
:1029C0001204209311040E9439050E9450280E948D
:1029D00030267093B9046093B804CF9108952F9274
:1029E0003F924F925F926F927F928F929F92AF929F
:1029F000BF92CF92DF92EF92FF920F931F93CF93EC
:102A0000DF93CDB7DEB764970FB6F894DEBF0FBE85
:102A1000CDBF8091250490912604A0912704B09108
:102A200028048F839887A987BA87BC01CD010E94AB
:102A300030267C836B834090210450902204609068
:102A4000230470902404C301B2010E9430261B01AC
:102A5000A0911104B0911204BC87AB87E0910F04E0
:102A6000F0911004FE87ED8720910D0430910E0443
:102A7000388B2F8780910B0490910C049A8B898B53
:102A8000AEEBB4E0BC8BAB8BE3EFF3E0FE83ED8306
:102A9000FA83E983AB89BC891296AD90BC901397F9
:102AA000CD90DC90812C912CEB80FC80810120E08A
:102AB00030E0A901CA01B9010E94E50B81117DC076
:102AC000E981FA81A280B380C080D18020E030E02B
:102AD000A901CA01B9010E94E50B81116EC0AB8446
:102AE000BC84CD84DE8420E030E0A901CA01B901B4
:102AF0000E94E50B811161C0AF84B888C988DA886B
:102B000020E030E0A901CA01B9010E94E50B811162
:102B100054C02B893C892C5F3F4F3C8B2B8B898188
:102B20009A8104969A838983225D344009F0B2CF5A
:102B30001A821982AD81BE818D919C910A9671F5A0
:102B4000C301B2010E945028E981FA81EE0FFF1FF4
:102B5000EE0FFF1FED50FC4FFA83E9830E943026F1
:102B6000A981BA816D937C936F81788589859A85D7
:102B70000E9450280E943026E981FA817383628383
:102B80008091470490914804019690934804809363
:102B900047041092BB041092BA040FC029813A81F5
:102BA0002F5F3F4F3A8329838D819E8104969E83B8
:102BB0008D832530310509F0BDCF0E9439050E9473
:102BC00050280E94302670930A046093090464968A
:102BD0000FB6F894DEBF0FBECDBFDF91CF911F912E
:102BE0000F91FF90EF90DF90CF90BF90AF909F90AC
:102BF0008F907F906F905F904F903F902F900895AF
:102C00002F923F924F925F926F927F928F929F92FC
:102C1000AF92BF92CF92DF92EF92FF920F931F93EA
:102C2000CF93DF93CDB7DEB72A970FB6F894DEBF08
:102C30000FBECDBF609125047091260480912704BA
:102C4000909128040E9430266D837E838F8398871D
:102C50008D819E819A8389836091210470912204E1
:102C600080912304909124040E9430262B013C0182
:102C70007C836B83EEEBF4E0FA87E98783EF282E01
:102C800083E0382EE985FA85A280B380C080D180A8
:102C9000812C912CE980FA800B811C8120E030E0AE
:102CA000A901CA01B9010E94E50B81112FC0F101F0
:102CB000A280B380C080D18020E030E0A901CA01A9
:102CC000B9010E94E50B811121C089859A8504967E
:102CD0009A87898794E0290E311CE985FA85E25D9F
:102CE000F44081F650920C0440920B048D819E8139
:102CF00090930E0480930D0481E090E0909308047B
:102D00008093070410927904109278040E94390588
:102D10000E9450280E943026709337036093360338
:102D20002A960FB6F894DEBF0FBECDBFDF91CF91CC
:102D30001F910F91FF90EF90DF90CF90BF90AF90D9
:102D40009F908F907F906F905F904F903F902F90CB
:102D50000895CF92DF92EF92FF920E9439050E9470
:102D600050280E9430266B017C018091450490918F
:102D70004604059749F480910F04909110040A9637
:102D800019F484E40E94AA148091BC049091BD04BB
:102D90008530910594F48091B8049091B90496011E
:102DA000281B390B2230310551F480912903811100
:102DB00006C083E40E94AA1410C0059721F08091F8
:102DC0002903882351F00E9439050E9450280E944F
:102DD00030267093B9046093B8048091BA0490913E
:102DE000BB04892BA9F48091470490914804853055
:102DF0009105BCF48091090490910A049601281B66
:102E0000390B2330310579F48091290381110BC0EE
:102E100081E090E09093BB048093BA040E94EF1489
:102E200010C0059721F080912903882351F00E945A
:102E300039050E9450280E94302670930A0460933E
:102E4000090480910A0190910B010297B1F58091DC
:102E5000780490917904892BA1F4809107049091D2
:102E600008040097D1F48091360390913703C81A73
:102E7000D90A35E0C316D10491F480912903811158
:102E80000EC081E090E09093790480937804FF90E5
:102E9000EF90DF90CF900C940016019721F0809175
:102EA0002903882351F00E9439050E9450280E946E
:102EB00030267093370360933603FF90EF90DF90D6
:102EC000CF9008954F925F926F927F928F929F92D0
:102ED000AF92BF92CF92DF92EF92FF92CF93DF93A8
:102EE000CDB7DEB72E970FB6F894DEBF0FBECDBFBD
:102EF0009E878D87DC0118968D919D910D90BC91D8
:102F0000A02D89839A83AB83BC83AD85BE858D91CB
:102F10009D910D90BC91A02D8D839E83AF83B8872A
:102F20009C01AD0169817A818B819C810E94182569
:102F30004B015C01ED85FE8544845584668477846D
:102F400084819581A681B78189879A87AB87BC8761
:102F50009C01AD01C301B2010E9418256B017C01E7
:102F600020E030E040E051E469857A858B859C85DE
:102F70000E94B42587FF5CC020E030E040E051E4CF
:102F8000C301B2010E94B42587FF52C020E030E0A7
:102F9000A901C701B6010E94B4258823D9F120E018
:102FA00030E0A901C701B6010E94D62718164CF0DF
:102FB000A701960160E070E080E492E40E94182589
:102FC00004C060E070E080E492E4ED85FE856483F7
:102FD00075838683978320E030E0A901C701B6019D
:102FE0000E94D62718164CF420E030E040E452E46A
:102FF000C701B6010E94192504C060E070E080E4BA
:1030000092E4AD85BE851C966D937D938D939C93C4
:103010001F970EC080E090E0A0E4B2E4ED85FE854D
:1030200084839583A683B78384879587A687B7878C
:1030300020E030E040E452E4AD85BE8514966D9109
:103040007D918D919C9117970E94D62718160CF0B0
:1030500061C020E030E040E452E4ED85FE85648507
:103060007585868597850E94D62718160CF052C064
:1030700020E030E0A901C701B6010E94B4258823F1
:10308000D9F120E030E0A901C701B6010E94D6279E
:1030900018164CF4A701960160E070E080E091E41E
:1030A0000E94182504C060E070E080E091E4AD85E6
:1030B000BE8514966D937D938D939C93179720E016
:1030C00030E0A901C701B6010E94D62718164CF0BE
:1030D00020E030E040E051E4C701B6010E9419252C
:1030E00004C060E070E080E091E4ED85FE856487D7
:1030F0007587868797870EC080E090E0A0E0B1E4F6
:10310000ED85FE8584839583A683B7838487958721
:10311000A687B78720E030E048EA52E46D817E81DF
:103120008F8198850E94D62718160CF041C020E0A8
:1031300030E048EA52E469817A818B819C810E9467
:10314000D6271816ACF520E030E0A901C501B4017E
:103150000E94D627181644F4A501940160E070E09F
:10316000CB010E94182503C060E070E0CB01AD8563
:10317000BE856D937D938D939C93139720E030E0F3
:10318000A901C501B4010E94D627181644F020E019
:1031900030E0A901C501B4010E94192503C060E017
:1031A00070E0CB01ED85FE8560877187828793870C
:1031B00020E030E0A901AD85BE856D917D918D91B6
:1031C0009C910E94B42587FF46C020E030E0A90111
:1031D000ED85FE8560857185828593850E94B42585
:1031E00087FF39C020E030E0A901C501B4010E9489
:1031F000D62718164CF0A501940160E070E088EA2B
:1032000092E40E94182504C060E070E088EA92E42D
:10321000AD85BE856D937D938D939C93139720E030
:1032200030E0A901C501B4010E94D62718164CF45C
:1032300020E030E048EA52E4C501B4010E941925BB
:1032400004C060E070E088EA92E4ED85FE85608766
:103250007187828793872E960FB6F894DEBF0FBED4
:10326000CDBFDF91CF91FF90EF90DF90CF90BF90D7
:10327000AF909F908F907F906F905F904F90089548
:103280002F923F924F925F926F927F928F929F9276
:10329000AF92BF92CF92DF92EF92FF920F931F9364
:1032A000CF93DF93CDB7DEB766970FB6F894DEBF46
:1032B0000FBECDBF2DEC3CEC4CE45DE36091020110
:1032C0007091030180910401909105010E94E32710
:1032D0001B018F87988B8CE0E1EDF1E0DE01119608
:1032E00001900D928A95E1F79E012F5F3F4F3A8B37
:1032F000298BCE010D969E878D87A989BA890D915C
:103300001D91BA8BA98B20E030E0A901F801608102
:103310007181828193810E94B425882309F4D7C0EA
:1033200020E030E0A901D80118966D917D918D9132
:103330009C911B970E94B425882309F4C8C020E003
:1033400030E0A901F80164817581868197810E942E
:10335000B425882309F4BBC020E030E0A901D801DE
:103360001C966D917D918D919C911F970E94B42523
:10337000882309F4ACC0C8010E946217D8011C96CA
:103380008D919D910D90BC91A02D8B8B9C8BAD8BC5
:10339000BE8BF801C480D580E680F780A701960136
:1033A000BC01CD010E9418254B015C0120E030E0FA
:1033B000A9010E94B425882309F442C0D8012D91A7
:1033C0003D914D915C91139718966D917D918D91E2
:1033D0009C911B970E9418252B013C0120E030E0B6
:1033E000A9010E94B425882399F1A3019201C50186
:1033F000B4010E94BE250E9485259B01AC016BEDA6
:103400007FE089E490E40E9418252B013C010E9492
:10341000B9259B01AC01B1018F8598890E94E327F2
:103420004B015C01C301B2010E9474289B01AC01F5
:10343000B1018F8598890E94E3272B013C010FC0C1
:1034400021016F847888812C912CA12CB12C07C08C
:103450004101AF84B888412C512C612C712C94010E
:10346000A501F80160817181828193810E941925F3
:10347000D8016D937D938D939C9313979401A5012F
:1034800018966D917D918D919C911B970E941925A5
:10349000F8016087718782879387A7019601B2013F
:1034A000C3010E941925D80114966D937D938D93C5
:1034B0009C9317972B893C894D895E89B201C30182
:1034C0000E941925F801648775878687978729895F
:1034D0003A898D859E852817390709F00ECF6696A3
:1034E0000FB6F894DEBF0FBECDBFDF91CF911F9115
:1034F0000F91FF90EF90DF90CF90BF90AF909F9093
:103500008F907F906F905F904F903F902F90089595
:103510004F925F926F927F928F929F92AF92BF92E3
:10352000CF92DF92EF92FF920F931F93CF93DF938F
:1035300000E010E0C0E0D0E06801012E000CEE08D1
:10354000FF0880916404909165044E010D2E000CDB
:10355000AA08BB08892B51F5C501B4010E94682651
:1035600020918C0430918D0440918E0450918F04F1
:103570000E9419250E9430262B013C01C701B6018B
:103580000E946826209188043091890440918A0421
:1035900050918B040E9419250E943026DC01CB013A
:1035A000B2010E941B0B81110E947B0DC501B40169
:1035B0000E9468262091250430912604409127041A
:1035C000509128040E9419250E9430264B015C016D
:1035D000C701B6010E94682620912104309122047F
:1035E00040912304509124040E9419250E94302602
:1035F000DC01CB01B4010E941B0B81110E948E0DD6
:103600002196C530D10509F09CCF0F5F1F4F0530C3
:10361000110509F08FCFDF91CF911F910F91FF908E
:10362000EF90DF90CF90BF90AF909F908F907F9062
:103630006F905F904F9008950F931F93CF93DF93F8
:1036400080E00E94ED2C8C0181E00E94ED2CEC01C9
:10365000B80180E090E00E94662620E030E040E87B
:103660005AE30E94E3279B01AC010E941925609355
:103670000601709307018093080190930901BE0130
:1036800080E090E00E9466269B01AC0160E070E063
:1036900080E094E40E94182520E030E040E05BE305
:1036A0000E94E3279B01AC010E941925609302014F
:1036B000709303018093040190930501DF91CF91F2
:1036C0001F910F910895809101018F3018F0109291
:1036D000000107C080910101823018F481E08093DD
:1036E000000180910001813021F4809101018F5F00
:1036F00003C0809101018150809301010895909150
:10370000290381E0892780932903882399F00E9467
:10371000390560934104709342048093430490936D
:1037200044041092590410925A0410925B041092AF
:103730005C0408950E9439056093590470935A04FB
:1037400080935B0490935C04209141043091420487
:1037500040914304509144040E9418259B01AC0100
:103760006091EF037091F0038091F1039091F20367
:103770000E9419256093EF037093F0038093F10387
:103780009093F20308951F920F920FB60F92112497
:10379000CF92DF92EF92FF922F933F934F935F93DD
:1037A0006F937F938F939F93AF93BF93EF93FF9309
:1037B000CF93DF93CDB7DEB72E97DEBFCDBF8FB1EE
:1037C00088878FB1898783B18A8783B18B8789B1D5
:1037D0008C8789B18D8783B18E8787E0EDEDF1E02D
:1037E000DE01119601900D928A95E1F7BE01685FA6
:1037F0007F4F9E012F5F3F4F790120E030E051E085
:10380000F901E35AFB4F8081880F808380818F709C
:1038100080834081DB019D91BD01892F90E0D7011C
:103820000D9002C0959587950A94E2F77D0181700D
:10383000842B808380818F3029F4F901E851FC4F7B
:10384000508307C08081811104C0F901E851FC4F09
:1038500010822F5F3F4F2730310591F60E940229D9
:103860008337910509F055C0C0908C04D0908D0429
:10387000E0908E04F0908F0420E030E040EA50E4C5
:10388000C701B6010E94192520E030E040E85FE35F
:103890000E94192520E030E040E452E40E94B42563
:1038A00087FF12C18FE38F9380E88F931F921F923F
:1038B0001F921F921F921F922DB73EB72E513109B2
:1038C0000FB6F8943EBF0FBE2DBFADB7BEB7119671
:1038D0008EE1EAE7F4E001900D928A95E1F70E940B
:1038E000AB0C0FB6F894DEBF0FBECDBF8111ECC09C
:1038F00020E030E040E85FE3C701B6010E941925EF
:1039000060938C0470938D0480938E0490938F0445
:10391000DBC081369105F1F420E030E040E85FE360
:10392000609188047091890480918A0490918B043D
:103930000E9418256B017C0120E030E0A9010E9463
:10394000D62718160CF0C0C01F921F921F921F920C
:103950008FEB73C08737910509F048C020E030E055
:1039600040E85FE360918C0470918D0480918E0437
:1039700090918F040E9418256B017C0120E030E0BB
:1039800040E051E40E94D62718160CF09DC08FEB42
:103990008F9380E88F931F921F921F921F921F9206
:1039A0001F922DB73EB72E5131090FB6F8943EBF86
:1039B0000FBE2DBFADB7BEB711968EE1EAE7F4E0BA
:1039C00001900D928A95E1F70E94AB0C0FB6F89426
:1039D000DEBF0FBECDBF811177C0C0928C04D092E4
:1039E0008D04E0928E04F0928F046EC084369105AF
:1039F00009F04DC020E030E040E85FE360918804CA
:103A00007091890480918A0490918B040E941925F9
:103A10006B017C0120E030E040EA50E40E9419256F
:103A200020E030E048EA52E40E94B42587FF4CC011
:103A30001F921F921F921F928FE38F9380E88F93A4
:103A40001F921F922DB73EB72E5131090FB6F89431
:103A50003EBF0FBE2DBFADB7BEB711968EE1EAE7F0
:103A6000F4E001900D928A95E1F70E94AB0C0FB63D
:103A7000F894DEBF0FBECDBF811126C0C09288046E
:103A8000D0928904E0928A04F0928B041DC089369A
:103A9000910519F40E94E70317C08037910519F4C6
:103AA0000E947F1B11C08C36910549F482E090E0A2
:103AB00090930B0180930A010E946D0505C0863624
:103AC000910511F40E9424122E960FB6F894DEBFD1
:103AD0000FBECDBFDF91CF91FF91EF91BF91AF911D
:103AE0009F918F917F916F915F914F913F912F9116
:103AF000FF90EF90DF90CF900F900FBE0F901F9030
:103B000018954F925F926F927F928F929F92AF9291
:103B1000BF92CF92DF92EF92FF920F931F93CF93BA
:103B200080917A0490917B04892B19F481E0809331
:103B3000280380917C0490917D04039761F4809127
:103B40007E0490917F04892B31F484E190E090937E
:103B50007F0480937E04C0900F04D090100486EF01
:103B6000C8168FEFD80639F1A0901104B090120456
:103B700060918C0470918D0480918E0490918F04DB
:103B80000E9430262B013C016091880470918904C9
:103B900080918A0490918B040E943026812C912C74
:103BA00072018B0120E030E0A901CA01B9010E9435
:103BB000E50B81110AC08091E9038130C1F4809145
:103BC0000A0190910B01019791F480910A01909163
:103BD0000B01019749F482E090E090930B018093F0
:103BE0000A010E946D0503C081E080932803609163
:103BF000660470916704072E000C880B990B0E94D5
:103C000068269B01AC01609132037091330380916F
:103C10003403909135030E94182520E030E040E203
:103C200051E40E94D62787FD04C0109265041092CB
:103C300064048091EA03813049F4209106013091B7
:103C4000070140910801509109011FC08091EB03C9
:103C5000813061F48091060190910701A0910801E3
:103C6000B0910901BC01CD0190581FC08091EC03B7
:103C7000813079F48091060190910701A0910801AB
:103C8000B09109019C01AD01505860E070E0CB019A
:103C900022C08091ED03813061F460910601709142
:103CA0000701809108019091090120E030E0A9010D
:103CB00012C080917E0490917F041816190634F486
:103CC0008091EE03813011F40E94241220E030E054
:103CD000A901CA01B9010E94A10D0E942A0FC09139
:103CE000E803C13099F48091270381110FC00E942D
:103CF000390520E030E040E050E40E94D627181655
:103D00002CF40E947F1BC093270309C08091E80315
:103D1000811105C080912703811110922703CF9153
:103D20001F910F91FF90EF90DF90CF90BF90AF90D9
:103D30009F908F907F906F905F904F9008950E941A
:103D4000061F80912803811141C00E941C1B809195
:103D5000640490916504892B21F00E94A90A0E94B5
:103D6000631B80912903811102C00E9440190E94A7
:103D7000FE0880912903811102C00E94881A809157
:103D80002903811118C00E9439052091EF03309159
:103D9000F0034091F1035091F2030E9418256093C3
:103DA00032037093330380933403909335030E945E
:103DB0006D120E947F110E940F0B0E94811D0E94B4
:103DC0006D0A0E94A3090E94A91602C00E94F5066E
:103DD0000E94F31E86B590E00C949D2D0E942F0743
:103DE0000E949F1EFDCFCF93DF9360E080E00E9492
:103DF0008F21C2EDD4E0699181E00E94342186E0F8
:103E0000CA3CD807C1F7DF91CF910895E2EDF4E005
:103E1000119286E0EA3CF807D9F7089584359105B8
:103E2000A8F56033710590F59B0173E035952795F2
:103E30007A95E1F76770452BA1F044E5429FF001C8
:103E4000439FF00D11248E0F9F1FFC01EE52FB4F7C
:103E500081E090E001C0880F6A95EAF79081892B94
:103E600014C044E5429FF001439FF00D11248E0FD2
:103E70009F1FFC01EE52FB4F81E090E001C0880FD4
:103E80006A95EAF7809590818923808308952F921F
:103E90003F924F925F926F927F928F929F92AF92DA
:103EA000BF92CF92DF92EF92FF920F931F93CF9327
:103EB000DF93CDB7DEB72E970FB6F894DEBF0FBEF7
:103EC000CDBF1C013B012A013A8329838417950742
:103ED00071F57C836B8329813A81621673069CF4A9
:103EE0008B819C81281739070CF41AC1A8016B81BA
:103EF0007C81C1010E940E1F2B813C812F5F3F4FAF
:103F00003C832B83E8CFAB81BC8129813A81A21706
:103F1000B3070CF405C1A8016B817C81C1010E942B
:103F20000E1F8B819C8101979C838B83D4CF8981C9
:103F30009A816817790751F53A8229822414350449
:103F40009CF4A981BA814A165B060CF4E9C0A80169
:103F5000B30189819A810E940E1F29813A812F5FC6
:103F60003F4F3A832983EACF29813A8124153505C9
:103F70000CF4D6C0A801B30189819A810E940E1F5A
:103F8000A981BA811197BA83A983D8CF4215530565
:103F900054F4872D69807A8069838A83922D832DDA
:103FA0001A01492E582EB20162197309072E000C0E
:103FB000880B990B0E9468266F83788789879A8778
:103FC00069817A8166197709072E000C880B990B95
:103FD0000E9468264B015C012F81388549855A85EE
:103FE0000E94BE256B837C838D839E8320E030E01E
:103FF000A9010E94D62787FF09C08B819C81AD81D2
:10400000BE81B0588B839C83AD83BE83C12CD12CE1
:10401000760120E030E0A9016F81788589859A8555
:104020000E94D62718160CF077C0421453040CF4E3
:1040300077C0A801B301C1010E940E1F2B813C81F2
:104040004D815E81C701B6010E9419256B017C017B
:1040500020E030E040E05FE30E94D62787FF10C0F9
:1040600020E030E0A9016F81788589859A850E94DA
:10407000D62718160CF04CC09FEF291A390AC9CF61
:1040800020E030E0A901C501B4010E94D62718162E
:10409000CCF529813A812615370514F3A801B3011F
:1040A000C1010E940E1FA1E0B0E0BC87AB8720E0F9
:1040B00030E0A901C501B4010E94D627181614F0FA
:1040C0001C861B8621E030E03E872D8720E030E013
:1040D000A901C501B4010E94B42587FD02C01E8656
:1040E0001D868B859C85AD85BE858A1B9B0B680EC6
:1040F000791E20E030E040E85FE3C701B6010E948E
:104100001825A4CF89819A81681679063CF6A8CF34
:10411000A1E02A1A31087DCF241435040CF089CF90
:104120002E960FB6F894DEBF0FBECDBFDF91CF91B4
:104130001F910F91FF90EF90DF90CF90BF90AF90C5
:104140009F908F907F906F905F904F903F902F90B7
:1041500008952F923F924F925F926F927F928F922B
:104160009F92AF92BF92CF92DF92EF92FF920F9306
:104170001F93CF93DF936C014B01190185E0489F9A
:1041800020011124E12CF12C80EA481A5108662400
:104190006394712CF201EE0DFF1DE458FD4FE49184
:1041A0002114310409F4E09500E010E0CE2FD0E0B6
:1041B0005601AE0CBF1CA301002E02C0440F551FB8
:1041C0000A94E2F74C235D23002E02C055954795D3
:1041D0000A94E2F7B401600F711FC5010E940E1F1F
:1041E0000F5F1F4F0830110531F78FEFE81AF80AFB
:1041F00085E0E816F10471F6DF91CF911F910F91E0
:10420000FF90EF90DF90CF90BF90AF909F908F90F6
:104210007F906F905F904F903F902F900895CF9236
:10422000DF92EF92FF920F931F93CF93DF937B0167
:104230008A016901D82FC0E0F801EC0FF11D40811F
:10424000442349F09601B7018D2F90E00E94A920E8
:10425000DB5FCF5FF1CFDF91CF911F910F91FF9087
:10426000EF90DF90CF90089525B12F7D30E2839FAE
:10427000C0011124822B85B95F9887E090E070E03F
:104280008F989B01082E02C0359527950A94E2F776
:1042900020FF02C02E9A01C02E988F9A019780F7B6
:1042A0005F9A0895CF93C82F579A249A259A269AF1
:1042B000879A2C985F9A2C9A61E280E00E943421C0
:1042C0006C2F606880E00E94342164E080E00E94EE
:1042D000342163E180E00E9434216CE080E00E94A0
:1042E000342160E280E00E9434216CE080E00E9492
:1042F000342160E480E00E94342160E880E0CF91C6
:104300000C943421CF93DF93C8EFD1E060E081E0DB
:104310000E9434212197D1F7DF91CF910895CF9357
:10432000C82F606480E00E9434216C2F606880E0B8
:10433000CF910C943421A0E1B0E0E1EAF1E20C94D9
:10434000152D7C011B016A01FC01178216828381F5
:1043500081FF44C39E012F5F3F4F3901F7019381D5
:10436000F10193FD859193FF81911F01882309F449
:1043700031C3853239F493FD859193FF81911F01FB
:10438000853239F4B70190E00E94962E56016501FE
:10439000E5CF10E0512C912CFFE1F915D8F08B32CC
:1043A00079F038F4803279F08332A1F4F92DF0619C
:1043B0002EC08D3261F0803369F4292D21602DC02B
:1043C000392D3260932E892D8460982E2AC0E92DD4
:1043D000E86015C097FC2DC020ED280F2A3088F426
:1043E00096FE06C03AE0139F200D1124122F19C02B
:1043F0008AE0589E200D1124522EE92DE0629E2E57
:1044000010C08E3231F496FCE5C2F92DF0649F2E77
:1044100008C08C3621F4292D2068922E02C08836DF
:1044200041F4F10193FD859193FF81911F01811169
:10443000B3CF9BEB980F933020F4992D9061805E61
:1044400007C09BE9980F933008F066C1992D9F7EB5
:1044500096FF16E09F73992E853619F49064992E75
:1044600008C0863621F4392F3068932E02C011110E
:10447000115097FE07C01C3350F444244394410E5E
:1044800027E00BC0183038F027E017E005C027E020
:104490009CE3492E02C0212F412C560184E0A80E36
:1044A000B11CF6016081718182819381042DA30189
:1044B0000E94A82D6C01F981FC87F0FF02C0F3FF78
:1044C00006C091FC06C092FE06C000E205C00DE2E7
:1044D00003C00BE201C000E08C858C7019F0011163
:1044E0005AC29BC297FE10C04C0CFC85F4FF04C05E
:1044F0008A81813309F44A94141474F528E0241550
:1045000078F588E0482E2CC096FC2AC0812F90E0D8
:104510008C159D059CF03CEFC3163FEFD30674F05D
:10452000892D8068982E0AC0E2E0F0E0EC0FFD1FB4
:10453000E10FF11D8081803319F411501111F4CF76
:1045400097FE0EC044244394410E812F90E0C8167C
:10455000D9062CF41C1904C04424439401C010E073
:1045600097FE06C01C141D0434F4C601019605C054
:1045700085E090E002C081E090E0011101961123F6
:1045800031F0212F30E02F5F3F4F820F931F252DF9
:1045900030E08217930714F4581A01C0512C892D6A
:1045A000897049F4552039F0B70180E290E00E940B
:1045B000962E5A94F7CF002329F0B701802F90E070
:1045C0000E94962E93FC09C0552039F0B70180E374
:1045D00090E00E94962E5A94F7CF97FE4CC0460169
:1045E000D7FE02C0812C912CC60188199909F301CC
:1045F000E80FF91FFE87ED87960124193109388BE2
:104600002F87012F10E01195019511093FEF8316B7
:10461000930629F4B7018EE290E00E94962EC8140A
:10462000D9044CF08F8598898815990524F4ED8577
:10463000FE85818101C080E3F1E08F1A91082D850C
:104640003E852F5F3F4F3E872D87801691062CF0C9
:10465000B70190E00E94962ED9CFC814D90441F436
:104660009A81963320F4953319F43C8534FF81E325
:10467000B70190E04EC08A81813319F09C859F7EFE
:104680009C87B70190E00E94962E111105C094FC02
:1046900018C085E690E017C0B7018EE290E00E9456
:1046A000962E1E5F82E001E0080FF301E80FF11D76
:1046B0008081B70190E00E94962E802F0113F3CFE6
:1046C000E6CF85E490E0B7010E94962ED7FC06C0A5
:1046D000C114D10441F4EC85E4FF05C0D194C19428
:1046E000D1088DE201C08BE2B70190E00E94962EC6
:1046F00080E32AE0C216D1042CF08F5FFAE0CF1AD3
:10470000D108F7CFB70190E00E94962EB701C601FD
:10471000C0960E94962E54C1833631F0833779F0CB
:10472000833509F056C020C0560132E0A30EB11CFB
:10473000F6018081898301E010E0630112C0560117
:10474000F2E0AF0EB11CF601C080D18096FE03C02E
:10475000612F70E002C06FEF7FEFC6010E948B2EC9
:104760008C01F92DFF7714C0560122E0A20EB11C76
:10477000F601C080D18096FE03C0612F70E002C0B8
:104780006FEF7FEFC6010E94802E8C01F92DF0683B
:104790009F2EF3FD1AC0852D90E008171907A8F485
:1047A000B70180E290E00E94962E5A94F4CFF60171
:1047B00097FC859197FE81916F01B70190E00E946F
:1047C000962E51105A94015011090115110579F7CF
:1047D000F7C0843611F0893661F5560197FE09C09D
:1047E00024E0A20EB11CF601608171818281938167
:1047F0000AC0F2E0AF0EB11CF60160817181072E94
:10480000000C880B990BF92DFF769F2E97FF09C09E
:1048100090958095709561957F4F8F4F9F4FF06871
:104820009F2E2AE030E0A3010E94202FC82EC61838
:104830003FC0092D853721F40F7E2AE030E01DC0EE
:10484000097F8F3691F018F4883559F0C3C080374E
:1048500019F0883711F0BEC0006104FF09C0046080
:1048600007C094FE08C0066006C028E030E005C01E
:1048700020E130E002C020E132E0560107FF09C02C
:1048800084E0A80EB11CF601608171818281938160
:1048900008C0F2E0AF0EB11CF6016081718180E0CA
:1048A00090E0A3010E94202FC82EC6180F77902EEB
:1048B00096FE0BC0092D0E7FC11650F494FE0AC05F
:1048C00092FC08C0092D0E7E05C0DC2C092D03C00A
:1048D000DC2C01C0D12E04FF0DC0FE01EC0DF11D3A
:1048E0008081803311F4097E09C002FF06C0D39491
:1048F000D39404C0802F867809F0D39403FD11C0AF
:1049000000FF06C01C2DD51480F4150D1D190DC017
:10491000D51458F4B70180E290E00E94962ED3940B
:10492000F7CFD51410F45D1801C0512C04FF10C04E
:10493000B70180E390E00E94962E02FF17C001FDB0
:1049400003C088E790E002C088E590E0B7010CC0A2
:10495000802F867859F001FF02C08BE201C080E20F
:1049600007FD8DE2B70190E00E94962EC11638F443
:10497000B70180E390E00E94962E1150F7CFCA94C1
:10498000F301EC0DF11D8081B70190E00E94962E9D
:10499000C110F5CF15C0F4E0F51560F584E0581AA4
:1049A00093FE1FC0011127C02C8523FF2AC00AE7F0
:1049B00011E0392D3071932EF8018491811124C0BA
:1049C000552009F4E4CCB70180E290E00E94962ED5
:1049D0005A94F6CFF7018681978126C08FEF9FEF1B
:1049E00023C0B70180E290E00E94962E5A945110A5
:1049F000F8CFD8CF512CB701802F90E00E94962E8F
:104A0000D3CF0EE711E0D5CF91108052B70190E0DF
:104A10000E94962E0F5F1F4FCFCF23E0251510F475
:104A200083E0BDCF512CC0CF6096E2E10C94312DD4
:104A30005058BB27AA270E9430250C9470270E944B
:104A4000372738F00E943E2720F039F49F3F19F4B1
:104A500026F40C940D270EF4E095E7FB0C94DE266B
:104A6000E92F0E94952758F3BA1762077307840746
:104A7000950720F079F4A6F50C94CF270EF4E09575
:104A80000B2EBA2FA02D0B01B90190010C01CA0108
:104A9000A0011124FF27591B99F0593F50F4503EB3
:104AA00068F11A16F040A22F232F342F4427585FA5
:104AB000F3CF469537952795A795F0405395C9F7BD
:104AC0007EF41F16BA0B620B730B840BBAF0915075
:104AD000A1F0FF0FBB1F661F771F881FC2F70EC014
:104AE000BA0F621F731F841F48F4879577956795E7
:104AF000B795F7959E3F08F0B0CF9395880F08F0D3
:104B00009927EE0F979587950895DF93DD27B92FA5
:104B1000BF7740E85FE31616170648075B0718F4EF
:104B2000D92F0E94DB279F938F937F936F930E94CF
:104B3000C228ECEAF0E00E9410270E9470272F9113
:104B40003F914F915F910E94F627DD2351F09058DD
:104B5000A2EA2AED3FE049EC5FE3D0785D270E94AE
:104B60003025DF910C9470270E94BA2608F481E06A
:104B700008950E944727E3950C9481270E94D2252F
:104B80000C9470270E943E2758F00E94372740F06F
:104B900029F45F3F29F00C94DE2651110C94D027A4
:104BA0000C940D270E94952768F39923B1F35523A0
:104BB00091F3951B550BBB27AA2762177307840730
:104BC00038F09F5F5F4F220F331F441FAA1FA9F3C6
:104BD00035D00E2E3AF0E0E832D091505040E695B4
:104BE000001CCAF72BD0FE2F29D0660F771F881F15
:104BF000BB1F261737074807AB07B0E809F0BB0B08
:104C0000802DBF01FF2793585F4F3AF09E3F51051B
:104C100078F00C94DE260C94D0275F3FE4F3983EA6
:104C2000D4F3869577956795B795F7959F5FC9F704
:104C3000880F911D9695879597F90895E1E0660F85
:104C4000771F881FBB1F621773078407BA0720F0FE
:104C5000621B730B840BBA0BEE1F88F7E095089567
:104C60000E9437266894B1110C94D02708950E94B1
:104C70009D2788F09F5798F0B92F9927B751B0F02A
:104C8000E1F0660F771F881F991F1AF0BA95C9F7D0
:104C900014C0B13091F00E94CF27B1E008950C9478
:104CA000CF27672F782F8827B85F39F0B93FCCF32B
:104CB000869577956795B395D9F73EF4909580954D
:104CC000709561957F4F8F4F9F4F0895E89409C06D
:104CD00097FB3EF490958095709561957F4F8F4F2F
:104CE0009F4F9923A9F0F92F96E9BB279395F69545
:104CF000879577956795B795F111F8CFFAF4BB0FC3
:104D000011F460FF1BC06F5F7F4F8F4F9F4F16C026
:104D1000882311F096E911C0772321F09EE8872FB0
:104D2000762F05C0662371F096E8862F70E060E06C
:104D30002AF09A95660F771F881FDAF7880F9695E5
:104D4000879597F908950E94B72790F09F3748F408
:104D5000911116F00C94D02760E070E080E89FEB92
:104D6000089526F41B16611D711D811D0C94E42607
:104D70000C94FF26990F0008550FAA0BE0E8FEEFF0
:104D800016161706E807F907C0F012161306E4070F
:104D9000F50798F0621B730B840B950B39F40A2608
:104DA00061F0232B242B252B21F408950A2609F4E6
:104DB000A140A6958FEF811D811D089597F99F67EA
:104DC00080E870E060E00895882371F4772321F093
:104DD0009850872B762F07C0662311F499270DC0B2
:104DE0009051862B70E060E02AF09A95660F771F4D
:104DF000881FDAF7880F9695879597F908959F3F52
:104E000031F0915020F4879577956795B795880F85
:104E1000911D9695879597F908959FEF80EC0895D9
:104E2000DF93CF931F930F93FF92EF92DF927B015B
:104E30008C01689406C0DA2EEF010E94F627FE016D
:104E4000E894A5912591359145915591A6F3EF01EF
:104E50000E943025FE019701A801DA9469F7DF90DE
:104E6000EF90FF900F911F91CF91DF910895002453
:104E70000A941616170618060906089500240A94BF
:104E8000121613061406050608950C940D270E94A9
:104E90009D27D8F3E894E0E0BB279F57F0F02AED78
:104EA0003FE049EC06C0EE0FBB0F661F771F881F5F
:104EB00028F0B23A62077307840728F0B25A620BEF
:104EC000730B840BE3959A9572F7803830F49A95BA
:104ED000BB0F661F771F881FD2F790480C940127DD
:104EE000092E0394000C11F4882352F0BB0F40F4F8
:104EF000BF2B11F460FF04C06F5F7F4F8F4F9F4F38
:104F00000895EF93E0FF07C0A2EA2AED3FE049ECE5
:104F10005FEB0E9430250E9470270F90039401FCE4
:104F20009058E9EDF0E00C94CD2857FD9058440FCF
:104F3000551F59F05F3F71F04795880F97FB991FF8
:104F400061F09F3F79F087950895121613061406B5
:104F5000551FF2CF4695F1DF08C016161706180642
:104F6000991FF1CF869571056105089408950E94F7
:104F70009D27A0F0BEE7B91788F4BB279F3860F4DF
:104F80001616B11D672F782F8827985FF7CF869563
:104F900077956795B11D93959639C8F30895E89470
:104FA000BB2766277727CB0197F908950E94BA2679
:104FB00008F48FEF08959B01AC0160E070E080E899
:104FC0009FE30C94BE250E94F6270C9470270E9444
:104FD000372738F00E943E2720F0952311F00C94DB
:104FE000DE260C940D2711240C94D0270E949527BF
:104FF00070F3959FC1F3950F50E0551F629FF0012C
:10500000729FBB27F00DB11D639FAA27F00DB11D44
:10501000AA1F649F6627B00DA11D661F829F2227CD
:10502000B00DA11D621F739FB00DA11D621F839F54
:10503000A00D611D221F749F3327A00D611D231F2A
:10504000849F600D211D822F762F6A2F11249F5778
:1050500050409AF0F1F088234AF0EE0FFF1FBB1F7B
:10506000661F771F881F91505040A9F79E3F51053A
:1050700080F00C94DE260C94D0275F3FE4F3983E3A
:10508000D4F3869577956795B795F795E7959F5FE4
:10509000C1F7FE2B880F911D9695879597F9089576
:1050A0000E949D27E8F09E37E8F09639B8F49E38C4
:1050B00048F4672F782F8827985FF9CF86957795E2
:1050C000679593959539D0F3B62FB1706B0F711D1D
:1050D000811D20F487957795679593950C94E42628
:1050E0000C94FF260C94D0279F930E9447270F9083
:1050F00007FCEE5F0C94812719F416F40C940D272D
:105100000C94FF260E949D27B8F39923C9F3B6F3A8
:105110009F57550B87FF0E94C6280024A0E640EA4F
:10512000900180585695979528F4805C660F771FFC
:10513000881F20F026173707480730F4621B730BCF
:10514000840B202931294A2BA695179407942025F2
:1051500031254A2758F7660F771F881F20F026173A
:105160003707480730F4620B730B840B200D311D99
:10517000411DA09581F7B901842F9158880F96950C
:10518000879508959B01AC010C94E3279150504002
:10519000660F771F881FD2F708959F938F937F9391
:1051A0006F93FF93EF939B01AC010E94E327EF9174
:1051B000FF910E9410272F913F914F915F910C9486
:1051C000E3278091E80080FFFCCF089581E0809381
:1051D000D70080EA8093D80082E189BD09B400FE3F
:1051E000FDCF80E98093D8001092E0001092310347
:1051F00010922E038CE08093E200789408958091C1
:10520000310308959FB7F89480913103882369F0A2
:1052100083E08093E9002BE68091E80085FD09C0DA
:1052200082FF03C02093E800F7CF9FBF8FEF9FEF6F
:1052300008958091F1002091E80025FD03C02BE640
:105240002093E8009FBF90E008952FB7F8948091D5
:105250003103811102C080E010C083E08093E90037
:105260008091F200811109C09091E80092FFF3CF84
:1052700095FDF1CF9BE69093E8002FBF08958091B4
:105280003103882371F08FB7F89493E09093E9008D
:105290002BE69091E80095FF03C02093E800F9CF3A
:1052A0008FBF089590913103992371F09FB7F894BF
:1052B00024E02093E90020912F03222349F020913C
:1052C000E80025FD03C09FBF8FEF089510922F03C4
:1052D0002091E400275E34E04091E80045FD12C0D3
:1052E0009FBF9091E400291304C081E080932F03B5
:1052F000EBCF90913103992339F39FB7F894309312
:10530000E900EACF8093F1008091E80085FD03C0B9
:105310008AE38093E80085E0809330039FBF80E0BC
:105320000895909131039923D1F09FB7F89424E028
:105330002093E9002091E80025FD02C09FBF0FC027
:105340008093F1008091E80085FD03C08AE380939B
:10535000E80085E0809330039FBF80E008958FEFE1
:1053600008950F931F93CF93DF93DC01CB0120911E
:105370003103222371F02FB7F89434E03093E90021
:1053800030912F03332349F03091E80035FD03C0FD
:105390002FBF8FEF43C110922F03C4E0D0E41AE374
:1053A00005E0009709F439C13091E400375E40917F
:1053B000E80045FD12C02FBF2091E400321304C065
:1053C00081E080932F03E5CF20913103222309F35D
:1053D0002FB7F894C093E900EACF3091F200ED2F97
:1053E000E31B4E2F50E08417950708F4E82F8E1B1F
:1053F00091094E2F50E04134510508F001C1FA01E6
:10540000E458FF4F0C940F2D3C913093F10011960E
:105410003C913093F10011963C913093F10011963C
:105420003C913093F10011963C913093F10011962C
:105430003C913093F10011963C913093F10011961C
:105440003C913093F10011963C913093F10011960C
:105450003C913093F10011963C913093F1001196FC
:105460003C913093F10011963C913093F1001196EC
:105470003C913093F10011963C913093F1001196DC
:105480003C913093F10011963C913093F1001196CC
:105490003C913093F10011963C913093F1001196BC
:1054A0003C913093F10011963C913093F1001196AC
:1054B0003C913093F10011963C913093F10011969C
:1054C0003C913093F10011963C913093F10011968C
:1054D0003C913093F10011963C913093F10011967C
:1054E0003C913093F10011963C913093F10011966C
:1054F0003C913093F10011963C913093F10011965C
:105500003C913093F10011963C913093F10011964B
:105510003C913093F10011963C913093F10011963B
:105520003C913093F10011963C913093F10011962B
:105530003C913093F10011963C913093F10011961B
:105540003C913093F10011963C913093F10011960B
:105550003C913093F10011963C913093F1001196FB
:105560003C913093F10011963C913093F1001196EB
:105570003C913093F10011963C913093F1001196DB
:105580003C913093F10011963C913093F1001196CB
:105590003C913093F10011963C913093F1001196BB
:1055A0003C913093F10011963C913093F1001196AB
:1055B0003C913093F10011963C913093F10011969B
:1055C0003C913093F10011963C913093F10011968B
:1055D0003C913093F10011963C913093F10011967B
:1055E0003C913093F10011963C913093F10011966B
:1055F0003C913093F10011963C913093F10011965B
:105600003C913093F10011963091E80035FF1093F2
:10561000E800009330032FBFC4CE80E0DF91CF912C
:105620001F910F9108958FB7F894909130039923AB
:1056300041F094E09093E9009AE39093E80010928F
:1056400030038FBF08956091C6017091C7018091AA
:10565000C8019091C90108958091CA01089580916F
:10566000CB0108958091CC01089580912E03089577
:105670009FB7F89420913103222339F022E0209340
:10568000E9002091E80025FD03C09FBF8FEF08953A
:1056900021EA2093F10020E22093F1001092F10022
:1056A0001092F1001092F1001092F10021E020938D
:1056B000F1001092F1008093F1008AE38093E800FA
:1056C0009FBF80E008951F920F920FB60F92112492
:1056D0008F939F938091E1001092E10083FF11C0AE
:1056E0001092E90091E09093EB001092EC0092E1AF
:1056F0009093ED0098E09093F00010923103109297
:105700002E0382FF13C080913103882379F08091AA
:105710003003882359F0815080933003811106C0F3
:1057200084E08093E9008AE38093E8009F918F9161
:105730000F900FBE0F901F9018951F920F920FB6EB
:105740000F921124FF920F931F932F933F934F9328
:105750005F936F937F938F939F93AF93BF93CF93F9
:10576000DF93EF93FF931092E9008091E80083FFAD
:1057700017C1F090F1008091F1000091F10090913B
:10578000F10010E0192BC091F1009091F100D0E0F0
:10579000D92B2091F1006091F10092EF9093E800F5
:1057A000863009F049C08CE594E046E854E0FC01FD
:1057B000A591B4910A171B07D9F4FC013296A59163
:1057C000B491CA17DB07A1F4FC01349645915491BA
:1057D000FC013696849130E0362B2F3F310519F0CD
:1057E00010F02FEF30E0281708F4822F3EEF0CC0A6
:1057F000079648175907D9F6D3C0490F511D891B81
:105800003093E8008823A9F09091E800292F2570B3
:10581000D9F392FDC8C0982F813108F090E1FA01C8
:10582000292F222351F364916093F1002150319686
:10583000F8CF903149F3B7C0853049F48EEF8093AB
:10584000E8000E94E12800680093E300ACC08930C2
:1058500059F5F110A5C00093310310922E03109258
:1058600030038EEF8093E80041E08BE195E04093B8
:10587000E9009C012F5F3F4FFC0154915093EB00D6
:10588000552359F0F90124912093EC009C012D5FE0
:105890003F4F3196E491E093ED004F5F453011F0BA
:1058A000C901E5CF8EE177C0883051F4F0E8FF12EE
:1058B00077C00E94E128809131038093F10049C0B4
:1058C000813281F481EAF8126BC00E94E128E6EC93
:1058D000F1E08DEC91E021912093F1008E179F076C
:1058E000D1F737C08032A9F491E2F91259C0809102
:1058F000E80082FFFCCFE6ECF1E08DEC91E0209136
:10590000F10021938E179F07D1F78BEF8093E8006A
:1059100020C0823241F4E1E2FE1242C000932E0325
:105920000E94E12816C0811118C00E94E128F2E807
:10593000FF120AC0C093E9008091EB0085FB882725
:1059400080F91092E90001C080E08093F10010928C
:10595000F1008EEF8093E80026C0982F9D7F913054
:10596000F9F492E0F9121CC0012BD1F4CF779FEF2C
:105970009C0F9430A8F49EEF9093E800C093E90048
:10598000833071F089E18093EB0081E090E001C009
:10599000880FCA95EAF78093EA001092EA0003C0E4
:1059A00081E28093EB00FF91EF91DF91CF91BF9166
:1059B000AF919F918F917F916F915F914F913F91A7
:1059C0002F911F910F91FF900F900FBE0F901F907E
:1059D000189587E880937A000895982F9F719064B6
:1059E00090937C00807280937B0080917A00806429
:1059F00080937A0080917A0086FDFCCF80917800B8
:105A0000909179000895991B79E004C0991F961729
:105A100008F0961B881F7A95C9F780950895EE0FB8
:105A2000FF1F0590F491E02D09942F923F924F9221
:105A30005F926F927F928F929F92AF92BF92CF921E
:105A4000DF92EF92FF920F931F93CF93DF93CDB727
:105A5000DEB7CA1BDB0B0FB6F894DEBF0FBECDBF9F
:105A600009942A88398848885F846E847D848C8470
:105A70009B84AA84B984C884DF80EE80FD800C8179
:105A80001B81AA81B981CE0FD11D0FB6F894DEBF5C
:105A90000FBECDBFED0108958F929F92AF92BF923E
:105AA000CF92DF92EF92FF92CF93DF93EC01688168
:105AB00079818A819B81611571058105910521F4A8
:105AC00064E279ED8BE597E02DE133EF41E050E0C2
:105AD0000E947E2F49015A019B01AC01A7EAB1E463
