:100000000C9493020C94B0020C94B0020C94B002C5
:100010000C94B0020C94B0020C94B0020C94B00298
:100020000C94B0020C94B0020C9426290C94602914
:100030000C94B0020C94B0020C94B0020C94B00278
:100040000C94B0020C94B0020C94B0020C94B00268
:100050000C949C0A0C94B0020C94B0020C94CC0347
:100060000C94B0020C94B0020C94B0020C94B00248
:100070000C94B0020C94B0020C94B0020C94B00238
:100080000C94B0020C94B0020C94B0020C944F0487
:100090000C94B0020C94B0020C94B0020C94B00218
:1000A0000C94B0020C94B0020C94B002084AD73BF6
:1000B0003BCE016E84BCBFFDC12F3D6C74319ABD37
:1000C00056833DDA3D00C77F11BED9E4BB4C3E915B
:1000D0006BAAAABE000000803F05A84CCDB2D44E4A
:1000E000B93836A9020C50B9918688083CA6AAAA4C
:1000F0002ABE000000803F00C728C328BF28BB28B5
:10010000B728B328AF28AB28A728A3289F289B2867
:10011000972893288F288B28872883287F287B2857
:10012000772873286F286B28672863285F285B2847
:10013000572853284F284B28472843283F283B2837
:10014000372833282F282B28272823281F281B2827
:10015000172813280F280B2807280328FF27FB2719
:10016000F727F327EF27EB27E727E327DF27DB270F
:10017000D727D327CF27CB27C7276E616E00696E9D
:10018000660000407A10F35A00A0724E1809001061
:10019000A5D4E80000E87648170000E40B540200FC
:1001A00000CA9A3B000000E1F50500008096980027
:1001B000000040420F000000A08601000000102750
:1001C00000000000E80300000000640000000000E0
:1001D0000A00000000000100000000002C76D88812
:1001E000DC674F0823DFC1DFAE59E1B1B796E5E325
:1001F000E453C63AE651997696E8E6C28426EB893E
:100200008C9B62ED407C6FFCEFBC9C9F40F2BAA5DA
:100210006FA5F490055A2AF75C936B6CF9676DC172
:100220001BFCE0E40D47FEF520E6B500D0ED902E76
:100230000300943577050080841E080000204E0AD4
:10024000000000C80C333333330F986E1283114112
:10025000EF8D2114893BE65516CFFEE6DB18D184DD
:100260004B381BF77C1D901DA4BBE4242032847204
:100270005E228100C9F124ECA1E53D2700000000C9
:100280000000005F00000007000700147F147F14C7
:10029000242A7F2A1223130864623649552250000B
:1002A00005030000001C2241000041221C0014082C
:1002B0003E081408083E08080050300000080808EE
:1002C0000808006060000020100804023E51494503
:1002D0003E00427F400042615149462141454B3139
:1002E0001814127F1027454545393C4A49493001C9
:1002F000710905033649494936064949291E003620
:100300003600000056360000081422410014141470
:10031000141400412214080201510906324979419E
:100320003E7E1111117E7F494949363E41414122AD
:100330007F4141221C7F494949417F090909013E0A
:100340004149497A7F0808087F00417F41002040E9
:10035000413F017F081422417F404040407F020C12
:10036000027F7F0408107F3E4141413E7F09090919
:10037000063E4151215E7F091929464649494931C6
:1003800001017F01013F4040403F1F2040201F3FAF
:100390004038403F63140814630708700807615130
:1003A000494543007F4141000204081020004141BB
:1003B0007F0004020102044040404040000102046A
:1003C0000020545454787F484444383844444420EE
:1003D000384444487F3854545418087E0901020CAC
:1003E0005252523E7F0804047800447D4000204071
:1003F000443D007F1028440000417F40007C0418E9
:1004000004787C0804047838444444387C14141478
:1004100008081414187C7C08040408485454542018
:10042000043F4440203C4040207C1C2040201C3C99
:100430004030403C44281028440C5050503C446408
:10044000544C44000836410000007F000000413653
:10045000080010080810087846414678000100009E
:1004600009051200020000C6044300030000C20494
:100470000401030904AC04140203090494041603E0
:1004800003090486040C0C033100320033003400ED
:1004900035000000160355005300420020005300B1
:1004A00065007200690061006C00000014035900CF
:1004B0006F007500720020004E0061006D00650045
:1004C00000000403090409024300020100C03209CC
:1004D00004000001020201000524001001052401AE
:1004E0000101042402060524060001070582031009
:1004F000004009040100020A000000070503024051
:100500000000070584024000001201000202000002
:1005100010C0167A040001010203010001C112019A
:1005200080360181360011241FBECFEFDAE0DEBF36
:10053000CDBF12E0A0E0B1E0ECEDFAE502C005901D
:100540000D92AE34B107D9F725E0AEE4B2E001C0B8
:100550001D92A53FB207E1F70E94B11C0C946C2DCF
:100560000C940000CF93DF93FC018491EF0121965E
:10057000882321F00E941527FE01F7CFDF91CF914C
:100580000895CF93CFB121E042EE51E060E070E0FA
:1005900085E090E00E94D21E21E041EF51E06AE048
:1005A00070E085E090E00E94D21E21E04BEF51E028
:1005B0006EE170E08AE090E00E94D21E21E049E006
:1005C00052E068E270E085E090E00E94D21E0E9456
:1005D000B61CC5FFD7CFCF9108950F931F93E4E7C3
:1005E000F3E080E090E0A0E9B1E480839183A2830E
:1005F000B38380E090E0A0E7B1E484839583A68391
:10060000B78380E090E0A0E5B1E480879187A2877E
:10061000B38780E090E0A8ECB1E484879587A68753
:10062000B787E1ECF3E080839183A283B38340E05A
:1006300050E06CE072E4448355836683778380875F
:100640009187A287B38740E050E064E372E4448777
:10065000558766877787ECE5F3E0408351836283B3
:10066000738340E050E060E271E444835583668325
:10067000778300E010E020E732E4008711872287CB
:1006800033874487558766877787E1EDF3E040E05D
:1006900050E068E672E4408351836283738384830D
:1006A0009583A683B78380E090E0A0E9B2E48087D9
:1006B0009187A287B38780E090E0A0EFB1E48487C0
:1006C0009587A687B7871F910F910895E4E7F3E018
:1006D00080E090E0A0E2B1E480839183A283B383C1
:1006E00080E090E0A8ECB1E484839583A683B7838F
:1006F00040E050E060E272E4408751876287738790
:1007000084879587A687B7870895CF93DF93CDB762
:10071000DEB72C970FB6F894DEBF0FBECDBF8CE0CE
:10072000EFECF1E0DE01119601900D928A95E1F770
:10073000FE013196CE010D9640E050E060E87FEB7F
:10074000A191B1914D935D936D937C931397149602
:100750004D935D936D937C93179718964D935D938E
:100760006D937C931B971C964D935D936D937C9337
:100770001F97E817F90721F72C960FB6F894DEBFFC
:100780000FBECDBFDF91CF9108958091A3030E944A
:1007900015278AE00C9415271F920F920FB60F921F
:1007A00011240F931F932F933F934F935F936F9356
:1007B0007F938F939F93AF93BF93EF93FF93CF93C9
:1007C000DF93CDB7DEB72E97DEBFCDBF8FB1888761
:1007D0008FB1898783B18A8783B18B8789B18C87F1
:1007E00089B18D8783B18E8787E0EBEDF1E0DE0183
:1007F000119601900D928A95E1F7BE01685F7F4FD7
:100800008E010F5F1F4F20E030E051E0F901E85703
:10081000FC4F8081880F808380818F71808340812D
:10082000DB019D91BD01892F90E0D8010D9002C0A0
:10083000959587950A94E2F78D018170842B8083CA
:1008400080818F3129F4F901ED5EFC4F508307C0A0
:100850008081811104C0F901ED5EFC4F10822F5F91
:100860003F4F2730310591F62E960FB6F894DEBF34
:100870000FBECDBFDF91CF91FF91EF91BF91AF91AF
:100880009F918F917F916F915F914F913F912F91A8
:100890001F910F910F900FBE0F901F9018951F92F0
:1008A0000F920FB60F9211248F939F93AF93BF9324
:1008B00080914E0290914F02A0915002B09151024E
:1008C0000196A11DB11D80934E0290934F02A093FB
:1008D0005002B0935102BF91AF919F918F910F90B1
:1008E0000FBE0F901F901895CF92DF92EF92FF925C
:1008F000CF93DF9360914E0270914F02809150022E
:1009000090915102C0919400D09195000E942924A9
:1009100020E030E040E857E40E94A6256B017C010E
:10092000BE0180E090E00E9429249B01AC01C70138
:10093000B6010E94DC222DEB37E346E054E30E942F
:10094000A625DF91CF91FF90EF90DF90CF90089593
:100950008091080190910901019709F089C01092D6
:10096000A6031092A50385E090E09093A4038093E2
:10097000A3031092B1031092B2031092B30310922A
:10098000B40380E090E0A0E1B1E48093B5039093DC
:10099000B603A093B703B093B8031092A8031092C4
:1009A000A70380E090E0AEE9B2E480934C0390931B
:1009B0004D03A0934E03B0934F0380E090E0ACE171
:1009C000B2E48093500390935103A0935203B093E9
:1009D00053030E944F2BBC01990F880B990B0E9467
:1009E0002B2420E03EEF4FEF56E40E9481232DECB4
:1009F0003CEC4CE45EE30E94A6252DEC3CEC4CE480
:100A00005EE30E94DC2220910401309105014091B7
:100A10000601509107010E94A6256093540370932C
:100A2000550380935603909357030E944F2BBC01AC
:100A3000990F880B990B0E942B2420E03EEF4FEF7B
:100A400056E40E9481232BED3FE049E450E40E94EC
:100A5000A6259B01AC010E94DC2260935803709391
:100A6000590380935A0390935B030E94ED0230C0B8
:100A70000E9485031092B1031092B2031092B30347
:100A80001092B40380E090E0A0E1B1E48093B5035C
:100A90009093B603A093B703B093B80380E090E0BF
:100AA000AEE9B2E480934C0390934D03A0934E03C0
:100AB000B0934F0380E090E0ACE1B2E48093500348
:100AC00090935103A0935203B09353030E94660383
:100AD0008091B1039091B203A091B303B091B4039C
:100AE0008093A9039093AA03A093AB03B093AC03A4
:100AF0008091B5039091B603A091B703B091B8036C
:100B00008093AD039093AE03A093AF03B093B00373
:100B10001092900310928F0380914C0390914D039B
:100B2000A0914E03B0914F038093440390934503EB
:100B3000A0934603B09347038091500390915103D3
:100B4000A0915203B09153038093480390934903BB
:100B5000A0934A03B0934B0380E090E0FC01E85778
:100B6000FC4F1082FC01ED5EFC4F10820196873035
:100B70009105A1F7E9EEF3E0AEE1B3E026EF3FEF38
:100B800086EF9FEF318320833383228311963C933A
:100B90002E9313963C932E9312973496149643E01B
:100BA000ED3FF40769F790933B0380933A039093EA
:100BB0003D0380933C0390933703809336039093D7
:100BC00039038093380310921A0310921B0310927A
:100BD0001C0310921D030E9474040E94F32370935F
:100BE000E2036093E1031092E8031092E7030E948E
:100BF00074040E94F32370933503609334031092BE
:100C00007303109272031092E4031092E3030E94A4
:100C100074040E94F3237093620260936102109245
:100C20003303109232031092A2031092A103E3E661
:100C3000F2E023E033E080E090E0A0E8BFEB8083C7
:100C40009183A283B38384839583A683B7833896E5
:100C50002E173F07A1F708950F931F93CF93DF93AC
:100C600001E010E00E94C91C7D9B13C0109253024A
:100C700010924E0210924F021092500210925102A6
:100C800010930901009308010E94A804C1E0D0E07C
:100C900002C0C0E0D0E021E049E152E060E170E054
:100CA0008EE090E00E94D21E21E045E252E06AE12F
:100CB00070E089E090E00E94D21E0E94B61CCD2B0D
:100CC00089F2DF91CF911F910F910895CF9380E822
:100CD00080936100C1E0C09361008FE30E94151F03
:100CE0000E94451F5298229884B184B95198219846
:100CF000859886980E94AC2A229A239A14BC84E094
:100D000085BDC0936E001092800080938100C093D7
:100D10006F0078940E94A9260E94C2268823E1F3DE
:100D20000E94A8040E94C1021092900081E080936A
:100D3000910080937100CF9108958F929F92AF920E
:100D4000BF92CF92DF92EF92FF920F931F93CF93B8
:100D5000DF93CDB7DEB764970FB6F894DEBF0FBE52
:100D6000CDBF809109018F93809108018F9384E317
:100D700092E09F938F938E010F5F1F4F1F930F93EE
:100D80000E94892C21E0A80160E070E080E090E002
:100D90000E94D21E83EAE82E83E0F82EF7018181BB
:100DA0008F9380818F9389E392E09F938F931F931A
:100DB0000F930E94892C21E0A80160E070E082E19D
:100DC00090E00E94D21EF70183818F9382818F93DE
:100DD0008EE392E09F938F931F930F930E94892C31
:100DE00021E0A80160E070E084E290E00E94D21E61
:100DF00020E030E040E752E460915D0270915E02D5
:100E000080915F02909160020E9481234B015C01FE
:100E10000E9466246B017C019B01AC01C501B401F9
:100E20000E94DB2220E030E040E752E40E94A62549
:100E30000E94F3237F936F93C701B6010E94F323AF
:100E40007F936F9383E492E09F938F931F930F930D
:100E50000E94892C21E0A80160E070E087E390E027
:100E60000E94D21E01E028E030E044E550E068E056
:100E700070E080E090E00E940A1D0FB6F894DEBF9B
:100E80000FBECDBF64960FB6F894DEBF0FBECDBFC8
:100E9000DF91CF911F910F91FF90EF90DF90CF9056
:100EA000BF90AF909F908F9008954F925F926F92F6
:100EB0007F928F929F92AF92BF92EF92FF920F9389
:100EC0001F93CF93DF93C0E0D0E0CE0185559E4FB6
:100ED0007C0100E010E04E010D2E000CAA08BB08BA
:100EE000F7018081813059F5B801012E000C880B83
:100EF000990B0E942B242091B5033091B6034091A9
:100F0000B7035091B8030E94DC220E94F3232B0107
:100F10003C01C501B4010E942B242091B103309102
:100F2000B2034091B3035091B4030E94DC220E94AB
:100F3000F323DC01CB0141E0B2010E94D11C0F5F21
:100F40001F4FF5E0EF0EF11C0530110549F6219613
:100F5000C530D10509F0B9CFDF91CF911F910F9125
:100F6000FF90EF90BF90AF909F908F907F906F9089
:100F70005F904F9008954F925F926F927F928F9201
:100F80009F92AF92BF92EF92FF920F931F93CF93D6
:100F9000DF93C0E0D0E0CE0182599E4F7C0100E09B
:100FA00010E04E010D2E000CAA08BB08F70180814D
:100FB000813059F5B801012E000C880B990B0E9465
:100FC0002B242091500330915103409152035091B2
:100FD00053030E94DC220E94F3232B013C01C50134
:100FE000B4010E942B2420914C0330914D03409179
:100FF0004E0350914F030E94DC220E94F323DC0138
:10100000CB0141E0B2010E94D11C0F5F1F4FF5E000
:10101000EF0EF11C0530110549F62196C530D105BA
:1010200009F0B9CFDF91CF911F910F91FF90EF9011
:10103000BF90AF909F908F907F906F905F904F90F8
:1010400008954F925F926F927F928F929F92AF928C
:10105000BF92CF92DF92EF92FF920F93CF93DF93E5
:10106000CDB7DEB7C456D1090FB6F894DEBF0FBEB8
:10107000CDBF80E1E4E7F3E0DE01119601900D922F
:101080008A95E1F780E1E1ECF3E0DE015196019011
:101090000D928A95E1F780E1ECE5F3E0DE019196AF
:1010A00001900D928A95E1F780E1E1EDF3E0DE0138
:1010B000D19601900D928A95E1F780E1E1E9F3E0A4
:1010C000DE01AF5BBF4F01900D928A95E1F780E1A1
:1010D000E3E0F3E0DE01AF5ABF4F01900D928A9535
:1010E000E1F7CE0101967C016E0191E6C90ED11C9B
:1010F000F70164857585868597850E94F3232B010A
:101100003C01F70160857185828593850E94F323F8
:10111000A5966CAF7DAF8EAF9FAFA597F7016481A9
:101120007581868197810E94F3234B015C01F70151
:1011300060817181828193810E94F323DC01CB0164
:1011400001E09201A3964EAD5FADA397B4010E945A
:101150000A1DF0E1EF0EF11CEC14FD0449F6CC5928
:10116000DF4F0FB6F894DEBF0FBECDBFDF91CF913A
:101170000F91FF90EF90DF90CF90BF90AF909F9036
:101180008F907F906F905F904F9008952F923F9235
:101190004F925F926F927F928F929F92AF92BF9287
:1011A000CF92DF92EF92FF920F931F93CF93DF9333
:1011B0004EE1C42E43E0D42E09EE13E0E12CF12CD5
:1011C0008AE0482E81E0582E93E2692E91E0792E34
:1011D0002CE3822E21E0922E35E5A32E31E0B32EB2
:1011E000C0E0D0E0212C312CF80180819181863F34
:1011F000FFEF9F0781F0F501E20DF31D2081213003
:1012000051F4F801628173816C0F7D1F41E0820D02
:10121000931D0E94D11CF60180819181863FFFEFD2
:101220009F0781F0F401E20DF31D2081213051F47C
:10123000F601628173816C0F7D1F41E0820D931D69
:101240000E94D11CE114F10491F580913A03909130
:101250003B03863FFFEF9F0789F0F301E20DF31D8B
:101260002081213059F460913C0370913D036C0F53
:101270007D1F41E0820D931D0E94D11C8091360399
:1012800090913703863FEFEF9E0789F0F201E20D60
:10129000F31D2081213059F4609138037091390396
:1012A0006C0F7D1F41E0820D931D0E94D11C2FEF1A
:1012B000221A320A85E02816310409F095CF2196CA
:1012C000E5E04E0E511CF5E06F0E711C25E0820E1C
:1012D000911C85E0A80EB11CC530D10509F082CF64
:1012E000EFEFEE1AFE0AF4E0CF0ED11C0C5F1F4F99
:1012F00025E0E216F10409F063CFDF91CF911F9151
:101300000F91FF90EF90DF90CF90BF90AF909F90A4
:101310008F907F906F905F904F903F902F900895A7
:101320008F929F92AF92BF92CF92DF92EF92FF92F5
:10133000CF93DF93C3E6D2E0C880D980EA80FB80F8
:1013400020E030E040E85FEBC701B6010E94772360
:10135000882391F06C817D818E819F810E94F3238F
:101360004B015C01C701B6010E94F323DC01CB01F4
:1013700041E0B4010E94D11C289683E0C330D80715
:10138000D9F6DF91CF91FF90EF90DF90CF90BF9093
:10139000AF909F908F9008950E949D060E945507E0
:1013A0000C94BB079B0143E0359527954A95E1F7DF
:1013B00044E5249F800D911D1124FC01E350FC4F56
:1013C000808190E0677002C0959587956A95E2F7F5
:1013D000817008952F923F924F925F926F927F9209
:1013E0008F929F92AF92BF92CF92DF92EF92FF9235
:1013F0000F931F93CF93DF9300D000D0CDB7DEB70C
:10140000CFA8D8AC29AC3AAC8FA098A4A9A4BAA410
:101410004BA45CA46DA47EA4C114D104D1F1E12C31
:10142000F12CC6010D2C000CAA0BBB0B89839A83EF
:10143000AB83BC83D7FE09C069817A818B819C8193
:101440000E942B24A501940106C020E030E040EA70
:1014500050E4C501B4010E94DC220E94F3238B01F9
:10146000B7010F2C000C880B990B0E942B24A301B1
:1014700092010E94DC220E94F323C8010E94D2093B
:10148000811143C09FEFE91AF90AA5E0EA16F104B9
:1014900089F621143104C1F100E010E06101032C50
:1014A000000CEE08FF08B801012E000C880B990B08
:1014B0000E942B24A50194010E94DC220E94F323A8
:1014C00069837A838B839C83121413043CF420E099
:1014D00030E040EA50E4C301B20106C0C701B601E2
:1014E0000E942B24A30192010E94DC220E94F3237C
:1014F00089819A810E94D209811107C00F5F1F4F15
:101500000530110581F601C080E00F900F900F901B
:101510000F90DF91CF911F910F91FF90EF90DF908F
:10152000CF90BF90AF909F908F907F906F905F9083
:101530004F903F902F9008951F920F920FB60F92E9
:101540001124CF92DF92EF92FF922F933F934F930C
:101550005F936F937F938F939F93AF93BF93EF931B
:10156000FF93CF93DF93CDB7DEB7C857D109DEBF66
:10157000CDBF0E94C5268337910509F05BC0C0909E
:10158000B503D090B603E090B703F090B80320E025
:1015900030E040EA50E4C701B6010E94DC2220E0BE
:1015A00030E040E85FE30E94DC2220E030E040E4ED
:1015B00052E40E94772387FF1DC18EE1E3EAF3E046
:1015C000DE01A55ABF4F01900D928A95E1F71F9257
:1015D00081E08F931F921F922DB73EB72E51310994
:1015E0000FB6F8943EBF0FBE2DBFADB7BEB7119674
:1015F0008EE1FE01E55AFF4F01900D928A95E1F7C9
:101600000E94EA090FB6F894DEBF0FBECDBF81116C
:10161000F1C020E030E040E85FE3C701B6010E947E
:10162000DC226093B5037093B6038093B703909365
:10163000B803E0C081369105A9F520E030E040E82C
:101640005FE36091B1037091B2038091B303909115
:10165000B4030E94DB226B017C0120E030E0A90191
:101660000E94992518160CF0C5C08EE1E3EAF3E05C
:10167000DE01DD9601900D928A95E1F71F921F928F
:101680008FEF8F938F938DB79EB74E970FB6F894C9
:101690009EBF0FBE8DBFADB7BEB711968EE1FE01E6
:1016A000FD968DC08737910509F04BC020E030E0F2
:1016B00040E85FE36091B5037091B6038091B70392
:1016C0009091B8030E94DB226B017C0120E030E0A6
:1016D00040E051E40E94992518160CF08BC08EE171
:1016E000E3EAF3E0DE015F9601900D928A95E1F75F
:1016F0008FEF8F938F931F921F928DB79EB74E9748
:101700000FB6F8949EBF0FBE8DBFADB7BEB7119692
:101710008EE1FE017F9601900D928A95E1F70E947D
:10172000EA090FB6F894DEBF0FBECDBF811162C0CB
:10173000C092B503D092B603E092B703F092B8031B
:1017400059C08436910509F050C020E030E040E8EF
:101750005FE36091B1037091B2038091B303909104
:10176000B4030E94DC226B017C0120E030E040EAFF
:1017700050E40E94DC2220E030E048EA52E40E947B
:10178000772387FF37C08EE1E3EAF3E0DE011196AD
:1017900001900D928A95E1F71F921F921F9281E0AE
:1017A0008F938DB79EB74E970FB6F8949EBF0FBE1E
:1017B0008DBFADB7BEB711968EE1FE013196019097
:1017C0000D928A95E1F70E94EA090FB6F894DEBF00
:1017D0000FBECDBF81110EC0C092B103D092B20333
:1017E000E092B303F092B40305C08936910511F479
:1017F0000E94C503C858DF4F0FB6F894DEBF0FBE76
:10180000CDBFDF91CF91FF91EF91BF91AF919F91AC
:101810008F917F916F915F914F913F912F91FF90A9
:10182000EF90DF90CF900F900FBE0F901F90189504
:101830002F923F924F925F926F927F928F929F92E0
:10184000AF92BF92CF92DF92EF92FF920F931F93CE
:10185000CF93DF9300D000D000D0CDB7DEB72B01FF
:101860003C0129833A834B835C83B801FE82ED827D
:1018700085011401072E000C880B990B0E942B2464
:10188000A30192010E94DC224B015C01B6016B5F57
:101890007F4F62197309072E000C880B990B0E9469
:1018A0002B249B01AC01C501B4010E949925181697
:1018B0000CF46AC0B101032C000C880B990B0E9438
:1018C0002B242B013C01B601DD0C880B990B0E94E7
:1018D0002B246B017C0120E030E040EA50E4C5019C
:1018E000B4010E94DC22A30192010E94DB229B0131
:1018F000AC01C701B6010E94992518160CF444C02A
:101900002D813E81B901330F880B990B0E942B2446
:1019100029813A814B815C810E94DC226B017C0130
:10192000B8016B5F7F4F62197309072E000C880B9B
:10193000990B0E942B249B01AC01C701B6010E94A8
:10194000992518160CF1B801110F880B990B0E94FC
:101950002B244B015C0120E030E040EA50E4C70159
:10196000B6010E94DC22A30192010E94DB229B01AE
:10197000AC0111E0C501B4010E94992518160CF0C4
:1019800010E081E0812701C080E026960FB6F89430
:10199000DEBF0FBECDBFDF91CF911F910F91FF90A2
:1019A000EF90DF90CF90BF90AF909F908F907F90FF
:1019B0006F905F904F903F902F9008958F929F92DD
:1019C000AF92BF92CF92DF92EF92FF92CF93DF93CD
:1019D000CDB7DEB7CBA4DCA4EDA4FEA48FA498A859
:1019E000A9A8BAA820E030E0A901C701B6010E9469
:1019F0009925181684F020E030E0A901C701B6014E
:101A00000E94772387FF0DC0C12CD12C30E8E32E34
:101A10003FEBF32E06C0C12CD12C20E8E22E2FE3A1
:101A2000F22E20E030E0A901C501B4010E94992501
:101A3000181684F020E030E0A901C501B4010E942D
:101A4000772387FF0DC0812C912C90E8A92E9FEB66
:101A5000B92E06C0812C912C80E8A82E8FE3B82ED9
:101A6000C501B4010E94F3237EA76DA7C701B6018B
:101A70000E94F3237CA76BA78EE1FE013D96DF0158
:101A800001900D928A95E1F7DF91CF91FF90EF9051
:101A9000DF90CF90BF90AF909F908F900C94EA0909
:101AA000CF93DF930E944F2BCEE3D3E0BC01990F7D
:101AB000880B990B0E942B2420E03EEF4FEF56E459
:101AC0000E9481232DEC3CEC4CE45EE30E94A625B1
:101AD0002DEC3CEC4CE45EE30E94DC2220910401FE
:101AE0003091050140910601509107010E94A62501
:101AF0006E8B7F8B888F998F0E944F2BBC01990F23
:101B0000880B990B0E942B2420E03EEF4FEF56E408
:101B10000E9481232BED3FE049E450E40E94A6257A
:101B20009B01AC010E94DC226A8F7B8F8C8F9D8F82
:101B3000DF91CF910895E3EAF3E086819781A08554
:101B4000B18586879787A08BB18B82859385A48585
:101B5000B585828B938BA48BB58B0895EEE3F3E070
:101B600086819781A085B18586879787A08BB18B69
:101B700082859385A485B585828B938BA48BB58B49
:101B800008952F923F924F925F926F927F928F9221
:101B90009F92AF92BF92CF92DF92EF92FF920F93FC
:101BA0001F93CF93DF93CDB7DEB762970FB6F8944C
:101BB000DEBF0FBECDBF6A8B798B382E292E2983CD
:101BC0003A834B835C834090B1035090B2036090A2
:101BD000B3037090B403C301B2010E9413260E94A4
:101BE000F32369877A878B879C878091B5039091CF
:101BF000B603A091B703B091B8038D839E83AF83E2
:101C0000B887BC01CD010E9413260E94F3236D8783
:101C10007E878F87988B60915003709151038091DC
:101C20005203909153030E94F3235B016C01609176
:101C30004C0370914D0380914E0390914F030E948D
:101C4000F32388248394912C6B01ED84FE84098511
:101C50001A8579816A819B818C81272F362F492FA4
:101C6000582FBA89A989F1016B2F7A2F8F2F9E2FB8
:101C70000E94180C8111AAC0B801110F880B990B92
:101C80000E942B24BA89A989F1012B2F3A2F4F2FBB
:101C90005E2F0E94DC226B017C0120E030E040EAF4
:101CA00050E40E94DC2220E030E048EA52E40E9446
:101CB000772387FFB2C020E030E040E85FEBC70148
:101CC000B6010E94992518160CF0A7C02D853E85F7
:101CD000B901330F880B990B0E942B24B981AA817B
:101CE000FB81EC812B2F3A2F4F2F5E2F0E94DC229D
:101CF0006B017C0120E030E040EA50E40E94DC22ED
:101D000020E030E044E452E40E94772387FF85C05E
:101D100020E030E040E051E4C701B6010E9499257F
:101D200018160CF07AC03C813F938B818F939A8177
:101D30009F93A981AF932F923F92B989BF932A892C
:101D40002F938DB79EB74E970FB6F8949EBF0FBED8
:101D50008DBFADB7BEB711968EE1E3EAF3E0019017
:101D60000D928A95E1F70E94DE0C0FB6F894DEBF63
:101D70000FBECDBF811151C07A896989C101272F5A
:101D8000362F492F582FC301B2010E94DC226093E5
:101D9000B1037093B2038093B3039093B40379813A
:101DA0006A819B818C81272F362F492F582F6D8177
:101DB0007E818F8198850E94DC226093B5037093A9
:101DC000B6038093B7039093B80327C00E949B0D7E
:101DD0000E94AE0D8091A3039091A403019790936C
:101DE000A4038093A30362960FB6F894DEBF0FBEE0
:101DF000CDBFDF91CF911F910F91FF90EF90DF90BA
:101E0000CF90BF90AF909F908F907F906F905F909A
:101E10004F903F902F900C94500D62960FB6F8940F
:101E2000DEBF0FBECDBFDF91CF911F910F91FF900D
:101E3000EF90DF90CF90BF90AF909F908F907F906A
:101E40006F905F904F903F902F9008952F923F9208
:101E50006F927F928F929F92AF92BF92CF92DF92BA
:101E6000EF92FF920F931F93CF93DF93CDB7DEB71F
:101E700066970FB6F894DEBF0FBECDBF6091B50375
:101E80007091B6038091B7039091B8030E94F32339
:101E90006D877E878F87988B8D859E859A878987AA
:101EA0006091B1037091B2038091B3039091B40338
:101EB0000E94F323698B7A8B8B8B9C8BE989FA893F
:101EC000FC87EB878091A5039091A6039C838B836D
:101ED000E091E703F091E803FA83E9838091A3039B
:101EE0009091A40398878F83E0917203F09173031C
:101EF000FE83ED8389EE93E09E8B8D8B3EE1232E56
:101F000033E0332E46EF642E77247A94ED89FE89F0
:101F1000A280B380C080D18088248394912CE984EE
:101F2000FA840B851C8520E030E0A901CA01B901C3
:101F30000E94180C882381F08B819C8101969C83E0
:101F40008B83E981FA813197FA83E983ED89FE89F0
:101F50007182608273826282F101A280B380C0804C
:101F6000D18088248394912CE984FA840B851C8584
:101F700020E030E0A901CA01B9010E94180C8823B1
:101F800079F08F819885019798878F83ED81FE8105
:101F90003197FE83ED83F1017182608273826282E8
:101FA0008D899E8904969E8B8D8B94E0290E311C21
:101FB000ED89FE89ED5FF34009F0A8CF8B819C810C
:101FC0009093A6038093A503E981FA81F093E80337
:101FD000E093E7038F8198859093A4038093A303F4
:101FE000ED81FE81F0937303E093720380913203DD
:101FF000909133039A838983019761F5A090380308
:10200000B0903903C0903603D0903703882483946E
:10201000912CED84FE8409891A8920E030E0A90121
:10202000CA01B9010E94180C8823A1F0E981FA8144
:10203000F0939003E0938F0386EF9FEF9093370325
:1020400080933603909339038093380310923303BF
:102050001092320366960FB6F894DEBF0FBECDBF66
:10206000DF91CF911F910F91FF90EF90DF90CF9074
:10207000BF90AF909F908F907F906F903F902F90E8
:1020800008954F925F926F927F928F929F92AF923C
:10209000BF92CF92DF92EF92FF92CF93DF93CDB7B3
:1020A000DEB72E970FB6F894DEBF0FBECDBF9E876A
:1020B0008D87DC018D919D910D90BC91A02D898320
:1020C0009A83AB83BC839C01AD0160914C037091FA
:1020D0004D0380914E0390914F030E94DB224B01F0
:1020E0005C01AD85BE8514968D919D910D90BC913E
:1020F000A02D8D839E83AF83B8879C01AD01609135
:1021000050037091510380915203909153030E94A8
:10211000DB226B017C01A5019401C501B4010E9481
:10212000A6252B013C01A7019601C701B6010E941B
:10213000A6259B01AC01C301B2010E94DC220E94D2
:1021400045269B01AC0160E070E080E89FE30E94BF
:1021500081232B013C019B01AC01C501B4010E940C
:10216000A62529813A814B815C810E94DC224B01AA
:102170005C0120E030E048EA52E40E94772387FFC8
:1021800064C020E030E040E85FE3C501B4010E9494
:10219000992518160CF059C0A3019201C701B60188
:1021A0000E94A6252D813E814F8158850E94DC2208
:1021B0006B017C0120E030E040E452E40E94772390
:1021C00087FF43C020E030E040EA50E4C701B60199
:1021D0000E9499251816CCF5C701B6010E94F32379
:1021E0002B013C01C501B4010E94F32369877A8762
:1021F0008B879C87B20189859A850E94D2098111BB
:1022000024C06D817E818F8198850E94F32389850A
:102210009A850E94D209811118C069817A818B81C7
:102220009C810E94F323DC01CB01B2010E94D20900
:1022300081110BC0ED85FE8580829182A282B382DE
:10224000C482D582E682F78217C080E090E0A0E8E1
:10225000BFEBED85FE8580839183A283B383848366
:102260009583A683B7838091A7039091A8030196D5
:102270009093A8038093A7032E960FB6F894DEBF21
:102280000FBECDBFDF91CF91FF90EF90DF90CF9049
:10229000BF90AF909F908F907F906F905F904F9086
:1022A00008958F929F92AF92BF92CF92DF92EF925A
:1022B000FF92CF93DF93C3E6D2E0C880D980EA8053
:1022C000FB8020E030E040E85FEBC701B6010E94F0
:1022D0007723882309F479C0C701B6010E94132629
:1022E0006B017C0180904C0390904D03A0904E03B5
:1022F000B0904F03C501B4010E9413269B01AC01AD
:10230000C701B6010E94992587FD58C020E030E042
:1023100040EA50E4C501B4010E94DC220E94132669
:102320009B01AC01C701B6010E94772387FF46C01D
:102330006C817D818E819F810E9413266B017C01BF
:102340008090500390905103A0905203B09053039B
:10235000C501B4010E9413269B01AC01C701B6015F
:102360000E94992587FD2AC020E030E040EA50E431
:10237000C501B4010E94DC220E9413269B01AC011E
:10238000C701B6010E94772387FF18C00E94AE0DD7
:1023900080E090E0A0E8BFEB88839983AA83BB83A9
:1023A0008C839D83AE83BF838091A7039091A80304
:1023B00001969093A8038093A70307C080915402CD
:1023C000811103C0CE010E944110289683E0C330E2
:1023D000D80709F072CFDF91CF91FF90EF90DF9097
:1023E000CF90BF90AF909F908F9008952F923F9283
:1023F0004F925F926F927F928F929F92AF92BF9215
:10240000CF92DF92EF92FF920F931F93CF93DF93C0
:10241000C0905803D0905903E0905A03F0905B03AA
:10242000C701B6010E947C232B013C0120910401CD
:1024300030910501409106015091070160915403CC
:102440007091550380915603909157030E94A625E1
:102450004B015C019B01AC01C301B2010E94A625A6
:10246000EB01182F092FC701B6010E9437262B0157
:102470003C0120914C0330914D0340914E0350910B
:102480004F03F8016C2F7D2F8F2F9E2F0E94DC228F
:102490006B017C0120E030E0A901F8016C2F7D2F59
:1024A0008F2F9E2F0E947723881F8827881F332411
:1024B0003394682F632585E0282E269EB0011124D1
:1024C000072E000C880B990B0E942B24A701960164
:1024D0000E94DC2220E030E048EA52E40E94992584
:1024E00018160CF4C6C020E030E0A901C701B601FF
:1024F0000E94772387FDBDC0A3019201C501B401ED
:102500000E94A6252B01782E692E20915003309130
:1025100051034091520350915303F301752D8F2FB6
:102520009E2F0E94DC224B015C0120E030E0A901DB
:10253000F301642D752D8F2F9E2F0E947723881F06
:102540008827881F3826239CB0011124072E000CF1
:10255000880B990B0E942B24A50194010E94DC2278
:1025600020E030E040E452E40E94992518160CF473
:1025700080C020E030E040E151E4C501B4010E9498
:10258000772387FD76C06F927F925F924F920F9371
:102590001F93DF93CF932DB73EB72E5131090FB65E
:1025A000F8943EBF0FBE2DBFADB7BEB711968EE1FA
:1025B000EEE3F3E001900D928A95E1F70E94DE0CC4
:1025C0002DB73EB72A5D3F4F0FB6F8943EBF0FBE02
:1025D0002DBF81114EC01F921F921F921F920F9309
:1025E0001F93DF93CF938DB79EB74E970FB6F89496
:1025F0009EBF0FBE8DBFADB7BEB711968EE1EEE3A5
:10260000F3E001900D928A95E1F70E94DE0C2DB760
:102610003EB72A5D3F4F0FB6F8943EBF0FBE2DBFA9
:10262000811127C06F927F925F924F921F921F92EB
:102630001F921F928DB79EB74E970FB6F8949EBF0C
:102640000FBE8DBFADB7BEB711968EE1EEE3F3E0DE
:1026500001900D928A95E1F70E94DE0C2DB73EB7EE
:102660002A5D3F4F0FB6F8943EBF0FBE2DBF8823A3
:10267000A1F0DF91CF911F910F91FF90EF90DF902C
:10268000CF90BF90AF909F908F907F906F905F9012
:102690004F903F902F900C94500D20E030E046EA90
:1026A00052E4C701B6010E94772387FF11C020E0E2
:1026B00030E0A901C701B6010E949925181644F41B
:1026C000C0924C03D0924D03E0924E03F0924F0320
:1026D00020E030E04CE352E4C501B4010E947723CE
:1026E00087FF12C020E030E040E051E4C501B401B2
:1026F0000E949925181644F4809250039092510339
:10270000A0925203B0925303DF91CF911F910F918A
:10271000FF90EF90DF90CF90BF90AF909F908F9001
:102720007F906F905F904F903F902F9008954F92C1
:102730005F926F927F928F929F92AF92BF92CF9251
:10274000DF92EF92FF920F931F93CF93DF930E943C
:102750004F2BBC01990F880B990B0E942B2420E072
:102760003EEF4FEF56E40E94812320E030E04EE937
:1027700052E40E94A6250E9413260E94F3236B01B7
:102780007C013B010E944F2BBC01990F880B990BD8
:102790000E942B2420E03EEF4FEF56E40E9481235D
:1027A00020E030E04CE052E40E94A6250E9413266F
:1027B000460121E0C21AD1082EE4C216D10438F62F
:1027C00020E030E040E051E40E94DC2220E030E0F4
:1027D00040EA50E40E94DC220E94F3232B015B01BB
:1027E000695071096232710508F0B1CFC0E0D0E0E4
:1027F000E12CF12C00E010E06E01C80CD91CB801EE
:102800006A0D7B1DC6010E94D209811106C00F5FAF
:102810001F4F0530110599F703C0EE24E394F12C06
:102820002196C530D10531F7EA94EF2809F48FCF0E
:10283000709256026092550250925802409257028E
:1028400085E592E0DF91CF911F910F91FF90EF907E
:10285000DF90CF90BF90AF909F908F907F906F90C0
:102860005F904F900895CF93C82F0E949713FC015B
:102870004081518122813381C33421F5E9EEF3E0B7
:1028800080E090E060817181663F7F4FA9F4880FFE
:10289000991F880F991FFC01E751FC4F518340831A
:1028A000338322838091E7039091E803019690930C
:1028B000E8038093E70310C00196349685309105B4
:1028C00009F70AC0C43441F450933B0340933A03E0
:1028D00030933D0320933C030E9474040E9413260E
:1028E0000E94F3237093E2036093E103CF91089574
:1028F0002F923F924F925F926F927F928F929F9210
:10290000AF92BF92CF92DF92EF92FF920F931F93FD
:10291000CF93DF93CDB7DEB764970FB6F894DEBFE1
:102920000FBECDBF8091500390915103A0915203EF
:10293000B09153038F839887A987BA87BC01CD01D3
:102940000E94F3237C836B8340904C0350904D0393
:1029500060904E0370904F03C301B2010E94F323B5
:102960001B01A0913C03B0913D03BC87AB87E09174
:102970003A03F0913B03FE87ED87209138033091B5
:102980003903388B2F8780913603909137039A8BC8
:10299000898BA9EEB3E0BC8BAB8BEEE1F3E0FE8359
:1029A000ED83FA83E983AB89BC891296AD90BC9024
:1029B0001397CD90DC90812C912CEB80FC808101D1
:1029C00020E030E0A901CA01B9010E94180C811170
:1029D0007DC0E981FA81A280B380C080D18020E0EF
:1029E00030E0A901CA01B9010E94180C81116EC022
:1029F000AB84BC84CD84DE8420E030E0A901CA0130
:102A0000B9010E94180C811161C0AF84B888C988CF
:102A1000DA8820E030E0A901CA01B9010E94180C4F
:102A2000811154C02B893C892C5F3F4F3C8B2B8BF1
:102A300089819A8104969A8389832D5F334009F0B6
:102A4000B2CF1A821982AD81BE818D919C910A9676
:102A500071F5C301B2010E941326E981FA81EE0FDC
:102A6000FF1FEE0FFF1FE25EFC4FFA83E9830E9417
:102A7000F323A981BA816D937C936F8178858985D1
:102A80009A850E9413260E94F323E981FA817383B9
:102A90006283809172039091730301969093730304
:102AA000809372031092E4031092E3030FC0298114
:102AB0003A812F5F3F4F3A8329838D819E8104960F
:102AC0009E838D832530310509F0BDCF0E947404AB
:102AD0000E9413260E94F3237093350360933403FE
:102AE00064960FB6F894DEBF0FBECDBFDF91CF91D5
:102AF0001F910F91FF90EF90DF90CF90BF90AF901C
:102B00009F908F907F906F905F904F903F902F900D
:102B100008952F923F924F925F926F927F928F9281
:102B20009F92AF92BF92CF92DF92EF92FF920F935C
:102B30001F93CF93DF93CDB7DEB72A970FB6F894E4
:102B4000DEBF0FBECDBF60915003709151038091E5
:102B50005203909153030E94F3236D837E838F83EE
:102B600098878D819E819A83898360914C037091AF
:102B70004D0380914E0390914F030E94F3232B014C
:102B80003C017C836B83E9EEF3E0FA87E9878EE111
:102B9000282E83E0382EE985FA85A280B380C08094
:102BA000D180812C912CE980FA800B811C8120E05E
:102BB00030E0A901CA01B9010E94180C81112FC08F
:102BC000F101A280B380C080D18020E030E0A90173
:102BD000CA01B9010E94180C811121C089859A850A
:102BE00004969A87898794E0290E311CE985FA8535
:102BF000ED5FF34081F650923703409236038D81AA
:102C00009E81909339038093380381E090E0909304
:102C10003303809332031092A2031092A1030E9407
:102C200074040E9413260E94F3237093620260933F
:102C300061022A960FB6F894DEBF0FBECDBFDF91BA
:102C4000CF911F910F91FF90EF90DF90CF90BF90A9
:102C5000AF909F908F907F906F905F904F903F903C
:102C60002F900895CF92DF92EF92FF920E9474040A
:102C70000E9413260E94F3236B017C018091A5031F
:102C80009091A603059749F480913A0390913B03F4
:102C90000A9619F484E40E9433148091E70390911A
:102CA000E8038530910594F48091E1039091E2036B
:102CB0009601281B390B2230310551F480915402C2
:102CC000811106C083E40E94331410C0059721F0DF
:102CD00080915402882351F00E9474040E941326AC
:102CE0000E94F3237093E2036093E1038091E30376
:102CF0009091E403892BA9F480917203909173035E
:102D000085309105BCF48091340390913503960190
:102D1000281B390B2330310579F48091540281113D
:102D20000BC081E090E09093E4038093E3030E9462
:102D3000781410C0059721F080915402882351F037
:102D40000E9474040E9413260E94F323709335039B
:102D5000609334038091A1039091A203892BA1F485
:102D600080913203909133030097D1F480916102F6
:102D700090916202C81AD90A35E0C316D10491F4C1
:102D80008091540281110EC081E090E09093A203E3
:102D90008093A103FF90EF90DF90CF900C94891562
:102DA000019721F080915402882351F00E9474040D
:102DB0000E9413260E94F3237093620260936102C3
:102DC000FF90EF90DF90CF9008954F925F926F92B7
:102DD0007F928F929F92AF92BF92CF92DF92EF92AB
:102DE000FF92CF93DF93CDB7DEB72E970FB6F8944F
:102DF000DEBF0FBECDBF9E878D87DC0118968D91FB
:102E00009D910D90BC91A02D89839A83AB83BC8347
:102E1000AD85BE858D919D910D90BC91A02D8D832A
:102E20009E83AF83B8879C01AD0169817A818B81D4
:102E30009C810E94DB224B015C01ED85FE85448470
:102E400055846684778484819581A681B78189873A
:102E50009A87AB87BC879C01AD01C301B2010E9478
:102E6000DB226B017C0120E030E040E051E4698529
:102E70007A858B859C850E94772387FF5CC020E044
:102E800030E040E051E4C301B2010E94772387FFA4
:102E900052C020E030E0A901C701B6010E947723AB
:102EA0008823D9F120E030E0A901C701B6010E94D2
:102EB000992518164CF0A701960160E070E080E4B7
:102EC00092E40E94DB2204C060E070E080E492E4BF
:102ED000ED85FE85648375838683978320E030E0EB
:102EE000A901C701B6010E94992518164CF420E0EB
:102EF00030E040E452E4C701B6010E94DC2204C085
:102F000060E070E080E492E4AD85BE851C966D9330
:102F10007D938D939C931F970EC080E090E0A0E47A
:102F2000B2E4ED85FE8584839583A683B783848789
:102F30009587A687B78720E030E040E452E4AD856E
:102F4000BE8514966D917D918D919C9117970E94ED
:102F5000992518160CF061C020E030E040E452E4FE
:102F6000ED85FE8564857585868597850E94992502
:102F700018160CF052C020E030E0A901C701B601DC
:102F80000E9477238823D9F120E030E0A901C7010E
:102F9000B6010E94992518164CF4A701960160E02D
:102FA00070E080E091E40E94DB2204C060E070E009
:102FB00080E091E4AD85BE8514966D937D938D93ED
:102FC0009C93179720E030E0A901C701B6010E9449
:102FD000992518164CF020E030E040E051E4C7019C
:102FE000B6010E94DC2204C060E070E080E091E461
:102FF000ED85FE8564877587868797870EC080E09C
:1030000090E0A0E0B1E4ED85FE8584839583A683FE
:10301000B78384879587A687B78720E030E048EAA2
:1030200052E46D817E818F8198850E9499251816C2
:103030000CF041C020E030E048EA52E469817A8136
:103040008B819C810E9499251816ACF520E030E018
:10305000A901C501B4010E949925181644F4A501DF
:10306000940160E070E0CB010E94DB2203C060E0CD
:1030700070E0CB01AD85BE856D937D938D939C9360
:10308000139720E030E0A901C501B4010E94992501
:10309000181644F020E030E0A901C501B4010E94F7
:1030A000DC2203C060E070E0CB01ED85FE85608727
:1030B00071878287938720E030E0A901AD85BE85C6
:1030C0006D917D918D919C910E94772387FF46C0E1
:1030D00020E030E0A901ED85FE856085718582855F
:1030E00093850E94772387FF39C020E030E0A90153
:1030F000C501B4010E94992518164CF0A501940150
:1031000060E070E088EA92E40E94DB2204C060E0A4
:1031100070E088EA92E4AD85BE856D937D938D93D2
:103120009C93139720E030E0A901C501B4010E94EF
:10313000992518164CF420E030E048EA52E4C50125
:10314000B4010E94DC2204C060E070E088EA92E4EE
:10315000ED85FE8560877187828793872E960FB6EF
:10316000F894DEBF0FBECDBFDF91CF91FF90EF90FF
:10317000DF90CF90BF90AF909F908F907F906F9097
:103180005F904F9008952F923F924F925F926F926F
:103190007F928F929F92AF92BF92CF92DF92EF92E7
:1031A000FF920F931F93CF93DF93CDB7DEB7669750
:1031B0000FB6F894DEBF0FBECDBF2DEC3CEC4CE457
:1031C0005DE3609100017091010180910201909195
:1031D00003010E94A6251B018F87988B8CE0EFECE2
:1031E000F1E0DE01119601900D928A95E1F79E01C2
:1031F0002F5F3F4F3A8B298BCE010D969E878D878F
:10320000A989BA890D911D91BA8BA98B20E030E074
:10321000A901F80160817181828193810E947723E5
:10322000882309F4D7C020E030E0A901D80118961E
:103230006D917D918D919C911B970E94772388239E
:1032400009F4C8C020E030E0A901F801648175816B
:10325000868197810E947723882309F4BBC020E0F0
:1032600030E0A901D8011C966D917D918D919C91C2
:103270001F970E947723882309F4ACC0C8010E94DD
:10328000E516D8011C968D919D910D90BC91A02DB5
:103290008B8B9C8BAD8BBE8BF801C480D580E68078
:1032A000F780A7019601BC01CD010E94DB224B01F2
:1032B0005C0120E030E0A9010E947723882309F413
:1032C00042C0D8012D913D914D915C911397189674
:1032D0006D917D918D919C911B970E94DB222B011A
:1032E0003C0120E030E0A9010E947723882399F176
:1032F000A3019201C501B4010E9481230E944823C9
:103300009B01AC016BED7FE089E490E40E94DB223D
:103310002B013C010E947C239B01AC01B1018F85F4
:1033200098890E94A6254B015C01C301B2010E944D
:1033300037269B01AC01B1018F8598890E94A62593
:103340002B013C010FC021016F847888812C912CC6
:10335000A12CB12C07C04101AF84B888412C512C5D
:10336000612C712C9401A501F80160817181828129
:1033700093810E94DC22D8016D937D938D939C9361
:1033800013979401A50118966D917D918D919C9153
:103390001B970E94DC22F8016087718782879387E0
:1033A000A7019601B201C3010E94DC22D801149644
:1033B0006D937D938D939C9317972B893C894D89B1
:1033C0005E89B201C3010E94DC22F801648775871F
:1033D0008687978729893A898D859E852817390799
:1033E00009F00ECF66960FB6F894DEBF0FBECDBFC4
:1033F000DF91CF911F910F91FF90EF90DF90CF90D1
:10340000BF90AF909F908F907F906F905F904F9004
:103410003F902F9008954F925F926F927F928F927C
:103420009F92AF92BF92CF92DF92EF92FF920F9353
:103430001F93CF93DF9300D000D000D0CDB7DEB77D
:1034400000E010E01E821D822801012E000C66089B
:1034500077082D813E81B901330F880B990B0E94AB
:103460002B244B015C01C301B2010E942B246B0190
:103470007C012091B5033091B6034091B703509180
:10348000B803C501B4010E94DC220E94F3236983C2
:103490007A838B839C832091B1033091B203409156
:1034A000B3035091B403C701B6010E94DC220E940D
:1034B000F323DC01CB0169817A810E94D209811159
:1034C0000E949B0D20915003309151034091520373
:1034D00050915303C501B4010E94DC220E94F323E2
:1034E0004B015C0120914C0330914D0340914E0300
:1034F00050914F03C701B6010E94DC220E94F323C2
:10350000DC01CB01B4010E94D20981110E94AE0DF1
:103510008D819E8101969E838D83059709F099CFB9
:103520000F5F1F4F0530110509F08CCF26960FB69F
:10353000F894DEBF0FBECDBFDF91CF911F910F91E9
:10354000FF90EF90DF90CF90BF90AF909F908F90C3
:103550007F906F905F904F9008950F931F93CF933C
:10356000DF9380E00E94B02A8C0181E00E94B02AA3
:10357000EC01B80180E090E00E94292420E030E0D6
:1035800040E85AE30E94A6259B01AC010E94DC2280
:1035900060930401709305018093060190930701E5
:1035A000BE0180E090E00E9429249B01AC0160E014
:1035B00070E080E094E40E94DB2220E030E040E014
:1035C0005BE30E94A6259B01AC010E94DC22609374
:1035D0000001709301018093020190930301DF9138
:1035E000CF911F910F9108959091540281E0892706
:1035F00080935402882399F00E94740460936C03B2
:1036000070936D0380936E0390936F031092840305
:1036100010928503109286031092870308950E94EA
:10362000740460938403709385038093860390935E
:10363000870320916C0330916D0340916E0350918C
:103640006F030E94DB229B01AC0160911A03709111
:103650001B0380911C0390911D030E94DC22609348
:103660001A0370931B0380931C0390931D0308950A
:103670004F925F926F927F928F929F92AF92BF9282
:10368000CF92DF92EF92FF920F931F93CF93DF932E
:103690008091A3039091A403892B19F481E0809376
:1036A00053028091A5039091A603039761F4809142
:1036B000A7039091A803892B31F484E190E09093C3
:1036C000A8038093A703C0903A03D0903B0386EFF2
:1036D000C8168FEFD80639F1A0903C03B0903D0397
:1036E0006091B5037091B6038091B7039091B803D0
:1036F0000E94F3232B013C016091B1037091B2034E
:103700008091B3039091B4030E94F323812C912CF8
:1037100072018B0120E030E0A901CA01B9010E94C9
:10372000180C81110AC080911403813071F48091CA
:10373000080190910901019741F482E090E0909393
:103740000901809308010E94A8048091150381302B
:1037500049F42091040130910501409106015091F6
:1037600007011FC080911603813061F4809104012C
:1037700090910501A0910601B0910701BC01CD0116
:1037800090581FC080911703813079F48091040113
:1037900090910501A0910601B09107019C01AD0136
:1037A000505860E070E0CB0162C080911803813016
:1037B00061F460910401709105018091060190917E
:1037C000070120E030E0A90152C00091A703109149
:1037D000A803101611060CF045C080911903813022
:1037E00009F040C093E6E92E92E0F92EC0E0D0E067
:1037F00020E030E040E85FEBF70160817181828179
:1038000093810E947723811126C083E0CC0FDD1FB6
:103810008A95E1F7CD59DD4F8091B1039091B203C4
:10382000A091B303B091B40388839983AA83BB8327
:103830008091B5039091B603A091B703B091B803FE
:103840008C839D83AE83BF83015011091093A8031D
:103850000093A70307C02196F8E0EF0EF11CC431D6
:10386000D10531F620E030E0A901CA01B9010E947A
:10387000C10D0E94260FC0911303C13099F48091AD
:10388000520281110FC00E94740420E030E040E039
:1038900050E40E94992518162CF40E94F41AC09343
:1038A000520209C080911303811105C08091520218
:1038B000811110925202DF91CF911F910F91FF90D1
:1038C000EF90DF90CF90BF90AF909F908F907F90C0
:1038D0006F905F904F9008950E94C91C8091530291
:1038E000811137C00E94AD1A80915402811102C02B
:1038F0000E94C3180E94210880915402811102C0C5
:103900000E940B1A80915402811118C00E94740405
:1039100020911A0330911B0340911C0350911D0309
:103920000E94DB2260935D0270935E0280935F02CF
:10393000909360020E94F6110E9451110E94CC09DE
:103940000E94381B0E9490090E94C6080E943216ED
:1039500002C00E942C060E94B61C86B590E00C9412
:10396000542B0E9466060E946C1CFDCFCF93DF9300
:1039700060E080E00E94521FCDEFD3E0699181E0CA
:103980000E94F71E85E0C53FD807C1F7DF91CF91B0
:103990000895EDEFF3E0119285E0E53FF807D9F7E0
:1039A000089584359105A8F56033710590F59B0164
:1039B00073E0359527957A95E1F76770452BA1F06F
:1039C00044E5429FF001439FF00D11248E0F9F1F8D
:1039D000FC01E350FC4F81E090E001C0880F6A9544
:1039E000EAF79081892B14C044E5429FF001439F80
:1039F000F00D11248E0F9F1FFC01E350FC4F81E05E
:103A000090E001C0880F6A95EAF78095908189233C
:103A1000808308952F923F924F925F926F927F9290
:103A20008F929F92AF92BF92CF92DF92EF92FF92CE
:103A30000F931F93CF93DF93CDB7DEB72E970FB6BB
:103A4000F894DEBF0FBECDBF1C013B012A013A83B3
:103A500029838417950771F57C836B8329813A81CB
:103A6000621673069CF48B819C81281739070CF42D
:103A70001AC1A8016B817C81C1010E94D11C2B81DC
:103A80003C812F5F3F4F3C832B83E8CFAB81BC81D0
:103A900029813A81A217B3070CF405C1A8016B81F3
:103AA0007C81C1010E94D11C8B819C8101979C83E8
:103AB0008B83D4CF89819A816817790751F53A822F
:103AC0002982241435049CF4A981BA814A165B0624
:103AD0000CF4E9C0A801B30189819A810E94D11C2C
:103AE00029813A812F5F3F4F3A832983EACF298189
:103AF0003A81241535050CF4D6C0A801B30189819B
:103B00009A810E94D11CA981BA811197BA83A98395
:103B1000D8CF4215530554F4872D69807A80698384
:103B20008A83922D832D1A01492E582EB2016219D3
:103B30007309072E000C880B990B0E942B246F83AE
:103B4000788789879A8769817A8166197709072E2C
:103B5000000C880B990B0E942B244B015C012F81D8
:103B6000388549855A850E9481236B837C838D83A8
:103B70009E8320E030E0A9010E94992587FF09C0BB
:103B80008B819C81AD81BE81B0588B839C83AD833A
:103B9000BE83C12CD12C760120E030E0A9016F81D9
:103BA000788589859A850E94992518160CF077C02A
:103BB000421453040CF477C0A801B301C1010E9460
:103BC000D11C2B813C814D815E81C701B6010E94D1
:103BD000DC226B017C0120E030E040E05FE30E94EA
:103BE000992587FF10C020E030E0A9016F8178851A
:103BF00089859A850E94992518160CF04CC09FEF74
:103C0000291A390AC9CF20E030E0A901C501B40161
:103C10000E9499251816CCF529813A812615370579
:103C200014F3A801B301C1010E94D11CA1E0B0E0CE
:103C3000BC87AB8720E030E0A901C501B4010E9438
:103C40009925181614F01C861B8621E030E03E876B
:103C50002D8720E030E0A901C501B4010E9477233F
:103C600087FD02C01E861D868B859C85AD85BE8521
:103C70008A1B9B0B680E791E20E030E040E85FE372
:103C8000C701B6010E94DB22A4CF89819A81681600
:103C900079063CF6A8CFA1E02A1A31087DCF24147A
:103CA00035040CF089CF2E960FB6F894DEBF0FBE08
:103CB000CDBFDF91CF911F910F91FF90EF90DF90DB
:103CC000CF90BF90AF909F908F907F906F905F90BC
:103CD0004F903F902F9008952F923F924F925F9276
:103CE0006F927F928F929F92AF92BF92CF92DF920C
:103CF000EF92FF920F931F93CF93DF936C014B01D1
:103D0000190185E0489F20011124E12CF12C80EA63
:103D1000481A510866246394712CF201EE0DFF1DC0
:103D2000E458FD4FE4912114310409F4E09500E0DA
:103D300010E0CE2FD0E05601AE0CBF1CA301002E28
:103D400002C0440F551F0A94E2F74C235D23002E56
:103D500002C0559547950A94E2F7B401600F711FB0
:103D6000C5010E94D11C0F5F1F4F0830110531F7AC
:103D70008FEFE81AF80A85E0E816F10471F6DF9192
:103D8000CF911F910F91FF90EF90DF90CF90BF9058
:103D9000AF909F908F907F906F905F904F903F90EB
:103DA0002F900895CF92DF92EF92FF920F931F937F
:103DB000CF93DF937B018A016901D82FC0E0F8011E
:103DC000EC0FF11D4081442349F09601B7018D2F7E
:103DD00090E00E946C1EDB5FCF5FF1CFDF91CF914F
:103DE0001F910F91FF90EF90DF90CF90089525B134
:103DF0002F7D30E2839FC0011124822B85B95F980B
:103E000087E090E070E08F989B01082E02C0359506
:103E100027950A94E2F720FF02C02E9A01C02E983F
:103E20008F9A019780F75F9A0895CF93C82F579A7A
:103E3000249A259A269A879A2C985F9A2C9A61E25E
:103E400080E00E94F71E6C2F606880E00E94F71EE1
:103E500064E080E00E94F71E63E180E00E94F71EAC
:103E60006CE080E00E94F71E60E280E00E94F71E96
:103E70006CE080E00E94F71E60E480E00E94F71E84
:103E800060E880E0CF910C94F71ECF93DF93C8EFEA
:103E9000D1E060E081E00E94F71E2197D1F7DF9129
:103EA000CF910895CF93C82F606480E00E94F71EE1
:103EB0006C2F606880E0CF910C94F71EA0E1B0E019
:103EC000E4E6FFE10C94CC2A7C011B016A01FC01B1
:103ED00017821682838181FF44C39E012F5F3F4F6B
:103EE0003901F7019381F10193FD859193FF819150
:103EF0001F01882309F431C3853239F493FD85917C
:103F000093FF81911F01853239F4B70190E00E943F
:103F10004D2C56016501E5CF10E0512C912CFFE1AD
:103F2000F915D8F08B3279F038F4803279F0833299
:103F3000A1F4F92DF0612EC08D3261F0803369F467
:103F4000292D21602DC0392D3260932E892D84605A
:103F5000982E2AC0E92DE86015C097FC2DC020EDF1
:103F6000280F2A3088F496FE06C03AE0139F200DF1
:103F70001124122F19C08AE0589E200D1124522EB0
:103F8000E92DE0629E2E10C08E3231F496FCE5C21F
:103F9000F92DF0649F2E08C08C3621F4292D20685D
:103FA000922E02C0883641F4F10193FD859193FF72
:103FB00081911F018111B3CF9BEB980F933020F4B7
:103FC000992D9061805E07C09BE9980F933008F0AF
:103FD00066C1992D9F7E96FF16E09F73992E8536B8
:103FE00019F49064992E08C0863621F4392F306870
:103FF000932E02C01111115097FE07C01C3350F4CC
:1040000044244394410E27E00BC0183038F027E0D9
:1040100017E005C027E09CE3492E02C0212F412C68
:10402000560184E0A80EB11CF60160817181828185
:104030009381042DA3010E945F2B6C01F981FC8701
:10404000F0FF02C0F3FF06C091FC06C092FE06C05E
:1040500000E205C00DE203C00BE201C000E08C8568
:104060008C7019F001115AC29BC297FE10C04C0C03
:10407000FC85F4FF04C08A81813309F44A94141446
:1040800074F528E0241578F588E0482E2CC096FCBD
:104090002AC0812F90E08C159D059CF03CEFC31643
:1040A0003FEFD30674F0892D8068982E0AC0E2E0B5
:1040B000F0E0EC0FFD1FE10FF11D8081803319F45A
:1040C00011501111F4CF97FE0EC044244394410EB9
:1040D000812F90E0C816D9062CF41C1904C0442482
:1040E000439401C010E097FE06C01C141D0434F474
:1040F000C601019605C085E090E002C081E090E035
:1041000001110196112331F0212F30E02F5F3F4F35
:10411000820F931F252D30E08217930714F4581A4D
:1041200001C0512C892D897049F4552039F0B7010F
:1041300080E290E00E944D2C5A94F7CF002329F0A2
:10414000B701802F90E00E944D2C93FC09C05520B0
:1041500039F0B70180E390E00E944D2C5A94F7CFDC
:1041600097FE4CC04601D7FE02C0812C912CC6019F
:1041700088199909F301E80FF91FFE87ED87960169
:1041800024193109388B2F87012F10E011950195E3
:1041900011093FEF8316930629F4B7018EE290E0F0
:1041A0000E944D2CC814D9044CF08F85988988152D
:1041B000990524F4ED85FE85818101C080E3F1E05D
:1041C0008F1A91082D853E852F5F3F4F3E872D87A3
:1041D000801691062CF0B70190E00E944D2CD9CFAB
:1041E000C814D90441F49A81963320F4953319F414
:1041F0003C8534FF81E3B70190E04EC08A81813372
:1042000019F09C859F7E9C87B70190E00E944D2C01
:10421000111105C094FC18C085E690E017C0B701E5
:104220008EE290E00E944D2C1E5F82E001E0080FBC
:10423000F301E80FF11D8081B70190E00E944D2C41
:10424000802F0113F3CFE6CF85E490E0B7010E9401
:104250004D2CD7FC06C0C114D10441F4EC85E4FF19
:1042600005C0D194C194D1088DE201C08BE2B701A1
:1042700090E00E944D2C80E32AE0C216D1042CF07D
:104280008F5FFAE0CF1AD108F7CFB70190E00E9414
:104290004D2CB701C601C0960E944D2C54C18336E7
:1042A00031F0833779F0833509F056C020C05601CC
:1042B00032E0A30EB11CF6018081898301E010E099
:1042C000630112C05601F2E0AF0EB11CF601C080CE
:1042D000D18096FE03C0612F70E002C06FEF7FEFC8
:1042E000C6010E94422C8C01F92DFF7714C05601A3
:1042F00022E0A20EB11CF601C080D18096FE03C060
:10430000612F70E002C06FEF7FEFC6010E94372C73
:104310008C01F92DF0689F2EF3FD1AC0852D90E0D9
:1043200008171907A8F4B70180E290E00E944D2C0D
:104330005A94F4CFF60197FC859197FE81916F0115
:10434000B70190E00E944D2C51105A940150110970
:104350000115110579F7F7C0843611F0893661F53A
:10436000560197FE09C024E0A20EB11CF60160813F
:104370007181828193810AC0F2E0AF0EB11CF60117
:1043800060817181072E000C880B990BF92DFF7647
:104390009F2E97FF09C090958095709561957F4FEE
:1043A0008F4F9F4FF0689F2E2AE030E0A3010E94BC
:1043B000AB2CC82EC6183FC0092D853721F40F7EBF
:1043C0002AE030E01DC0097F8F3691F018F488355F
:1043D00059F0C3C0803719F0883711F0BEC00061B2
:1043E00004FF09C0046007C094FE08C0066006C050
:1043F00028E030E005C020E130E002C020E132E0FA
:10440000560107FF09C084E0A80EB11CF6016081C7
:1044100071818281938108C0F2E0AF0EB11CF60178
:104420006081718180E090E0A3010E94AB2CC82ED6
:10443000C6180F77902E96FE0BC0092D0E7FC11661
:1044400050F494FE0AC092FC08C0092D0E7E05C0EF
:10445000DC2C092D03C0DC2C01C0D12E04FF0DC0C3
:10446000FE01EC0DF11D8081803311F4097E09C03D
:1044700002FF06C0D394D39404C0802F867809F03D
:10448000D39403FD11C000FF06C01C2DD51480F489
:10449000150D1D190DC0D51458F4B70180E290E038
:1044A0000E944D2CD394F7CFD51410F45D1801C0A1
:1044B000512C04FF10C0B70180E390E00E944D2C06
:1044C00002FF17C001FD03C088E790E002C088E545
:1044D00090E0B7010CC0802F867859F001FF02C030
:1044E0008BE201C080E207FD8DE2B70190E00E94FF
:1044F0004D2CC11638F4B70180E390E00E944D2C9A
:104500001150F7CFCA94F301EC0DF11D8081B70172
:1045100090E00E944D2CC110F5CF15C0F4E0F515C8
:1045200060F584E0581A93FE1FC0011127C02C8546
:1045300023FF2AC00AE711E0392D3071932EF801CC
:104540008491811124C0552009F4E4CCB70180E2A4
:1045500090E00E944D2C5A94F6CFF7018681978106
:1045600026C08FEF9FEF23C0B70180E290E00E944A
:104570004D2C5A945110F8CFD8CF512CB701802F21
:1045800090E00E944D2CD3CF0EE711E0D5CF9110D3
:104590008052B70190E00E944D2C0F5F1F4FCFCF8C
:1045A00023E0251510F483E0BDCF512CC0CF6096D9
:1045B000E2E10C94E82A5058BB27AA270E94F32274
:1045C0000C9433250E94FA2438F00E94012520F033
:1045D00039F49F3F19F426F40C94D0240EF4E0959E
:1045E000E7FB0C94A124E92F0E94582558F3BA1731
:1045F000620773078407950720F079F4A6F50C94F9
:1046000092250EF4E0950B2EBA2FA02D0B01B901C7
:1046100090010C01CA01A0011124FF27591B99F038
:10462000593F50F4503E68F11A16F040A22F232F44
:10463000342F4427585FF3CF469537952795A79594
:10464000F0405395C9F77EF41F16BA0B620B730B3B
:10465000840BBAF09150A1F0FF0FBB1F661F771FAC
:10466000881FC2F70EC0BA0F621F731F841F48F461
:10467000879577956795B795F7959E3F08F0B0CFEA
:104680009395880F08F09927EE0F979587950895D1
:10469000DF93DD27B92FBF7740E85FE316161706D3
:1046A00048075B0718F4D92F0E949E259F938F938C
:1046B0007F936F930E948526ECEAF0E00E94D3245A
:1046C0000E9433252F913F914F915F910E94B92510
:1046D000DD2351F09058A2EA2AED3FE049EC5FE378
:1046E000D0785D270E94F322DF910C9433250E943D
:1046F0007D2408F481E008950E940A25E3950C9436
:1047000044250E9495230C9433250E94012558F0DE
:104710000E94FA2440F029F45F3F29F00C94A12470
:1047200051110C9493250C94D0240E94582568F3C1
:104730009923B1F3552391F3951B550BBB27AA275A
:1047400062177307840738F09F5F5F4F220F331F94
:10475000441FAA1FA9F335D00E2E3AF0E0E832D05C
:1047600091505040E695001CCAF72BD0FE2F29D05F
:10477000660F771F881FBB1F261737074807AB0731
:10478000B0E809F0BB0B802DBF01FF2793585F4FA6
:104790003AF09E3F510578F00C94A1240C94932597
:1047A0005F3FE4F3983ED4F3869577956795B79588
:1047B000F7959F5FC9F7880F911D9695879597F993
:1047C0000895E1E0660F771F881FBB1F621773070C
:1047D0008407BA0720F0621B730B840BBA0BEE1F21
:1047E00088F7E09508950E94FA236894B1110C941B
:1047F000932508950E94602588F09F5798F0B92F5F
:104800009927B751B0F0E1F0660F771F881F991F05
:104810001AF0BA95C9F714C0B13091F00E949225F0
:10482000B1E008950C949225672F782F8827B85F00
:1048300039F0B93FCCF3869577956795B395D9F75D
:104840003EF490958095709561957F4F8F4F9F4F67
:104850000895E89409C097FB3EF490958095709573
:1048600061957F4F8F4F9F4F9923A9F0F92F96E9BC
:10487000BB279395F695879577956795B795F11131
:10488000F8CFFAF4BB0F11F460FF1BC06F5F7F4FCE
:104890008F4F9F4F16C0882311F096E911C07723E0
:1048A00021F09EE8872F762F05C0662371F096E8E9
:1048B000862F70E060E02AF09A95660F771F881FB8
:1048C000DAF7880F9695879597F908950E947A25CB
:1048D00090F09F3748F4911116F00C94932560E006
:1048E00070E080E89FEB089526F41B16611D711D92
:1048F000811D0C94A7240C94C224990F0008550F15
:10490000AA0BE0E8FEEF16161706E807F907C0F055
:1049100012161306E407F50798F0621B730B840B5D
:10492000950B39F40A2661F0232B242B252B21F437
:1049300008950A2609F4A140A6958FEF811D811DD7
:10494000089597F99F6780E870E060E008958823F4
:1049500071F4772321F09850872B762F07C06623B8
:1049600011F499270DC09051862B70E060E02AF079
:104970009A95660F771F881FDAF7880F96958795A7
:1049800097F908959F3F31F0915020F487957795DE
:104990006795B795880F911D9695879597F9089516
:1049A0009FEF80EC0895DF93CF931F930F93FF92B7
:1049B000EF92DF927B018C01689406C0DA2EEF0142
:1049C0000E94B925FE01E894A59125913591459164
:1049D0005591A6F3EF010E94F322FE019701A80171
:1049E000DA9469F7DF90EF90FF900F911F91CF91CC
:1049F000DF91089500240A94161617061806090672
:104A0000089500240A941216130614060506089544
:104A10000C94D0240E946025D8F3E894E0E0BB27F2
:104A20009F57F0F02AED3FE049EC06C0EE0FBB0FB8
:104A3000661F771F881F28F0B23A62077307840742
:104A400028F0B25A620B730B840BE3959A9572F7B8
:104A5000803830F49A95BB0F661F771F881FD2F7F6
:104A600090480C94C424092E0394000C11F488235C
:104A700052F0BB0F40F4BF2B11F460FF04C06F5F16
:104A80007F4F8F4F9F4F0895EF93E0FF07C0A2EA3B
:104A90002AED3FE049EC5FEB0E94F3220E943325B0
:104AA0000F90039401FC9058E9EDF0E00C949026EF
:104AB00057FD9058440F551F59F05F3F71F04795CF
:104AC000880F97FB991F61F09F3F79F087950895B4
:104AD000121613061406551FF2CF4695F1DF08C0D3
:104AE000161617061806991FF1CF869571056105F0
:104AF000089408950E946025A0F0BEE7B91788F4D5
:104B0000BB279F3860F41616B11D672F782F8827B2
:104B1000985FF7CF869577956795B11D93959639F0
:104B2000C8F30895E894BB2766277727CB0197F948
:104B300008950E947D2408F48FEF08959B01AC0135
:104B400060E070E080E89FE30C9481230E94B92527
:104B50000C9433250E94FA2438F00E94012520F09D
:104B6000952311F00C94A1240C94D02411240C94BE
:104B700093250E94582570F3959FC1F3950F50E03F
:104B8000551F629FF001729FBB27F00DB11D639FFF
:104B9000AA27F00DB11DAA1F649F6627B00DA11DA5
:104BA000661F829F2227B00DA11D621F739FB00D4B
:104BB000A11D621F839FA00D611D221F749F3327BB
:104BC000A00D611D231F849F600D211D822F762F54
:104BD0006A2F11249F5750409AF0F1F088234AF031
:104BE000EE0FFF1FBB1F661F771F881F915050409D
:104BF000A9F79E3F510580F00C94A1240C949325B5
:104C00005F3FE4F3983ED4F3869577956795B79523
:104C1000F795E7959F5FC1F7FE2B880F911D96953D
:104C2000879597F908950E946025E8F09E37E8F08F
:104C30009639B8F49E3848F4672F782F8827985F04
:104C4000F9CF86957795679593959539D0F3B62FDB
:104C5000B1706B0F711D811D20F487957795679555
:104C600093950C94A7240C94C2240C9493259F93A1
:104C70000E940A250F9007FCEE5F0C94442519F45E
:104C800016F40C94D0240C94C2240E946025B8F32E
:104C90009923C9F3B6F39F57550B87FF0E948926C6
:104CA0000024A0E640EA900180585695979528F494
:104CB000805C660F771F881F20F02617370748078C
:104CC00030F4621B730B840B202931294A2BA695E3
:104CD00017940794202531254A2758F7660F771F28
:104CE000881F20F026173707480730F4620B730B34
:104CF000840B200D311D411DA09581F7B901842F32
:104D00009158880F9695879508959B01AC010C9456
:104D1000A62591505040660F771F881FD2F708953F
:104D20009F938F937F936F93FF93EF939B01AC01BE
:104D30000E94A625EF91FF910E94D3242F913F91CD
:104D40004F915F910C94A6258091E80080FFFCCFE5
:104D5000089581E08093D70080EA8093D80082E1B3
:104D600089BD09B400FEFDCF80E98093D800109280
:104D7000E00010925C02109259028CE08093E200F5
:104D80007894089580915C0208959FB7F89480917B
:104D90005C02882369F083E08093E9002BE6809130
:104DA000E80085FD09C082FF03C02093E800F7CF2B
:104DB0009FBF8FEF9FEF08958091F1002091E80051
:104DC00025FD03C02BE62093E8009FBF90E00895E7
:104DD0002FB7F89480915C02811102C080E010C06E
:104DE00083E08093E9008091F200811109C09091E5
:104DF000E80092FFF3CF95FDF1CF9BE69093E8009A
:104E00002FBF089580915C02882371F08FB7F894CA
:104E100093E09093E9002BE69091E80095FF03C0A2
:104E20002093E800F9CF8FBF089590915C029923F9
:104E300071F09FB7F89424E02093E90020915A0282
:104E4000222349F02091E80025FD03C09FBF8FEF8A
:104E5000089510925A022091E400275E34E04091B8
:104E6000E80045FD12C09FBF9091E400291304C0E3
:104E700081E080935A02EBCF90915C02992339F341
:104E80009FB7F8943093E900EACF8093F1008091C6
:104E9000E80085FD03C08AE38093E80085E0809305
:104EA0005B029FBF80E0089590915C029923D1F04E
:104EB0009FB7F89424E02093E9002091E80025FDB5
:104EC00002C09FBF0FC08093F1008091E80085FD74
:104ED00003C08AE38093E80085E080935B029FBF74
:104EE00080E008958FEF08950F931F93CF93DF9382
:104EF000DC01CB0120915C02222371F02FB7F894E2
:104F000034E03093E90030915A02332349F0309174
:104F1000E80035FD03C02FBF8FEF43C110925A0246
:104F2000C4E0D0E41AE305E0009709F439C13091F8
:104F3000E400375E4091E80045FD12C02FBF20918C
:104F4000E400321304C081E080935A02E5CF20913F
:104F50005C02222309F32FB7F894C093E900EACF4B
:104F60003091F200ED2FE31B4E2F50E08417950790
:104F700008F4E82F8E1B91094E2F50E04134510563
:104F800008F001C1FA01E458FF4F0C94C62A3C9185
:104F90003093F10011963C913093F10011963C91C1
:104FA0003093F10011963C913093F10011963C91B1
:104FB0003093F10011963C913093F10011963C91A1
:104FC0003093F10011963C913093F10011963C9191
:104FD0003093F10011963C913093F10011963C9181
:104FE0003093F10011963C913093F10011963C9171
:104FF0003093F10011963C913093F10011963C9161
:105000003093F10011963C913093F10011963C9150
:105010003093F10011963C913093F10011963C9140
:105020003093F10011963C913093F10011963C9130
:105030003093F10011963C913093F10011963C9120
:105040003093F10011963C913093F10011963C9110
:105050003093F10011963C913093F10011963C9100
:105060003093F10011963C913093F10011963C91F0
:105070003093F10011963C913093F10011963C91E0
:105080003093F10011963C913093F10011963C91D0
:105090003093F10011963C913093F10011963C91C0
:1050A0003093F10011963C913093F10011963C91B0
:1050B0003093F10011963C913093F10011963C91A0
:1050C0003093F10011963C913093F10011963C9190
:1050D0003093F10011963C913093F10011963C9180
:1050E0003093F10011963C913093F10011963C9170
:1050F0003093F10011963C913093F10011963C9160
:105100003093F10011963C913093F10011963C914F
:105110003093F10011963C913093F10011963C913F
:105120003093F10011963C913093F10011963C912F
:105130003093F10011963C913093F10011963C911F
:105140003093F10011963C913093F10011963C910F
:105150003093F10011963C913093F10011963C91FF
:105160003093F10011963C913093F10011963C91EF
:105170003093F10011963C913093F10011963C91DF
:105180003093F10011963C913093F10011963091DB
:10519000E80035FF1093E80000935B022FBFC4CEF8
:1051A00080E0DF91CF911F910F9108958FB7F89410
:1051B00090915B02992341F094E09093E9009AE387
:1051C0009093E80010925B028FBF08956091C40134
:1051D0007091C5018091C6019091C7010895809199
:1051E000C80108958091C90108958091CA01089568
:1051F0008091590208959FB7F89420915C02222370
:1052000039F022E02093E9002091E80025FD03C059
:105210009FBF8FEF089521EA2093F10020E22093B1
:10522000F1001092F1001092F1001092F100109232
:10523000F10021E02093F1001092F1008093F10041
:105240008AE38093E8009FBF80E008951F920F9249
:105250000FB60F9211248F939F938091E1001092CB
:10526000E10083FF11C01092E90091E09093EB0000
:105270001092EC0092E19093ED0098E09093F00092
:1052800010925C021092590282FF13C080915C025E
:10529000882379F080915B02882359F081508093B4
:1052A0005B02811106C084E08093E9008AE3809369
:1052B000E8009F918F910F900FBE0F901F9018954F
:1052C0001F920F920FB60F921124FF920F931F930C
:1052D0002F933F934F935F936F937F938F939F93FE
:1052E000AF93BF93CF93DF93EF93FF931092E900B7
:1052F0008091E80083FF17C1F090F1008091F100E8
:105300000091F1009091F10010E0192BC091F10093
:105310009091F100D0E0D92B2091F1006091F10043
:1053200092EF9093E800863009F049C08CE594E054
:1053300046E854E0FC01A591B4910A171B07D9F483
:10534000FC013296A591B491CA17DB07A1F4FC01C8
:10535000349645915491FC013696849130E0362B79
:105360002F3F310519F010F02FEF30E0281708F427
:10537000822F3EEF0CC0079648175907D9F6D3C0C5
:10538000490F511D891B3093E8008823A9F09091A3
:10539000E800292F2570D9F392FDC8C0982F8131DC
:1053A00008F090E1FA01292F222351F364916093D0
:1053B000F10021503196F8CF903149F3B7C08530D4
:1053C00049F48EEF8093E8000E94A42600680093C1
:1053D000E300ACC0893059F5F110A5C000935C0220
:1053E0001092590210925B028EEF8093E80041E028
:1053F0008BE195E04093E9009C012F5F3F4FFC015A
:1054000054915093EB00552359F0F90124912093C6
:10541000EC009C012D5F3F4F3196E491E093ED004D
:105420004F5F453011F0C901E5CF8EE177C088307C
:1054300051F4F0E8FF1277C00E94A42680915C022C
:105440008093F10049C0813281F481EAF8126BC087
:105450000E94A426E4ECF1E08BEC91E021912093F2
:10546000F1008E179F07D1F737C08032A9F491E27F
:10547000F91259C08091E80082FFFCCFE4ECF1E022
:105480008BEC91E02091F10021938E179F07D1F7CB
:105490008BEF8093E80020C0823241F4E1E2FE12FB
:1054A00042C0009359020E94A42616C0811118C060
:1054B0000E94A426F2E8FF120AC0C093E90080917E
:1054C000EB0085FB882780F91092E90001C080E09D
:1054D0008093F1001092F1008EEF8093E80026C0D7
:1054E000982F9D7F9130F9F492E0F9121CC0012BA6
:1054F000D1F4CF779FEF9C0F9430A8F49EEF909358
:10550000E800C093E900833071F089E18093EB00FB
:1055100081E090E001C0880FCA95EAF78093EA0025
:105520001092EA0003C081E28093EB00FF91EF91BB
:10553000DF91CF91BF91AF919F918F917F916F91AB
:105540005F914F913F912F911F910F91FF900F907D
:105550000FBE0F901F90189587E880937A000895EA
:10556000982F9F71906490937C00807280937B0051
:1055700080917A00806480937A0080917A0086FD21
:10558000FCCF80917800909179000895EE0FFF1F75
:105590000590F491E02D09942F923F924F925F92E3
:1055A0006F927F928F929F92AF92BF92CF92DF9233
:1055B000EF92FF920F931F93CF93DF93CDB7DEB798
:1055C000CA1BDB0B0FB6F894DEBF0FBECDBF09942C
:1055D0002A88398848885F846E847D848C849B8483
:1055E000AA84B984C884DF80EE80FD800C811B8191
:1055F000AA81B981CE0FD11D0FB6F894DEBF0FBEC0
:10560000CDBFED0108958F929F92AF92BF92CF923E
:10561000DF92EF92FF92CF93DF93EC016881798163
:105620008A819B81611571058105910521F464E2F0
:1056300079ED8BE597E02DE133EF41E050E00E94FA
:10564000092D49015A019B01AC01A7EAB1E40E946E
:10565000282D6B017C01ACEEB4EFA50194010E94F2
:10566000362DDC01CB018C0D9D1DAE1DBF1DB7FF7E
:1056700003C00197A109B04888839983AA83BB839B
:105680009F77DF91CF91FF90EF90DF90CF90BF9009
:10569000AF909F908F9008950E94032B08958BECFC
:1056A00091E00E94032B0895A0E0B0E08093CB012D
:1056B0009093CC01A093CD01B093CE0108952830F2
:1056C00008F027E03327DA01990F311D87FD91603B
:1056D00000966105710539F432602E5F3D9330E329
:1056E0002A95E1F708959F3F30F0803871056105F4
:1056F00009F03C5F3C5F3D93913008F08068911D5C
:10570000DF93CF931F930F93FF92EF92192F987F00
:105710009695E92F96959695E90FFF27E452FE4F4F
:1057200099273327EE24FF24A701E7010590089469
:10573000079428F4360FE71EF81E491F511D660F07
:10574000771F881F991F0694A1F70590079428F4E6
:10575000E70EF81E491F561FC11D770F881F991F9E
:10576000661F0694A1F70590079428F4F80E491FC8
:10577000561FC71FD11D880F991F661F771F0694DC
:10578000A1F70590079420F4490F561FC71FD81F93
:10579000990F661F771F881F0694A9F784911095AB
:1057A000177041F0D695C79557954795F794E794AC
:1057B0001A95C1F7E2E8F1E06894159015913591DA
:1057C0006591959105907FE27395E118F10A430B7D
:1057D000560BC90BD009C0F7E10CF11E431F561F31
:1057E000C91FD01D7EF4703311F48A95E6CFE8947A
:1057F000015030F0080F0AF40027021708F4202F98
:105800002395022F7A3328F079E37D932A95E9F7DF
:1058100010C07D932A9589F60694979567953795DC
:1058200017951794E118F10A430B560BC90BD009D1
:1058300098F023957E9173957A3308F070E37C930A
:105840002013B8F77E9170617D9330F0839571E3FA
:105850007D9370E32A95E1F71124EF90FF900F916B
:105860001F91CF91DF91992787FD90950895FC01B5
:105870000590615070400110D8F7809590958E0F7B
:105880009F1F0895FC016150704001900110D8F7EE
:10589000809590958E0F9F1F08950F931F93CF9320
:1058A000DF93FB01238121FD03C08FEF9FEF2CC00D
:1058B00022FF16C046815781248135814217530744
:1058C00044F4A081B1819D012F5F3F4F318320833C
:1058D0008C93268137812F5F3F4F3783268314C0F7
:1058E0008B01EC01FB010084F185E02D0995892BEA
:1058F000E1F6D80116968D919C911797019617960F
:105900009C938E931697CE01DF91CF911F910F91AB
:105910000895AEE0B0E0EFE8FCE20C94DA2A0D89DD
:105920001E8986E08C831A8309838FEF9FE79E830D
:105930008D83AE01475E5F4F6F89788DCE010196F2
:105940000E945E1FEF81F885E00FF11F10822E96F6
:10595000E4E00C94F62AFA01AA27283051F120310C
:1059600081F1E8946F936E7F6E5F7F4F8F4F9F4FF3
:10597000AF4FB1E03ED0B4E03CD0670F781F891F35
:105980009A1FA11D680F791F8A1F911DA11D6A0F03
:10599000711D811D911DA11D20D009F468943F91B6
:1059A0002AE0269F11243019305D3193DEF6CF01B5
:1059B0000895462F4770405D4193B3E00FD0C9F77B
:1059C000F6CF462F4F70405D4A3318F0495D31FDE8
:1059D0004052419302D0A9F7EACFB4E0A69597953B
:1059E000879577956795BA95C9F700976105710511
:1059F00008959B01AC010A2E06945795479537955B
:105A00002795BA95C9F7620F731F841F951FA01DB4
:105A10000895052E97FB1EF400940E94202D57FD3B
:105A200007D00E943B2D07FC03D04EF40C94202D90
:105A300050954095309521953F4F4F4F5F4F0895BA
:105A400090958095709561957F4F8F4F9F4F0895EA
:105A50000E945D2DA59F900DB49F900DA49F800D79
:105A6000911D11240895B7FF0C94282D0E94282D14
:105A7000821B930B0895A1E21A2EAA1BBB1BFD01EA
:105A80000DC0AA1FBB1FEE1FFF1FA217B307E4071D
:105A9000F50720F0A21BB30BE40BF50B661F771F75
:105AA000881F991F1A9469F7609570958095909555
:105AB0009B01AC01BD01CF010895A29FB001B39F2E
:105AC000C001A39F700D811D1124911DB29F700D07
:0C5AD000811D1124911D0895F894FFCF52
