:100000000C947C020C9499020C9499020C94990221
:100010000C9499020C9499020C9499020C949902F4
:100020000C9499020C9499020C94BF190C94F91930
:100030000C9499020C9499020C9499020C949902D4
:100040000C9499020C9499020C9499020C949902C4
:100050000C9431080C9499020C9499020C94390474
:100060000C9499020C9499020C9499020C949902A4
:100070000C9499020C9499020C9499020C94990294
:100080000C9499020C9499020C9499020C94BC045F
:100090000C9499020C9499020C9499020C94990274
:1000A0000C9499020C9499020C94990205A84CCDD9
:1000B000B2D44EB93836A9020C50B9918688083CA2
:1000C000A6AAAA2ABE000000803F60195C19581930
:1000D000541950194C194819441940193C19381928
:1000E000341930192C192819241920191C19181918
:1000F000141910190C19081904190019FC18F8180A
:10010000F418F018EC18E818E418E018DC18D818FF
:10011000D418D018CC18C818C418C018BC18B818EF
:10012000B418B018AC18A818A418A0189C189818DF
:10013000941890188C188818841880187C187818CF
:10014000741870186C186818641860186E616E0066
:10015000696E660000407A10F35A00A0724E1809CA
:100160000010A5D4E80000E87648170000E40B541E
:10017000020000CA9A3B000000E1F50500008096ED
:100180009800000040420F000000A086010000001F
:10019000102700000000E8030000000064000000D9
:1001A00000000A00000000000100000000002C76A2
:1001B000D888DC674F0823DFC1DFAE59E1B1B796BD
:1001C000E5E3E453C63AE651997696E8E6C284261A
:1001D000EB898C9B62ED407C6FFCEFBC9C9F40F2F6
:1001E000BAA56FA5F490055A2AF75C936B6CF96772
:1001F0006DC11BFCE0E40D47FEF520E6B500D0ED37
:10020000902E0300943577050080841E080000209E
:100210004E0A000000C80C333333330F986E12833C
:100220001141EF8D2114893BE65516CFFEE6DB1810
:10023000D1844B381BF77C1D901DA4BBE4242032D5
:1002400084725E228100C9F124ECA1E53D27000003
:1002500000000000005F00000007000700147F148A
:100260007F14242A7F2A12231308646236495522F8
:10027000500005030000001C2241000041221C0028
:1002800014083E081408083E080800503000000812
:1002900008080808006060000020100804023E51B1
:1002A00049453E00427F4000426151494621414557
:1002B0004B311814127F1027454545393C4A4949AE
:1002C0003001710905033649494936064949291E55
:1002D0000036360000005636000008142241001493
:1002E0001414141400412214080201510906324961
:1002F00079413E7E1111117E7F494949363E414187
:1003000041227F4141221C7F494949417F09090916
:10031000013E4149497A7F0808087F00417F41003A
:100320002040413F017F081422417F404040407FF0
:10033000020C027F7F0408107F3E4141413E7F094D
:100340000909063E4151215E7F091929464649495E
:10035000493101017F01013F4040403F1F204020C3
:100360001F3F4038403F63140814630708700807B4
:100370006151494543007F414100020408102000BB
:1003800041417F000402010204404040404000011E
:1003900002040020545454787F484444383844447C
:1003A0004420384444487F3854545418087E090186
:1003B000020C5252523E7F0804047800447D4000F3
:1003C0002040443D007F1028440000417F40007CD5
:1003D000041804787C0804047838444444387C14B5
:1003E000141408081414187C7C0804040848545495
:1003F0005420043F4440203C4040207C1C204020AE
:100400001C3C4030403C44281028440C5050503C88
:100410004464544C44000836410000007F00000052
:100420004136080010080810087846414678000157
:100430000000DB04120002000098044300030000E7
:10044000940404010309047E0414020309046604ED
:10045000160303090458040C0C0331003200330066
:100460003400350000001603550053004200200000
:10047000530065007200690061006C000000140305
:1004800059006F007500720020004E0061006D0081
:10049000650000000403090409024300020100C0D2
:1004A00032090400000102020100052400100105C8
:1004B0002401010104240206052406000107058227
:1004C0000310004009040100020A000000070503B0
:1004D00002400000070584024000001201000202F1
:1004E000000010C0167A040001010203010001C1DE
:1004F000120180360181360011241FBECFEFDAE0F1
:10050000DEBFCDBF11E0A0E0B1E0EAEDFBE302C049
:1005100005900D92A83DB107D9F724E0A8EDB1E010
:1005200001C01D92A938B207E1F70E94F60D0C94A4
:10053000EB1D0C940000CF93CFB121E047E851E0D0
:1005400060E070E085E090E00E94171021E046E94D
:1005500051E06AE070E085E090E00E94171021E031
:1005600040EA51E06EE170E08AE090E00E941710EE
:1005700021E04EEA51E068E270E085E090E00E9400
:1005800017100E94FB0DC5FFD7CFCF910895809122
:10059000000190910101019709F0CEC010924E0226
:1005A00010924D0285E090E090934C0280934B02B4
:1005B0001092590210925A0210925B0210925C0241
:1005C00080E090E0A0E1B1E480935D0290935E0250
:1005D000A0935F02B093600280E090E0AEE9B2E4E5
:1005E0008093180290931902A0931A02B0931B02F1
:1005F00080E090E0ACE1B2E480931C0290931D0295
:10060000A0931E02B0931F020E94CE1BBC01990F43
:10061000880B990B0E94411520E03EEF4FEF56E406
:100620000E9497142DEC3CEC4CE45EE30E948D1686
:100630002DEC3CEC4CE45EE30E942114609320021C
:100640007093210280932202909323020E94CE1B7A
:10065000BC01990F880B990B0E94411520E03EEFD9
:100660004FEF56E40E9497142BED3FE049E450E42D
:100670000E948D169B01AC010E94211460932402FC
:1006800070932502809326029093270282E190E0E6
:1006900090933502809334028FE090E0909337027C
:1006A000809336028DE090E0909339028093380277
:1006B00089E190E090933B0280933A0290936A0222
:1006C0008093690223E230E030936C0220936B0246
:1006D00090936E0280936D022DE230E030937002B1
:1006E00020936F0230932902209328022AE030E001
:1006F00030932B0220932A024CE350E050932D02BA
:1007000040932C0230932F0220932E022AE330E0F4
:10071000309372022093710290937402809373025B
:1007200088E490E090937602809375028EE190E0E9
:1007300090937802809377028091590290915A02A7
:10074000A0915B02B0915C0280935102909352029F
:10075000A0935302B093540280915D0290915E0287
:10076000A0915F02B091600280935502909356026F
:10077000A0935702B09358028091180290911902E9
:10078000A0911A02B0911B02809310029093110263
:10079000A0931202B093130280911C0290911D024B
:1007A000A0911E02B0911F02809314029093150233
:1007B000A0931602B093170280E090E0FC01E45C85
:1007C000FD4F1082FC01E551FE4F108201968730EB
:1007D0009105A1F7EDE7F2E0A2EFB1E086EF9FEF20
:1007E000918380839383828311969C938E93139637
:1007F0009C938E9312973496149622E0E139F20777
:1008000079F70895CF9380E880936100C1E0C093A9
:1008100061008FE30E945A100E948A105298229819
:1008200084B184B951982198859886988198829846
:10083000229A239A14BC84E085BDC0936E00109266
:10084000800080938100C0936F0078940E944217CB
:100850000E945B178823E1F30E94C7020E949B025B
:100860001092900081E08093910080937100CF916D
:1008700008951F920F920FB60F9211240F931F939A
:100880002F933F934F935F936F937F938F939F9398
:10089000AF93BF93EF93FF93CF93DF93CDB7DEB7C3
:1008A0002E97DEBFCDBF8FB188878FB1898783B187
:1008B0008A8783B18B8789B18C8789B18D8783B112
:1008C0008E8787E0E0E8F1E0DE01119601900D925D
:1008D0008A95E1F7BE01685F7F4F8E010F5F1F4F62
:1008E00020E030E051E0F901E45CFD4F8081880FA9
:1008F000808380818F7180834081DB019D91BD0168
:10090000892F90E0D8010D9002C0959587950A94A3
:10091000E2F78D018170842B808380818F3129F4EF
:10092000F901E551FE4F508307C08081811104C059
:10093000F901E551FE4F10822F5F3F4F27303105FF
:1009400091F62E960FB6F894DEBF0FBECDBFDF91A5
:10095000CF91FF91EF91BF91AF919F918F917F9137
:100960006F915F914F913F912F911F910F910F9038
:100970000FBE0F901F9018951F920F920FB60F92F7
:1009800011248F939F93AF93BF938091D80190913F
:10099000D901A091DA01B091DB010196A11DB11D31
:1009A0008093D8019093D901A093DA01B093DB0131
:1009B000BF91AF919F918F910F900FBE0F901F909D
:1009C0001895CF92DF92EF92FF92CF93DF936091D1
:1009D000D8017091D9018091DA019091DB01C09129
:1009E0009400D09195000E943F1520E030E040E84F
:1009F00057E40E948D166B017C01BE0180E090E0FF
:100A00000E943F159B01AC01C701B6010E94211451
:100A10002DEB37E346E054E30E948D16DF91CF9132
:100A2000FF90EF90DF90CF9008958F929F92AF92BA
:100A3000BF92CF92DF92EF92FF920F931F93CF93CB
:100A4000DF93CDB7DEB764970FB6F894DEBF0FBE65
:100A5000CDBF809101018F93809100018F938EEB28
:100A600091E09F938F938E010F5F1F4F1F930F9302
:100A70000E94081D21E0A80160E070E080E090E0A5
:100A80000E9417108BE4E82E82E0F82EF701818196
:100A90008F9380818F9383EC91E09F938F931F932B
:100AA0000F930E94081D21E0A80160E070E082E140
:100AB00090E00E941710F70183818F9382818F93BA
:100AC00088EC91E09F938F931F930F930E94081DD2
:100AD00021E0A80160E070E084E290E00E9417103D
:100AE0000E94E10420E030E040E752E40E949714C5
:100AF0000E947C154B015C010E94E10420E030E083
:100B000040E752E40E9497146B017C010E947C151F
:100B10009B01AC01C701B6010E94201420E030E027
:100B200040E752E40E948D160E9409157F936F934F
:100B3000C501B4010E9409157F936F938DEC91E07C
:100B40009F938F931F930F930E94081D21E0A8018C
:100B500060E070E087E390E00E94171001E028E079
:100B600030E044E550E068E070E080E090E00E9412
:100B70004F0E0FB6F894DEBF0FBECDBF64960FB612
:100B8000F894DEBF0FBECDBFDF91CF911F910F91C3
:100B9000FF90EF90DF90CF90BF90AF909F908F909D
:100BA00008954F925F926F927F928F929F92AF9231
:100BB000BF92EF92FF920F931F93CF93DF93C0E00A
:100BC000D0E0CE018F599E4F7C0100E010E04E0135
:100BD0000D2E000CAA08BB08F7018081813059F561
:100BE000B801012E000C880B990B0E944115209131
:100BF0005D0230915E0240915F02509160020E945E
:100C000021140E9409152B013C01C501B4010E9469
:100C100041152091590230915A0240915B02509146
:100C20005C020E9421140E940915DC01CB0141E005
:100C3000B2010E94160E0F5F1F4FF5E0EF0EF11C80
:100C40000430110549F62196C530D10509F0B9CF18
:100C5000DF91CF911F910F91FF90EF90BF90AF90D8
:100C60009F908F907F906F905F904F9008954F92DC
:100C70005F926F927F928F929F92AF92BF92EF920C
:100C8000FF920F931F93CF93DF93C0E0D0E0CE018C
:100C9000835B9E4F7C0100E010E04E010D2E000CA6
:100CA000AA08BB08F7018081813059F5B801012EEF
:100CB000000C880B990B0E94411520911C02309169
:100CC0001D0240911E0250911F020E9421140E9499
:100CD00009152B013C01C501B4010E944115209169
:100CE00018023091190240911A0250911B020E9481
:100CF00021140E940915DC01CB0141E0B2010E94E0
:100D0000160E0F5F1F4FF5E0EF0EF11C04301105BA
:100D100049F62196C530D10509F0B9CFDF91CF91C1
:100D20001F910F91FF90EF90BF90AF909F908F9089
:100D30007F906F905F904F900895CF92DF92EF92E7
:100D4000FF920F93CF93DF93CDB7DEB7E0970FB647
:100D5000F894DEBF0FBECDBF88E0E4E3F2E0DE0131
:100D6000119601900D928A95E1F788E0E9E6F2E0AC
:100D7000DE01199601900D928A95E1F788E0E8E28C
:100D8000F2E0DE01519601900D928A95E1F788E03C
:100D9000E1E7F2E0DE01599601900D928A95E1F7C4
:100DA00088E0E3E4F2E0DE01919601900D928A95ED
:100DB000E1F788E0E3EEF1E0DE01999601900D9213
:100DC0008A95E1F7CE0101967C016E0191E3C90E8F
:100DD000D11CF7012681378144815581628173815D
:100DE00001E0808191810E944F0EF8E0EF0EF11C2E
:100DF000EC14FD0471F7E0960FB6F894DEBF0FBE59
:100E0000CDBFDF91CF910F91FF90EF90DF90CF900A
:100E10000895CF92DF92EF92FF920F931F93CF939B
:100E2000DF93CDE7D2E084E3C82E81E0D82EE12C19
:100E3000F12C00E010E088819981863F2FEF920726
:100E400079F0F601E00FF11F2081213049F46A8129
:100E50007B81600F711F41E08E0D9F1D0E94160E59
:100E60000F5F1F4F0530110531F78FEFE81AF80AB1
:100E700025E0C20ED11C85E0E816F104D1F62496D7
:100E800022E0C139D20779F6DF91CF911F910F91FE
:100E9000FF90EF90DF90CF9008950E9415050E947B
:100EA000D1050E9437060C9409072F923F924F926A
:100EB0005F926F927F928F929F92AF92BF92CF92EA
:100EC000DF92EF92FF920F931F93CF93DF9300D0A7
:100ED00000D0CDB7DEB7CFA0D8A4E9A4FAA48BA4E4
:100EE0009CA4ADA4BEA48FA998AD009709F449C0F5
:100EF00000E010E02C01990F66087708AFA9B8ADA3
:100F0000B7FF07C0C301B2010E944115A7019601B6
:100F100006C020E030E040EA50E4C701B6010E947C
:100F200021140E9409151B01B801012E000C880B29
:100F3000990B0E944115A50194010E9421140E9461
:100F400009159B0143E0359527954A95E1F7F10195
:100F5000B4E52B9FE00DF11D1124EF56FD4F2081CC
:100F600030E0462F4770C90102C0959587954A9594
:100F7000E2F780FD5EC00F5F1F4F0430110509F0DE
:100F8000BDCF89AD9AAD009709F451C000E010E0E3
:100F9000092E000CAA0BBB0B89839A83AB83BC83FD
:100FA00034E5332EB801012E000C880B990B0E94FA
:100FB0004115A70196010E9421140E9409152B01D9
:100FC0003C01A9ADBAAD1A161B063CF420E030E096
:100FD00040E850E4C501B40108C069817A818B8181
:100FE0009C810E944115A50194010E9421140E9438
:100FF0000915CB0123E0959587952A95E1F7839D07
:10100000C00111248F569D4FFC01E40DF51D808118
:1010100090E0677002C0959587956A95E2F780FD2C
:1010200008C00F5F1F4F0530110509F0BBCF80E0EE
:1010300001C081E00F900F900F900F90DF91CF9142
:101040001F910F91FF90EF90DF90CF90BF90AF90E6
:101050009F908F907F906F905F904F903F902F90D8
:1010600008951F920F920FB60F921124CF92DF9224
:10107000EF92FF922F933F934F935F936F937F93E2
:101080008F939F93AF93BF93EF93FF93CF93DF9390
:10109000CDB7DEB7C857D109DEBFCDBF0E945E17FE
:1010A0008337910509F05BC0C0905D02D0905E026D
:1010B000E0905F02F090600220E030E040E850E411
:1010C000C701B6010E94211420E030E040E85FE350
:1010D0000E94211420E030E040E452E40E948D148C
:1010E00087FF17C18EE1EBE4F2E0DE01A55ABF4FA6
:1010F00001900D928A95E1F71F9281E08F931F92E4
:101100001F922DB73EB72E5131090FB6F8943EBF4E
:101110000FBE2DBFADB7BEB711968EE1FE01E55AE9
:10112000FF4F01900D928A95E1F70E9455070FB687
:10113000F894DEBF0FBECDBF8111EBC020E030E0E0
:1011400040E85FE3C701B6010E94211460935D028D
:1011500070935E0280935F0290936002DAC08136E2
:101160009105A9F520E030E040E85FE36091590285
:1011700070915A0280915B0290915C020E9420144F
:101180006B017C0120E030E0A9010E94881618164E
:101190000CF0BFC08EE1EBE4F2E0DE01DD960190E1
:1011A0000D928A95E1F71F921F928FEF8F938F9385
:1011B0008DB79EB74E970FB6F8949EBF0FBE8DBFEA
:1011C000ADB7BEB711968EE1FE01FD968DC0873793
:1011D000910509F04BC020E030E040E85FE360910A
:1011E0005D0270915E0280915F02909160020E94A8
:1011F00020146B017C0120E030E040E051E40E94CB
:10120000881618160CF085C08EE1EBE4F2E0DE01E2
:101210005F9601900D928A95E1F78FEF8F938F93F0
:101220001F921F928DB79EB74E970FB6F8949EBF30
:101230000FBE8DBFADB7BEB711968EE1FE017F9692
:1012400001900D928A95E1F70E9455070FB6F89428
:10125000DEBF0FBECDBF81115CC0C0925D02D092D7
:101260005E02E0925F02F092600253C08436910504
:1012700009F04FC020E030E040E85FE360915902A0
:1012800070915A0280915B0290915C020E9421143D
:101290006B017C0120E030E040EA50E40E94211420
:1012A00020E030E048EA52E40E948D1487FF31C00C
:1012B0008EE1EBE4F2E0DE01119601900D928A9549
:1012C000E1F71F921F921F9281E08F938DB79EB717
:1012D0004E970FB6F8949EBF0FBE8DBFADB7BEB789
:1012E00011968EE1FE01319601900D928A95E1F7FB
:1012F0000E9455070FB6F894DEBF0FBECDBF811117
:1013000008C0C0925902D0925A02E0925B02F09259
:101310005C02C858DF4F0FB6F894DEBF0FBECDBFDA
:10132000DF91CF91FF91EF91BF91AF919F918F91FD
:101330007F916F915F914F913F912F91FF90EF902F
:10134000DF90CF900F900FBE0F901F9018958F9247
:101350009F92AF92BF92CF92DF92EF92FF92CF9384
:10136000DF93EB01BC01990F880B990B0E9441158B
:101370002091590230915A0240915B0250915C02D7
:101380000E9421144B015C01C0901802D0901902F8
:10139000E0901A02F0901B0220E030E040EA50E4B6
:1013A000C701B6010E9421149B01AC01C501B40123
:1013B0000E94881618160CF450C020E030E040EA75
:1013C00050E4C501B4010E9421149B01AC01C70186
:1013D000B6010E94881618160CF43FC0BE01DD0F3E
:1013E000880B990B0E94411520915D0230915E029D
:1013F00040915F02509160020E9421144B015C01F8
:10140000C0901C02D0901D02E0901E02F0901F02BE
:1014100020E030E040E850E4C701B6010E9421140A
:101420009B01AC01C501B4010E9488161816ACF0EE
:1014300020E030E040E850E4C501B4010E942114EE
:101440009B01AC01C1E0C701B6010E9488161816C5
:101450000CF0C0E081E08C2701C080E0DF91CF91EB
:10146000FF90EF90DF90CF90BF90AF909F908F90C4
:1014700008958F929F92AF92BF92CF92DF92EF9298
:10148000FF921F93CF93DF93CDB7DEB7CCA4DDA43B
:10149000EEA4FFA488A899A8AAA8BBA81CA920E02C
:1014A00030E0A901C701B6010E948816181684F021
:1014B00020E030E0A901C701B6010E948D1487FF2A
:1014C0000DC0C12CD12C30E8E32E3FEBF32E06C02B
:1014D000C12CD12C20E8E22E2FE3F22E20E030E0C8
:1014E000A901C501B4010E948816181684F020E0F5
:1014F00030E0A901C501B4010E948D1487FF0DC021
:10150000812C912C90E8A92E9FEBB92E06C0812C3E
:10151000912C80E8A82E8FE3B82E173509F5C50168
:10152000B4010E9409157FA76EA7C701B6010E94EA
:1015300009157DA76CA78EE1FE013E96DF010190A3
:101540000D928A95E1F7DF91CF911F91FF90EF9077
:10155000DF90CF90BF90AF909F908F900C945507E5
:1015600080E0DF91CF911F91FF90EF90DF90CF90BF
:10157000BF90AF909F908F900895CF93DF930E947C
:10158000CE1BCAE0D2E0BC01990F880B990B0E94D8
:10159000411520E03EEF4FEF56E40E9497142DECEA
:1015A0003CEC4CE45EE30E948D162DEC3CEC4CE4EC
:1015B0005EE30E9421146E8B7F8B888F998F0E942F
:1015C000CE1BBC01990F880B990B0E94411520E09E
:1015D0003EEF4FEF56E40E9497142BED3FE049E4B5
:1015E00050E40E948D169B01AC010E9421146A8F69
:1015F0007B8F8C8F9D8FDF91CF9108954F925F925B
:101600006F927F928F929F92AF92BF92CF92DF9212
:10161000EF92FF920F931F93CF93DF938091ED0191
:101620008130A1F08091EE01813099F08091EF013D
:101630008130A1F02091F00191E080E0213009F0AB
:1016400090E0C92FD82F00E010E00CC001E010E0BE
:1016500007C000E010E0CFEFDFEF04C00FEF1FEF97
:10166000C0E0D0E0B801CE010E94A7098111A1C05D
:10167000BE01DD0F880B990B0E944115EB01782EFE
:10168000692E2091590230915A0240915B0250918B
:101690005C02F3017D2F8F2F9E2F0E9421144B019E
:1016A0005C0120E030E040EA50E40E94211420E098
:1016B00030E048EA52E40E948D1487FFC5C020E064
:1016C00030E0A901C501B4010E94881618160CF07B
:1016D000BBC0B801110F880B990B0E944115162F42
:1016E000072F582E492E20915D0230915E024091C5
:1016F0005F0250916002D801F2016B2F7A2F8F2F79
:101700009E2F0E9421146B017C0120E030E040E814
:1017100050E40E94211420E030E040E452E40E94B2
:101720008D1487FF91C020E030E040E051E4C70114
:10173000B6010E94881618160CF086C087E58F93B4
:101740004F925F920F931F936F927F92DF93CF938D
:101750002DB73EB72E5131090FB6F8943EBF0FBEDC
:101760002DBFADB7BEB711968EE1EBE4F2E001906C
:101770000D928A95E1F70E94390A2DB73EB7295D8F
:101780003F4F0FB6F8943EBF0FBE2DBF81115CC016
:101790008092590290925A02A0925B02B0925C022F
:1017A000C0925D02D0925E02E0925F02F09260020F
:1017B0004BC08091510290915202A0915302B0917E
:1017C00054028093590290935A02A0935B02B09303
:1017D0005C028091550290915602A0915702B091FF
:1017E000580280935D0290935E02A0935F02B093D3
:1017F000600280914B0290914C02019790934C02B1
:1018000080934B028091100290911102A0911202DC
:10181000B09113028093180290931902A0931A02B8
:10182000B0931B028091140290911502A0911602B0
:10183000B091170280931C0290931D02A0931E0288
:10184000B0931F020E94BD0A8091EB01813061F4C8
:101850009091DC01911108C09091DE01982790933E
:10186000DE018093DC0109C08091EB01811105C08C
:101870008091DC0181111092DC01DF91CF911F91E9
:101880000F91FF90EF90DF90CF90BF90AF909F901F
:101890008F907F906F905F904F9008953F924F92FE
:1018A0005F926F927F928F929F92AF92BF92CF92F0
:1018B000DF92EF92FF920F931F93CF93DF93C0902D
:1018C0002402D0902502E0902602F0902702C70162
:1018D000B6010E9492148090200290902102A09064
:1018E0002202B0902302A50194010E948D16EB0103
:1018F000182F092FC701B6010E94FA162B013C01CF
:10190000209118023091190240911A0250911B0245
:10191000F8016C2F7D2F8F2F9E2F0E9421146B01B9
:101920007C0120E030E0A901F8016C2F7D2F8F2F82
:101930009E2F0E948D14881F8827881F332433947C
:10194000682F632525E0629FB0011124072E000C4B
:10195000880B990B0E944115A70196010E94211442
:1019600020E030E048EA52E40E94881618160CF491
:10197000CDC020E030E0A901C701B6010E948D145E
:1019800087FDC4C0A3019201C501B4010E948D1658
:101990002B01782E692E20911C0230911D0240915E
:1019A0001E0250911F02F301752D8F2F9E2F0E9452
:1019B00021144B015C0120E030E0A901F301642D0A
:1019C000752D8F2F9E2F0E948D14881F8827881FAA
:1019D0003826632D70E0660F771F660F771F072E7E
:1019E000000C880B990B0E944115A50194010E94DF
:1019F000211420E030E040E452E40E9488161816DA
:101A00000CF484C020E030E040E151E4C501B401B1
:101A10000E948D1487FD7AC087E5382E3F926F9221
:101A20007F925F924F920F931F93DF93CF938DB767
:101A30009EB74E970FB6F8949EBF0FBE8DBFADB741
:101A4000BEB711968EE1EAE0F2E001900D928A9520
:101A5000E1F70E94390A2DB73EB7295D3F4F0FB617
:101A6000F8943EBF0FBE2DBF811150C03F921F9210
:101A70001F921F921F920F931F93DF93CF938DB7E7
:101A80009EB74E970FB6F8949EBF0FBE8DBFADB7F1
:101A9000BEB711968EE1EAE0F2E001900D928A95D0
:101AA000E1F70E94390A2DB73EB7295D3F4F0FB6C7
:101AB000F8943EBF0FBE2DBF811128C03F926F9298
:101AC0007F925F924F921F921F921F921F928DB72B
:101AD0009EB74E970FB6F8949EBF0FBE8DBFADB7A1
:101AE000BEB711968EE1EAE0F2E001900D928A9580
:101AF000E1F70E94390A2DB73EB7295D3F4F0FB677
:101B0000F8943EBF0FBE2DBF882399F0DF91CF918F
:101B10001F910F91FF90EF90DF90CF90BF90AF900B
:101B20009F908F907F906F905F904F903F900C941C
:101B3000BD0A20E030E046EA52E4C701B6010E9447
:101B40008D1487FF11C020E030E0A901C701B60164
:101B50000E948816181644F4C0921802D0921902F6
:101B6000E0921A02F0921B0220E030E04CE352E4D3
:101B7000C501B4010E948D1487FF12C020E030E03F
:101B800040E051E4C501B4010E948816181644F4DF
:101B900080921C0290921D02A0921E02B0921F021F
:101BA000DF91CF911F910F91FF90EF90DF90CF9039
:101BB000BF90AF909F908F907F906F905F904F906D
:101BC0003F9008950E940E0E0E949D068091DE01B6
:101BD000811102C00E944E0C0E944D070E94FE0A15
:101BE0000E94FB0D86B590E00C94D31B0E9402046A
:101BF0000E94E20DFDCFCF93DF9360E080E00E9472
:101C00009710C1E9D2E0699181E00E943C1084E024
:101C1000C938D807C1F7DF91CF910895E1E9F2E023
:101C2000119284E0E938F807D9F7089584359105D1
:101C3000A8F56033710590F59B0173E03595279504
:101C40007A95E1F76770452BA1F044E5429FF001DA
:101C5000439FF00D11248E0F9F1FFC01EF56FD4F87
:101C600081E090E001C0880F6A95EAF79081892BA6
:101C700014C044E5429FF001439FF00D11248E0FE4
:101C80009F1FFC01EF56FD4F81E090E001C0880FDF
:101C90006A95EAF7809590818923808308952F9231
:101CA0003F924F925F926F927F928F929F92AF92EC
:101CB000BF92CF92DF92EF92FF920F931F93CF9339
:101CC000DF93CDB7DEB72E970FB6F894DEBF0FBE09
:101CD000CDBF1C013B012A013A8329838417950754
:101CE00071F57C836B8329813A81621673069CF4BB
:101CF0008B819C81281739070CF41AC1A8016B81CC
:101D00007C81C1010E94160E2B813C812F5F3F4FC9
:101D10003C832B83E8CFAB81BC8129813A81A21718
:101D2000B3070CF405C1A8016B817C81C1010E943D
:101D3000160E8B819C8101979C838B83D4CF8981E4
:101D40009A816817790751F53A822982241435045B
:101D50009CF4A981BA814A165B060CF4E9C0A8017B
:101D6000B30189819A810E94160E29813A812F5FE1
:101D70003F4F3A832983EACF29813A8124153505DB
:101D80000CF4D6C0A801B30189819A810E94160E75
:101D9000A981BA811197BA83A983D8CF4215530577
:101DA00054F4872D69807A8069838A83922D832DEC
:101DB0001A01492E582EB20162197309072E000C20
:101DC000880B990B0E9441156F83788789879A87C2
:101DD00069817A8166197709072E000C880B990BA7
:101DE0000E9441154B015C012F81388549855A8538
:101DF0000E9497146B837C838D839E8320E030E068
:101E0000A9010E94881687FF09C08B819C81AD8142
:101E1000BE81B0588B839C83AD83BE83C12CD12CF3
:101E2000760120E030E0A9016F81788589859A8567
:101E30000E94881618160CF077C0421453040CF454
:101E400077C0A801B301C1010E94160E2B813C810D
:101E50004D815E81C701B6010E9421146B017C0196
:101E600020E030E040E05FE30E94881687FF10C06A
:101E700020E030E0A9016F81788589859A850E94EC
:101E8000881618160CF04CC09FEF291A390AC9CFD2
:101E900020E030E0A901C501B4010E94881618169F
:101EA000CCF529813A812615370514F3A801B30131
:101EB000C1010E94160EA1E0B0E0BC87AB8720E014
:101EC00030E0A901C501B4010E948816181614F06B
:101ED0001C861B8621E030E03E872D8720E030E025
:101EE000A901C501B4010E948D1487FD02C01E86A0
:101EF0001D868B859C85AD85BE858A1B9B0B680ED8
:101F0000791E20E030E040E85FE3C701B6010E949F
:101F10002014A4CF89819A81681679063CF6A8CF4F
:101F2000A1E02A1A31087DCF241435040CF089CFA2
:101F30002E960FB6F894DEBF0FBECDBFDF91CF91C6
:101F40001F910F91FF90EF90DF90CF90BF90AF90D7
:101F50009F908F907F906F905F904F903F902F90C9
:101F600008952F923F924F925F926F927F928F923D
:101F70009F92AF92BF92CF92DF92EF92FF920F9318
:101F80001F93CF93DF936C014B01190185E0489FAC
:101F900020011124E12CF12C80EA481A5108662412
:101FA0006394712CF201EE0DFF1DE25BFD4FE49195
:101FB0002114310409F4E09500E010E0CE2FD0E0C8
:101FC0005601AE0CBF1CA301002E02C0440F551FCA
:101FD0000A94E2F74C235D23002E02C055954795E5
:101FE0000A94E2F7B401600F711FC5010E94160E3A
:101FF0000F5F1F4F0830110531F78FEFE81AF80A0D
:1020000085E0E816F10471F6DF91CF911F910F91F1
:10201000FF90EF90DF90CF90BF90AF909F908F9008
:102020007F906F905F904F903F902F900895CF9248
:10203000DF92EF92FF920F931F93CF93DF937B0179
:102040008A016901D82FC0E0F801EC0FF11D408131
:10205000442349F09601B7018D2F90E00E94B10F03
:10206000DB5FCF5FF1CFDF91CF911F910F91FF9099
:10207000EF90DF90CF90089525B12F7D30E2839FC0
:10208000C0011124822B85B95F9887E090E070E051
:102090008F989B01082E02C0359527950A94E2F788
:1020A00020FF02C02E9A01C02E988F9A019780F7C8
:1020B0005F9A0895CF93C82F579A249A259A269A03
:1020C000879A2C985F9A2C9A61E280E00E943C10DB
:1020D0006C2F606880E00E943C1064E080E00E9409
:1020E0003C1063E180E00E943C106CE080E00E94C4
:1020F0003C1060E280E00E943C106CE080E00E94B6
:102100003C1060E480E00E943C1060E880E0CF91E9
:102110000C943C10CF93DF93C8EFD1E060E081E0F6
:102120000E943C102197D1F7DF91CF910895CF9372
:10213000C82F606480E00E943C106C2F606880E0D3
:10214000CF910C943C10A0E1B0E0E9EAF0E10C94EE
:102150004B1B7C011B016A01FC01178216828381E3
:1021600081FF44C39E012F5F3F4F3901F7019381E7
:10217000F10193FD859193FF81911F01882309F45B
:1021800031C3853239F493FD859193FF81911F010D
:10219000853239F4B70190E00E94CC1C56016501EC
:1021A000E5CF10E0512C912CFFE1F915D8F08B32DE
:1021B00079F038F4803279F08332A1F4F92DF061AE
:1021C0002EC08D3261F0803369F4292D21602DC03D
:1021D000392D3260932E892D8460982E2AC0E92DE6
:1021E000E86015C097FC2DC020ED280F2A3088F438
:1021F00096FE06C03AE0139F200D1124122F19C03D
:102200008AE0589E200D1124522EE92DE0629E2E68
:1022100010C08E3231F496FCE5C2F92DF0649F2E89
:1022200008C08C3621F4292D2068922E02C08836F1
:1022300041F4F10193FD859193FF81911F0181117B
:10224000B3CF9BEB980F933020F4992D9061805E73
:1022500007C09BE9980F933008F066C1992D9F7EC7
:1022600096FF16E09F73992E853619F49064992E87
:1022700008C0863621F4392F3068932E02C0111120
:10228000115097FE07C01C3350F444244394410E70
:1022900027E00BC0183038F027E017E005C027E032
:1022A0009CE3492E02C0212F412C560184E0A80E48
:1022B000B11CF6016081718182819381042DA3019B
:1022C0000E94DE1B6C01F981FC87F0FF02C0F3FF66
:1022D00006C091FC06C092FE06C000E205C00DE2F9
:1022E00003C00BE201C000E08C858C7019F0011175
:1022F0005AC29BC297FE10C04C0CFC85F4FF04C070
:102300008A81813309F44A94141474F528E0241561
:1023100078F588E0482E2CC096FC2AC0812F90E0EA
:102320008C159D059CF03CEFC3163FEFD30674F06F
:10233000892D8068982E0AC0E2E0F0E0EC0FFD1FC6
:10234000E10FF11D8081803319F411501111F4CF88
:1023500097FE0EC044244394410E812F90E0C8168E
:10236000D9062CF41C1904C04424439401C010E085
:1023700097FE06C01C141D0434F4C601019605C066
:1023800085E090E002C081E090E001110196112308
:1023900031F0212F30E02F5F3F4F820F931F252D0B
:1023A00030E08217930714F4581A01C0512C892D7C
:1023B000897049F4552039F0B70180E290E00E941D
:1023C000CC1C5A94F7CF002329F0B701802F90E05E
:1023D0000E94CC1C93FC09C0552039F0B70180E362
:1023E00090E00E94CC1C5A94F7CF97FE4CC0460157
:1023F000D7FE02C0812C912CC60188199909F301DE
:10240000E80FF91FFE87ED87960124193109388BF3
:102410002F87012F10E01195019511093FEF8316C9
:10242000930629F4B7018EE290E00E94CC1CC814F8
:10243000D9044CF08F8598898815990524F4ED8589
:10244000FE85818101C080E3F1E08F1A91082D851E
:102450003E852F5F3F4F3E872D87801691062CF0DB
:10246000B70190E00E94CC1CD9CFC814D90441F424
:102470009A81963320F4953319F43C8534FF81E337
:10248000B70190E04EC08A81813319F09C859F7E10
:102490009C87B70190E00E94CC1C111105C094FCF0
:1024A00018C085E690E017C0B7018EE290E00E9468
:1024B000CC1C1E5F82E001E0080FF301E80FF11D64
:1024C0008081B70190E00E94CC1C802F0113F3CFD4
:1024D000E6CF85E490E0B7010E94CC1CD7FC06C093
:1024E000C114D10441F4EC85E4FF05C0D194C1943A
:1024F000D1088DE201C08BE2B70190E00E94CC1CB4
:1025000080E32AE0C216D1042CF08F5FFAE0CF1AE4
:10251000D108F7CFB70190E00E94CC1CB701C601EB
:10252000C0960E94CC1C54C1833631F0833779F0B9
:10253000833509F056C020C0560132E0A30EB11C0D
:10254000F6018081898301E010E0630112C0560129
:10255000F2E0AF0EB11CF601C080D18096FE03C040
:10256000612F70E002C06FEF7FEFC6010E94C11CB7
:102570008C01F92DFF7714C0560122E0A20EB11C88
:10258000F601C080D18096FE03C0612F70E002C0CA
:102590006FEF7FEFC6010E94B61C8C01F92DF06829
:1025A0009F2EF3FD1AC0852D90E008171907A8F497
:1025B000B70180E290E00E94CC1C5A94F4CFF6015F
:1025C00097FC859197FE81916F01B70190E00E9481
:1025D000CC1C51105A94015011090115110579F7BD
:1025E000F7C0843611F0893661F5560197FE09C0AF
:1025F00024E0A20EB11CF601608171818281938179
:102600000AC0F2E0AF0EB11CF60160817181072EA5
:10261000000C880B990BF92DFF769F2E97FF09C0B0
:1026200090958095709561957F4F8F4F9F4FF06883
:102630009F2E2AE030E0A3010E942A1DC82EC61852
:102640003FC0092D853721F40F7E2AE030E01DC000
:10265000097F8F3691F018F4883559F0C3C0803760
:1026600019F0883711F0BEC0006104FF09C0046092
:1026700007C094FE08C0066006C028E030E005C030
:1026800020E130E002C020E132E0560107FF09C03E
:1026900084E0A80EB11CF601608171818281938172
:1026A00008C0F2E0AF0EB11CF6016081718180E0DC
:1026B00090E0A3010E942A1DC82EC6180F77902E05
:1026C00096FE0BC0092D0E7FC11650F494FE0AC071
:1026D00092FC08C0092D0E7E05C0DC2C092D03C01C
:1026E000DC2C01C0D12E04FF0DC0FE01EC0DF11D4C
:1026F0008081803311F4097E09C002FF06C0D394A3
:10270000D39404C0802F867809F0D39403FD11C0C0
:1027100000FF06C01C2DD51480F4150D1D190DC029
:10272000D51458F4B70180E290E00E94CC1CD394F9
:10273000F7CFD51410F45D1801C0512C04FF10C060
:10274000B70180E390E00E94CC1C02FF17C001FD9E
:1027500003C088E790E002C088E590E0B7010CC0B4
:10276000802F867859F001FF02C08BE201C080E221
:1027700007FD8DE2B70190E00E94CC1CC11638F431
:10278000B70180E390E00E94CC1C1150F7CFCA94AF
:10279000F301EC0DF11D8081B70190E00E94CC1C8B
:1027A000C110F5CF15C0F4E0F51560F584E0581AB6
:1027B00093FE1FC0011127C02C8523FF2AC00CE403
:1027C00011E0392D3071932EF8018491811124C0CC
:1027D000552009F4E4CCB70180E290E00E94CC1CC3
:1027E0005A94F6CFF7018681978126C08FEF9FEF2D
:1027F00023C0B70180E290E00E94CC1C5A94511093
:10280000F8CFD8CF512CB701802F90E00E94CC1C7C
:10281000D3CF00E511E0D5CF91108052B70190E001
:102820000E94CC1C0F5F1F4FCFCF23E0251510F463
:1028300083E0BDCF512CC0CF6096E2E10C94671BC2
:102840005058BB27AA270E9438140C9422160E94C5
:10285000E91538F00E94F01520F039F49F3F19F483
:1028600026F40C94E6150EF4E095E7FB0C94B715EE
:10287000E92F0E94471658F3BA17620773078407B7
:10288000950720F079F4A6F50C9481160EF4E095E6
:102890000B2EBA2FA02D0B01B90190010C01CA011A
:1028A000A0011124FF27591B99F0593F50F4503EC5
:1028B00068F11A16F040A22F232F342F4427585FB7
:1028C000F3CF469537952795A795F0405395C9F7CF
:1028D0007EF41F16BA0B620B730B840BBAF0915087
:1028E000A1F0FF0FBB1F661F771F881FC2F70EC026
:1028F000BA0F621F731F841F48F4879577956795F9
:10290000B795F7959E3F08F0B0CF9395880F08F0E4
:102910009927EE0F9795879508950E94931508F4CF
:1029200081E008950E94F915E3950C9433160E94F6
:10293000AB140C9422160E94F01558F00E94E91571
:1029400040F029F45F3F29F00C94B71551110C9415
:1029500082160C94E6150E94471668F39923B1F38A
:10296000552391F3951B550BBB27AA2762177307B5
:10297000840738F09F5F5F4F220F331F441FAA1F49
:10298000A9F335D00E2E3AF0E0E832D09150504005
:10299000E695001CCAF72BD0FE2F29D0660F771FB3
:1029A000881FBB1F261737074807AB07B0E809F099
:1029B000BB0B802DBF01FF2793585F4F3AF09E3F1E
:1029C000510578F00C94B7150C9482165F3FE4F330
:1029D000983ED4F3869577956795B795F7959F5F61
:1029E000C9F7880F911D9695879597F90895E1E0AD
:1029F000660F771F881FBB1F621773078407BA070C
:102A000020F0621B730B840BBA0BEE1F88F7E09566
:102A100008950E9410156894B1110C9482160895BF
:102A20000E944F1688F09F5798F0B92F9927B751F9
:102A3000B0F0E1F0660F771F881F991F1AF0BA9562
:102A4000C9F714C0B13091F00E948116B1E0089529
:102A50000C948116672F782F8827B85F39F0B93F1B
:102A6000CCF3869577956795B395D9F73EF4909515
:102A70008095709561957F4F8F4F9F4F0895E89493
:102A800009C097FB3EF490958095709561957F4FB6
:102A90008F4F9F4F9923A9F0F92F96E9BB27939564
:102AA000F695879577956795B795F111F8CFFAF474
:102AB000BB0F11F460FF1BC06F5F7F4F8F4F9F4FA5
:102AC00016C0882311F096E911C0772321F09EE803
:102AD000872F762F05C0662371F096E8862F70E069
:102AE00060E02AF09A95660F771F881FDAF7880F43
:102AF0009695879597F908950E94691690F09F37EB
:102B000048F4911116F00C94821660E070E080E8B1
:102B10009FEB089526F41B16611D711D811D0C94F9
:102B2000BD150C94D815990F0008550FAA0BE0E8B5
:102B3000FEEF16161706E807F907C0F0121613067F
:102B4000E407F50798F0621B730B840B950B39F4BF
:102B50000A2661F0232B242B252B21F408950A2625
:102B600009F4A140A6958FEF811D811D089597F965
:102B70009F6780E870E060E00895882371F4772310
:102B800021F09850872B762F07C0662311F49927E0
:102B90000DC09051862B70E060E02AF09A95660F88
:102BA000771F881FDAF7880F9695879597F908950C
:102BB0009F3F31F0915020F4879577956795B795B1
:102BC000880F911D9695879597F908959FEF80EC52
:102BD000089500240A941616170618060906089583
:102BE00000240A94121613061406050608950C9480
:102BF000E6150E944F16D8F3E894E0E0BB279F57F4
:102C0000F0F02AED3FE049EC06C0EE0FBB0F661F67
:102C1000771F881F28F0B23A62077307840728F0ED
:102C2000B25A620B730B840BE3959A9572F7803856
:102C300030F49A95BB0F661F771F881FD2F7904814
:102C40000C94DA15092E0394000C11F4882352F029
:102C5000BB0F40F4BF2B11F460FF04C06F5F7F4FC8
:102C60008F4F9F4F0895EF93E0FF07C0A2EA2AED30
:102C70003FE049EC5FEB0E9438140E9422160F904F
:102C8000039401FC9058ECEAF0E00C94021757FD15
:102C90009058440F551F59F05F3F71F04795880FCA
:102CA00097FB991F61F09F3F79F087950895121661
:102CB00013061406551FF2CF4695F1DF08C016160D
:102CC00017061806991FF1CF8695710561050894BE
:102CD00008950E944F16A0F0BEE7B91788F4BB27ED
:102CE0009F3860F41616B11D672F782F8827985FDC
:102CF000F7CF869577956795B11D93959639C8F36B
:102D00000895E894BB2766277727CB0197F90895A4
:102D10000E94931508F48FEF08950E94A0160C945A
:102D200022160E94E91538F00E94F01520F0952334
:102D300011F00C94B7150C94E61511240C9482161E
:102D40000E94471670F3959FC1F3950F50E0551FF1
:102D5000629FF001729FBB27F00DB11D639FAA27F0
:102D6000F00DB11DAA1F649F6627B00DA11D661F3F
:102D7000829F2227B00DA11D621F739FB00DA11D60
:102D8000621F839FA00D611D221F749F3327A00D1A
:102D9000611D231F849F600D211D822F762F6A2FB6
:102DA00011249F5750409AF0F1F088234AF0EE0F1B
:102DB000FF1FBB1F661F771F881F91505040A9F748
:102DC0009E3F510580F00C94B7150C9482165F3F1E
:102DD000E4F3983ED4F3869577956795B795F79584
:102DE000E7959F5FC1F7FE2B880F911D96958795FC
:102DF00097F908959F930E94F9150F9007FCEE5FD5
:102E00000C9433169F938F937F936F93FF93EF935D
:102E10009B01AC010E948D16EF91FF910E94161745
:102E20002F913F914F915F910C948D16DF93CF932B
:102E30001F930F93FF92EF92DF927B018C016894B6
:102E400006C0DA2EEF010E94A016FE01E894A591BB
:102E50002591359145915591A6F3EF010E943814C3
:102E6000FE019701A801DA9469F7DF90EF90FF90D7
:102E70000F911F91CF91DF9108958091E80080FF1D
:102E8000FCCF089581E08093D70080EA8093D8003A
:102E900082E189BD09B400FEFDCF80E98093D800AE
:102EA0001092E0001092E2011092DF018CE080931A
:102EB000E200789408958091E20108959FB7F89414
:102EC0008091E201882369F083E08093E9002BE69A
:102ED0008091E80085FD09C082FF03C02093E800CF
:102EE000F7CF9FBF8FEF9FEF08958091F100209162
:102EF000E80025FD03C02BE62093E8009FBF90E08B
:102F000008952FB7F8948091E201811102C080E00A
:102F100010C083E08093E9008091F200811109C024
:102F20009091E80092FFF3CF95FDF1CF9BE690934F
:102F3000E8002FBF08958091E201882371F08FB7D8
:102F4000F89493E09093E9002BE69091E80095FFC8
:102F500003C02093E800F9CF8FBF08959091E2015C
:102F6000992371F09FB7F89424E02093E900209111
:102F7000E001222349F02091E80025FD03C09FBF16
:102F80008FEF08951092E0012091E400275E34E075
:102F90004091E80045FD12C09FBF9091E4002913C5
:102FA00004C081E08093E001EBCF9091E20199238E
:102FB00039F39FB7F8943093E900EACF8093F1009A
:102FC0008091E80085FD03C08AE38093E80085E0F6
:102FD0008093E1019FBF80E008959091E2019923E1
:102FE000D1F09FB7F89424E02093E9002091E80005
:102FF00025FD02C09FBF0FC08093F1008091E800C3
:1030000085FD03C08AE38093E80085E08093E101B9
:103010009FBF80E008958FEF08950F931F93CF9384
:10302000DF93DC01CB012091E201222371F02FB765
:10303000F89434E03093E9003091E001332349F013
:103040003091E80035FD03C02FBF8FEF43C11092D0
:10305000E001C4E0D0E41AE305E0009709F439C1C7
:103060003091E400375E4091E80045FD12C02FBF6B
:103070002091E400321304C081E08093E001E5CFA9
:103080002091E201222309F32FB7F894C093E900BD
:10309000EACF3091F200ED2FE31B4E2F50E0841762
:1030A000950708F4E82F8E1B91094E2F50E041340C
:1030B000510508F001C1FA01EB59FF4F0C94451B73
:1030C0003C913093F10011963C913093F1001196B0
:1030D0003C913093F10011963C913093F1001196A0
:1030E0003C913093F10011963C913093F100119690
:1030F0003C913093F10011963C913093F100119680
:103100003C913093F10011963C913093F10011966F
:103110003C913093F10011963C913093F10011965F
:103120003C913093F10011963C913093F10011964F
:103130003C913093F10011963C913093F10011963F
:103140003C913093F10011963C913093F10011962F
:103150003C913093F10011963C913093F10011961F
:103160003C913093F10011963C913093F10011960F
:103170003C913093F10011963C913093F1001196FF
:103180003C913093F10011963C913093F1001196EF
:103190003C913093F10011963C913093F1001196DF
:1031A0003C913093F10011963C913093F1001196CF
:1031B0003C913093F10011963C913093F1001196BF
:1031C0003C913093F10011963C913093F1001196AF
:1031D0003C913093F10011963C913093F10011969F
:1031E0003C913093F10011963C913093F10011968F
:1031F0003C913093F10011963C913093F10011967F
:103200003C913093F10011963C913093F10011966E
:103210003C913093F10011963C913093F10011965E
:103220003C913093F10011963C913093F10011964E
:103230003C913093F10011963C913093F10011963E
:103240003C913093F10011963C913093F10011962E
:103250003C913093F10011963C913093F10011961E
:103260003C913093F10011963C913093F10011960E
:103270003C913093F10011963C913093F1001196FE
:103280003C913093F10011963C913093F1001196EE
:103290003C913093F10011963C913093F1001196DE
:1032A0003C913093F10011963C913093F1001196CE
:1032B0003C913093F10011963C913093F1001196BE
:1032C0003091E80035FF1093E8000093E1012FBF33
:1032D000C4CE80E0DF91CF911F910F9108958FB7F9
:1032E000F8949091E101992341F094E09093E900E2
:1032F0009AE39093E8001092E1018FBF08956091E6
:10330000750170917601809177019091780108950F
:1033100080917901089580917A01089580917B01CF
:1033200008958091DF0108959FB7F8942091E201FC
:10333000222339F022E02093E9002091E80025FDC6
:1033400003C09FBF8FEF089521EA2093F10020E290
:103350002093F1001092F1001092F1001092F10010
:103360001092F10021E02093F1001092F10080937F
:10337000F1008AE38093E8009FBF80E008951F92E8
:103380000F920FB60F9211248F939F938091E100BB
:103390001092E10083FF11C01092E90091E0909338
:1033A000EB001092EC0092E19093ED0098E0909386
:1033B000F0001092E2011092DF0182FF13C08091B1
:1033C000E201882379F08091E101882359F081504E
:1033D0008093E101811106C084E08093E9008AE3D3
:1033E0008093E8009F918F910F900FBE0F901F90D8
:1033F00018951F920F920FB60F921124FF920F9300
:103400001F932F933F934F935F936F937F938F936C
:103410009F93AF93BF93CF93DF93EF93FF9310925C
:10342000E9008091E80083FF17C1F090F1008091DE
:10343000F1000091F1009091F10010E0192BC09182
:10344000F1009091F100D0E0D92B2091F100609132
:10345000F10092EF9093E800863009F049C08EE2C7
:1034600094E048E554E0FC01A591B4910A171B07CC
:10347000D9F4FC013296A591B491CA17DB07A1F4E7
:10348000FC01349645915491FC013696849130E0CC
:10349000362B2F3F310519F010F02FEF30E02817B1
:1034A00008F4822F3EEF0CC0079648175907D9F64B
:1034B000D3C0490F511D891B3093E8008823A9F020
:1034C0009091E800292F2570D9F392FDC8C0982F5C
:1034D000813108F090E1FA01292F222351F3649100
:1034E0006093F10021503196F8CF903149F3B7C085
:1034F000853049F48EEF8093E8000E943D17006804
:103500000093E300ACC0893059F5F110A5C00093D9
:10351000E2011092DF011092E1018EEF8093E8004A
:1035200041E08DEE94E04093E9009C012F5F3F4F16
:10353000FC0154915093EB00552359F0F90124916B
:103540002093EC009C012D5F3F4F3196E491E09376
:10355000ED004F5F453011F0C901E5CF8EE177C036
:10356000883051F4F0E8FF1277C00E943D17809137
:10357000E2018093F10049C0813281F481EAF812BE
:103580006BC00E943D17E5E7F1E08CE791E02191E7
:103590002093F1008E179F07D1F737C08032A9F42E
:1035A00091E2F91259C08091E80082FFFCCFE5E773
:1035B000F1E08CE791E02091F10021938E179F07B5
:1035C000D1F78BEF8093E80020C0823241F4E1E232
:1035D000FE1242C00093DF010E943D1716C0811108
:1035E00018C00E943D17F2E8FF120AC0C093E9001C
:1035F0008091EB0085FB882780F91092E90001C0DB
:1036000080E08093F1001092F1008EEF8093E8004B
:1036100026C0982F9D7F9130F9F492E0F9121CC0DA
:10362000012BD1F4CF779FEF9C0F9430A8F49EEF3D
:103630009093E800C093E900833071F089E18093B2
:10364000EB0081E090E001C0880FCA95EAF7809313
:10365000EA001092EA0003C081E28093EB00FF9140
:10366000EF91DF91CF91BF91AF919F918F917F911A
:103670006F915F914F913F912F911F910F91FF900B
:103680000F900FBE0F901F901895EE0FFF1F059023
:10369000F491E02D09942F923F924F925F926F9296
:1036A0007F928F929F92AF92BF92CF92DF92EF92D2
:1036B000FF920F931F93CF93DF93CDB7DEB7CA1B53
:1036C000DB0B0FB6F894DEBF0FBECDBF09942A887E
:1036D000398848885F846E847D848C849B84AA8426
:1036E000B984C884DF80EE80FD800C811B81AA81B3
:1036F000B981CE0FD11D0FB6F894DEBF0FBECDBF7E
:10370000ED0108958F929F92AF92BF92CF92DF9278
:10371000EF92FF92CF93DF93EC01688179818A81E8
:103720009B81611571058105910521F464E279EDB4
:103730008BE597E02DE133EF41E050E00E94881DDA
:1037400049015A019B01AC01A7EAB1E40E94A71DFF
:103750006B017C01ACEEB4EFA50194010E94B51D94
:10376000DC01CB018C0D9D1DAE1DBF1DB7FF03C03D
:103770000197A109B04888839983AA83BB839F7767
:10378000DF91CF91FF90EF90DF90CF90BF90AF90FF
:103790009F908F9008950E94821B08958CE791E07E
:1037A0000E94821B0895A0E0B0E080937C0190937A
:1037B0007D01A0937E01B0937F010895283008F029
:1037C00027E03327DA01990F311D87FD91600096BC
:1037D0006105710539F432602E5F3D9330E32A951F
:1037E000E1F708959F3F30F080387105610509F0D9
:1037F0003C5F3C5F3D93913008F08068911DDF9302
:10380000CF931F930F93FF92EF92192F987F969566
:10381000E92F96959695E90FFF27E255FE4F9927D8
:103820003327EE24FF24A701E701059008940794AD
:1038300028F4360FE71EF81E491F511D660F771F2B
:10384000881F991F0694A1F70590079428F4E70EA6
:10385000F81E491F561FC11D770F881F991F661F2D
:103860000694A1F70590079428F4F80E491F561FF7
:10387000C71FD11D880F991F661F771F0694A1F7D8
:103880000590079420F4490F561FC71FD81F990FA2
:10389000661F771F881F0694A9F7849110951770EB
:1038A00041F0D695C79557954795F794E7941A95A3
:1038B000C1F7E4E5F1E068941590159135916591B3
:1038C000959105907FE27395E118F10A430B560B31
:1038D000C90BD009C0F7E10CF11E431F561FC91FC9
:1038E000D01D7EF4703311F48A95E6CFE894015030
:1038F00030F0080F0AF40027021708F4202F239550
:10390000022F7A3328F079E37D932A95E9F710C0E6
:103910007D932A9589F6069497956795379517951F
:103920001794E118F10A430B560BC90BD00998F014
:1039300023957E9173957A3308F070E37C9320137E
:10394000B8F77E9170617D9330F0839571E37D933C
:1039500070E32A95E1F71124EF90FF900F911F91EA
:10396000CF91DF91992787FD90950895FC010590EF
:10397000615070400110D8F7809590958E0F9F1F71
:103980000895FC016150704001900110D8F78095B6
:1039900090958E0F9F1F08950F931F93CF93DF93E2
:1039A000FB01238121FD03C08FEF9FEF2CC022FF7D
:1039B00016C046815781248135814217530744F44C
:1039C000A081B1819D012F5F3F4F318320838C9374
:1039D000268137812F5F3F4F3783268314C08B01A9
:1039E000EC01FB010084F185E02D0995892BE1F6BE
:1039F000D80116968D919C911797019617969C93D6
:103A00008E931697CE01DF91CF911F910F9108955C
:103A1000AEE0B0E0EEE0FDE10C94591B0D891E898B
:103A200086E08C831A8309838FEF9FE79E838D83C3
:103A3000AE01475E5F4F6F89788DCE0101960E947F
:103A4000A310EF81F885E00FF11F10822E96E4E0BD
:103A50000C94751BFA01AA27283051F1203181F10D
:103A6000E8946F936E7F6E5F7F4F8F4F9F4FAF4F86
:103A7000B1E03ED0B4E03CD0670F781F891F9A1F99
:103A8000A11D680F791F8A1F911DA11D6A0F711D4D
:103A9000811D911DA11D20D009F468943F912AE059
:103AA000269F11243019305D3193DEF6CF01089541
:103AB000462F4770405D4193B3E00FD0C9F7F6CF72
:103AC000462F4F70405D4A3318F0495D31FD40523A
:103AD000419302D0A9F7EACFB4E0A69597958795D0
:103AE00077956795BA95C9F70097610571050895AF
:103AF0009B01AC010A2E069457954795379527955B
:103B0000BA95C9F7620F731F841F951FA01D0895F2
:103B1000052E97FB1EF400940E949F1D57FD07D0B1
:103B20000E94BA1D07FC03D04EF40C949F1D5095C3
:103B30004095309521953F4F4F4F5F4F0895909599
:103B40008095709561957F4F8F4F9F4F08950E948C
:103B5000DC1DA59F900DB49F900DA49F800D911D1D
:103B600011240895B7FF0C94A71D0E94A71D821B66
:103B7000930B0895A1E21A2EAA1BBB1BFD010DC0D9
:103B8000AA1FBB1FEE1FFF1FA217B307E407F5070D
:103B900020F0A21BB30BE40BF50B661F771F881FE9
:103BA000991F1A9469F760957095809590959B017F
:103BB000AC01BD01CF010895A29FB001B39FC00128
:103BC000A39F700D811D1124911DB29F700D811D49
:0A3BD0001124911D0895F894FFCF11
:103BDA0001000101010101010000000101000100D1
:103BEA0001010000000101010101010101010101BE
:103BFA0001000000010101000101010100010101B0
:103C0A00010101010101010101010000000101009E
:103C1A00010101010000000101010101010001008F
:103C2A00010001010101010100010001000101017E
:103C3A00000101000101010100010101010101016D
:103C4A00000101010000E10000000008010000007D
:103C5A00050607010100005A616368617279204E06
:103C6A0069636F6C6C006E31303231343435330035
:103C7A00546F6D20416E64204A65727279002D4F2F
:103C8A006E20746865205465656E73792D004C3A10
:103C9A00256400483A256400533A256400253032E9
:083CAA00643A25303264000089
:00000001FF
