:100000000C9499020C94B6020C94B6020C94B602AD
:100010000C94B6020C94B6020C94B6020C94B60280
:100020000C94B6020C94B6020C94F02C0C942A2D6D
:100030000C94B6020C94B6020C94B6020C94B60260
:100040000C94B6020C94B6020C94B6020C94B60250
:100050000C943B1C0C94B6020C94B6020C945905FB
:100060000C94B6020C94B6020C94B6020C94B60230
:100070000C94B6020C94B6020C94B6020C94B60220
:100080000C94B6020C94B6020C94B6020C9486053D
:100090000C94B6020C94B6020C94B6020C94B60200
:1000A0000C94B6020C94B6020C94B602084AD73BE4
:1000B0003BCE016E84BCBFFDC12F3D6C74319ABD37
:1000C00056833DDA3D00C77F11BED9E4BB4C3E915B
:1000D0006BAAAABE000000803F05A84CCDB2D44E4A
:1000E000B93836A9020C50B9918688083CA6AAAA4C
:1000F0002ABE000000803F00912C8D2C892C852C7D
:10010000812C7D2C792C752C712C6D2C692C652CF7
:10011000612C5D2C592C552C512C4D2C492C452CE7
:10012000412C3D2C392C352C312C2D2C292C252CD7
:10013000212C1D2C192C152C112C0D2C092C052CC7
:10014000012CFD2BF92BF52BF12BED2BE92BE52BBE
:10015000E12BDD2BD92BD52BD12BCD2BC92BC52BAF
:10016000C12BBD2BB92BB52BB12BAD2BA92BA52B9F
:10017000A12B9D2B992B952B912B6E616E00696E97
:10018000660000407A10F35A00A0724E1809001061
:10019000A5D4E80000E87648170000E40B540200FC
:1001A00000CA9A3B000000E1F50500008096980027
:1001B000000040420F000000A08601000000102750
:1001C00000000000E80300000000640000000000E0
:1001D0000A00000000000100000000002C76D88812
:1001E000DC674F0823DFC1DFAE59E1B1B796E5E325
:1001F000E453C63AE651997696E8E6C28426EB893E
:100200008C9B62ED407C6FFCEFBC9C9F40F2BAA5DA
:100210006FA5F490055A2AF75C936B6CF9676DC172
:100220001BFCE0E40D47FEF520E6B500D0ED902E76
:100230000300943577050080841E080000204E0AD4
:10024000000000C80C333333330F986E1283114112
:10025000EF8D2114893BE65516CFFEE6DB18D184DD
:100260004B381BF77C1D901DA4BBE4242032847204
:100270005E228100C9F124ECA1E53D276364696E2B
:100280006F70737578585B00000000000000005F1D
:1002900000000007000700147F147F14242A7F2A1F
:1002A00012231308646236495522500005030000EA
:1002B000001C2241000041221C0014083E081408C2
:1002C000083E0808005030000008080808080060D0
:1002D00060000020100804023E5149453E00427F64
:1002E000400042615149462141454B311814127F6B
:1002F0001027454545393C4A4949300171090503F4
:100300003649494936064949291E0036360000005B
:10031000563600000814224100141414141400412D
:100320002214080201510906324979413E7E111119
:10033000117E7F494949363E414141227F41412258
:100340001C7F494949417F090909013E4149497AD0
:100350007F0808087F00417F41002040413F017F26
:10036000081422417F404040407F020C027F7F04FE
:1003700008107F3E4141413E7F090909063E415137
:10038000215E7F09192946464949493101017F010A
:10039000013F4040403F1F2040201F3F4038403F2A
:1003A0006314081463070870080761514945430046
:1003B0007F41410002040810200041417F000402F7
:1003C0000102044040404040000102040020545417
:1003D00054787F484444383844444420384444489E
:1003E0007F3854545418087E0901020C5252523E70
:1003F0007F0804047800447D40002040443D007F95
:100400001028440000417F40007C041804787C08D8
:1004100004047838444444387C1414140808141430
:10042000187C7C080404084854545420043F444079
:10043000203C4040207C1C2040201C3C4030403C64
:1004400044281028440C5050503C4464544C440000
:100450000836410000007F00000041360800100807
:100460000810087846414678000100001505120082
:10047000020000D2044300030000CE04040103097B
:1004800004B8041402030904A00416030309049227
:10049000040C0C033100320033003400350000003E
:1004A00016035500530042002000530065007200FF
:1004B000690061006C000000140359006F007500B2
:1004C000720020004E0061006D0065000000040312
:1004D000090409024300020100C0320904000001BE
:1004E0000202010005240010010524010101042479
:1004F00002060524060001070582031000400904D6
:100500000100020A00000007050302400000070581
:1005100084024000001201000202000010C0167A9E
:10052000040001010203010001C1120180360181B2
:10053000360011241FBECFEFDAE0DEBFCDBF13E0DF
:10054000A0E0B1E0E8E4F9E602C005900D92A43322
:10055000B107D9F726E0A4E3B3E001C01D92AC3D9A
:10056000B207E1F70E947B200C94A2340C940000A7
:10057000CF93DF93FC018491EF012196882321F032
:100580000E94DF2AFE01F7CFDF91CF910895CF932C
:10059000CFB121E044EE51E060E070E085E090E012
:1005A0000E949C2221E043EF51E06AE070E085E088
:1005B00090E00E949C2221E04DEF51E06EE170E05E
:1005C0008AE090E00E949C2221E04BE052E068E249
:1005D00070E085E090E00E949C220E948020C5FF90
:1005E000D7CFCF9108950F931F93EBE5F4E080E010
:1005F00090E0A0E9B1E480839183A283B38380E09B
:1006000090E0A0E7B1E484839583A683B78380E07C
:1006100090E0A0E5B1E480879187A287B38780E06E
:1006200090E0A8ECB1E484879587A687B787EAEACB
:10063000F4E080839183A283B38340E050E06CE0D8
:1006400072E4448355836683778380879187A2878A
:10065000B38740E050E064E372E4448755876687DF
:100660007787E3E4F4E0408351836283738340E05F
:1006700050E060E271E4448355836683778300E051
:1006800010E020E732E40087118722873387448710
:10069000558766877787EAEBF4E040E050E068E64C
:1006A00072E4408351836283738384839583A6833A
:1006B000B78380E090E0A0E9B2E480879187A287C9
:1006C000B38780E090E0A0EFB1E484879587A687A8
:1006D000B7871F910F9108950F931F93EBE5F4E0F7
:1006E00080E090E0A0ECB1E480839183A283B383A7
:1006F00080E090E0A0E7B1E484839583A683B7838C
:1007000080E090E0A0E5B1E480879187A287B3877D
:1007100084879587A687B787EAEAF4E040E050E04F
:1007200068EC71E4408351836283738380E090E0DE
:10073000A0E2B2E484839583A683B78380E090E04F
:10074000A4E1B2E480879187A287B38780E090E03C
:10075000A4E3B2E484879587A687B787E3E4F4E04F
:1007600080E090E0A4E0B2E480839183A283B3832D
:1007700080E090E0A0E2B1E484839583A683B78310
:1007800000E010E020E432E40087118722873387FD
:1007900084879587A687B787EAEBF4E080E090E04E
:1007A000A8E6B2E480839183A283B3834483558314
:1007B0006683778380879187A287B38780E090E004
:1007C000A0EFB1E484879587A687B7871F910F9123
:1007D0000895CF93DF93CDB7DEB72C970FB6F8947B
:1007E000DEBF0FBECDBF8CE0E1EDF1E0DE01119682
:1007F00001900D928A95E1F7FE013196CE010D969A
:1008000040E050E060E87FEBA191B1914D935D93A2
:100810006D937C93139714964D935D936D937C9396
:10082000179718964D935D936D937C931B971C9629
:100830004D935D936D937C931F97E817F90721F70C
:100840002C960FB6F894DEBF0FBECDBFDF91CF91CF
:1008500008950F931F93CF93DF93CDB7DEB70F812A
:1008600018859E01235F3F4F4B855C8569857A859E
:10087000C8010E949A30F80101900020E9F73197F1
:10088000BF01601B710BC8010E943E2BDF91CF910D
:100890001F910F9108958F929F92AF92BF92CF9226
:1008A000DF92EF92FF920F931F93CF93DF93CDB719
:1008B000DEB7C055D1090FB6F894DEBF0FBECDBF6D
:1008C00020E030E040E752E460914403709145033A
:1008D00080914603909147030E944B274B015C0196
:1008E0000E9430286B017C019B01AC01C501B40161
:1008F0000E94A52620E030E040E752E40E947029E3
:100900000E94BD277F936F93C701B6010E94BD2748
:100910007F936F938BE192E09F938F931F9290E56B
:10092000F92EFF928E010F5F1F4F1F930F930E94AE
:10093000290480910B018F9380910A018F9384E3A6
:1009400092E09F938F931F92FF921F930F930E94A9
:10095000290480918D048F9380918C048F9388E477
:1009600092E09F938F931F92FF921F930F930E9489
:10097000290480918F048F9380918E048F9384E556
:1009800092E09F938F931F92FF921F930F930E9469
:1009900029040FB6F894DEBF0FBECDBF80918E0440
:1009A00090918F0403974CF0209190043091910422
:1009B00084E190E0821B930B02C080E090E09F9363
:1009C0008F9380E692E09F938F931F9280E5F82E9D
:1009D000FF921F930F930E94290480915A048F93D2
:1009E000809159048F938AE792E09F938F931F928F
:1009F000FF921F930F930E9429048091CF048F933D
:100A00008091CE048F9384E992E09F938F931F92FD
:100A1000FF921F930F930E942904809158048F9393
:100A2000809157048F938BEA92E09F938F931F924C
:100A3000FF921F930F930E9429040FB6F894DEBF14
:100A40000FBECDBF809177048F93809176048F93F2
:100A50008AEC92E09F938F931F92FF921F930F93C4
:100A60000E94290480913B031F928F9382EE92E0B3
:100A70009F938F931F92FF921F930F930E942904BD
:100A80000FB6F894DEBF0FBECDBFC05BDF4F0FB611
:100A9000F894DEBF0FBECDBFDF91CF911F910F91B4
:100AA000FF90EF90DF90CF90BF90AF909F908F908E
:100AB00008951F920F920FB60F9211246F937F9398
:100AC0008F939F938091760490917704892B99F06E
:100AD00080913403609101010E94902E911103C016
:100AE0002A9A2B9A02C02A982B98809134038F5F00
:100AF0008093340302C02A982B989F918F917F9105
:100B00006F910F900FBE0F901F9018951F920F922C
:100B10000FB60F9211248F939F93AF93BF93809141
:100B2000350390913603A0913703B09138030196B5
:100B3000A11DB11D8093350390933603A093370315
:100B4000B0933803BF91AF919F918F910F900FBEDB
:100B50000F901F901895CF92DF92EF92FF92CF9354
:100B6000DF93609135037091360380913703909144
:100B70003803C0919400D09195000E94F32720E0A3
:100B800030E040E857E40E9470296B017C01BE010F
:100B900080E090E00E94F3279B01AC01C701B60101
:100BA0000E94A6262DEB37E346E054E30E9470290D
:100BB000DF91CF91FF90EF90DF90CF9008958091DB
:100BC0000A0190910B01019709F089C010928F04DE
:100BD00010928E0485E090E090938D0480938C04B5
:100BE00010929A0410929B0410929C0410929D04FF
:100BF00080E090E0A0E1B1E480939E0490939F0494
:100C0000A093A004B093A1041092910410929004B8
:100C100080E090E0AEE9B2E4809333049093340432
:100C2000A0933504B093360480E090E0ACE1B2E4E8
:100C30008093370490933804A0933904B0933A0416
:100C40000E94252FBC01990F880B990B0E94F52754
:100C500020E03EEF4FEF56E40E944B272DEC3CEC9A
:100C60004CE45EE30E9470292DEC3CEC4CE45EE326
:100C70000E94A626209106013091070140910801AB
:100C8000509109010E94702960933B0470933C04C9
:100C900080933D0490933E040E94252FBC01990F40
:100CA000880B990B0E94F52720E03EEF4FEF56E4AA
:100CB0000E944B272BED3FE049E450E40E9470294D
:100CC0009B01AC010E94A62660933F0470934004F0
:100CD00080934104909342040E94F30236C00E9424
:100CE000E90310929A0410929B0410929C041092B3
:100CF0009D0480E090E0A0E1B1E480939E04909395
:100D00009F04A093A004B093A10484E190E0909389
:100D100091048093900480E090E0AEE9B2E4809387
:100D2000330490933404A0933504B093360480E0E8
:100D300090E0ACE1B2E48093370490933804A09340
:100D40003904B0933A040E946C0380919A04909104
:100D50009B04A0919C04B0919D0480939204909375
:100D60009304A0939404B093950480919E04909171
:100D70009F04A091A004B091A10480939604909345
:100D80009704A0939804B09399041092770410925A
:100D90007604109258041092570480913304909175
:100DA0003404A0913504B091360480932B049093C1
:100DB0002C04A0932D04B0932E04809137049091BD
:100DC0003804A0913904B0913A0480932F04909391
:100DD0003004A0933104B093320480E090E0FC0131
:100DE000E159FB4F1082FC01E650FC4F1082019646
:100DF00087309105A1F7E0EDF4E0A5E0B4E026EF3F
:100E00003FEF86EF9FEF3183208333832283119658
:100E10003C932E9313963C932E93129734961496EC
:100E200044E0E43EF40769F79093220480932104A0
:100E3000909324048093230490931E0480931D04B4
:100E40009093200480931F041092010410920204D6
:100E500010920304109204040E94AB050E94BD2767
:100E60007093CB046093CA041092CF041092CE0406
:100E70000E94AB050E94BD2770931C0460931B0465
:100E800010925A04109259041092CD041092CC047E
:100E90000E94AB050E94BD277093490360934803ED
:100EA00010921A041092190410928B0410928A0462
:100EB000EAE4F3E02AEE33E080E090E0A0E8BFEB64
:100EC00080839183A283B38384839583A683B7832E
:100ED00038962E173F07A1F708950F931F93CF93CE
:100EE000DF9301E010E00E9493207D9B13C01092DD
:100EF0003A03109235031092360310923703109282
:100F0000380310930B0100930A010E94DF05C1E032
:100F1000D0E002C0C0E0D0E021E040EF52E060E16C
:100F200070E08EE090E00E949C2221E04CEF52E0C5
:100F30006AE170E089E090E00E949C220E9480209B
:100F4000CD2B89F2DF91CF911F910F910895CF930F
:100F500080E880936100C1E0C09361008FE30E944C
:100F6000DF220E940F235298229884B184B95198AD
:100F70002198859886980E94762E229A239A14BCEE
:100F8000C5BDC0936E00809180008E7F80938000ED
:100F9000809180008D7F8093800080918100877F89
:100FA00080938100809181008F7E80938100809169
:100FB0008100816080938100C0936F0078940E94CB
:100FC000732A0E948C2A8823E1F30E94DF050E9485
:100FD000C7021092900081E080939100809371008D
:100FE000CF9108958F929F92AF92BF92CF92DF924E
:100FF000EF92FF920F931F93CF93DF93CDB7DEB79E
:1010000064970FB6F894DEBF0FBECDBF80910B0181
:101010008F9380910A018F938BE093E09F938F933E
:101020008E010F5F1F4F1F930F930E945F3021E0CF
:10103000A80160E070E080E090E00E949C228CE8D3
:10104000E82E84E0F82EF70181818F9380818F93C1
:1010500080E193E09F938F931F930F930E945F30E3
:1010600021E0A80160E070E082E190E00E949C2213
:10107000F70183818F9382818F9385E193E09F9322
:101080008F931F930F930E945F3021E0A80160E0CF
:1010900070E084E290E00E949C2220E030E040E793
:1010A00052E460914403709145038091460390910E
:1010B00047030E944B274B015C010E9430286B01C3
:1010C0007C019B01AC01C501B4010E94A52620E072
:1010D00030E040E752E40E9470290E94BD277F93D0
:1010E0006F93C701B6010E94BD277F936F938AE17A
:1010F00093E09F938F931F930F930E945F3021E0A3
:10110000A80160E070E087E390E00E949C2201E08B
:1011100028E030E044E550E068E070E080E090E0F6
:101120000E94D4200FB6F894DEBF0FBECDBF6496E8
:101130000FB6F894DEBF0FBECDBFDF91CF911F91E8
:101140000F91FF90EF90DF90CF90BF90AF909F9066
:101150008F9008954F925F926F927F928F929F929D
:10116000AF92BF92EF92FF920F931F93CF93DF93B3
:10117000C0E0D0E0CE0183559E4F7C0100E010E03E
:101180004E010D2E000CAA08BB08F70180818130AA
:1011900059F5B801012E000C880B990B0E94F52718
:1011A00020919E0430919F044091A0045091A1048D
:1011B0000E94A6260E94BD272B013C01C501B40157
:1011C0000E94F52720919A0430919B0440919C0441
:1011D00050919D040E94A6260E94BD27DC01CB01F0
:1011E00041E0B2010E949B200F5F1F4FF5E0EF0E20
:1011F000F11C0530110549F62196C530D10509F0DD
:10120000B9CFDF91CF911F910F91FF90EF90BF90D9
:10121000AF909F908F907F906F905F904F900895C8
:101220004F925F926F927F928F929F92AF92BF92F6
:10123000EF92FF920F931F93CF93DF93C0E0D0E024
:10124000CE0180599E4F7C0100E010E04E010D2E32
:10125000000CAA08BB08F7018081813059F5B8015C
:10126000012E000C880B990B0E94F5272091370462
:10127000309138044091390450913A040E94A626D6
:101280000E94BD272B013C01C501B4010E94F52736
:101290002091330430913404409135045091360448
:1012A0000E94A6260E94BD27DC01CB0141E0B201CD
:1012B0000E949B200F5F1F4FF5E0EF0EF11C0530E1
:1012C000110549F62196C530D10509F0B9CFDF9156
:1012D000CF911F910F91FF90EF90BF90AF909F9093
:1012E0008F907F906F905F904F9008954F925F9294
:1012F0006F927F928F929F92AF92BF92CF92DF9226
:10130000EF92FF920F93CF93DF93CDB7DEB7C45622
:10131000D1090FB6F894DEBF0FBECDBF80E1EBE57B
:10132000F4E0DE01119601900D928A95E1F780E1DB
:10133000EAEAF4E0DE01519601900D928A95E1F718
:1013400080E1E3E4F4E0DE01919601900D928A954C
:10135000E1F780E1EAEBF4E0DE01D19601900D9235
:101360008A95E1F780E1EAE7F4E0DE01AF5BBF4F89
:1013700001900D928A95E1F780E1EAEEF3E0DE015B
:10138000AF5ABF4F01900D928A95E1F7CE010196B9
:101390007C016E0191E6C90ED11CF701648575854B
:1013A000868597850E94BD272B013C01F70160854A
:1013B0007185828593850E94BD27A5966CAF7DAF10
:1013C0008EAF9FAFA597F701648175818681978164
:1013D0000E94BD274B015C01F70160817181828110
:1013E00093810E94BD27DC01CB0101E09201A3960D
:1013F0004EAD5FADA397B4010E94D420F0E1EF0E93
:10140000F11CEC14FD0449F6CC59DF4F0FB6F894EB
:10141000DEBF0FBECDBFDF91CF910F91FF90EF9058
:10142000DF90CF90BF90AF909F908F907F906F9004
:101430005F904F9008952F923F924F925F926F92DC
:101440007F928F929F92AF92BF92CF92DF92EF9254
:10145000FF920F931F93CF93DF9345E0C42E44E098
:10146000D42E00ED14E0E12CF12C8CE0482E81E02C
:10147000582E95E2692E91E0792E2EE3822E21E0FE
:10148000922E37E5A32E31E0B32EC0E0D0E0212C20
:10149000312CF80180819181863FFFEF9F0781F019
:1014A000F501E20DF31D2081213051F4F801628134
:1014B00073816C0F7D1F41E0820D931D0E949B2064
:1014C000F60180819181863FFFEF9F0781F0F40153
:1014D000E20DF31D2081213051F4F6016281738108
:1014E0006C0F7D1F41E0820D931D0E949B20E11433
:1014F000F10491F58091210490912204863FFFEF41
:101500009F0789F0F301E20DF31D2081213059F48A
:1015100060912304709124046C0F7D1F41E0820DC3
:10152000931D0E949B2080911D0490911E04863F74
:10153000EFEF9E0789F0F201E20DF31D20812130CB
:1015400059F460911F04709120046C0F7D1F41E0DD
:10155000820D931D0E949B202FEF221A320A85E0F4
:101560002816310409F095CF2196E5E04E0E511C66
:10157000F5E06F0E711C25E0820E911C85E0A80E2F
:10158000B11CC530D10509F082CFEFEFEE1AFE0A8B
:10159000F4E0CF0ED11C0C5F1F4F25E0E216F104E2
:1015A00009F063CFDF91CF911F910F91FF90EF90E2
:1015B000DF90CF90BF90AF909F908F907F906F9073
:1015C0005F904F903F902F9008958F929F92AF928F
:1015D000BF92CF92DF92EF92FF92CF93DF93CAE454
:1015E000D3E0C880D980EA80FB8020E030E040E88A
:1015F0005FEBC701B6010E944127882391F06C81FF
:101600007D818E819F810E94BD274B015C01C701B6
:10161000B6010E94BD27DC01CB0141E0B4010E946C
:101620009B20289683E0CA3ED807D9F6DF91CF9158
:10163000FF90EF90DF90CF90BF90AF909F908F90F2
:1016400008954F925F926F927F928F929F92AF9286
:10165000BF92EF92FF920F931F93CF93DF93C0E05F
:10166000D0E0CE0187579E4F7C0100E010E04E0194
:101670000D2E000CAA08BB08F7018081813059F5B6
:10168000B801012E000C880B990B0E94F5272091C0
:101690009E0430919F044091A0045091A1040E94A7
:1016A000A6260E94BD272B013C01C501B4010E9462
:1016B000F52720919A0430919B0440919C0450910D
:1016C0009D040E94A6260E94BD27DC01CB0141E0BB
:1016D000B2010E949B200F5F1F4FF6E0EF0EF11C3E
:1016E0000630110549F62196C630D10509F0B9CF6B
:1016F000DF91CF911F910F91FF90EF90BF90AF902E
:101700009F908F907F906F905F904F9008950E9470
:10171000F2078091760490917704892B11F40E944E
:10172000AA080C9410099B0143E0359527954A952A
:10173000E1F744E5249F800D911D1124FC01EC513B
:10174000FB4F808190E0677002C0959587956A9500
:10175000E2F7817008952F923F924F925F926F92BD
:101760007F928F929F92AF92BF92CF92DF92EF9231
:10177000FF920F931F93CF93DF9300D000D0CDB78C
:10178000DEB7CFA8D8AC29AC3AAC8FA098A4A9A456
:10179000BAA44BA45CA46DA47EA4C114D104D1F15D
:1017A000E12CF12CC6010D2C000CAA0BBB0B89837C
:1017B0009A83AB83BC83D7FE09C069817A818B8110
:1017C0009C810E94F527A501940106C020E030E02D
:1017D00040EA50E4C501B4010E94A6260E94BD273C
:1017E0008B01B7010F2C000C880B990B0E94F52779
:1017F000A30192010E94A6260E94BD27C8010E9453
:10180000930B811143C09FEFE91AF90AA5E0EA168C
:10181000F10489F621143104C1F100E010E0610106
:10182000032C000CEE08FF08B801012E000C880BF9
:10183000990B0E94F527A50194010E94A6260E94FB
:10184000BD2769837A838B839C83121413043CF431
:1018500020E030E040EA50E4C301B20106C0C70115
:10186000B6010E94F527A30192010E94A6260E94BC
:10187000BD2789819A810E94930B811107C00F5F58
:101880001F4F0530110581F601C080E00F900F90C9
:101890000F900F90DF91CF911F910F91FF90EF90DC
:1018A000DF90CF90BF90AF909F908F907F906F9080
:1018B0005F904F903F902F9008952F923F924F92BC
:1018C0005F926F927F928F929F92AF92BF92CF92D0
:1018D000DF92EF92FF920F931F93CF93DF9300D08D
:1018E00000D000D0CDB7DEB72B013C0129833A836D
:1018F0004B835C83B801FE82ED8285011401072EC3
:10190000000C880B990B0E94F527A30192010E94FD
:10191000A6264B015C01B6016B5F7F4F621973090C
:10192000072E000C880B990B0E94F5279B01AC0138
:10193000C501B4010E94632918160CF46AC0B101F4
:10194000032C000C880B990B0E94F5272B013C01FE
:10195000B601DD0C880B990B0E94F5276B017C0109
:1019600020E030E040EA50E4C501B4010E94A62620
:10197000A30192010E94A5269B01AC01C701B601FB
:101980000E94632918160CF444C02D813E81B901D0
:10199000330F880B990B0E94F52729813A814B81DF
:1019A0005C810E94A6266B017C01B8016B5F7F4FB2
:1019B00062197309072E000C880B990B0E94F527FA
:1019C0009B01AC01C701B6010E94632918160CF1F6
:1019D000B801110F880B990B0E94F5274B015C0190
:1019E00020E030E040EA50E4C701B6010E94A6269C
:1019F000A30192010E94A5269B01AC0111E0C50143
:101A0000B4010E94632918160CF010E081E08127D0
:101A100001C080E026960FB6F894DEBF0FBECDBFA2
:101A2000DF91CF911F910F91FF90EF90DF90CF90BA
:101A3000BF90AF909F908F907F906F905F904F90EE
:101A40003F902F9008958F929F92AF92BF92CF9226
:101A5000DF92EF92FF92CF93DF93CDB7DEB7CBA4A7
:101A6000DCA4EDA4FEA48FA498A8A9A8BAA880918C
:101A7000760490917704892B09F05EC020E030E075
:101A8000A901C701B6010E946329181684F020E05D
:101A900030E0A901C701B6010E94412787FF0DC0B0
:101AA000C12CD12C30E8E32E3FEBF32E06C0C12C25
:101AB000D12C20E8E22E2FE3F22E20E030E0A90125
:101AC000C501B4010E946329181684F020E030E0BB
:101AD000A901C501B4010E94412787FF0DC0812CD7
:101AE000912C90E8A92E9FEBB92E06C0812C912C49
:101AF00080E8A82E8FE3B82EC501B4010E94BD274F
:101B00007EA76DA7C701B6010E94BD277CA76BA762
:101B10008EE1FE013D96DF0101900D928A95E1F77D
:101B2000DF91CF91FF90EF90DF90CF90BF90AF907B
:101B30009F908F900C94AB0B80E0DF91CF91FF9042
:101B4000EF90DF90CF90BF90AF909F908F900895CF
:101B5000CF93DF930E94252FC5E2D4E0BC01990FFB
:101B6000880B990B0E94F52720E03EEF4FEF56E4DB
:101B70000E944B272DEC3CEC4CE45EE30E94702964
:101B80002DEC3CEC4CE45EE30E94A626209106017D
:101B90003091070140910801509109010E9470297C
:101BA0006E8B7F8B888F998F0E94252FBC01990F98
:101BB000880B990B0E94F52720E03EEF4FEF56E48B
:101BC0000E944B272BED3FE049E450E40E9470292E
:101BD0009B01AC010E94A6266A8F7B8F8C8F9D8F04
:101BE000DF91CF910895ECE8F4E086819781A0859C
:101BF000B18586879787A08BB18B82859385A485D5
:101C0000B585828B938BA48BB58B0895E5E2F4E0C8
:101C100086819781A085B18586879787A08BB18BB8
:101C200082859385A485B585828B938BA48BB58B98
:101C300008952F923F924F925F926F927F928F9270
:101C40009F92AF92BF92CF92DF92EF92FF920F934B
:101C50001F93CF93DF93CDB7DEB762970FB6F8949B
:101C6000DEBF0FBECDBF6A8B798B382E292E29831C
:101C70003A834B835C8340909A0450909B0460901D
:101C80009C0470909D04C301B2010E94DD290E9452
:101C9000BD2769877A878B879C8780919E04909166
:101CA0009F04A091A004B091A1048D839E83AF8373
:101CB000B887BC01CD010E94DD290E94BD276D8738
:101CC0007E878F87988B609137047091380480915C
:101CD000390490913A040E94BD275B016C01609128
:101CE00033047091340480913504909136040E943D
:101CF000BD2788248394912C6B01ED84FE84098593
:101D00001A8579816A819B818C81272F362F492FF3
:101D1000582FBA89A989F1016B2F7A2F8F2F9E2F07
:101D20000E945D0C8111BEC0B801110F880B990B88
:101D30000E94F527BA89A989F1012B2F3A2F4F2F3D
:101D40005E2F0E94A6266B017C0160917604709143
:101D50007704072E000C880B990B0E94F5274B0186
:101D60005C0120E030E040EA50E4C701B6010E9487
:101D7000A626A50194010E94A62620E030E048EAAC
:101D800052E40E94412787FFC4C020E030E0A9014F
:101D9000C701B6010E94632987FDBBC02D853E8522
:101DA000B901330F880B990B0E94F527B981AA81DD
:101DB000FB81EC812B2F3A2F4F2F5E2F0E94A626FE
:101DC0006B017C0120E030E040EA50E40E94A6264E
:101DD000A50194010E94A62620E030E044E452E4EC
:101DE0000E94412787FF95C020E030E040E051E4A9
:101DF000C701B6010E94632918160CF08AC03C8105
:101E00003F938B818F939A819F93A981AF932F9258
:101E10003F92B989BF932A892F938DB79EB74E976A
:101E20000FB6F8949EBF0FBE8DBFADB7BEB711966B
:101E30008EE1ECE8F4E001900D928A95E1F70E94C2
:101E4000230D0FB6F894DEBF0FBECDBF811161C068
:101E50007A896989C101272F362F492F582FC3014D
:101E6000B2010E94A62660939A0470939B0480930B
:101E70009C0490939D0479816A819B818C81272F9A
:101E8000362F492F582F6D817E818F8198850E9432
:101E9000A62660939E0470939F048093A004909361
:101EA000A10437C08091760490917704892B61F466
:101EB0000E94F30D80918C0490918D040197909372
:101EC0008D0480938C0409C080918E0490918F04BE
:101ED000019690938F0480938E040E94060E629662
:101EE0000FB6F894DEBF0FBECDBFDF91CF911F912B
:101EF0000F91FF90EF90DF90CF90BF90AF909F90A9
:101F00008F907F906F905F904F903F902F900C94A8
:101F1000A80D62960FB6F894DEBF0FBECDBFDF915D
:101F2000CF911F910F91FF90EF90DF90CF90BF90D6
:101F3000AF909F908F907F906F905F904F903F9069
:101F40002F9008952F923F926F927F928F929F923F
:101F5000AF92BF92CF92DF92EF92FF920F931F93B7
:101F6000CF93DF93CDB7DEB76A970FB6F894DEBF95
:101F70000FBECDBF60919E0470919F048091A0041C
:101F80009091A1040E94BD276F87788B898B9A8BD3
:101F90002F8538893C872B8760919A0470919B0428
:101FA00080919C0490919D040E94BD276B8B7C8B3B
:101FB0008D8B9E8B8B899C899E878D87E0918E046B
:101FC000F0918F04F887EF832091570430915804E3
:101FD0003E832D838091CE049091CF049C838B838C
:101FE000E0917604F0917704F88FEF8B20918C04C8
:101FF00030918D043A8329838091590490915A0439
:102000009A878987E0EDF4E0FA8FE98F35E0232E97
:1020100034E0332E46EF642E77247A94E98DFA8DDE
:10202000A280B380C080D18088248394912CEB84DB
:10203000FC840D851E8520E030E0A901CA01B901AC
:102040000E945D0C8823B1F02F8138852F5F3F4FB0
:1020500038872F838D819E8101969E838D83EB81AE
:10206000FC813197FC83EB83E98DFA8D718260826C
:10207000738262822F89388D232B29F5F101A2808A
:10208000B380C080D18088248394912CEB84FC841D
:102090000D851E8520E030E0A901CA01B9010E942A
:1020A0005D0C882381F029813A81215031093A83DE
:1020B000298389859A8501979A878987F101718299
:1020C000608273826282298D3A8D2C5F3F4F3A8FF6
:1020D000298F34E0230E311C84EE94E0E98DFA8DD3
:1020E0008E179F0709F09ACF2F81388530938F0480
:1020F00020938E048D819E81909358048093570481
:10210000EB81FC81F093CF04E093CE0429813A81E6
:1021100030938D0420938C0489859A8590935A047A
:1021200080935904E0911904F0911A04FA83E98329
:102130003197B1F5A0901F04B0902004C0901D0409
:10214000D0901E0488248394912CEF84F8880B8906
:102150001C8920E030E0A901CA01B9010E945D0C90
:102160008823F1F029813A81309377042093760413
:102170000E94AB050E94DD290E94BD27709379045F
:102180006093780486EF9FEF90931E0480931D0464
:102190009093200480931F0410921A041092190443
:1021A0006A960FB6F894DEBF0FBECDBFDF91CF9118
:1021B0001F910F91FF90EF90DF90CF90BF90AF9065
:1021C0009F908F907F906F903F902F9008954F92A7
:1021D0005F926F927F928F929F92AF92BF92CF92B7
:1021E000DF92EF92FF92CF93DF93CDB7DEB72E97BA
:1021F0000FB6F894DEBF0FBECDBF9E878D87DC0182
:102200008D919D910D90BC91A02D89839A83AB8374
:10221000BC839C01AD0160913304709134048091C2
:102220003504909136040E94A5264B015C01AD85D2
:10223000BE8514968D919D910D90BC91A02D8D839E
:102240009E83AF83B8879C01AD0160913704709184
:1022500038048091390490913A040E94A5266B01BC
:102260007C01A5019401C501B4010E9470292B01D4
:102270003C01A7019601C701B6010E9470299B018C
:10228000AC01C301B2010E94A6260E940F2A9B0145
:10229000AC0160E070E080E89FE30E944B272B01D7
:1022A0003C019B01AC01C501B4010E947029298148
:1022B0003A814B815C810E94A6264B015C0120E0A3
:1022C00030E048EA52E40E94412787FF64C020E0E2
:1022D00030E040E85FE3C501B4010E9463291816AD
:1022E0000CF059C0A3019201C701B6010E947029E8
:1022F0002D813E814F8158850E94A6266B017C016D
:1023000020E030E040E452E40E94412787FF43C0D0
:1023100020E030E040EA50E4C701B6010E946329A2
:102320001816CCF5C701B6010E94BD272B013C0150
:10233000C501B4010E94BD2769877A878B879C8776
:10234000B20189859A850E94930B811124C06D8109
:102350007E818F8198850E94BD2789859A850E94FC
:10236000930B811118C069817A818B819C810E94B5
:10237000BD27DC01CB01B2010E94930B81110BC080
:10238000ED85FE8580829182A282B382C482D5824D
:10239000E682F78217C080E090E0A0E8BFEBED8511
:1023A000FE8580839183A283B38384839583A683F0
:1023B000B783809190049091910401969093910439
:1023C000809390042E960FB6F894DEBF0FBECDBF5B
:1023D000DF91CF91FF90EF90DF90CF90BF90AF90C3
:1023E0009F908F907F906F905F904F9008958F9205
:1023F0009F92AF92BF92CF92DF92EF92FF92CF93D4
:10240000DF93CAE4D3E0C880D980EA80FB8020E073
:1024100030E040E85FEBC701B6010E944127882306
:1024200009F479C0C701B6010E94DD296B017C0166
:102430008090330490903404A0903504B09036041A
:10244000C501B4010E94DD299B01AC01C701B601A1
:102450000E94632987FD58C020E030E040EA50E444
:10246000C501B4010E94A6260E94DD299B01AC0192
:10247000C701B6010E94412787FF46C06C817D815C
:102480008E819F810E94DD296B017C018090370441
:1024900090903804A0903904B0903A04C501B4017A
:1024A0000E94DD299B01AC01C701B6010E9463298E
:1024B00087FD2AC020E030E040EA50E4C501B401C5
:1024C0000E94A6260E94DD299B01AC01C701B6012E
:1024D0000E94412787FF18C00E94060E80E090E00E
:1024E000A0E8BFEB88839983AA83BB838C839D83F9
:1024F000AE83BF8380919004909191040196909354
:1025000091048093900407C080913B03811103C024
:10251000CE010E94E710289683E0CA3ED80709F052
:1025200072CFDF91CF91FF90EF90DF90CF90BF906F
:10253000AF909F908F9008950F931F93CF93DF9349
:102540000AE413E0C0E0D0E020E030E040E85FEBD8
:10255000F80160817181828193810E9441278111FC
:1025600029C083E0CC0FDD1F8A95E1F7C65BDC4F05
:1025700080919A0490919B04A0919C04B0919D0439
:1025800088839983AA83BB8380919E0490919F0442
:10259000A091A004B091A1048C839D83AE83BF83DE
:1025A000809190049091910401979093910480936D
:1025B000900406C02196085F1F4FC431D10521F653
:1025C000DF91CF911F910F9108952F923F924F92DB
:1025D0005F926F927F928F929F92AF92BF92CF92B3
:1025E000DF92EF92FF920F931F93CF93DF93C090F0
:1025F0003F04D0904004E0904104F0904204C701B1
:10260000B6010E9446272B013C0120910601309122
:102610000701409108015091090160913B047091BC
:102620003C0480913D0490913E040E9470294B012E
:102630005C019B01AC01C301B2010E947029EB0156
:10264000182F092FC701B6010E94012A2B013C0156
:102650002091330430913404409135045091360474
:10266000F8016C2F7D2F8F2F9E2F0E94A6266B01C5
:102670007C0120E030E0A901F8016C2F7D2F8F2F25
:102680009E2F0E944127881F8827881F3324339458
:10269000682F632585E0282E269EB0011124072E81
:1026A000000C880B990B0E94F527A70196010E9448
:1026B000A62620E030E048EA52E40E94632918167A
:1026C0000CF4C6C020E030E0A901C701B6010E94A9
:1026D000412787FDBDC0A3019201C501B4010E943D
:1026E00070292B01782E692E2091370430913804FF
:1026F0004091390450913A04F301752D8F2F9E2F8C
:102700000E94A6264B015C0120E030E0A901F30104
:10271000642D752D8F2F9E2F0E944127881F88279B
:10272000881F3826239CB0011124072E000C880B2B
:10273000990B0E94F527A50194010E94A62620E08E
:1027400030E040E452E40E94632918160CF480C083
:1027500020E030E040E151E4C501B4010E9441278E
:1027600087FD76C06F927F925F924F920F931F9377
:10277000DF93CF932DB73EB72E5131090FB6F894A2
:102780003EBF0FBE2DBFADB7BEB711968EE1E5E2DD
:10279000F4E001900D928A95E1F70E94230D2DB788
:1027A0003EB72A5D3F4F0FB6F8943EBF0FBE2DBF18
:1027B00081114EC01F921F921F921F920F931F9361
:1027C000DF93CF938DB79EB74E970FB6F8949EBF09
:1027D0000FBE8DBFADB7BEB711968EE1E5E2F4E056
:1027E00001900D928A95E1F70E94230D2DB73EB717
:1027F0002A5D3F4F0FB6F8943EBF0FBE2DBF81112B
:1028000027C06F927F925F924F921F921F921F92EA
:102810001F928DB79EB74E970FB6F8949EBF0FBE0E
:102820008DBFADB7BEB711968EE1E5E2F4E0019041
:102830000D928A95E1F70E94230D2DB73EB72A5DD0
:102840003F4F0FB6F8943EBF0FBE2DBF8823A1F0B7
:10285000DF91CF911F910F91FF90EF90DF90CF907C
:10286000BF90AF909F908F907F906F905F904F90B0
:102870003F902F900C94A80D20E030E046EA52E4FF
:10288000C701B6010E94412787FF11C020E030E058
:10289000A901C701B6010E946329181644F4C09229
:1028A0003304D0923404E0923504F092360420E0F0
:1028B00030E04CE352E4C501B4010E94412787FF98
:1028C00012C020E030E040E051E4C501B4010E94B4
:1028D0006329181644F48092370490923804A09229
:1028E0003904B0923A04DF91CF911F910F91FF907C
:1028F000EF90DF90CF90BF90AF909F908F907F90A0
:102900006F905F904F903F902F9008954F925F92FD
:102910006F927F928F929F92AF92BF92CF92DF92EF
:10292000EF92FF920F931F93CF93DF930E94252F77
:10293000BC01990F880B990B0E94F52720E03EEF10
:102940004FEF56E40E944B2720E030E04EE952E47E
:102950000E9470290E94DD290E94BD276B017C0125
:102960003B010E94252FBC01990F880B990B0E94F7
:10297000F52720E03EEF4FEF56E40E944B2720E082
:1029800030E04CE052E40E9470290E94DD294601AB
:1029900021E0C21AD1082EE4C216D10438F620E094
:1029A00030E040E051E40E94A62620E030E040EA1A
:1029B00050E40E94A6260E94BD272B015B016950AE
:1029C00071096232710508F0B1CFC0E0D0E0E12CAE
:1029D000F12C00E010E06E01C80CD91CB8016A0DA2
:1029E0007B1DC6010E94930B811106C00F5F1F4F14
:1029F0000530110599F703C0EE24E394F12C2196DC
:102A0000C530D10531F7EA94EF2809F48FCF7092E1
:102A10003D0360923C0350923F0340923E038CE39F
:102A200093E0DF91CF911F910F91FF90EF90DF9096
:102A3000CF90BF90AF909F908F907F906F905F905E
:102A40004F900895CF93C82F0E948614FC014081B7
:102A5000518122813381C33421F5E0EDF4E080E03F
:102A600090E060817181663F7F4FA9F4880F991FC4
:102A7000880F991FFC01E053FB4F51834083338340
:102A800022838091CE049091CF0401969093CF043D
:102A90008093CE0410C0019634968530910509F7D5
:102AA0000AC0C43441F4509322044093210430936B
:102AB0002404209323040E94AB050E94DD290E9478
:102AC000BD277093CB046093CA04CF9108952F92D1
:102AD0003F924F925F926F927F928F929F92AF92AE
:102AE000BF92CF92DF92EF92FF920F931F93CF93FB
:102AF000DF93CDB7DEB764970FB6F894DEBF0FBE95
:102B0000CDBF8091370490913804A0913904B091E1
:102B10003A048F839887A987BA87BC01CD010E94A8
:102B2000BD277C836B8340903304509034046090C5
:102B3000350470903604C301B2010E94BD271B0109
:102B4000A0912304B0912404BC87AB87E0912104B9
:102B5000F0912204FE87ED8720911F04309120041C
:102B6000388B2F8780911D0490911E049A8B898B3E
:102B7000A0EDB4E0BC8BAB8BE5E0F4E0FE83ED832D
:102B8000FA83E983AB89BC891296AD90BC90139708
:102B9000CD90DC90812C912CEB80FC80810120E099
:102BA00030E0A901CA01B9010E945D0C81117DC00C
:102BB000E981FA81A280B380C080D18020E030E03A
:102BC000A901CA01B9010E945D0C81116EC0AB84DC
:102BD000BC84CD84DE8420E030E0A901CA01B901C3
:102BE0000E945D0C811161C0AF84B888C988DA8801
:102BF00020E030E0A901CA01B9010E945D0C8111F9
:102C000054C02B893C892C5F3F4F3C8B2B8B898197
:102C10009A8104969A838983245E344009F0B2CF66
:102C20001A821982AD81BE818D919C910A9671F5AF
:102C3000C301B2010E94DD29E981FA81EE0FFF1F75
:102C4000EE0FFF1FEB5FFB4FFA83E9830E94BD2766
:102C5000A981BA816D937C936F81788589859A85E6
:102C60000E94DD290E94BD27E981FA817383628376
:102C70008091590490915A04019690935A0480933C
:102C800059041092CD041092CC040FC029813A81CE
:102C90002F5F3F4F3A8329838D819E8104969E83C7
:102CA0008D832530310509F0BDCF0E94AB050E9410
:102CB000DD290E94BD2770931C0460931B04649659
:102CC0000FB6F894DEBF0FBECDBFDF91CF911F913D
:102CD0000F91FF90EF90DF90CF90BF90AF909F90BB
:102CE0008F907F906F905F904F903F902F900895BE
:102CF0002F923F924F925F926F927F928F929F920C
:102D0000AF92BF92CF92DF92EF92FF920F931F93F9
:102D1000CF93DF93CDB7DEB72A970FB6F894DEBF17
:102D20000FBECDBF60913704709138048091390493
:102D300090913A040E94BD276D837E838F8398878C
:102D40008D819E819A8389836091330470913404CC
:102D500080913504909136040E94BD272B013C01DF
:102D60007C836B83E0EDF4E0FA87E98785E0282E29
:102D700084E0382EE985FA85A280B380C080D180B6
:102D8000812C912CE980FA800B811C8120E030E0BD
:102D9000A901CA01B9010E945D0C81112FC0F10186
:102DA000A280B380C080D18020E030E0A901CA01B8
:102DB000B9010E945D0C811121C089859A85049614
:102DC0009A87898794E0290E311CE985FA85E45EAB
:102DD000F44081F650921E0440921D048D819E8124
:102DE0009093200480931F0481E090E090931A0454
:102DF0008093190410928B0410928A040E94AB05F0
:102E00000E94DD290E94BD27709349036093480307
:102E10002A960FB6F894DEBF0FBECDBFDF91CF91DB
:102E20001F910F91FF90EF90DF90CF90BF90AF90E8
:102E30009F908F907F906F905F904F903F902F90DA
:102E40000895CF92DF92EF92FF920E94AB050E940D
:102E5000DD290E94BD276B017C0180915704909170
:102E60005804059749F480912104909122040A9610
:102E700019F484E40E9422158091CE049091CF042D
:102E80008530910594F48091CA049091CB04960109
:102E9000281B390B2230310551F480913B038111FD
:102EA00006C083E40E94221510C0059721F080918E
:102EB0003B03882351F00E94AB050E94DD290E944C
:102EC000BD277093CB046093CA048091CC04909189
:102ED000CD04892BA9F48091590490915A0485302E
:102EE0009105BCF480911B0490911C049601281B51
:102EF000390B2330310579F480913B0381110BC0EC
:102F000081E090E09093CD048093CC040E946715FB
:102F100010C0059721F080913B03882351F00E9457
:102F2000AB050E94DD290E94BD2770931C046093AD
:102F30001B0480910A0190910B010297B1F58091D9
:102F40008A0490918B04892BA1F4809119049091AB
:102F50001A040097D1F48091480390914903C81A4C
:102F6000D90A35E0C316D10491F480913B03811155
:102F70000EC081E090E090938B0480938A04FF90D0
:102F8000EF90DF90CF900C947816019721F080910C
:102F90003B03882351F00E94AB050E94DD290E946B
:102FA000BD277093490360934803FF90EF90DF9033
:102FB000CF9008954F925F926F927F928F929F92DF
:102FC000AF92BF92CF92DF92EF92FF92CF93DF93B7
:102FD000CDB7DEB72E970FB6F894DEBF0FBECDBFCC
:102FE0009E878D87DC0118968D919D910D90BC91E7
:102FF000A02D89839A83AB83BC83AD85BE858D91DB
:103000009D910D90BC91A02D8D839E83AF83B88739
:103010009C01AD0169817A818B819C810E94A526EA
:103020004B015C01ED85FE8544845584668477847C
:1030300084819581A681B78189879A87AB87BC8770
:103040009C01AD01C301B2010E94A5266B017C0168
:1030500020E030E040E051E469857A858B859C85ED
:103060000E94412787FF5CC020E030E040E051E44F
:10307000C301B2010E94412787FF52C020E030E027
:10308000A901C701B6010E9441278823D9F120E098
:1030900030E0A901C701B6010E94632918164CF05F
:1030A000A701960160E070E080E492E40E94A5260A
:1030B00004C060E070E080E492E4ED85FE85648306
:1030C00075838683978320E030E0A901C701B601AC
:1030D0000E94632918164CF420E030E040E452E4EA
:1030E000C701B6010E94A62604C060E070E080E43B
:1030F00092E4AD85BE851C966D937D938D939C93D4
:103100001F970EC080E090E0A0E4B2E4ED85FE855C
:1031100084839583A683B78384879587A687B7879B
:1031200020E030E040E452E4AD85BE8514966D9118
:103130007D918D919C9117970E94632918160CF030
:1031400061C020E030E040E452E4ED85FE85648516
:103150007585868597850E94632918160CF052C0E4
:1031600020E030E0A901C701B6010E944127882371
:10317000D9F120E030E0A901C701B6010E9463291E
:1031800018164CF4A701960160E070E080E091E42D
:103190000E94A52604C060E070E080E091E4AD8567
:1031A000BE8514966D937D938D939C93179720E025
:1031B00030E0A901C701B6010E94632918164CF03E
:1031C00020E030E040E051E4C701B6010E94A626AD
:1031D00004C060E070E080E091E4ED85FE856487E6
:1031E0007587868797870EC080E090E0A0E0B1E405
:1031F000ED85FE8584839583A683B7838487958731
:10320000A687B78720E030E048EA52E46D817E81EE
:103210008F8198850E94632918160CF041C020E028
:1032200030E048EA52E469817A818B819C810E9476
:1032300063291816ACF520E030E0A901C501B401FE
:103240000E946329181644F4A501940160E070E01F
:10325000CB010E94A52603C060E070E0CB01AD85E4
:10326000BE856D937D938D939C93139720E030E002
:10327000A901C501B4010E946329181644F020E099
:1032800030E0A901C501B4010E94A62603C060E098
:1032900070E0CB01ED85FE8560877187828793871B
:1032A00020E030E0A901AD85BE856D917D918D91C5
:1032B0009C910E94412787FF46C020E030E0A90191
:1032C000ED85FE8560857185828593850E94412705
:1032D00087FF39C020E030E0A901C501B4010E9498
:1032E000632918164CF0A501940160E070E088EAAB
:1032F00092E40E94A52604C060E070E088EA92E4AF
:10330000AD85BE856D937D938D939C93139720E03F
:1033100030E0A901C501B4010E94632918164CF4DC
:1033200020E030E048EA52E4C501B4010E94A6263C
:1033300004C060E070E088EA92E4ED85FE85608775
:103340007187828793872E960FB6F894DEBF0FBEE3
:10335000CDBFDF91CF91FF90EF90DF90CF90BF90E6
:10336000AF909F908F907F906F905F904F90089557
:103370002F923F924F925F926F927F928F929F9285
:10338000AF92BF92CF92DF92EF92FF920F931F9373
:10339000CF93DF93CDB7DEB766970FB6F894DEBF55
:1033A0000FBECDBF2DEC3CEC4CE45DE3609102011F
:1033B0007091030180910401909105010E94702990
:1033C0001B018F87988B8CE0E1EDF1E0DE01119617
:1033D00001900D928A95E1F79E012F5F3F4F3A8B46
:1033E000298BCE010D969E878D87A989BA890D916B
:1033F0001D91BA8BA98B20E030E0A901F801608112
:103400007181828193810E944127882309F4D7C06A
:1034100020E030E0A901D80118966D917D918D9141
:103420009C911B970E944127882309F4C8C020E083
:1034300030E0A901F80164817581868197810E943D
:103440004127882309F4BBC020E030E0A901D8015E
:103450001C966D917D918D919C911F970E944127A3
:10346000882309F4ACC0C8010E94DA17D8011C9661
:103470008D919D910D90BC91A02D8B8B9C8BAD8BD4
:10348000BE8BF801C480D580E680F780A701960145
:10349000BC01CD010E94A5264B015C0120E030E07B
:1034A000A9010E944127882309F442C0D8012D9127
:1034B0003D914D915C91139718966D917D918D91F1
:1034C0009C911B970E94A5262B013C0120E030E037
:1034D000A9010E944127882399F1A3019201C50106
:1034E000B4010E944B270E9412279B01AC016BED97
:1034F0007FE089E490E40E94A5262B013C010E9414
:1035000046279B01AC01B1018F8598890E947029E3
:103510004B015C01C301B2010E94012A9B01AC0175
:10352000B1018F8598890E9470292B013C010FC041
:1035300021016F847888812C912CA12CB12C07C09B
:103540004101AF84B888412C512C612C712C94011D
:10355000A501F80160817181828193810E94A62674
:10356000D8016D937D938D939C9313979401A5013E
:1035700018966D917D918D919C911B970E94A62626
:10358000F8016087718782879387A7019601B2014E
:10359000C3010E94A626D80114966D937D938D9346
:1035A0009C9317972B893C894D895E89B201C30191
:1035B0000E94A626F80164877587868797872989E0
:1035C0003A898D859E852817390709F00ECF6696B2
:1035D0000FB6F894DEBF0FBECDBFDF91CF911F9124
:1035E0000F91FF90EF90DF90CF90BF90AF909F90A2
:1035F0008F907F906F905F904F903F902F900895A5
:103600004F925F926F927F928F929F92AF92BF92F2
:10361000CF92DF92EF92FF920F931F93CF93DF939E
:1036200000E010E0C0E0D0E06801012E000CEE08E0
:10363000FF0880917604909177044E010D2E000CC6
:10364000AA08BB08892B51F5C501B4010E94F527D2
:1036500020919E0430919F044091A0045091A104B8
:103660000E94A6260E94BD272B013C01C701B6017E
:103670000E94F52720919A0430919B0440919C046C
:1036800050919D040E94A6260E94BD27DC01CB011B
:10369000B2010E94930B81110E94F30DC501B40188
:1036A0000E94F52720913704309138044091390465
:1036B00050913A040E94A6260E94BD274B015C014E
:1036C000C701B6010E94F5272091330430913404DC
:1036D00040913504509136040E94A6260E94BD27D1
:1036E000DC01CB01B4010E94930B81110E94060EF4
:1036F0002196C530D10509F09CCF0F5F1F4F0530D3
:10370000110509F08FCFDF91CF911F910F91FF909D
:10371000EF90DF90CF90BF90AF909F908F907F9071
:103720006F905F904F9008950F931F93CF93DF9307
:1037300080E00E947A2E8C0181E00E947A2EEC01BA
:10374000B80180E090E00E94F32720E030E040E8FC
:103750005AE30E9470299B01AC010E94A626609347
:103760000601709307018093080190930901BE013F
:1037700080E090E00E94F3279B01AC0160E070E0E4
:1037800080E094E40E94A52620E030E040E05BE386
:103790000E9470299B01AC010E94A6266093020141
:1037A000709303018093040190930501DF91CF9101
:1037B0001F910F910895809101018F3018F01092A0
:1037C000000107C080910101823018F481E08093EC
:1037D000000180910001813021F4809101018F5F0F
:1037E00003C080910101815080930101089590915F
:1037F0003B0381E0892780933B03882399F00E9453
:10380000AB056093530470935404809355049093D4
:10381000560410926B0410926C0410926D04109276
:103820006E0408950E94AB0560936B0470936C0462
:1038300080936D0490936E0420915304309154044E
:1038400040915504509156040E94A5269B01AC015D
:10385000609101047091020480910304909104042A
:103860000E94A626609301047093020480930304CF
:103870009093040408951F920F920FB60F92112493
:10388000CF92DF92EF92FF922F933F934F935F93EC
:103890006F937F938F939F93AF93BF93EF93FF9318
:1038A000CF93DF93CDB7DEB72E97DEBFCDBF8FB1FD
:1038B00088878FB1898783B18A8783B18B8789B1E4
:1038C0008C8789B18D8783B18E8787E0EDEDF1E03C
:1038D000DE01119601900D928A95E1F7BE01685FB5
:1038E0007F4F9E012F5F3F4F790120E030E051E094
:1038F000F901E159FB4F8081880F808380818F70AF
:1039000080834081DB019D91BD01892F90E0D7012B
:103910000D9002C0959587950A94E2F77D0181701C
:10392000842B808380818F3029F4F901E650FC4F8D
:10393000508307C08081811104C0F901E650FC4F1B
:1039400010822F5F3F4F2730310591F60E948F2A5A
:103950008337910509F055C0C0909E04D0909F0414
:10396000E090A004F090A10420E030E040EA50E4B0
:10397000C701B6010E94A62620E030E040E85FE3E0
:103980000E94A62620E030E040E452E40E94412755
:1039900087FF1CC18FE38F9380E88F931F921F9244
:1039A0001F921F921F921F922DB73EB72E513109C1
:1039B0000FB6F8943EBF0FBE2DBFADB7BEB7119680
:1039C0008EE1ECE8F4E001900D928A95E1F70E9417
:1039D000230D0FB6F894DEBF0FBECDBF8111F6C028
:1039E00020E030E040E85FE3C701B6010E94A62670
:1039F00060939E0470939F048093A0049093A1040D
:103A0000E5C081369105F1F420E030E040E85FE365
:103A100060919A0470919B0480919C0490919D0404
:103A20000E94A5266B017C0120E030E0A9010E94E4
:103A3000632918160CF0CAC01F921F921F921F9282
:103A40008FEB73C08737910509F048C020E030E064
:103A500040E85FE360919E0470919F048091A00410
:103A60009091A1040E94A5266B017C0120E030E02A
:103A700040E051E40E94632918160CF0A7C08FEBB8
:103A80008F9380E88F931F921F921F921F921F9215
:103A90001F922DB73EB72E5131090FB6F8943EBF95
:103AA0000FBE2DBFADB7BEB711968EE1ECE8F4E0C6
:103AB00001900D928A95E1F70E94230D0FB6F894BC
:103AC000DEBF0FBECDBF811181C0C0929E04D092D7
:103AD0009F04E092A004F092A10478C0843691057E
:103AE00009F04DC020E030E040E85FE360919A04C7
:103AF00070919B0480919C0490919D040E94A62645
:103B00006B017C0120E030E040EA50E40E94A626F0
:103B100020E030E048EA52E40E94412787FF56C087
:103B20001F921F921F921F928FE38F9380E88F93B3
:103B30001F921F922DB73EB72E5131090FB6F89440
:103B40003EBF0FBE2DBFADB7BEB711968EE1ECE8FC
:103B5000F4E001900D928A95E1F70E94230D0FB6D3
:103B6000F894DEBF0FBECDBF811130C0C0929A0461
:103B7000D0929B04E0929C04F0929D0427C0893669
:103B8000910519F40E944B0421C08037910519F466
:103B90000E94F71B1BC08C36910599F480910A0195
:103BA00090910B01019749F482E090E090930B0112
:103BB00080930A010E94DF0509C081E080933A03E7
:103BC00005C08636910511F40E949C122E960FB600
:103BD000F894DEBF0FBECDBFDF91CF91FF91EF9183
:103BE000BF91AF919F918F917F916F915F914F9115
:103BF0003F912F91FF90EF90DF90CF900F900FBEED
:103C00000F901F9018954F925F926F927F928F92B4
:103C10009F92AF92BF92CF92DF92EF92FF920F935B
:103C20001F93CF9380918C0490918D04892B19F46C
:103C300081E080933A0380918E0490918F040397E2
:103C400091F48091900490919104892B61F480917A
:103C50000A0190910B01019731F484E190E0909377
:103C6000910480939004C0902104D090220486EFA8
:103C7000C8168FEFD80639F1A0902304B090240421
:103C800060919E0470919F048091A0049091A10482
:103C90000E94BD272B013C0160919A0470919B0406
:103CA00080919C0490919D040E94BD27812C912CB1
:103CB00072018B0120E030E0A901CA01B9010E9424
:103CC0005D0C81110AC08091FB038130C1F48091A9
:103CD0000A0190910B01019791F480910A01909152
:103CE0000B01019749F482E090E090930B018093DF
:103CF0000A010E94DF0503C081E080933A036091CE
:103D0000780470917904072E000C880B990B0E949F
:103D1000F5279B01AC0160914403709145038091AC
:103D20004603909147030E94A52620E030E040E240
:103D300051E40E94632987FD04C010927704109219
:103D400076048091FC03813049F420910601309182
:103D5000070140910801509109011FC08091FD03A6
:103D6000813061F48091060190910701A0910801D2
:103D7000B0910901BC01CD0190581FC08091FE0394
:103D8000813079F48091060190910701A09108019A
:103D9000B09109019C01AD01505860E070E0CB0189
:103DA00022C08091FF03813061F46091060170911F
:103DB0000701809108019091090120E030E0A901FC
:103DC00012C080919004909191041816190634F451
:103DD00080910004813011F40E949C1220E030E0B8
:103DE000A901CA01B9010E94190E0E94A20FC09137
:103DF000FA03C13099F48091390381110FC00E94F8
:103E0000AB0520E030E040E050E40E946329181642
:103E10002CF40E94F71BC093390309C08091FA0368
:103E2000811105C080913903811110923903CF911E
:103E30001F910F91FF90EF90DF90CF90BF90AF90C8
:103E40009F908F907F906F905F904F900895CF9349
:103E5000DF93EC010E948F2A89930A97D9F7DF91AB
:103E6000CF9108952F923F924F925F926F927F92DF
:103E70008F929F92AF92BF92CF92DF92EF92FF927A
:103E80000F931F93CF93DF93CDB7DEB7C05CD109FB
:103E90000FB6F894DEBF0FBECDBF0E94B22A8823B2
:103EA00009F4C0C07E0121EAE20EF11C9CE2C92E99
:103EB00093E0D92E5E0131E6A30EB11C24E2222E3E
:103EC00023E0322E36E9432E34E0532E42E9642EAD
:103ED00044E0742E0E948F2A8435910561F4C70155
:103EE0000E94271F8FE294E09F938F938BE294E0D0
:103EF0009F938F930AC08A34910571F4C7010E9481
:103F0000271F5F924F927F926F92DF92CF92FF9224
:103F1000EF920E9481307DC08735910509F07FC006
:103F2000C5010E94271F80E1EBE5F4E0DE01119658
:103F300001900D928A95E1F780E1EAEAF4E0DE0172
:103F4000519601900D928A95E1F780E1E3E4F4E067
:103F5000DE01919601900D928A95E1F780E1EAEBFE
:103F6000F4E0DE01D19601900D928A95E1F780E1AF
:103F7000EAE7F4E0DE01AF5BBF4F01900D928A9556
:103F8000E1F780E1EAEEF3E0DE01AF5ABF4F0190C6
:103F90000D928A95E1F7CE0101964C0100E010E008
:103FA00002C00F5F1F4F90E1890E911CF4017097C2
:103FB00020E030E040E85FEB608171818281938195
:103FC0000E9441278111EDCF84E0000F111F8A95D7
:103FD000E1F7C8010C9621E030E02C0F3D1F820F65
:103FE000931F9F938F93C8010896820F931F9F93EF
:103FF0008F93C8010496820F931F9F938F93020F94
:10400000131F1F930F933F922F92BF92AF920E9464
:1040100081300FB6F894DEBF0FBECDBF5BCF892BCA
:1040200009F058CFC054DF4F0FB6F894DEBF0FBE73
:10403000CDBFDF91CF911F910F91FF90EF90DF9057
:10404000CF90BF90AF909F908F907F906F905F9038
:104050004F903F902F9008950E94932080913A03B3
:10406000811141C00E94941B809176049091770445
:10407000892B21F00E94210B0E94DB1B80913B03C6
:10408000811102C00E94B8190E94760980913B03F9
:10409000811102C00E94001B80913B03811118C056
:1040A0000E94AB0520910104309102044091030469
:1040B000509104040E94A526609344037093450325
:1040C00080934603909347030E94E5120E94F711E4
:1040D0000E94870B0E94031E0E94E50A0E941B0A91
:1040E0000E94211702C00E946D070E94802086B5A1
:1040F00090E00C942A2F0E94A7070E942C20FDCF4D
:10410000CF93DF9360E080E00E941C23C4EED4E0F4
:10411000699181E00E94C12286E0CC3DD807C1F7B9
:10412000DF91CF910895E4EEF4E0119286E0EC3D4A
:10413000F807D9F7089584359105A8F5603371051E
:1041400090F59B0173E0359527957A95E1F76770B7
:10415000452BA1F044E5429FF001439FF00D11244F
:104160008E0F9F1FFC01EC51FB4F81E090E001C0DE
:10417000880F6A95EAF79081892B14C044E5429F25
:10418000F001439FF00D11248E0F9F1FFC01EC5195
:10419000FB4F81E090E001C0880F6A95EAF78095B7
:1041A00090818923808308952F923F924F925F924E
:1041B0006F927F928F929F92AF92BF92CF92DF9237
:1041C000EF92FF920F931F93CF93DF93CDB7DEB79C
:1041D0002E970FB6F894DEBF0FBECDBF1C013B017A
:1041E0002A013A8329838417950771F57C836B83B1
:1041F00029813A81621673069CF48B819C81281771
:1042000039070CF41AC1A8016B817C81C1010E949D
:104210009B202B813C812F5F3F4F3C832B83E8CF3A
:10422000AB81BC8129813A81A217B3070CF405C187
:10423000A8016B817C81C1010E949B208B819C81A4
:1042400001979C838B83D4CF89819A8168177907E2
:1042500051F53A822982241435049CF4A981BA814B
:104260004A165B060CF4E9C0A801B30189819A8162
:104270000E949B2029813A812F5F3F4F3A832983F7
:10428000EACF29813A81241535050CF4D6C0A8015E
:10429000B30189819A810E949B20A981BA811197DB
:1042A000BA83A983D8CF4215530554F4872D69806A
:1042B0007A8069838A83922D832D1A01492E582E84
:1042C000B20162197309072E000C880B990B0E942A
:1042D000F5276F83788789879A8769817A8166193C
:1042E0007709072E000C880B990B0E94F5274B01CC
:1042F0005C012F81388549855A850E944B276B8345
:104300007C838D839E8320E030E0A9010E94632995
:1043100087FF09C08B819C81AD81BE81B0588B83A2
:104320009C83AD83BE83C12CD12C760120E030E08C
:10433000A9016F81788589859A850E94632918165D
:104340000CF077C0421453040CF477C0A801B301F9
:10435000C1010E949B202B813C814D815E81C70160
:10436000B6010E94A6266B017C0120E030E040E00F
:104370005FE30E94632987FF10C020E030E0A901BD
:104380006F81788589859A850E94632918160CF0BB
:104390004CC09FEF291A390AC9CF20E030E0A901AB
:1043A000C501B4010E9463291816CCF529813A8110
:1043B0002615370514F3A801B301C1010E949B2003
:1043C000A1E0B0E0BC87AB8720E030E0A901C501E7
:1043D000B4010E946329181614F01C861B8621E084
:1043E00030E03E872D8720E030E0A901C501B4010F
:1043F0000E94412787FD02C01E861D868B859C85F5
:10440000AD85BE858A1B9B0B680E791E20E030E0CF
:1044100040E85FE3C701B6010E94A526A4CF8981C9
:104420009A81681679063CF6A8CFA1E02A1A3108CD
:104430007DCF241435040CF089CF2E960FB6F89456
:10444000DEBF0FBECDBFDF91CF911F910F91FF90C7
:10445000EF90DF90CF90BF90AF909F908F907F9024
:104460006F905F904F903F902F9008952F923F92C2
:104470004F925F926F927F928F929F92AF92BF9274
:10448000CF92DF92EF92FF920F931F93CF93DF9320
:104490006C014B01190185E0489F20011124E12C9A
:1044A000F12C80EA481A510866246394712CF201B9
:1044B000EE0DFF1DE857FD4FE4912114310409F47E
:1044C000E09500E010E0CE2FD0E05601AE0CBF1C0E
:1044D000A301002E02C0440F551F0A94E2F74C239B
:1044E0005D23002E02C0559547950A94E2F7B4016A
:1044F000600F711FC5010E949B200F5F1F4F083086
:10450000110531F78FEFE81AF80A85E0E816F10493
:1045100071F6DF91CF911F910F91FF90EF90DF9097
:10452000CF90BF90AF909F908F907F906F905F9053
:104530004F903F902F900895CF92DF92EF92FF928D
:104540000F931F93CF93DF937B018A016901D82FCB
:10455000C0E0F801EC0FF11D4081442349F09601C1
:10456000B7018D2F90E00E943622DB5FCF5FF1CF45
:10457000DF91CF911F910F91FF90EF90DF90CF903F
:10458000089525B12F7D30E2839FC0011124822B35
:1045900085B95F9887E090E070E08F989B01082EC6
:1045A00002C0359527950A94E2F720FF02C02E9AA3
:1045B00001C02E988F9A019780F75F9A0895CF9344
:1045C000C82F579A249A259A269A879A2C985F9AE8
:1045D0002C9A61E280E00E94C1226C2F606880E02A
:1045E0000E94C12264E080E00E94C12263E180E079
:1045F0000E94C1226CE080E00E94C12260E280E063
:104600000E94C1226CE080E00E94C12260E480E050
:104610000E94C12260E880E0CF910C94C122CF9328
:10462000DF93C8EFD1E060E081E00E94C1222197D2
:10463000D1F7DF91CF910895CF93C82F606480E0C8
:104640000E94C1226C2F606880E0CF910C94C1223F
:10465000A0E1B0E0EEE2F3E20C94A22E7C011B019B
:104660006A01FC0117821682838181FF44C39E0187
:104670002F5F3F4F3901F7019381F10193FD859140
:1046800093FF81911F01882309F431C3853239F4E6
:1046900093FD859193FF81911F01853239F4B70114
:1046A00090E00E94233056016501E5CF10E0512CC7
:1046B000912CFFE1F915D8F08B3279F038F4803283
:1046C00079F08332A1F4F92DF0612EC08D3261F0C2
:1046D000803369F4292D21602DC0392D3260932E4D
:1046E000892D8460982E2AC0E92DE86015C097FCBA
:1046F0002DC020ED280F2A3088F496FE06C03AE03F
:10470000139F200D1124122F19C08AE0589E200DEE
:104710001124522EE92DE0629E2E10C08E3231F40B
:1047200096FCE5C2F92DF0649F2E08C08C3621F46A
:10473000292D2068922E02C0883641F4F10193FDA4
:10474000859193FF81911F018111B3CF9BEB980F4E
:10475000933020F4992D9061805E07C09BE9980FFB
:10476000933008F066C1992D9F7E96FF16E09F73E7
:10477000992E853619F49064992E08C0863621F456
:10478000392F3068932E02C01111115097FE07C0C7
:104790001C3350F444244394410E27E00BC01830DE
:1047A00038F027E017E005C027E09CE3492E02C05F
:1047B000212F412C560184E0A80EB11CF601608126
:1047C000718182819381042DA3010E94352F6C0198
:1047D000F981FC87F0FF02C0F3FF06C091FC06C020
:1047E00092FE06C000E205C00DE203C00BE201C06C
:1047F00000E08C858C7019F001115AC29BC297FEA3
:1048000010C04C0CFC85F4FF04C08A81813309F48C
:104810004A94141474F528E0241578F588E0482E9D
:104820002CC096FC2AC0812F90E08C159D059CF031
:104830003CEFC3163FEFD30674F0892D8068982EA5
:104840000AC0E2E0F0E0EC0FFD1FE10FF11D8081F6
:10485000803319F411501111F4CF97FE0EC0442487
:104860004394410E812F90E0C816D9062CF41C19F0
:1048700004C04424439401C010E097FE06C01C14F9
:104880001D0434F4C601019605C085E090E002C025
:1048900081E090E001110196112331F0212F30E0E9
:1048A0002F5F3F4F820F931F252D30E08217930714
:1048B00014F4581A01C0512C892D897049F45520DF
:1048C00039F0B70180E290E00E9423305A94F7CF8C
:1048D000002329F0B701802F90E00E94233093FC41
:1048E00009C0552039F0B70180E390E00E942330E1
:1048F0005A94F7CF97FE4CC04601D7FE02C0812CD8
:10490000912CC60188199909F301E80FF91FFE8758
:10491000ED87960124193109388B2F87012F10E07C
:104920001195019511093FEF8316930629F4B701FC
:104930008EE290E00E942330C814D9044CF08F8599
:1049400098898815990524F4ED85FE85818101C03B
:1049500080E3F1E08F1A91082D853E852F5F3F4F50
:104960003E872D87801691062CF0B70190E00E94BB
:104970002330D9CFC814D90441F49A81963320F456
:10498000953319F43C8534FF81E3B70190E04EC0C4
:104990008A81813319F09C859F7E9C87B70190E0C6
:1049A0000E942330111105C094FC18C085E690E0E8
:1049B00017C0B7018EE290E00E9423301E5F82E0B4
:1049C00001E0080FF301E80FF11D8081B70190E0CD
:1049D0000E942330802F0113F3CFE6CF85E490E0CF
:1049E000B7010E942330D7FC06C0C114D10441F4A2
:1049F000EC85E4FF05C0D194C194D1088DE201C0DB
:104A00008BE2B70190E00E94233080E32AE0C216D7
:104A1000D1042CF08F5FFAE0CF1AD108F7CFB7019D
:104A200090E00E942330B701C601C0960E94233057
:104A300054C1833631F0833779F0833509F056C09D
:104A400020C0560132E0A30EB11CF601808189839B
:104A500001E010E0630112C05601F2E0AF0EB11C9C
:104A6000F601C080D18096FE03C0612F70E002C0C5
:104A70006FEF7FEFC6010E9418308C01F92DFF7790
:104A800014C0560122E0A20EB11CF601C080D180F4
:104A900096FE03C0612F70E002C06FEF7FEFC6018A
:104AA0000E940D308C01F92DF0689F2EF3FD1AC085
:104AB000852D90E008171907A8F4B70180E290E06F
:104AC0000E9423305A94F4CFF60197FC859197FE0B
:104AD00081916F01B70190E00E94233051105A94E8
:104AE000015011090115110579F7F7C0843611F04D
:104AF000893661F5560197FE09C024E0A20EB11C6B
:104B0000F60160817181828193810AC0F2E0AF0E6B
:104B1000B11CF60160817181072E000C880B990B86
:104B2000F92DFF769F2E97FF09C09095809570957F
:104B300061957F4F8F4F9F4FF0689F2E2AE030E0A6
:104B4000A3010E94C630C82EC6183FC0092D853764
:104B500021F40F7E2AE030E01DC0097F8F3691F0EE
:104B600018F4883559F0C3C0803719F0883711F030
:104B7000BEC0006104FF09C0046007C094FE08C005
:104B8000066006C028E030E005C020E130E002C049
:104B900020E132E0560107FF09C084E0A80EB11CF5
:104BA000F601608171818281938108C0F2E0AF0ECD
:104BB000B11CF6016081718180E090E0A3010E9448
:104BC000C630C82EC6180F77902E96FE0BC0092D42
:104BD0000E7FC11650F494FE0AC092FC08C0092D45
:104BE0000E7E05C0DC2C092D03C0DC2C01C0D12EAB
:104BF00004FF0DC0FE01EC0DF11D8081803311F426
:104C0000097E09C002FF06C0D394D39404C0802F4C
:104C1000867809F0D39403FD11C000FF06C01C2D57
:104C2000D51480F4150D1D190DC0D51458F4B70115
:104C300080E290E00E942330D394F7CFD51410F493
:104C40005D1801C0512C04FF10C0B70180E390E053
:104C50000E94233002FF17C001FD03C088E790E0E7
:104C600002C088E590E0B7010CC0802F867859F02B
:104C700001FF02C08BE201C080E207FD8DE2B701B7
:104C800090E00E942330C11638F4B70180E390E031
:104C90000E9423301150F7CFCA94F301EC0DF11D9F
:104CA0008081B70190E00E942330C110F5CF15C07C
:104CB000F4E0F51560F584E0581A93FE1FC0011169
:104CC00027C02C8523FF2AC00AE711E0392D307157
:104CD000932EF8018491811124C0552009F4E4CC6D
:104CE000B70180E290E00E9423305A94F6CFF7019A
:104CF0008681978126C08FEF9FEF23C0B70180E2A6
:104D000090E00E9423305A945110F8CFD8CF512C04
:104D1000B701802F90E00E942330D3CF0EE711E03F
:104D2000D5CF91108052B70190E00E9423300F5FE1
:104D30001F4FCFCF23E0251510F483E0BDCF512CBA
:104D4000C0CF6096E2E10C94BE2E5058BB27AA2734
:104D50000E94BD260C94FD280E94C42838F00E94B1
:104D6000CB2820F039F49F3F19F426F40C949A28AC
:104D70000EF4E095E7FB0C946B28E92F0E942229A2
:104D800058F3BA17620773078407950720F079F480
:104D9000A6F50C945C290EF4E0950B2EBA2FA02DED
:104DA0000B01B90190010C01CA01A0011124FF27D8
:104DB000591B99F0593F50F4503E68F11A16F040D3
:104DC000A22F232F342F4427585FF3CF46953795D2
:104DD0002795A795F0405395C9F77EF41F16BA0B97
:104DE000620B730B840BBAF09150A1F0FF0FBB1F45
:104DF000661F771F881FC2F70EC0BA0F621F731F8E
:104E0000841F48F4879577956795B795F7959E3FEA
:104E100008F0B0CF9395880F08F09927EE0F97957B
:104E200087950895DF93DD27B92FBF7740E85FE3CB
:104E30001616170648075B0718F4D92F0E94682931
:104E40009F938F937F936F930E944F2AECEAF0E039
:104E50000E949D280E94FD282F913F914F915F91C4
:104E60000E948329DD2351F09058A2EA2AED3FE009
:104E700049EC5FE3D0785D270E94BD26DF910C945A
:104E8000FD280E94472808F481E008950E94D42854
:104E9000E3950C940E290E945F270C94FD280E9434
:104EA000CB2858F00E94C42840F029F45F3F29F035
:104EB0000C946B2851110C945D290C949A280E9433
:104EC000222968F39923B1F3552391F3951B550BD0
:104ED000BB27AA2762177307840738F09F5F5F4FCD
:104EE000220F331F441FAA1FA9F335D00E2E3AF00C
:104EF000E0E832D091505040E695001CCAF72BD024
:104F0000FE2F29D0660F771F881FBB1F2617370774
:104F10004807AB07B0E809F0BB0B802DBF01FF27A6
:104F200093585F4F3AF09E3F510578F00C946B28F0
:104F30000C945D295F3FE4F3983ED4F38695779512
:104F40006795B795F7959F5FC9F7880F911D96955F
:104F5000879597F90895E1E0660F771F881FBB1FBB
:104F6000621773078407BA0720F0621B730B840B68
:104F7000BA0BEE1F88F7E09508950E94C427689445
:104F8000B1110C945D2908950E942A2988F09F5739
:104F900098F0B92F9927B751B0F0E1F0660F771F5D
:104FA000881F991F1AF0BA95C9F714C0B13091F053
:104FB0000E945C29B1E008950C945C29672F782F3A
:104FC0008827B85F39F0B93FCCF386957795679518
:104FD000B395D9F73EF490958095709561957F4F84
:104FE0008F4F9F4F0895E89409C097FB3EF490952A
:104FF0008095709561957F4F8F4F9F4F9923A9F0B2
:10500000F92F96E9BB279395F69587957795679540
:10501000B795F111F8CFFAF4BB0F11F460FF1BC084
:105020006F5F7F4F8F4F9F4F16C0882311F096E917
:1050300011C0772321F09EE8872F762F05C06623C5
:1050400071F096E8862F70E060E02AF09A95660F7E
:10505000771F881FDAF7880F9695879597F9089537
:105060000E94442990F09F3748F4911116F00C9457
:105070005D2960E070E080E89FEB089526F41B1640
:10508000611D711D811D0C9471280C948C28990F41
:105090000008550FAA0BE0E8FEEF16161706E80702
:1050A000F907C0F012161306E407F50798F0621B23
:1050B000730B840B950B39F40A2661F0232B242BF8
:1050C000252B21F408950A2609F4A140A6958FEF17
:1050D000811D811D089597F99F6780E870E060E069
:1050E0000895882371F4772321F09850872B762F29
:1050F00007C0662311F499270DC09051862B70E0EC
:1051000060E02AF09A95660F771F881FDAF7880FFC
:105110009695879597F908959F3F31F0915020F427
:10512000879577956795B795880F911D9695879583
:1051300097F908959FEF80EC0895DF93CF931F9325
:105140000F93FF92EF92DF927B018C01689406C06F
:10515000DA2EEF010E948329FE01E894A5912591A2
:10516000359145915591A6F3EF010E94BD26FE01B0
:105170009701A801DA9469F7DF90EF90FF900F9103
:105180001F91CF91DF91089500240A9416161706F7
:1051900018060906089500240A9412161306140628
:1051A000050608950C949A280E942A29D8F3E894B9
:1051B000E0E0BB279F57F0F02AED3FE049EC06C046
:1051C000EE0FBB0F661F771F881F28F0B23A6207E9
:1051D0007307840728F0B25A620B730B840BE395B4
:1051E0009A9572F7803830F49A95BB0F661F771F37
:1051F000881FD2F790480C948E28092E0394000C37
:1052000011F4882352F0BB0F40F4BF2B11F460FF60
:1052100004C06F5F7F4F8F4F9F4F0895EF93E0FF64
:1052200007C0A2EA2AED3FE049EC5FEB0E94BD26F1
:105230000E94FD280F90039401FC9058E9EDF0E0E6
:105240000C945A2A57FD9058440F551F59F05F3F50
:1052500071F04795880F97FB991F61F09F3F79F098
:1052600087950895121613061406551FF2CF46951A
:10527000F1DF08C0161617061806991FF1CF86959C
:1052800071056105089408950E942A29A0F0BEE7DF
:10529000B91788F4BB279F3860F41616B11D672F25
:1052A000782F8827985FF7CF869577956795B11DFA
:1052B00093959639C8F30895E894BB276627772716
:1052C000CB0197F908950E94472808F48FEF0895BD
:1052D0009B01AC0160E070E080E89FE30C944B27F9
:1052E0000E9483290C94FD280E94C42838F00E9453
:1052F000CB2820F0952311F00C946B280C949A285D
:1053000011240C945D290E94222970F3959FC1F30A
:10531000950F50E0551F629FF001729FBB27F00D63
:10532000B11D639FAA27F00DB11DAA1F649F6627B8
:10533000B00DA11D661F829F2227B00DA11D621F07
:10534000739FB00DA11D621F839FA00D611D221FC1
:10535000749F3327A00D611D231F849F600D211DA5
:10536000822F762F6A2F11249F5750409AF0F1F028
:1053700088234AF0EE0FFF1FBB1F661F771F881F91
:1053800091505040A9F79E3F510580F00C946B2836
:105390000C945D295F3FE4F3983ED4F386957795AE
:1053A0006795B795F795E7959F5FC1F7FE2B880F37
:1053B000911D9695879597F908950E942A29E8F0FE
:1053C0009E37E8F09639B8F49E3848F4672F782F66
:1053D0008827985FF9CF8695779567959395953946
:1053E000D0F3B62FB1706B0F711D811D20F487951E
:1053F0007795679593950C9471280C948C280C9450
:105400005D299F930E94D4280F9007FCEE5F0C94B7
:105410000E2919F416F40C949A280C948C280E94E6
:105420002A29B8F39923C9F3B6F39F57550B87FF81
:105430000E94532A0024A0E640EA90018058569525
:10544000979528F4805C660F771F881F20F0261739
:105450003707480730F4621B730B840B202931296E
:105460004A2BA69517940794202531254A2758F7EB
:10547000660F771F881F20F026173707480730F47C
:10548000620B730B840B200D311D411DA09581F71C
:10549000B901842F9158880F9695879508959B019F
:1054A000AC010C94702991505040660F771F881FF3
:1054B000D2F708959F938F937F936F93FF93EF930A
:1054C0009B01AC010E947029EF91FF910E949D28E1
:1054D0002F913F914F915F910C9470298091E8003A
:1054E00080FFFCCF089581E08093D70080EA80930D
:1054F000D80082E189BD09B400FEFDCF80E9809328
:10550000D8001092E00010924303109240038CE008
:105510008093E200789408958091430308959FB7A3
:10552000F89480914303882369F083E08093E90035
:105530002BE68091E80085FD09C082FF03C020931F
:10554000E800F7CF9FBF8FEF9FEF08958091F100A4
:105550002091E80025FD03C02BE62093E8009FBFC3
:1055600090E008952FB7F89480914303811102C011
:1055700080E010C083E08093E9008091F200811107
:1055800009C09091E80092FFF3CF95FDF1CF9BE623
:105590009093E8002FBF089580914303882371F012
:1055A0008FB7F89493E09093E9002BE69091E80090
:1055B00095FF03C02093E800F9CF8FBF0895909125
:1055C0004303992371F09FB7F89424E02093E900F6
:1055D00020914103222349F02091E80025FD03C0DA
:1055E0009FBF8FEF0895109241032091E400275E42
:1055F00034E04091E80045FD12C09FBF9091E40067
:10560000291304C081E080934103EBCF90914303C1
:10561000992339F39FB7F8943093E900EACF809348
:10562000F1008091E80085FD03C08AE38093E800E3
:1056300085E0809342039FBF80E0089590914303EB
:105640009923D1F09FB7F89424E02093E9002091AA
:10565000E80025FD02C09FBF0FC08093F10080913C
:10566000E80085FD03C08AE38093E80085E080932D
:1056700042039FBF80E008958FEF08950F931F931B
:10568000CF93DF93DC01CB0120914303222371F000
:105690002FB7F89434E03093E9003091410333237D
:1056A00049F03091E80035FD03C02FBF8FEF43C1B3
:1056B00010924103C4E0D0E41AE305E0009709F436
:1056C00039C13091E400375E4091E80045FD12C0D9
:1056D0002FBF2091E400321304C081E08093410386
:1056E000E5CF20914303222309F32FB7F894C09309
:1056F000E900EACF3091F200ED2FE31B4E2F50E08E
:105700008417950708F4E82F8E1B91094E2F50E05F
:105710004134510508F001C1FA01E458FF4F0C94DF
:105720009C2E3C913093F10011963C913093F10006
:1057300011963C913093F10011963C913093F10019
:1057400011963C913093F10011963C913093F10009
:1057500011963C913093F10011963C913093F100F9
:1057600011963C913093F10011963C913093F100E9
:1057700011963C913093F10011963C913093F100D9
:1057800011963C913093F10011963C913093F100C9
:1057900011963C913093F10011963C913093F100B9
:1057A00011963C913093F10011963C913093F100A9
:1057B00011963C913093F10011963C913093F10099
:1057C00011963C913093F10011963C913093F10089
:1057D00011963C913093F10011963C913093F10079
:1057E00011963C913093F10011963C913093F10069
:1057F00011963C913093F10011963C913093F10059
:1058000011963C913093F10011963C913093F10048
:1058100011963C913093F10011963C913093F10038
:1058200011963C913093F10011963C913093F10028
:1058300011963C913093F10011963C913093F10018
:1058400011963C913093F10011963C913093F10008
:1058500011963C913093F10011963C913093F100F8
:1058600011963C913093F10011963C913093F100E8
:1058700011963C913093F10011963C913093F100D8
:1058800011963C913093F10011963C913093F100C8
:1058900011963C913093F10011963C913093F100B8
:1058A00011963C913093F10011963C913093F100A8
:1058B00011963C913093F10011963C913093F10098
:1058C00011963C913093F10011963C913093F10088
:1058D00011963C913093F10011963C913093F10078
:1058E00011963C913093F10011963C913093F10068
:1058F00011963C913093F10011963C913093F10058
:1059000011963C913093F10011963C913093F10047
:1059100011963C913093F10011963C913093F10037
:1059200011963091E80035FF1093E8000093420390
:105930002FBFC4CE80E0DF91CF911F910F910895CA
:105940008FB7F89490914203992341F094E090939B
:10595000E9009AE39093E800109242038FBF089504
:105960006091C6017091C7018091C8019091C901F1
:1059700008958091CA0108958091CB010895809186
:10598000CC0108958091400308959FB7F894209129
:105990004303222339F022E02093E9002091E8001C
:1059A00025FD03C09FBF8FEF089521EA2093F100EA
:1059B00020E22093F1001092F1001092F100109279
:1059C000F1001092F10021E02093F1001092F1001B
:1059D0008093F1008AE38093E8009FBF80E0089500
:1059E0001F920F920FB60F9211248F939F93809165
:1059F000E1001092E10083FF11C01092E90091E0F4
:105A00009093EB001092EC0092E19093ED0098E0FF
:105A10009093F000109243031092400382FF13C052
:105A200080914303882379F080914203882359F0C1
:105A3000815080934203811106C084E08093E90085
:105A40008AE38093E8009F918F910F900FBE0F9093
:105A50001F9018951F920F920FB60F921124FF926C
:105A60000F931F932F933F934F935F936F937F9366
:105A70008F939F93AF93BF93CF93DF93EF93FF9356
:105A80001092E9008091E80083FF17C1F090F100C7
:105A90008091F1000091F1009091F10010E0192B3C
:105AA000C091F1009091F100D0E0D92B2091F1004C
:105AB0006091F10092EF9093E800863009F049C0C0
:105AC00088E694E042E954E0FC01A591B4910A17FC
:105AD0001B07D9F4FC013296A591B491CA17DB07D4
